0610068ECLIPSE             GROUP MEDICAL SERV  200-300 HILLSDALE STREET      REGINA         SKS4S7J83063527638202601212026012028803                                                                                                                                                                                                                                                                                                                                                                                                                                                                                                                                                                                                                                           
20000042154PHARMASAVE #405               BOX #579                           219 KAISER WILHELM AVE             LANGENBURG                         SKS0A2A03067432333E1NEIGHBOUR Y                                                                                                                                                                                                                                                                                                                                                                                                                                                                                                                                                                                             
4S503905777555314202601202026012000E0000042154001958800195882026012002245058APO-OMEPRAZOLE 20MG CAP       APO-OMEPRAZOLE 20MG CAP.      060000000000030030WEISS          LEAH        WEISS          RANDY       19571123M49344262    344262   169852         1011 000731000110000000000000001215000000000000000000000000000000002056000840000000000000000000001215000000000000000000000000000411001644000000000000000000000000000000000000000000 E2DGD4D8WH  00000028000000840000-00109562836FF CA 1220000000000000                   Y202606014                       9348      000006          06              DA  000000D5137 03  R74 001958829001958829R000300000300       KC         71E2DJ              Y   0000008 G9348           71000000                            
5S503908652555339202601202026012000E0000042154001958600195862026011502481227MAR-DAPSONE 100MG TAB         MAR-DAPSONE 100MG CO.         030000000000030030WEISS          LEAH        WEISS          LEAH        19570822F49344262    344262   169852         1000 002247000225000000000000001215000000000000000000000000000000003687002472000000000000000000001215000000000000000000000000000737002950000000000000000000000000000000000000000000               000082001002472000-00225081692FF TA 1220000000000000                   Y202606014S503892388555185       134320    000003          03              DA  000000D5039 03  R16 001958635001958635N000300000300       KC         71                  Y   000000  G134320         71000000                            
4S503908779555340202601202026012010E0000042154001958800195882026012002528495GLN-ATOVAQUONE 750MG/5ML O/L  GLN-ATOVAQUONE 750MG/5ML SOL. 030000000000300030WEISS          LEAH        WEISS          LEAH        19570822F49344262    344262   169852         1000 075994002000000000000000001215000000000000000000000000000000079209000000000000000000000000000000000000000000000000000000000000000000000000000000000000000000000000000000000000 E2KT        00000000000000000000000000083012FF O/ 1220000000000000                   N000000004                       134320    000003          03              DA  000000D5137 03  R16 001958890001958890N003000000000       KC         71E286              E   000000  G134320         71000000                            
4S503908826555341202601202026012010E0000042154001958800195882026012002528495GLN-ATOVAQUONE 750MG/5ML O/L  GLN-ATOVAQUONE 750MG/5ML SOL. 040000000000210021WEISS          LEAH        WEISS          LEAH        19570822F49344262    344262   169852         1000 053196002000000000000000001215000000000000000000000000000000056411000000000000000000000000000000000000000000000000000000000000000000000000000000000000000000000000000000000000 E2KT        00000000000000000000000000083012FF O/ 1220000000000000                   N000000004                       134320    000004          04              DA  000000D5137 03  R16 001958891001958891N002100000000       KC         71E286              E   000000  G134320         71000000                            
4S503908829555342202601202026012010E0000042154001958800195882026012002528495GLN-ATOVAQUONE 750MG/5ML O/L  GLN-ATOVAQUONE 750MG/5ML SOL. 040000000000210021WEISS          LEAH        WEISS          LEAH        19570822F49344262    344262   169852         1000 053196002000000000000000001215000000000000000000000000000000056411000000000000000000000000000000000000000000000000000000000000000000000000000000000000000000000000000000000000 E2KT        00000000000000000000000000083012FF O/ 1220000000000000                   N000000004                       134320    000004          04              DA  000000D5137 03  R16 001958892001958892N002100000000       KC         71E286              E   000000  G134320         71000000                            
4S503908831555343202601202026012000E0000042154001958800195882026012002528495GLN-ATOVAQUONE 750MG/5ML O/L  GLN-ATOVAQUONE 750MG/5ML SOL. 040000000000210021WEISS          LEAH        WEISS          LEAH        19570822F49344262    344262   169852         1000 053196002000000000000000001215000000000000000000000000000000056411055195000000000000000000001215000000000000000000000000011282045128000000000000000000000000000000000000000000 E2LMDGD4D8WH00000262833055195000-01999083012FF O/ 1220000000000000                   Y202606014S503908834555344       134320    000004          04              DADX000000D5137 03  R16 001958892001958892N002100002100       KC         71E2DJ              E   0000008 G134320         71000000                            
5S503908834555344202601202026012000E0000042154001958800195882026012002528495GLN-ATOVAQUONE 750MG/5ML O/L  GLN-ATOVAQUONE 750MG/5ML SOL. 040000000000210021WEISS          LEAH        WEISS          LEAH        19570822F49344262    344262   169852         1000 053196002000000000000000001215000000000000000000000000000000056411055195000000000000000000001215000000000000000000000000011282045128000000000000000000000000000000000000000000               000262334055195000-01999083012FF O/ 1220000000000000                   Y202606014S503908831555343       134320    000004          04              DADX000000D5137 03  R16 001958892001958892N002100002100       KC         71                  E   000000  G134320         71000000                            
4S503908837555345202601202026012010E0000042154001958800195882026012002528495GLN-ATOVAQUONE 750MG/5ML O/L  GLN-ATOVAQUONE 750MG/5ML SOL. 030000000000300030WEISS          LEAH        WEISS          LEAH        19570822F49344262    344262   169852         1000 075994002000000000000000001215000000000000000000000000000000079209000000000000000000000000000000000000000000000000000000000000000000000000000000000000000000000000000000000000 E2KT        00000000000000000000000000083012FF O/ 1220000000000000                   N000000004                       134320    000003          03              DA  000000D5137 03  R16 001958893001958893N003000000000       KC         71E286              E   000000  G134320         71000000                            
4S503908839555346202601202026012000E0000042154001958800195882026012002528495GLN-ATOVAQUONE 750MG/5ML O/L  GLN-ATOVAQUONE 750MG/5ML SOL. 030000000000300030WEISS          LEAH        WEISS          LEAH        19570822F49344262    344262   169852         1000 075994002000000000000000001215000000000000000000000000000000079209063239000000000000000000001215000000000000000000000000012891051563000000000000000000000000000000000000000000 E2LMDGDID4D800000259977063239000012755083012FF O/ 1220000000000000                   Y202606014                       134320    000003          03              DADX000000D5137 03  R16 001958893001958893N003000003000       KC         71E2DJRS            E   0000008 G134320         71000000                            
60000110005025700146413                                                                                                                                                                                                                                                                                                                                                                                                                                                                                                                                                                                                                                                                                                                                                       
20000042248DAVIS REXALL DRUGS LTD        110-1ST AVENUE WEST                P.O. BOX 1923                      NIPAWIN                            SKS0E1E03068623141E1NEIGHBOUR Y                                                                                                                                                                                                                                                                                                                                                                                                                                                                                                                                                                                             
4S503905989654676202601202026012000E0000042248005340900534092026012002436655AURO-DULOXETINE 60MG CAP      AURO-DULOXETINE 60MG CAP.     020000000000030030PELECH         TOM         PELECH         TOM         19630130M49310138    310138   528621         10003003120000312000000000000001215000000000000000000000000000000004647003432000000000000000000001215000000000000000000000600000000000934000000000000000000000000000000000000000000 E2D4D8WH    00000114400003432000-00312281604FF CA 1220000000000000                   Y202602154                       0038717   000002          02              DA  003113D2030 0367R84 005340986005340986R000300000300       KC         77E2                Y   0000008 G0038717        77000000                            
4S503906047654678202601202026012000E0000042248005340900534092026012002544253SANDOZ BISOPROLOL 2.5MG TAB   SANDOZ BISOPROLOL 2.5MG CO.   020000000000030030KELSEY         CONSTANCE   KELSEY         GLEN        19541212M49344262    344262   653647         10113000097000029000000000000001215000000000000000000000000000000001341000126000000000000000000001215000000000000000000000000000268001073000000000000000000000000000000000000000000 E2D4D8ERESWH00000004200000126000-00029242000FF TA 1220000000000000                   Y202606014                       11294     000002          02              DA  000000D5081 03  R46 005340988005340988R000300000300       KC         71E2ENEO            Y   0000008 G11294          71000000                            
4S503906052654679202601202026012000E0000042248005340900534092026012002251531APO-RAMIPRIL 2.5MG CAP        APO-RAMIPRIL 2.5MG CAP.       020000000000090030KELSEY         CONSTANCE   KELSEY         GLEN        19541212M49344262    344262   653647         10113000783000117000000000000001215000000000000000000000000000000002115000900000000000000000000001215000000000000000000000000000423001692000000000000000000000000000000000000000000 E2D4D8ERESWH00000010000000900000-00117243204FF CA 1220000000000000                   Y202606014                       11294     000002          02              DA  000000D5081 03  R44 005340989005340989R000900000900       KC         71E2ENEO            Y   0000008 G11294          71000000                            
4S503906059654680202601202026012000E0000042248005340900534092026012002313758TARO-ATORVASTATIN 80MG TAB    TARO-ATORVASTATIN 80MG CO.    020000000000030030KELSEY         CONSTANCE   KELSEY         GLEN        19541212M49344262    344262   653647         10113000749000112000000000000001215000000000000000000000000000000002076000861000000000000000000001215000000000000000000000000000415001661000000000000000000000000000000000000000000 E2D4D8ERESWH00000028700000861000-00112240608FF TA 1220000000000000                   Y202606014                       11294     000002          02              DA  000000D5081 03  R40 005340990005340990R000300000300       KC         71E2ENEO            Y   0000008 G11294          71000000                            
4S503906060654681202601202026012000E0000042248005340900534092026012002422662MAR-EZETIMIBE 10MG TAB        MAR-EZETIMIBE 10MG CO.        020000000000030030KELSEY         CONSTANCE   KELSEY         GLEN        19541212M49344262    344262   653647         10113000579000174000000000000001215000000000000000000000000000000001968000752000000000000000000001215000000000000000000000000000393001574000000000000000000000000000000000000000000 E2QODGD4D8ER00000025067000752000-00173240605FF TA 1220000000000000                   Y202606014                       11294     000002          02              DA  000000D5081 03  R40 005340991005340991R000300000300       KC         71E2QODJENEO        Y   0000008 G11294          71000000                            
4S503906253654692202601202026012000E0000042248005341000534102026012002309009ACTIVELLE LD 0.5/0.1MG TAB    ACTIVELLE LD 0.5/0.1MG CO.    020000000000028028KELSEY         CONSTANCE   KELSEY         CONSTANCE   19590704F49344262    344262   653647         10003008835000884000000000000001215000000000000000000000000000000010934009717000000000000000000001215000000000000000000000000002186008746000000000000000000000000000000000000000000 E2DGD4D8WH  00000347036009717000-00882681604FF TA 1220000000000000                   Y202606014                       D2736     000002          02              DA  000000D5081 03  R04 005341014005341014N000280000280       KC         76E2DJ              N   0000008  D2736          76000000                            
4S503906257654693202601202026012000E0000042248005341000534102026012002314185SANDOZ-RABEPRAZOLE EC 20MG TABSANDOZ-RABEPRAZOLE EC 20MG CO.020000000000030030KELSEY         CONSTANCE   KELSEY         CONSTANCE   19590704F49344262    344262   653647         10003000428000128000000000000001215000000000000000000000000000000001771000556000000000000000000001215000000000000000000000000000354001417000000000000000000000000000000000000000000 E2D4D8ERESWH00000018533000556000-00128562836FF TA 1220000000000000                   Y202606014                       D2736     000002          02              DA  000000D5081 03  R74 005341015005341015N000300000300       KC         76E2ENEO            Y   0000008 GD2736          76000000                            
4S503907620654909202601202026012000E0000042248005341200534122026012002284383SANDOZ-AMLODIPINE 5MG TAB     SANDOZ-AMLODIPINE 5MG CO.     020000000000030030WALCER         VELMA       WALCER         ALBIN       19431227M49344262    344262   646610         10113000429000129000000000000001215000000000000000000000000000000001773000558000000000000000000001215000000000000000000000000000074000298000000000000000000000000000000000000000000 E2D4D8WH    00000018600000558000-00129242808FF TA 1220000000000000                   Y202606014                       13438     000002          02              DA  001401D5081 03  R44 005341241005341241R000300000300       KC         71E2                Y   0000008 G13438          71000000                            
4S503907648654911202601202026012000E0000042248005341200534122026012002243519PMS-TERAZOSIN 2MG TAB         PMS-TERAZOSIN 2MG CO.         010000000000030030WALCER         VELMA       WALCER         ALBIN       19431227M49344262    344262   646610         10113001599000160000000000000001215000000000000000000000000000000002974001759000000000000000000001215000000000000000000000000000125000500000000000000000000000000000000000000000000 E2D4D8WH    00000058633001759000-00160241600FF TA 1220000000000000                   Y202606014                       13438     000001          01              DA  002349D5081 03  R44 005341244005341244R000300000300       KC         71E2                Y   0000008 G13438          71000000                            
4S503907649654914202601202026012000E0000042248005341200534122026012002378531PMS-ROSUVASTATIN 10MG TAB     PMS-ROSUVASTATIN 10MG CO.     020000000000030030WALCER         VELMA       WALCER         ALBIN       19431227M49344262    344262   646610         10113000433000130000000000000001215000000000000000000000000000000001778000562000000000000000000001215000000000000000000000000000074000298000000000000000000000000000000000000000000 E2DGD4D8WH  00000018733000562000-00129240608FF TA 1220000000000000                   Y202606014                       13438     000002          02              DA  001405D5081 03  R40 005341246005341246R000300000300       KC         71E2DJ              Y   0000008 G13438          71000000                            
4S503907653654917202601202026012000E0000042248005341200534122026012002534134JAMP SITAGLIPTIN 25MG TAB     JAMP SITAGLIPTIN 25MG CO.     020000000000030030WALCER         VELMA       WALCER         ALBIN       19431227M49344262    344262   646610         10113002619000262000000000000001215000000000000000000000000000000004096002881000000000000000000001215000000000000000000000000000819003277000000000000000000000000000000000000000000 E2QOD4D8WH  00000096033002881000-00262682005FF TA 1220000000000000                   Y202606014                       13438     000002          02              DADW000000D5081 03  R60 005341249005341249R000300000300       KC         71E2QO              E   0000008 G13438          71000000                            
4S503908144655156202601202026012010E0000042248005341600534162026012002063735PMS-BACLOFEN 10MG TAB         PMS-BACLOFEN 10MG CO.         000000000000015005KOSOWAN        DOUGLAS     LINDBERGH      CHERI       19900228F49310138    310138   506137         10113000255000076000000000000001215000000000000000000000000000000001546000000000000000000000000000000000000000000000000000000000000000000000000000000000000000000000000000000000000 E2HBCK      00000000000000000000000000122012F  TA 1220000000000000                   N000000004                       13624     000000          00              DA  000000D5332 03  R96 005341628005341628N000150000000       KC         71E2HBC4                000000  G13624          71000000                            
4S503908153655158202601202026012010E0000042248005341600534162026012002465124MAR-KETOROLAC 10MG TAB        MAR-KETOROLAC 10MG CO.        000000000000015015KOSOWAN        DOUGLAS     LINDBERGH      CHERI       19900228F49310138    310138   506137         10113000963000144000000000000001215000000000000000000000000000000002322000000000000000000000000000000000000000000000000000000000000000000000000000000000000000000000000000000000000 E2HBCK      00000000000000000000000000280804F  TA 1220000000000000                   N000000004                       13624     000000          00              DA  000000D5332 03  R24 005341629005341629N000150000000       KC         71E2HBC4                000000  G13624          71000000                            
4S503908519655205202601202026012000E0000042248005341600534162026012002326973SANDOZ CANDESARTAN 16MG TAB   SANDOZ-CANDESARTAN 16MG CO.   080000000000030030BELL           DONNA       BELL           DONNA       19560121F49344262    344262   703771         10003000729000109000000000000001215000000000000000000000000000000002053000838000000000000000000001215000000000000000000000000000230000920000000000000000000000000000000000000000000 E2D4D8WH    00000027933000838000-00109243208FF TA 1220000000000000                   Y202606014                       12368     000008          08              DA  000903D5081 03  R44 005341683005341683R000300000300       KC         71E2                Y   0000008 G12368          71000000                            
4S503908527655206202601202026012000E0000042248005341600534162026012002534681APO-LEVOTHYROXINE 100MCG TAB  APO-LEVOTHYROXINE 100MCG CO.  020000000000090090BELL           DONNA       BELL           DONNA       19560121F49344262    344262   703771         10003000441000132000000000000001215000000000000000000000000000000001788000573000000000000000000001215000000000000000000000000000200000801000000000000000000000000000000000000000000 E2D4D8WH    00000006367000573000-00132683604FF TA 1220000000000000                   Y202606014                       12368     000002          02              DA  000787D5081 03  R02 005341684005341684R000900000900       KC         71E2                Y   0000008 G12368          71000000                            
60000170002319100023191                                                                                                                                                                                                                                                                                                                                                                                                                                                                                                                                                                                                                                                                                                                                                       
20000042260PHARMASAVE #430               518 MAIN STREET                    BOX 27                             BROADVIEW                          SKS0G0K03066962274E1NEIGHBOUR Y                                                                                                                                                                                                                                                                                                                                                                                                                                                                                                                                                                                             
4S503905899887892202601202026012000E0000042260003514300351432026012002204525TEVA-ACEBUTOLOL 200MG TAB     TEVA-ACEBUTOLOL 200MG CO.     000000000000068034KEMP           MARLENE     KEMP           MARLENE     19630725F49344262    344262   117138         10003002034000203000000000000001215000000000000000000000000000000003452002237000000000000000000001215000000000000000000000000000228000911000000000000000000000000000000000000000000 E2D4D8WH    00000032897002237000-00203242000FF TA 1220000000000000                   Y202606014                       129948    000000          00              DA  002313D5036 03  R46 003514365003514365R000680000680       KC         77E2                Y   0000008 G129948         77000000                            
4S503905900887893202601202026012000E0000042260003514300351432026012002403870MAR-DOMPERIDONE 10MG TAB      MAR-DOMPERIDONE 10MG CO.      000000000000102034KEMP           MARLENE     KEMP           MARLENE     19630725F49344262    344262   117138         10003000465000140000000000000001215000000000000000000000000000000001820000604000000000000000000001215000000000000000000000000000120000480000000000000000000000000000000000000000000 E2DGD4D8WH  00000005922000604000-00139563200FF TA 1220000000000000                   Y202606014                       129948    000000          00              DA  001219D5036 03  R74 003514366003514366R001020001020       KC         77E2DJ              Y   0000008 G129948         77000000                            
4S503905901887894202601202026012000E0000042260003514300351432026012002321149MYLAN-NIFEDIPINE ER 60MG TAB  MYLAN-NIFEDIPINE ER 60MG CO.  000000000000034034KEMP           MARLENE     KEMP           MARLENE     19630725F49344262    344262   117138         10003003395000339000000000000001215000000000000000000000000000000004949003734000000000000000000001215000000000000000000000000000327001306000000000000000000000000000000000000000000 E2D4D8WH    00000109824003734000-00339242808FF TA 1220000000000000                   Y202606014                       129948    000000          00              DA  003316D5036 0361R46 003514367003514367R000340000340       KC         77E2                Y   0000008 G129948         77000000                            
60000050000269700002697                                                                                                                                                                                                                                                                                                                                                                                                                                                                                                                                                                                                                                                                                                                                                       
20000042269PHARMASAVE #412               203 BROADWAY STREET                BOX 1030                           FORT QU'APPELLE                    SKS0G1S03063325717E1NEIGHBOUR Y                                                                                                                                                                                                                                                                                                                                                                                                                                                                                                                                                                                             
4S503906396165357202601202026012000E0000042269003763000376302026012002361760ZENHALE 5/200MCG INH          ZENHALE 5/200MCG INH          000000000000360090MORTON         CLARA       MORTON         BEVERLEY    19400919M49344262    344262   673724         10113045207002000000000000000001215000000000000000000000000000000048422047207000000000000000000001215000000000000000000000000000500002000000000000000000000000000000000000000000000 E2D4D8WH    00000131131047207000-02000121208FF IN 1220000000000000                   Y202606014                       D4870     000000          00              DA  045922D4870 0369R32 003763047003763047N003600003600       KC         76E2                E   0000008  D4870          76000000                            
4S503906638165385202601202026012000E0000042269003763000376302026012002172119SYNTHROID 125MCG TAB          SYNTHROID 125MCG CO.          000000000000090090MORTON         CLARA       MORTON         BEVERLEY    19400919M49344262    344262   673724         10113001215000182000000000000001215000000000000000000000000000000002612000761000000000000000000001215000000000000000000000000000257001027000000000000000000000000000000000000000000 DFE2D4D8WH  00000008456000761000000454683604FF TA 1220000000000000                   Y202606014                       D4870     000000          00              DA  000692D4870 03  R02 003763079003763079N000900000900       KC         76D8E2              Y   0000008 BD4870          76000000                            
4S503906659165387202601202026012000E0000042269003763000376302026012002403323AURO-LOSARTAN 25MG TAB        AURO-LOSARTAN 25MG CO.        000000000000090090MORTON         CLARA       MORTON         BEVERLEY    19400919M49344262    344262   673724         10113003017000302000000000000001215000000000000000000000000000000004534003318000000000000000000001215000000000000000000000000000500001999000000000000000000000000000000000000000000 E2DGD4D8WH  00000036867003318000-00301243208FF TA 1220000000000000                   Y202606014                       D4870     000000          00              DA  002034D4870 03  R44 003763086003763086N000900000900       KC         76E2DJ              Y   0000008 GD4870          76000000                            
4S503906676165388202601202026012000E0000042269003763000376302026012002354624TEVA-ROSUVASTATIN 20MG TAB    TEVA-ROSUVASTATIN 20MG CO.    000000000000090090MORTON         CLARA       MORTON         BEVERLEY    19400919M49344262    344262   673724         10113001622000162000000000000001215000000000000000000000000000000002999001784000000000000000000001215000000000000000000000000000390001559000000000000000000000000000000000000000000 E2D4D8WH    00000019822001784000-00162240608FF TA 1220000000000000                   Y202606014                       D4870     000000          00              DA  001050D4870 03  R40 003763088003763088N000900000900       KC         76E2                Y   0000008 GD4870          76000000                            
4S503906699165391202601202026012000E0000042269003763000376302026012002246010APO-METOPROLOL 25MG TAB       APO-METOPROLOL 25MG CO.       000000000000360090MORTON         CLARA       MORTON         BEVERLEY    19400919M49344262    344262   673724         10113002465000247000000000000001215000000000000000000000000000000003927002712000000000000000000001215000000000000000000000000000500001999000000000000000000000000000000000000000000 E2D4D8WH    00000007533002712000-00247242000FF TA 1220000000000000                   Y202606014                       D4870     000000          00              DA  001428D4870 03  R46 003763093003763093N003600003600       KC         76E2                Y   0000008 GD4870          76000000                            
4S503906767165400202601202026012000E0000042269003763100376312026012002298457PMS-VALACYCLOVIR 500MG TAB    PMS-VALACYCLOVIR 500MG CO.    010000000000045090MORTON         CLARA       MORTON         BEVERLEY    19400919M49344262    344262   673724         10113002970000297000000000000001215000000000000000000000000000000004482003267000000000000000000001215000000000000000000000000000500002000000000000000000000000000000000000000000000 E2D4D8WH    00000072600003267000-00297081832FF TA 1220000000000000                   Y202606014                       2259      000001          01              DA  001982D4870 03  R18 003763105003763105R000450000450       KC         71E2                Y   0000008 G2259           71000000                            
4S503907971165444202601202026012000E0000042269003763100376312026012002487403APO-APIXABAN 5MG TAB          APO-APIXABAN 5MG CO.          010000000000068034MONTEYNE       DIANNE      MONTEYNE       BARRY       19570325M49344262    344262   146396         10113002958000296000000000000001215000000000000000000000000000000004469003253000000000000000000001215000000000000000000000000000894003574000000000000000000000000000000000000000000 E2DGD4D8WH  00000047838003253000-00295201204FF TA 1220000000000000                   Y202606014                       75567     000001          01              DA  000000D4870 03  R48 003763187003763187R000680000680       KC         71E2DJ              Y   0000008 G75567          71000000                            
4S503908036165515202601202026012000E0000042269003763200376322026012002371979MAR-ATENOLOL 25MG TAB         MAR-ATENOLOL 25MG CO.         020000000000056028HICKEY         JACQUELINE  HICKEY         JACQUELINE  19620206F49344262    344262   214104         10003000263000079000000000000001215000000000000000000000000000000001557000342000000000000000000001215000000000000000000000000000311001246000000000000000000000000000000000000000000 E2D4D8WH    00000006107000342000-00079242000FF TA 1220000000000000                   Y202606014                       12822     000002          02              DA  000000D4870 03  R46 003763238003763238N000560000560       KC         71E2                Y   0000008 G12822          71000000                            
4S503908037165517202601202026012000E0000042269003763200376322026012002422255MAR-CLOPIDOGREL 75MG TAB      MAR-CLOPIDOGREL 75MG CO.      020000000000028028HICKEY         JACQUELINE  HICKEY         JACQUELINE  19620206F49344262    344262   214104         10003000785000118000000000000001215000000000000000000000000000000002118000902000000000000000000001215000000000000000000000000000423001694000000000000000000000000000000000000000000 E2DGD4D8WH  00000032214000902000-00117201218FF TA 1220000000000000                   Y202606014                       12822     000002          02              DA  000000D4870 03  R48 003763240003763240N000280000280       KC         71E2DJ              Y   0000008 G12822          71000000                            
4S503908039165520202601202026012000E0000042269003763200376322026012000396788APO-FUROSEMIDE 20MG TAB       APO-FUROSEMIDE 20MG CO.       020000000000028028HICKEY         JACQUELINE  HICKEY         JACQUELINE  19620206F49344262    344262   214104         10003000065000020000000000000001215000000000000000000000000000000001300000085000000000000000000001215000000000000000000000000000260001040000000000000000000000000000000000000000000 E2D4D8WH    00000003036000085000-00020402808FF TA 1220000000000000                   Y202606014                       12822     000002          02              DA  000000D4870 03  R70 003763242003763242N000280000280       KC         71E2                Y   0000008 G12822          71000000                            
4S503908040165521202601202026012000E0000042269003763200376322026012002550709APO-LEVOTHYROXINE 25MCG TAB   APO-LEVOTHYROXINE 25MCG CO.   070000000000028028HICKEY         JACQUELINE  HICKEY         JACQUELINE  19620206F49344262    344262   214104         10003000178000053000000000000001215000000000000000000000000000000001446000231000000000000000000001215000000000000000000000000000289001157000000000000000000000000000000000000000000 E2D4D8WH    00000008250000231000-00053683604FF TA 1220000000000000                   Y202606014                       9915      000007          07              DA  000000D4870 03  R02 003763244003763244R000280000280       KC         71E2                Y   0000008 G9915           71000000                            
4S503908041165522202601202026012000E0000042269003763200376322026012002411709AURO-MIRTAZAPINE 30MG TAB     AURO-MIRTAZAPINE 30MG CO.     020000000000056028HICKEY         JACQUELINE  HICKEY         JACQUELINE  19620206F49344262    344262   214104         10003001849000185000000000000001215000000000000000000000000000000003249002034000000000000000000001215000000000000000000000000000650002599000000000000000000000000000000000000000000 E2D4D8WH    00000036321002034000-00185281604FF TA 1220000000000000                   Y202606014                       12822     000002          02              DA  000000D4870 03  R84 003763246003763246N000560000560       KC         71E2                Y   0000008 G12822          71000000                            
4S503908042165523202601202026012000E0000042269003763200376322026012002354624TEVA-ROSUVASTATIN 20MG TAB    TEVA-ROSUVASTATIN 20MG CO.    020000000000028028HICKEY         JACQUELINE  HICKEY         JACQUELINE  19620206F49344262    344262   214104         10003000505000151000000000000001215000000000000000000000000000000001871000656000000000000000000001215000000000000000000000000000374001497000000000000000000000000000000000000000000 E2D4D8WH    00000023429000656000-00151240608FF TA 1220000000000000                   Y202606014                       12822     000002          02              DA  000000D4870 03  R40 003763250003763250N000280000280       KC         71E2                Y   0000008 G12822          71000000                            
4S503908043165524202601202026012010E0000042269003763200376322026012000896411PMS-SENNOSIDES 8.6MG TAB      PMS-SENNOSIDES 8.6MG CO.      020000000000056028HICKEY         JACQUELINE  HICKEY         JACQUELINE  19620206F49344262    344262   214104         10003000345000000000000000000000608000000000000000000000000000000000953000000000000000000000000000000000000000000000000000000000000000000000000000000000000000000000000000000000000 E2CO        00000000000000000000000000920100UDRTA 1220000000000000                   N000000004                       12822     000002          02              DA  000000D4870 03  B35 003763253003763253N000560000000       KC         71E2D1              N   000000  G12822          71000000                            
4S503908045165525202601202026012000E0000042269003763200376322026012001937227PMS-TRAZODONE 50MG TAB        PMS-TRAZODONE 50MG CO.        020000000000084028HICKEY         JACQUELINE  HICKEY         JACQUELINE  19620206F49344262    344262   214104         10003000496000149000000000000001215000000000000000000000000000000001860000644000000000000000000001215000000000000000000000000000372001487000000000000000000000000000000000000000000 E2DGD4D8WH  00000007667000644000-00148281604FF TA 1220000000000000                   Y202606014                       12822     000002          02              DA  000000D4870 03  R84 003763255003763255N000840000840       KC         71E2DJ              Y   0000008 G12822          71000000                            
4S503908672165560202601202026012000E0000042269003763200376322026012002301083SANDOZ-PANTOPRAZOLE 40MG TAB  SANDOZ-PANTOPRAZOLE 40MG CO.  020000000000028028HICKEY         JACQUELINE  HICKEY         JACQUELINE  19620206F49344262    344262   214104         10003000601000180000000000000001215000000000000000000000000000000001996000781000000000000000000001215000000000000000000000000000399001597000000000000000000000000000000000000000000 E2D4D8WH    00000027893000781000-00180562836FF TA 1220000000000000                   Y202606014                       12822     000002          02              DA  000000D4870 03  R74 003763248003763248N000280000280       KC         71E2                Y   0000008 G12822          71000000                            
60000180002647500026475                                                                                                                                                                                                                                                                                                                                                                                                                                                                                                                                                                                                                                                                                                                                                       
20000042271BABER'S PHARMASAVE 447        130 MAIN STREET BOX 490                                               BALCARRES                          SKS0G0C03063342424E0          Y                                                                                                                                                                                                                                                                                                                                                                                                                                                                                                                                                                                             
4S503906042894441202601202026012000E0000042271003528700352872026012002340208SANDOZ TAMSULOSIN 0.4MG CR TABSANDOZ-TAMSULOSIN CR 0.4MG CO.050000000000030030MURDOCK        CHARLENE    MURDOCK        BRADLEY     19581211M49344262    344262   1257358        10113000479000144000000000000001215000000000000000000000000000000001838000623000000000000000000001215000000000000000000000000000165000662000000000000000000000000000000000000000000 E2D4D8WH    00000020767000623000-00144121604FF TA 1220000000000000                   Y202606014S503906692894479       12822     000005          05              DA  001011D2422 03  R76 003528780003528780N000300000300       KC         71E2                Y   0000008 G12822          71000000                            
4S503906045894443202601202026012000E0000042271003528700352872026012002518848JAMP SPIRONOLACTONE 100MG TAB JAMP SPIRONOLACTONE 100MG CO. 010000000000045090MURDOCK        CHARLENE    MURDOCK        BRADLEY     19581211M49344262    344262   1257358        10113000458000137000000000000001215000000000000000000000000000000001810000595000000000000000000001215000000000000000000000000000163000652000000000000000000000000000000000000000000 E2D4D8WH    00000013222000595000-00137243220FF TA 1220000000000000                   Y202606014S503906682894478       12822     000001          01              DA  000995D2422 03  R70 003528781003528781N000450000450       KC         71E2                Y   0000008 G12822          71000000                            
5S503906682894478202601202026012000E0000042271003528700352872026012002518848JAMP SPIRONOLACTONE 100MG TAB JAMP SPIRONOLACTONE 100MG CO. 010000000000045090MURDOCK        CHARLENE    MURDOCK        BRADLEY     19581211M49344262    344262   1257358        10113000458000137000000000000001215000000000000000000000000000000001810000595000000000000000000001215000000000000000000000000000163000652000000000000000000000000000000000000000000               000013222000595000-00137243220FF TA 1220000000000000                   Y202606014S503906045894443       12822     000001          01              DA  000995D2422 03  R70 003528781003528781N000450000450       KC         71                  Y   000000  G12822          71000000                            
5S503906692894479202601202026012000E0000042271003528700352872026012002340208SANDOZ TAMSULOSIN 0.4MG CR TABSANDOZ-TAMSULOSIN CR 0.4MG CO.050000000000030030MURDOCK        CHARLENE    MURDOCK        BRADLEY     19581211M49344262    344262   1257358        10113000479000144000000000000001215000000000000000000000000000000001838000623000000000000000000001215000000000000000000000000000165000662000000000000000000000000000000000000000000               000020668000623000-00144121604FF TA 1220000000000000                   Y202606014S503906042894441       12822     000005          05              DA  001011D2422 03  R76 003528780003528780N000300000300       KC         71                  Y   000000  G12822          71000000                            
4S503908565894541202601202026012000E0000042271003528800352882026012000642215APO-PEN VK 300MG TAB          APO-PEN VK 300MG CO.          000000000000028007STEPHENS       KIM         STEPHENS       KIM         19561209F49344262    344262   96017          10003000715000107000000000000001215000000000000000000000000000000002037000822000000000000000000001215000000000000000000000000000407001630000000000000000000000000000000000000000000 E2D4D8ERESWH00000029357000822000-00107081216FF TA 1220000000000000                   Y202606014                       71104     000000          00              DA  000000D2422 03  R16 003528884003528884N000280000280       KC         00E2ENEO            Y   0000008 G71104          00000000                            
4S503908569894542202601202026012000E0000042271003528800352882026012000301175PRED FORTE 1% OP SOL          PRED FORTE 1% SOL. OP         020000000000005030HOYUM          JO-ANNE     HOYUM          JO-ANNE     19591113F49344262    344262   836370         10003002869000287000000000000001215000000000000000000000000000000004371001623000000000000000000001215000000000000000000000000000568002270000000000000000000000000000000000000000000 DFE2D4D8ERES00000324600001623000001246520808FF OP 1220000000000000                   Y202606014                       2619      000002          02              DA  000000D4424 03  R82 003528885003528885R000050000050       KC           D8E2ENEO          Y   0000008 B2619             000000                            
4S503908572894543202601202026012000E0000042271003528800352882026012002369362ACUVAIL 0.45% OP SOL          ACUVAIL 0.45% SOL. OP         020000000000060030HOYUM          JO-ANNE     HOYUM          JO-ANNE     19591113F49344262    344262   836370         10003001688000169000000000000001215000000000000000000000000000000003072001857000000000000000000001215000000000000000000000000000614002458000000000000000000000000000000000000000000 E2D4D8ERESWH00000030950001857000-00169520820FF OP 1220000000000000                   Y202606014                       2619      000002          02              DA  000000D4424 03  R82 003528886003528886R000600000600       KC           E2ENEO            Y   0000008  2619             000000                            
60000090000635800008986                                                                                                                                                                                                                                                                                                                                                                                                                                                                                                                                                                                                                                                                                                                                                       
20000042295PHARMASAVE #438               WRIGHT'S PHARMACY                  BOX 100 - 701 LALONDE STREET       WHITEWOOD                          SKS0G5C03067352303E1NEIGHBOUR Y                                                                                                                                                                                                                                                                                                                                                                                                                                                                                                                                                                                             
4S503905770587551202601202026012010E0000042295003133000313302026012002418517AURO-CARVEDILOL 12.5MG TAB    AURO-CARVEDILOL 12.5MG CO.    040000000000060030WHITE          DEBORAH     FAELKER        STEVEN      19571107M49344262    344262   1278660        10113001316000197000000000000001215000000000000000000000000000000002728000000000000000000000000000000000000000000000000000000000000000000000000000000000000000000000000000000000000 E2CJHBCK    00000000000000000000000000242000F  TA 1220000000000000                   N000000004                       75651     000004          04              DA  000300D4954 03  R46 003133078003133078R000600000000       KC         71E2C4HB                000000  G75651          71000000                            
4S503905780587552202601202026012010E0000042295003133000313302026012002408570MYLAN-PANTOPRAZOLE T 40MG TAB MYLAN-PANTOPRAZOLE T 40MG CO. 040000000000060030WHITE          DEBORAH     FAELKER        STEVEN      19571107M49344262    344262   1278660        10113001198000180000000000000001215000000000000000000000000000000002593000000000000000000000000000000000000000000000000000000000000000000000000000000000000000000000000000000000000 E2CJHBCK    00000000000000000000000000562836F  TA 1220000000000000                   N000000004                       75651     000004          04              DA  000285D4954 03  R74 003133080003133080R000600000000       KC         71E2C4HB                000000  G75651          71000000                            
4S503906285587564202601202026012000E0000042295003133000313302026012002504197JAMP-ATORVASTATIN 10MG TAB    JAMP-ATORVASTATIN 10MG CO.    020000000000030030MATSALLA       DONNA       MATSALLA       DONNA       19600720F49344262    344262   1198144        10003000557000167000000000000001215000000000000000000000000000000001939000724000000000000000000001215000000000000000000000000000388001551000000000000000000000000000000000000000000 E2D4D8WH    00000024133000724000-00167240608FF TA 1220000000000000                   Y202606014                       122621    000002          02              DA  000000D4954 03  R40 003133093003133093R000300000300       KC         77E2                Y   0000008 G122621         77000000                            
4S503906286587565202601202026012000E0000042295003133000313302026012002470675PMS-PERINDOPRIL 2MG TAB       PMS-PERINDOPRIL 2MG CO.       020000000000030030MATSALLA       DONNA       MATSALLA       DONNA       19600720F49344262    344262   1198144        10003000522000157000000000000001215000000000000000000000000000000001894000678000000000000000000001215000000000000000000000000000379001514000000000000000000000000000000000000000000 E2DGD4D8WH  00000022600000678000-00156243204FF TA 1220000000000000                   Y202606014                       122621    000002          02              DA  000000D4954 03  R44 003133094003133094R000300000300       KC         77E2DJ              Y   0000008 G122621         77000000                            
4S503906322587566202601202026012010E0000042295003133000313302026012002245386SYMBICORT 200 TURBUHALER      SYMBICORT 200 TURBUHALER      040000000000120030MATSALLA       DONNA       MATSALLA       DONNA       19600720F49344262    344262   1198144        10003011046001105000000000000001215000000000000000000000000000000013366000000000000000000000000000000000000000000000000000000000000000000000000000000000000000000000000000000000000 E2KT        00000000000000000000000000121208FF IN 1220000000000000                   N000000004                       122621    000004          04              DA  000000D4954 0369R32 003133095003133095R001200000000       KC         77E286              E   000000   122621         77000000                            
4S503906473587569202601202026012000E0000042295003133100313312026012002420058MAR-CELECOXIB 100MG CAP       MAR-CELECOXIB 100MG CAP.      020000000000060030BEUTLER        MURIEL      BEUTLER        MURIEL      19560430F49344262    344262   732144         10003000818000123000000000000001215000000000000000000000000000000002156000940000000000000000000001215000000000000000000000000000431001724000000000000000000000000000000000000000000 E2DGD4D8WH  00000015667000940000-00122280804FF CA 1220000000000000                   Y202606014                       100444    000002          02              DA  000000D4954 03  R24 003133105003133105N000600000600       KC         71E2DJ              Y   0000008 G100444         71000000                            
4S503906474587570202601202026012000E0000042295003133100313312026012002475863TEVA-MOMETASONE 50MCG NAS SPR TEVA-MOMETASONE 50MCG VAP. NAS050000000000140030BEUTLER        MURIEL      BEUTLER        MURIEL      19560430F49344262    344262   732144         10003001122000168000000000000001215000000000000000000000000000000002505001290000000000000000000001215000000000000000000000000000501002004000000000000000000000000000000000000000000 E2D4D8WH    00000009214001290000-00168520808FF NA 1220000000000000                   Y202606014S503907953587634       100444    000005          05              DA  000000D4954 03  R82 003133106003133106N001400001400       KC         71E2                Y   0000008 G100444         71000000                            
5S503907953587634202601202026012000E0000042295003133100313312026012002475863TEVA-MOMETASONE 50MCG NAS SPR TEVA-MOMETASONE 50MCG VAP. NAS050000000000140030BEUTLER        MURIEL      BEUTLER        MURIEL      19560430F49344262    344262   732144         10003001122000168000000000000001215000000000000000000000000000000002505001290000000000000000000001215000000000000000000000000000501002004000000000000000000000000000000000000000000               000009115001290000-00168520808FF NA 1220000000000000                   Y202606014S503906474587570       100444    000005          05              DA  000000D4954 03  R82 003133106003133106N001400001400       KC         71                  Y   000000  G100444         71000000                            
4S503907958587635202601202026012000E0000042295003133100313312026012002403587APO-MOMETASONE 50MCG NAS SPR  APO-MOMETASONE 50MCG VAP. NAS 050000000000140030BEUTLER        MURIEL      BEUTLER        MURIEL      19560430F49344262    344262   732144         10003001122000168000000000000001215000000000000000000000000000000002505001290000000000000000000001215000000000000000000000000000501002004000000000000000000000000000000000000000000 E2D4D8WH    00000009214001290000-00168520808FF NA 1220000000000000                   Y202606014                       100444    000005          05              DA  000000D4954 03  R82 003133175003133175N001400001400       KC         71E2                Y   0000008 G100444         71000000                            
5S503908057587638202601202026012000E0000042295003132500313252026011602092832METROGEL 0.75% GEL            METROGEL 0.75% GEL            030000000000060007MACPHERSON     ROXANNE     MACPHERSON     ROXANNE     19650312F49344262    344262   1124654        10003028980002000000000000000001215000000000000000000000000000000032195030980000000000000000000001215000000000000000000000000006439025756000000000000000000000000000000000000000000               000516333030980000-02000840404FF GE 1220000000000000                   Y202606014S503894323587088       125122    000003          03              DA  000000D4954 0338R94 003132524003132524N000600000600       KC         71                  N   000000   125122         71000000                            
4S503908083587639202601202026012000E0000042295003133100313312026012002125226NIDAGEL 0.75% VAGINAL GEL     NIDAGEL 0.75% GEL VAG.        030000000000070007MACPHERSON     ROXANNE     MACPHERSON     ROXANNE     19650312F49344262    344262   1124654        10003002360000236000000000000001215000000000000000000000000000000003811002596000000000000000000001215000000000000000000000000000762003049000000000000000000000000000000000000000000 E2D4D8ERESWH00000037086002596000-00236840404FF GE 1220000000000000                   Y202606014                       125122    000003          03              DA  000000D4954 0338R94 003133178003133178N000700000700       KC         71E2ENEO            Y   0000008  125122         71000000                            
6000013-001591400039606                                                                                                                                                                                                                                                                                                                                                                                                                                                                                                                                                                                                                                                                                                                                                       
20000042333WOODLAND PHARMACY LTD         P.O. BOX 160 9 MAIN STREET                                            SHELLBROOK                         SKS0J2E03067472545E0          Y                                                                                                                                                                                                                                                                                                                                                                                                                                                                                                                                                                                             
4S503905518047131202601202026012000E0000042333003656200365622026011202387883ALYSENA 28 TAB                ALYSENA 28 CO.                090000000000056056PETERSON       RHONDA      PETERSON       RHONDA      19800728F49310138    310138   399701         10003000840000126000000000000001215000000000000000000000000000000002181000966000000000000000000001215000000000000000000000600000000001581000000000000000000000000000000000000000000 E2D4D8ERESWH00000017250000966000-00126681200FF TA 1220000000000000                   Y202603054                       2548      000009          09              DA  000000D3698 03  R12 003656269003656269R000560000560       KC         71E2ENEO            Y   0000008 G2548           71000000                            
4S503905918047154202601202026012010E0000042333003656200365622026012002422662MAR-EZETIMIBE 10MG TAB        MAR-EZETIMIBE 10MG CO.        010000000000030030TOMPOROWSKI    GEORGE      TOMPOROWSKI    GEORGE      19451001M49310138    310138   247496         10003000579000174000000000000001215000000000000000000000000000000001968000000000000000000000000000000000000000000000000000000000000000000000000000000000000000000000000000000000000 E2COC1      00000000000000000000000000240605FF TA 1220000000000000                   N000000004                       123665    000001          01              DA  000413D3698 03  R40 003656299003656299R000300000000       KC         77E2CS              Y   000000  G123665         77000000                            
4S503905919047155202601202026012000E0000042333003656300365632026012002340208SANDOZ TAMSULOSIN 0.4MG CR TABSANDOZ-TAMSULOSIN CR 0.4MG CO.010000000000030030TOMPOROWSKI    GEORGE      TOMPOROWSKI    GEORGE      19451001M49310138    310138   247496         10003000479000144000000000000001215000000000000000000000000000000001838000623000000000000000000001215000000000000000000000600000000000852000000000000000000000000000000000000000000 E2D4D8WH    00000020767000623000-00144121604FF TA 1220000000000000                   Y202610014                       123665    000001          01              DA  000386D3698 03  R76 003656300003656300R000300000300       KC         77E2                Y   0000008 G123665         77000000                            
4S503906085047157202601202026012000E0000042333003656300365632026012002319217SANDOZ TAMSULOSIN 0.4MG CAP   SANDOZ TAMSULOSIN 0.4MG CAP   000000000000030030PEDERSON       KEN         PEDERSON       KEN         19550614M49282368    282368   864328         10003001518000228000000000000001215000000000000000000000000000000002961001745000000000000000000001215000000000000000000000000001215001745000000000000000000000000000000000000000000 E2DGD4D8WH  00000058167001745000-00227121604FF CA 1220000000000000                   Y202607014                       126140    000000          00              DA  000000D3698 03  R76 003656310003656310R000300000300       KC         71E2DJ              Y   0000008 G126140         71000000                            
4S503906086047159202601202026012000E0000042333003656300365632026012002240550PMS-OXYBUTYNIN 5MG TAB        PMS-OXYBUTYNIN 5MG CO.        000000000000030030PEDERSON       KEN         PEDERSON       KEN         19550614M49282368    282368   864328         10003000315000095000000000000001215000000000000000000000000000000001625000410000000000000000000001215000000000000000000000000001215000410000000000000000000000000000000000000000000 E2D4D8WH    00000013667000410000-00095861204FF TA 1220000000000000                   Y202607014                       126140    000000          00              DA  000000D3698 03  R76 003656312003656312R000300000300       KC         71E2                Y   0000008 G126140         71000000                            
4S503906088047158202601202026012000E0000042333003656300365632026012002405814AURO-FINASTERIDE 5MG TAB      AURO-FINASTERIDE 5MG CO.      000000000000030030PEDERSON       KEN         PEDERSON       KEN         19550614M49282368    282368   864328         10003001120000168000000000000001215000000000000000000000000000000002503001288000000000000000000001215000000000000000000000000001215001288000000000000000000000000000000000000000000 E2D4D8WH    00000042933001288000-00168920400FF TA 1220000000000000                   Y202607014                       126140    000000          00              DA  000000D3698 03  R76 003656311003656311R000300000300       KC         71E2                Y   0000008 G126140         71000000                            
4S503906108047160202601202026012000E0000042333003656300365632026012002245058APO-OMEPRAZOLE 20MG CAP       APO-OMEPRAZOLE 20MG CAP.      110000000000060030PEDERSON       KEN         PEDERSON       CINDY       19600618F49282368    282368   864328         10113001461000219000000000000001215000000000000000000000000000000002895001680000000000000000000001215000000000000000000000000000300000000000000000000000000000000000000000000000000 E2D4D8WHLK  00000028000001680000-00219562836FF CA 1220000000000000                   Y202607014                       100104    000011          11              DA  002595D3698 03  R74 003656315003656315N000600000600       KC         71E2LK              Y   0000008 G100104         71000000                            
4S503908242047227202601202026012000E0000042333003656400365642026012000778907TOBRADEX OP SOL               TOBRADEX SOL. OP              030000000000005007GALLOWAY       DEBORAH     GALLOWAY       DEBORAH     19630226F49344262    344262   575429         10003001179000177000000000000001215000000000000000000000000000000002571001355000000000000000000001215000000000000000000000000000514002056000000000000000000000000000000000000000000 E2DGD4D8WH  00000271000001355000-00176520808FF OP 1220000000000000                   Y202606014                       1673      000003          03              DA  000000D3698 03  R82 003656425003656425N000050000050       KC         71E2DJ              Y   0000008  1673           71000000                            
60000100000793200007932                                                                                                                                                                                                                                                                                                                                                                                                                                                                                                                                                                                                                                                                                                                                                       
20000042337SPIRITWOOD PHARMACY           120 MAIN STREET BOX 279                                               SPIRITWOOD                         SKS0J2M03068832391E0          Y                                                                                                                                                                                                                                                                                                                                                                                                                                                                                                                                                                                             
4S503905457045598202601202026012000E0000042337003806400380642026012002470446SDZ-PERINDO-INDAP 8/2.5MG     SDZ-PERINDO-INDAPA 8/2.5MG    060000000000030030BERG           LYNNDA      BERG           NEIL        19521011M49344262    344262   153952         10113000914000137000000000000001215000000000000000000000000000000002266001050000000000000000000001215000000000000000000000000000453001812000000000000000000000000000000000000000000 E2DGD4D8WH  00000035000001050000-00136243204FF TA 1220000000000000                   Y202606014                       112803    000006          06              DA  000000D3795 03  R44 003806438003806438R000300000300       KC           E2DJ              Y   0000008 G112803           000000                            
4S503905458045599202601202026012000E0000042337003806400380642026012002248855PMS-METOPROLOL-L 25MG TAB     PMS-METOPROLOL-L 25MG CO.     060000000000030030BERG           LYNNDA      BERG           NEIL        19521011M49344262    344262   153952         10113000205000062000000000000001215000000000000000000000000000000001482000267000000000000000000001215000000000000000000000000000296001186000000000000000000000000000000000000000000 E2D4D8WH    00000008900000267000-00062242000FF TA 1220000000000000                   Y202606014                       112803    000006          06              DA  000000D3795 03  R46 003806439003806439R000300000300       KC           E2                Y   0000008 G112803           000000                            
4S503905459045600202601202026012000E0000042337003806400380642026012002301083SANDOZ-PANTOPRAZOLE 40MG TAB  SANDOZ-PANTOPRAZOLE 40MG CO.  060000000000030030BERG           LYNNDA      BERG           NEIL        19521011M49344262    344262   153952         10113000644000097000000000000001215000000000000000000000000000000001956000741000000000000000000001215000000000000000000000000000391001565000000000000000000000000000000000000000000 E2D4D8WH    00000024700000741000-00097562836FF TA 1220000000000000                   Y202606014                       112803    000006          06              DA  000000D3795 03  R74 003806440003806440R000300000300       KC           E2                Y   0000008 G112803           000000                            
4S503905460045601202601202026012000E0000042337003806400380642026012002340208SANDOZ TAMSULOSIN 0.4MG CR TABSANDOZ-TAMSULOSIN CR 0.4MG CO.070000000000060030BERG           LYNNDA      BERG           NEIL        19521011M49344262    344262   153952         10113000959000144000000000000001215000000000000000000000000000000002318001102000000000000000000001215000000000000000000000000000463001854000000000000000000000000000000000000000000 E2DGD4D8WH  00000018367001102000-00143121604FF TA 1220000000000000                   Y202606014                       112803    000007          07              DA  000000D3795 03  R76 003806441003806441R000600000600       KC           E2DJ              Y   0000008 G112803           000000                            
4S503905464045604202601202026012000E0000042337003806400380642026012002408287TEVA-DUTASTERIDE 0.5MG CAP    TEVA-DUTASTERIDE 0.5MG CAP.   060000000000030030BERG           LYNNDA      BERG           NEIL        19521011M49344262    344262   153952         10113000815000122000000000000001215000000000000000000000000000000002152000937000000000000000000001215000000000000000000000000000430001722000000000000000000000000000000000000000000 E2D4D8WH    00000031233000937000-00122920400FF CA 1220000000000000                   Y202606014                       112803    000006          06              DA  000000D3795 03  R76 003806444003806444R000300000300       KC           E2                Y   0000008 G112803           000000                            
4S503905583045610202601202026012000E0000042337003806400380642026012002244305APO-GABAPENTIN 300MG CAP      APO-GABAPENTIN 300MG CAP.     010000000000060030PRIMEAU        GAYLA       PRIMEAU        GAYLA       19590101F49344262    344262   606422         10003000647000097000000000000001215000000000000000000000000000000001959000744000000000000000000001215000000000000000000000000000313001254000000000000000000000000000000000000000000 E2D4D8WH    00000012400000744000-00097281292FF CA 1220000000000000                   Y202606014                       45732     000001          01              DA  000392D3795 03  R20 003806456003806456R000600000600       KC         77E2                Y   0000008 G45732          77000000                            
60000080000939300009393                                                                                                                                                                                                                                                                                                                                                                                                                                                                                                                                                                                                                                                                                                                                                       
20000042350PHARMASAVE #429               531 MAIN STREET                    PO BOX 1210                        HUMBOLDT                           SKS0K2A03066822616E1NEIGHBOUR Y                                                                                                                                                                                                                                                                                                                                                                                                                                                                                                                                                                                             
4S503905334570180202601202026012000E0000042350002190700219072026012002469871ADMELOG SOLOSTAR 100U/ML INJ  ADMELOG SOLOSTAR 100U/ML INJ. 990000000000030030BAY            VERA        BAY            VERA        19520415F49344262    344262   605603         10003009450000945000000000000000000000000000000000000000000000000010395010395000000000000000000000000000000000000000000000000000499001996000000000000000000000000000000000000000000 E2D4D8WH    00000346500010395000-00945682008UC IN 1220000000000000                   Y202606014                       78838     000099          99              DA  007900D4453 03  A64 002190798002190798R000300000300       KC         71E2                Y   0000008  78838          71000000                            
4S503906608570248202601202026012000E0000042350002190900219092026012000654523PMS-AMITRIPTYLINE 10MG TAB    PMS-AMITRIPTYLINE 10MG CO.    000000000000068034BACHMAN        DUANE       BACHMAN        LORI        19580711F49310138    310138   265627         10113000221000066000000000000001215000000000000000000000000000000001502000287000000000000000000001215000000000000000000000600000000000136000000000000000000000000000000000000000000 E2D4D8WH    00000004221000287000-00066281604FF TA 1220000000000000                   Y202603154                       76977     000000          00              DA  000766D4453 03  R84 002190900002190900R000680000680       KC         71E2                Y   0000008 G76977          71000000                            
4S503906610570249202601202026012000E0000042350002190900219092026012002464020TEVA-PERINDO-INDAP 4/1.25MG   TEVA-PERINDO-INDAPA 4/1.25MG  010000000000034034BACHMAN        DUANE       BACHMAN        LORI        19580711F49310138    310138   265627         10113000926000139000000000000001215000000000000000000000000000000002280001064000000000000000000001215000000000000000000000600000000000516000000000000000000000000000000000000000000 E2DGD4D8WH  00000031294001064000-00138243204FF TA 1220000000000000                   Y202603154                       76977     000001          01              DA  001163D4453 03  R44 002190902002190902R000340000340       KC         71E2DJ              Y   0000008 G76977          71000000                            
4S503906614570250202601202026012000E0000042350002190900219092026012002354616TEVA-ROSUVASTATIN 10MG TAB    TEVA-ROSUVASTATIN 10MG CO.    020000000000034034BACHMAN        DUANE       BACHMAN        LORI        19580711F49310138    310138   265627         10113000490000147000000000000001215000000000000000000000000000000001852000637000000000000000000001215000000000000000000000600000000000307000000000000000000000000000000000000000000 E2D4D8WH    00000018735000637000-00147240608FF TA 1220000000000000                   Y202603154                       76977     000002          02              DA  000945D4453 03  R40 002190903002190903R000340000340       KC         71E2                Y   0000008 G76977          71000000                            
4S503906619570251202601202026012000E0000042350002190900219092026012000654515PMS-AMITRIPTYLINE 25MG TAB    PMS-AMITRIPTYLINE 25MG CO.    000000000000045030BACHMAN        DUANE       BACHMAN        DUANE       19570327M49310138    310138   265627         10003000278000083000000000000001215000000000000000000000000000000001576000361000000000000000000001215000000000000000000000600000000000172000000000000000000000000000000000000000000 E2D4D8WH    00000008022000361000-00083281604FF TA 1220000000000000                   Y202603154                       76977     000000          00              DA  000804D4453 03  R84 002190904002190904R000450000450       KC         71E2                Y   0000008 G76977          71000000                            
4S503906941570255202601202026012000E0000042350002190900219092026012002298457PMS-VALACYCLOVIR 500MG TAB    PMS-VALACYCLOVIR 500MG CO.    000000000000060010LEES           MAUREEN     LEES           MAUREEN     19620719F49344262    344262   734452         10003003961000396000000000000001215000000000000000000000000000000005572002569000000000000000000000717000000000000000000000000000000003286000000000000000000000000000000000000000000 E3FK        00000072617002569000001392081832FF TA 1220000000000000                   Y202606014                       122309    000000          00              DB  002286D4453 03  R18 002190918002190918N000600000600       KC         71E3DJ              Y   000000  G122309         71000000                            
60000080000641300006413                                                                                                                                                                                                                                                                                                                                                                                                                                                                                                                                                                                                                                                                                                                                                       
20000042365THE DELTA CO-OP PHARMACY      130-2ND AVENUE W                                                      UNITY                              SKS0K4L03062282629E0          Y                                                                                                                                                                                                                                                                                                                                                                                                                                                                                                                                                                                             
4S503905553583823202601202026012000E0000042365001230700123072026012002337444SDZ-IRBESARTAN-HCTZ 300/25MG  SDZ-IRBESARTAN-HCTZ 300/25MG  020000000000034034JONES          DOUGLAS     JONES          DOUGLAS     19570624M495963      5963     1370024        10003000791000119000000000000001215000000000000000000000000000000002125000909000000000000000000001215000000000000000000000000000425001699000000000000000000000000000000000000000000 E2DGD4D8ERES00000026735000909000-00118243208FF TA 1220000000000000                   Y202608124                       75670     000002          02              DA  000000D3551 03  R44 001230709001230709R000340000340       KC         71E2DJENEO          Y   0000008 G75670          71000000                            
4S503905567583826202601202026012000E0000042365001230700123072026012002469308AURO-DUTASTERIDE 0.5MG CAP    AURO-DUTASTERIDE 0.5MG CAP.   020000000000034034JONES          DOUGLAS     JONES          DOUGLAS     19570624M495963      5963     1370024        10003000929000139000000000000001215000000000000000000000000000000002283001068000000000000000000001215000000000000000000000000000457001826000000000000000000000000000000000000000000 E2D4D8ERESWH00000031412001068000-00139920400FF CA 1220000000000000                   Y202608124                       75670     000002          02              DA  000000D3551 03  R76 001230712001230712R000340000340       KC         71E2ENEO            Y   0000008 G75670          71000000                            
4S503905606583827202601202026012000E0000042365001230700123072026012002378558PMS-ROSUVASTATIN 20MG TAB     PMS-ROSUVASTATIN 20MG CO.     020000000000034034JONES          DOUGLAS     JONES          DOUGLAS     19570624M495963      5963     1370024        10003000613000184000000000000001215000000000000000000000000000000002012000796000000000000000000001215000000000000000000000000000402001609000000000000000000000000000000000000000000 E2DGD4D8ERES00000023412000796000-00183240608FF TA 1220000000000000                   Y202608124                       75670     000002          02              DA  000000D3551 03  R40 001230714001230714R000340000340       KC         71E2DJENEO          Y   0000008 G75670          71000000                            
4S503905618583828202601202026012000E0000042365001230700123072026012002354101TEVA-EZETIMIBE 10MG TAB       TEVA-EZETIMIBE 10MG CO.       020000000000034034JONES          DOUGLAS     JONES          DOUGLAS     19570624M495963      5963     1370024        10003000656000098000000000000001215000000000000000000000000000000001969000754000000000000000000001215000000000000000000000000000394001575000000000000000000000000000000000000000000 E2QOD4D8ERES00000022176000754000-00098240605FF TA 1220000000000000                   Y202608124                       75670     000002          02              DA  000000D3551 03  R40 001230715001230715R000340000340       KC         71E2QOENEO          Y   0000008 G75670          71000000                            
4S503905827583842202601202026012000E0000042365001230700123072026012000331015VITAMIN B12 100MCG TAB        VITAMINE B12 100MCG CO.       020000000000028028SOLOHUB        EDITH       SOLOHUB        EDITH       19410321F49310138    310138   157905         10003000185000000000000000000000608000000000000000000000000000000000793000185000000000000000000000608000000000000000000000600000000000193000000000000000000000000000000000000000000 E2D4D8WH    00000006607000185000000000920188UDRTA 1220000000000000                   Y202610114                       133983    000002          02              DA  000000D3551 03  B60 001230736001230736N000280000280       KC         71E2                N   0000008  133983         710000006027                        
60000070000690200006902                                                                                                                                                                                                                                                                                                                                                                                                                                                                                                                                                                                                                                                                                                                                                       
20000042366OUR DRUG STORE                115 MAIN STREET P.O. BOX 877                                          UNITY                              SKS0K4L03062282121E0          Y                                                                                                                                                                                                                                                                                                                                                                                                                                                                                                                                                                                             
4S503906231138836202601202026012010E0000042366001424100142412026012002240606PMS-ZOPICLONE 7.5MG TAB       PMS-ZOPICLONE 7.5MG CO.       020000000000034034NEIL           DEBORA      NEIL           BRIAN       19540525M49310138    310138   159584         10113001697000170000000000000001215000000000000000000000000000000003082000000000000000000000000000000000000000000000000000000000000000000000000000000000000000000000000000000000000 E2CO        00000000000000000000000000282492FF TA 1220000000000000                   N000000004                       9850      000002          02              DA  000000D2574 03  R88 001424191001424191R000340000000       KC         71E2D1              N   000000  G9850           71000000                            
4S503906241138839202601202026012000E0000042366001424100142412026012002326973SANDOZ CANDESARTAN 16MG TAB   SANDOZ-CANDESARTAN 16MG CO.   040000000000034034BOSCH          LINDA       BOSCH          LINDA       19490919F49310138    310138   1315661        10003000826000124000000000000001215000000000000000000000000000000002165000950000000000000000000001215000000000000000000000600000000001565000000000000000000000000000000000000000000 E2D4D8WH    00000027941000950000-00124243208FF TA 1220000000000000                   Y202609044                       101540    000004          04              DA  000000D2574 03  R44 001424194001424194R000340000340       KC         71E2                Y   0000008 G101540         71000000                            
4S503906252138840202601202026012000E0000042366001424100142412026012002301083SANDOZ-PANTOPRAZOLE 40MG TAB  SANDOZ-PANTOPRAZOLE 40MG CO.  090000000000030030BOSCH          LINDA       BOSCH          LINDA       19490919F49310138    310138   1315661        10003000644000097000000000000001215000000000000000000000000000000001956000741000000000000000000001215000000000000000000000600000000001356000000000000000000000000000000000000000000 E2D4D8WH    00000024700000741000-00097562836FF TA 1220000000000000                   Y202609044                       101540    000009          09              DA  000000D2574 03  R74 001424195001424195R000300000300       KC         71E2                Y   0000008 G101540         71000000                            
4S503909041138997202601202026012010E0000042366001424300142432026012002230578TWINRIX ADULT 20MCG/ML INJ    TWINRIX ADULT 20MCG/ML INJ.   010000000000001001HENNINGS       SCOTT       HENNINGS       BAKER       20240516M49310138    310138   156195            23007357000736000000000000001215000000000000000000000000000000009308000000000000000000000000000000000000000000000000000000000000000000000000000000000000000000000000000000000000 E2CZ        00000000000000000000000000801200F  IN 1220000000000000                   N000000004                       13546     000001          01              DA  000000D2574 0332Z01 001424334001424334N000010000000       KC         71E236                  000000   13546          71000000                            
60000060000292100002921                                                                                                                                                                                                                                                                                                                                                                                                                                                                                                                                                                                                                                                                                                                                                       
20000042374PHARMASAVE #432               RUBICON PHARMACIES CORP            PO BOX 69   114 MAIN STREET        WATSON                             SKS0K4V03062873215E1NEIGHBOUR Y                                                                                                                                                                                                                                                                                                                                                                                                                                                                                                                                                                                             
4S503905467453026202601202026012010E0000042374001690300169032026012002240606PMS-ZOPICLONE 7.5MG TAB       PMS-ZOPICLONE 7.5MG CO.       030000000000030030THACYK         GERALD      THACYK         GERALD      19500416M49310138    310138   12430          10003001497000225000000000000001215000000000000000000000000000000002937000000000000000000000000000000000000000000000000000000000000000000000000000000000000000000000000000000000000 E2CO        00000000000000000000000000282492FF TA 1220000000000000                   N000000004                       8647      000003          03              DA  000000D2700 03  R88 001690345001690345R000300000000       KC         71E2D1              N   000000  G8647           71000000                            
4S503906054453041202601202026012000E0000042374001690300169032026012002284391SANDOZ-AMLODIPINE 10MG TAB    SANDOZ-AMLODIPINE 10MG CO.    000000000000035035GABRIEL        JOHN        GABRIEL        JOHN        19520302M49310138    310138   54950          10003000743000111000000000000001215000000000000000000000000000000002069000854000000000000000000001215000000000000000000000559000000000000000000000000000000000000000000000000000000 E2D4D8WHLK  00000024400000854000-00111242808FF TA 1220000000000000                   Y202603084                       8647      000000          00              DA  001510D2859 03  R44 001690370001690370R000350000350       KC         71E2LK              Y   0000008 G8647           71000000                            
4S503906056453042202601202026012010E0000042374001690300169032026012002394936SEEBRI BREEZHALER 50MCG CAP   SEEBRI BREEZHALER 50MCG CAP.  010000000000030030GABRIEL        JOHN        GABRIEL        JOHN        19520302M49310138    310138   54950          10003005761000576000000000000001215000000000000000000000000000000007552000000000000000000000000000000000000000000000000000000000000000000000000000000000000000000000000000000000000 E2CO        00000000000000000000000000120808FF CA 1220000000000000                   N000000004                       8647      000001          01              DA  005513D2859 03  R32 001690371001690371R000300000000       KC         71E2D1              E   000000   8647           71000000                            
4S503906061453043202601202026012010E0000042374001690300169032026012002245386SYMBICORT 200 TURBUHALER      SYMBICORT 200 TURBUHALER      010000000000120030GABRIEL        JOHN        GABRIEL        JOHN        19520302M49310138    310138   54950          10003011046001105000000000000001215000000000000000000000000000000013366000000000000000000000000000000000000000000000000000000000000000000000000000000000000000000000000000000000000 E2CO        00000000000000000000000000121208FF IN 1220000000000000                   N000000004                       8647      000001          01              DA  010866D2859 0369R32 001690372001690372R001200000000       KC         71E2D1              E   000000   8647           71000000                            
4S503907551453097202601202026012000E0000042374001690500169052026012002417340SANDOZ CANDESARTAN 32MG TAB   SANDOZ CANDESARTAN 32MG CO.   110000000000035035FLASKO         GREGORY     FLASKO         GREGORY     19740211M49310138    310138   348088         10003000851000122000000000000001215000000000000000000000000000000002188000973000000000000000000001215000000000000000000000600000000001588000000000000000000000000000000000000000000 E3          00000027800000973000-00122243208FF TA 1220000000000000                   Y202606094                       8629      000011          11              DB  000000D2700 03  R44 001690507001690507R000350000350       KC         71E3                Y   000000  G8629           71000000                            
4S503907559453099202601202026012000E0000042374001690500169052026012002284391SANDOZ-AMLODIPINE 10MG TAB    SANDOZ-AMLODIPINE 10MG CO.    110000000000035035FLASKO         GREGORY     FLASKO         GREGORY     19740211M49310138    310138   348088         10003000743000107000000000000001215000000000000000000000000000000002065000273000000000000000000000390000000000000000000000000000000000663000000000000000000000000000000000000000000 E3FK        00000024286000273000000470242808FF TA 1220000000000000                   Y202606094                       8629      000011          11              DB  001402D2700 03  R44 001690508001690508R000350000350       KC         71E3DJ              Y   000000  G8629           71000000                            
4S503907565453100202601202026012000E0000042374001690500169052026012002340208SANDOZ TAMSULOSIN 0.4MG CR TABSANDOZ-TAMSULOSIN CR 0.4MG CO.100000000000035035HURION         CHERYL      HURION         LONNIE      19600601M49344262    344262   1175394        10113000559000168000000000000001215000000000000000000000000000000001942000727000000000000000000001215000000000000000000000000000388001554000000000000000000000000000000000000000000 E2D4D8ERESWH00000020771000727000-00168121604FF TA 1220000000000000                   Y202606014                       10449     000010          10              DA  000000D2700 03  R76 001690509001690509N000350000350       KC         71E2ENEO            Y   0000008 G10449          71000000                            
4S503908137453148202601202026012000E0000042374001690500169052026012002507803JAMP PAROXETINE 30MG TAB      JAMP PAROXETINE 30MG CO.      050000000000034034SCHMIDT        WARREN      SCHMIDT        ARLENE      19580512F49282368    1386860  80624          1011 001251000188000000000000001215000000000000000000000000000000002654001438000000000000000000001215000000000000000000000000001193000000000000000000000000000000000000000000000000 E2DGD4D8WHLK00000042294001438000-00187281604FF TA 1220000000000000                   Y202607014                       D2700     000005          05              DA  001460D2700 03  R84 001690575001690575R000340000340       KC         76E2DJLK            Y   0000008 GD2700          76000000                            
60000100000380500003805                                                                                                                                                                                                                                                                                                                                                                                                                                                                                                                                                                                                                                                                                                                                                       
20000042392KINDERSLEY CO-OP PHARMACY     214 MAIN ST                        PO BOX 1120                        KINDERSLEY                         SKS0L1S03064632770E0          Y                                                                                                                                                                                                                                                                                                                                                                                                                                                                                                                                                                                             
4S503905902019601202601202026012000E0000042392002409800240982026012002240606PMS-ZOPICLONE 7.5MG TAB       PMS-ZOPICLONE 7.5MG CO.       030000000000030030VANTHUYNE      MARLENE     VANTHUYNE      MARLENE     19530827F49344262    344262   1319721        10003001497000225000000000000001215000000000000000000000000000000002937001722000000000000000000001215000000000000000000000000000587002350000000000000000000000000000000000000000000 E2D4D8WH    00000057400001722000-00225282492FF TA 1220000000000000                   Y202606014S503905908019602       127383    000003          03              DA  000000D4812 03  R88 002409832002409832N000300000300       KC         71E2                N   0000008 G127383         71000000                            
5S503905908019602202601202026012000E0000042392002409800240982026012002240606PMS-ZOPICLONE 7.5MG TAB       PMS-ZOPICLONE 7.5MG CO.       030000000000030030VANTHUYNE      MARLENE     VANTHUYNE      MARLENE     19530827F49344262    344262   1319721        10003001497000225000000000000001215000000000000000000000000000000002937001722000000000000000000001215000000000000000000000000000587002350000000000000000000000000000000000000000000               000057001001722000-00225282492FF TA 1220000000000000                   Y202606014S503905902019601       127383    000003          03              DA  000000D4812 03  R88 002409832002409832N000300000300       KC         71                  N   000000  G127383         71000000                            
4S503906759019625202601202026012000E0000042392002409800240982026012097799596FREESTYLE LITE STRIP          FREESTYLE LITE BATONNET       000000000000100030MCCORMICK      ANN         MCCORMICK      ANN         19620801F49344262    344262   8192           10003007314000731000000000000001215000000000000000000000000000000009260008045000000000000000000001215000000000000000000000000000000009260000000000000000000000000000000000000000000 E2D4D8WH    00000080450008045000-00731362600UDRST 1220000000000000                   Y202606014                       D4812     000000          00              DA  000000D4812 0301Q01 002409872002409872N001000001000       KC         76E2                Y   0000008  D4812          760000000173                        
4S503908280019706202601202026012000E0000042392002409900240992026012002295261APO-ATORVASTATIN 10MG TAB     APO-ATORVASTATIN 10MG CO.     030000000000028028WELLS          STACEY      WELLS          STACEY      19710125F49310138    310138   805943         10003000520000156000000000000001215000000000000000000000000000000001891000676000000000000000000001215000000000000000000000019000000000000000000000000000000000000000000000000000000 E2D4D8WHLK  00000024143000676000-00156240608FF TA 1220000000000000                   Y202612084                       115521    000003          03              DA  001872D3113 03  R40 002409989002409989R000280000280       KC         71E2LK              Y   0000008 G115521         71000000                            
4S503908283019707202601202026012000E0000042392002409900240992026012002285134TEVA-LISINOPRIL (TYPE Z) 20MG TEVA-LISINOPRIL (TYPE Z) 20MG 020000000000028028WELLS          STACEY      WELLS          STACEY      19710125F49310138    310138   805943         10003000580000174000000000000001215000000000000000000000000000000001969000754000000000000000000001215000000000000000000000020000000000000000000000000000000000000000000000000000000 E2D4D8WHLK  00000026929000754000-00174243204FF TA 1220000000000000                   Y202612084                       115521    000002          02              DA  001949D3113 03  R44 002409990002409990R000280000280       KC         71E2LK              Y   0000008 G115521         71000000                            
4S503908290019708202601202026012000E0000042392002409900240992026012000496480TEVA-PROPRANOLOL 10MG TAB     TEVA-PROPRANOLOL 10MG CO.     020000000000084028WELLS          STACEY      WELLS          STACEY      19710125F49310138    310138   805943         10003000746000112000000000000001215000000000000000000000000000000002073000857000000000000000000001215000000000000000000000020000000000000000000000000000000000000000000000000000000 E2DGD4D8WHLK00000010202000857000-00111242000FF TA 1220000000000000                   Y202612084                       115521    000002          02              DA  002052D3113 03  R46 002409991002409991R000840000840       KC         71E2DJLK            Y   0000008 G115521         71000000                            
4S503908297019709202601202026012000E0000042392002409900240992026012002301075SANDOZ-PANTOPRAZOLE 20MG TAB  SANDOZ-PANTOPRAZOLE 20MG CO.  020000000000056028WELLS          STACEY      WELLS          STACEY      19710125F49310138    310138   805943         10003001076000161000000000000001215000000000000000000000000000000002452001237000000000000000000001215000000000000000000000025000000000000000000000000000000000000000000000000000000 E2D4D8WHLK  00000022089001237000-00161562836FF TA 1220000000000000                   Y202612084                       115521    000002          02              DA  002427D3113 03  R74 002409993002409993R000560000560       KC         71E2LK              Y   0000008 G115521         71000000                            
4S503908299019710202601202026012000E0000042392002409900240992026012002246820SANDOZ-METFORMIN FC 500MG TAB SANDOZ-METFORMIN FC 500MG CO. 020000000000056028WELLS          STACEY      WELLS          STACEY      19710125F49310138    310138   805943         10003000147000044000000000000001215000000000000000000000000000000001406000191000000000000000000001215000000000000000000000014000000000000000000000000000000000000000000000000000000 E2D4D8WHLK  00000003411000191000-00044682004FF TA 1220000000000000                   Y202612084                       115521    000002          02              DA  001392D3113 03  R60 002409994002409994R000560000560       KC         71E2LK              Y   0000008 G115521         71000000                            
