0610068ECLIPSE             GROUP MEDICAL SERV  200-300 HILLSDALE STREET      REGINA         SKS4S7J83063527638202601162026011528503                                                                                                                                                                                                                                                                                                                                                                                                                                                                                                                                                                                                                                           
20000042154PHARMASAVE #405               BOX #579                           219 KAISER WILHELM AVE             LANGENBURG                         SKS0A2A03067432333E1NEIGHBOUR Y                                                                                                                                                                                                                                                                                                                                                                                                                                                                                                                                                                                             
4S503892388555185202601152026011500E0000042154001958600195862026011502481227MAR-DAPSONE 100MG TAB         MAR-DAPSONE 100MG CO.         030000000000030030WEISS          LEAH        WEISS          LEAH        19570822F49344262    344262   169852         1000 002247000225000000000000001215000000000000000000000000000000003687002472000000000000000000001215000000000000000000000000000737002950000000000000000000000000000000000000000000 E2D4D8WH    00000082400002472000-00225081692FF TA 1220000000000000                   Y202606014                       134320    000003          03              DA  000000D5039 03  R16 001958635001958635N000300000300       KC         71E2                Y   0000008 G134320         71000000                            
60000030000295000002950                                                                                                                                                                                                                                                                                                                                                                                                                                                                                                                                                                                                                                                                                                                                                       
20000042248DAVIS REXALL DRUGS LTD        110-1ST AVENUE WEST                P.O. BOX 1923                      NIPAWIN                            SKS0E1E03068623141E1NEIGHBOUR Y                                                                                                                                                                                                                                                                                                                                                                                                                                                                                                                                                                                             
4S503890501653450202601152026011500E0000042248005339100533912026011502408570MYLAN-PANTOPRAZOLE T 40MG TAB MYLAN-PANTOPRAZOLE T 40MG CO. 030000000000120060GEREIN         DONNA       GEREIN         DONNA       19560427F49344262    344262   1139877        10003002396000240000000000000001215000000000000000000000000000000003851002636000000000000000000001215000000000000000000000000000062000246000000000000000000000000000000000000000000 E2D4D8WH    00000021967002636000-00240562836FF TA 1220000000000000                   Y202606014                       9120      000003          03              DA  003543D2000 03  R74 005339129005339129R001200001200       KC         71E2                Y   0000008 G9120           71000000                            
4S503890503653454202601152026011510E0000042248005339100533912026011502248757SANDOZ-CIPROFLOXACIN 500MG TABSANDOZ-CIPROFLOXACIN 500MG CO.050000000000028014GEREIN         DONNA       GEREIN         DONNA       19560427F49344262    344262   1139877        10003001499000225000000000000001215000000000000000000000000000000002939000000000000000000000000000000000000000000000000000000000000000000000000000000000000000000000000000000000000 E2KT        00000000000000000000000000081218FF TA 1220000000000000                   N000000004                       11260     000005          05              DA  000000D2000 03  R16 005339132005339132R000280000000       KC         71E286              E   000000  G11260          71000000                            
4S503890955653516202601152026011510E0000042248005339200533922026011500481912SODIUM BICARBONATE 325MG TAB  BICARBONATE DE SODIUM 325MG   110000000000120030PEOPLES        COLETTE     PEOPLES        MICHAEL     19610422M49344262    344262   1146054        10113000443000133000000000000001215000000000000000000000000000000001791000000000000000000000000000000000000000000000000000000000000000000000000000000000000000000000000000000000000 E2CO        00000000000000000000000000920188UDRTA 1220000000000000                   N000000004                       111379    000011          11              DA  000000D2000 03  Q01 005339224005339224N001200000000       KC         71E2D1              N   000000   111379         71000000                            
4S503890958653517202601152026011500E0000042248005339200533922026011502422662MAR-EZETIMIBE 10MG TAB        MAR-EZETIMIBE 10MG CO.        110000000000030030PEOPLES        COLETTE     PEOPLES        MICHAEL     19610422M49344262    344262   1146054        10113000579000174000000000000001215000000000000000000000000000000001968000752000000000000000000001215000000000000000000000000000393001574000000000000000000000000000000000000000000 E2QODGD4D8WH00000025067000752000-00173240605FF TA 1220000000000000                   Y202606014                       111379    000011          11              DA  000000D2000 03  R40 005339226005339226N000300000300       KC         71E2QODJ            Y   0000008 G111379         71000000                            
4S503890961653518202601152026011500E0000042248005339200533922026011502326965SANDOZ CANDESARTAN 8MG TAB    SANDOZ-CANDESARTAN 8MG CO.    110000000000030030PEOPLES        COLETTE     PEOPLES        MICHAEL     19610422M49344262    344262   1146054        10113000729000109000000000000001215000000000000000000000000000000002053000838000000000000000000001215000000000000000000000000000411001642000000000000000000000000000000000000000000 E2D4D8WH    00000027933000838000-00109243208FF TA 1220000000000000                   Y202606014                       111379    000011          11              DA  000000D2000 03  R44 005339228005339228N000300000300       KC         71E2                Y   0000008 G111379         71000000                            
4S503890984653522202601152026011500E0000042248005339200533922026011502220172LOVASTATIN 20MG TAB           LOVASTATIN 20MG CO.           020000000000030030PEOPLES        COLETTE     PEOPLES        MICHAEL     19610422M49344262    344262   1146054        10113003812000381000000000000001215000000000000000000000000000000005408004193000000000000000000001215000000000000000000000000001082004326000000000000000000000000000000000000000000 E2D4D8WH    00000139767004193000-00381240608FF TA 1220000000000000                   Y202606014                       D5332     000002          02              DA  000000D2000 03  R40 005339232005339232N000300000300       KC         76E2                Y   0000008 GD5332          76000000                            
4S503891958653576202601152026011500E0000042248005339300533932026011502326450NOVO-SALBUTAMOL HFA 100MCG INHNOVO-SALBUTAMOL HFA 100MCG INH010000000040000020BRADSHAW       KATHERINE   BRADSHAW       KENNETH     19631125M49344262    344262   816037         10113000639000096000000000000001215000000000000000000000000000000001950000735000000000000000000001215000000000000000000000000000390001560000000000000000000000000000000000000000000 E2D4D8WH    00000000018000735000-00096121208FF IN 1220000000000000                   Y202606014                       0042097   000001          01              DA  000000D5332 0369R32 005339386005339386N400000400000       KC         77E2                Y   0000008 G0042097        77000000                            
4S503891961653577202601152026011500E0000042248005339300533932026011502245058APO-OMEPRAZOLE 20MG CAP       APO-OMEPRAZOLE 20MG CAP.      110000000000068034BRADSHAW       KATHERINE   BRADSHAW       KENNETH     19631125M49344262    344262   816037         10113001656000166000000000000001215000000000000000000000000000000003037001822000000000000000000001215000000000000000000000000000607002430000000000000000000000000000000000000000000 E2D4D8WH    00000026794001822000-00166562836FF CA 1220000000000000                   Y202606014                       0042097   000011          11              DA  000000D5332 03  R74 005339387005339387N000680000680       KC         77E2                Y   0000008 G0042097        77000000                            
4S503891966653578202601152026011500E0000042248005339300533932026011502246581PMS-ATENOLOL 25MG TAB         PMS-ATENOLOL 25MG CO.         090000000000068068BRADSHAW       KATHERINE   BRADSHAW       KENNETH     19631125M49344262    344262   816037         10113000320000096000000000000001215000000000000000000000000000000001631000415000000000000000000001215000000000000000000000000000326001304000000000000000000000000000000000000000000 E2DGD4D8WH  00000006103000415000-00095242000FF TA 1220000000000000                   Y202606014                       0042097   000009          09              DA  000000D5332 03  R46 005339388005339388R000680000680       KC         77E2DJ              Y   0000008 G0042097        77000000                            
4S503891969653579202601152026011500E0000042248005339300533932026011502392240PMS-LOSARTAN-HCTZ 100/25MG    PMS-LOSARTAN-HCTZ 100/25MG    090000000000068068BRADSHAW       KATHERINE   BRADSHAW       KENNETH     19631125M49344262    344262   816037         10113002279000228000000000000001215000000000000000000000000000000003722002507000000000000000000001215000000000000000000000000000744002978000000000000000000000000000000000000000000 E2D4D8WH    00000036868002507000-00228243208FF TA 1220000000000000                   Y202606014                       0042097   000009          09              DA  000000D5332 03  R44 005339390005339390R000680000680       KC         77E2                Y   0000008 G0042097        77000000                            
4S503891972653580202601152026011500E0000042248005339300533932026011502375613JAMP-SIMVASTATIN 20MG TAB     JAMP-SIMVASTATIN 20MG CO.     040000000000180060BRADSHAW       KATHERINE   BRADSHAW       KENNETH     19631125M49344262    344262   816037         10113004795000480000000000000001215000000000000000000000000000000006490005274000000000000000000001215000000000000000000000000001298005191000000000000000000000000000000000000000000 E2DGD4D8WH  00000029300005274000-00479240608FF TA 1220000000000000                   Y202606014                       0042097   000004          04              DA  000000D5332 03  R40 005339391005339391R001800001800       KC         77E2DJ              Y   0000008 G0042097        77000000                            
4S503892065653585202601152026011500E0000042248005339400533942026011502251582APO-RAMIPRIL 10MG CAP         APO-RAMIPRIL 10MG CAP.        020000000000060030VHAL           CATHY       VHAL           CATHY       19610724F49344262    344262   169688         10003000661000099000000000000001215000000000000000000000000000000001975000760000000000000000000001215000000000000000000000000000367001470000000000000000000000000000000000000000000 E2D4D8WH    00000012667000760000-00099243204FF CA 1220000000000000                   Y202606014                       D5081     000002          02              DA  000138D5081 03  R44 005339405005339405N000600000600       KC         76E2                Y   0000008 GD5081          76000000                            
4S503892347653601202601152026011500E0000042248005339400533942026011502244304APO-GABAPENTIN 100MG CAP      APO-GABAPENTIN 100MG CAP.     030000000000090030GEREIN         DONNA       GEREIN         DONNA       19560427F49344262    344262   1139877        10003000399000120000000000000001215000000000000000000000000000000001734000518000000000000000000001215000000000000000000000000000028000110000000000000000000000000000000000000000000 E2DGD4D8WH  00000005756000518000-00119281292FF CA 1220000000000000                   Y202606014                       9120      000003          03              DA  001595D2000 03  R20 005339436005339436N000900000900       KC         71E2DJ              Y   0000008 G9120           71000000                            
60000150002283100022831                                                                                                                                                                                                                                                                                                                                                                                                                                                                                                                                                                                                                                                                                                                                                       
20000042260PHARMASAVE #430               518 MAIN STREET                    BOX 27                             BROADVIEW                          SKS0G0K03066962274E1NEIGHBOUR Y                                                                                                                                                                                                                                                                                                                                                                                                                                                                                                                                                                                             
4S503892070887422202601152026011500E0000042260009049200904922026011502125366HYDROMORPH CONTIN 12MG CAP    HYDROMORPH CONTIN 12MG CAP.   000000000000030015WOLLBAUM       GAYLE       WOLLBAUM       GAYLE       19600609F49344262    344262   763393         10003005844000584000000000000001215000000000000000000000000000000007643006428000000000000000000001215000000000000000000000000000122000489000000000000000000000000000000000000000000 E2EGD4D8WH  00000214267006428000-00584280808NN CA 1220000000000000                   Y202606014                       129461    000000          00              DA  007032D5036 0362R08 009049282009049282R000300000300       KC         71E2                Y   0000008  129461         71000000                            
4S503892071887423202601152026011500E0000042260009049200904922026011502364131APO-HYDROMORPHONE 4MG TAB     APO-HYDROMORPHONE 4MG CO.     000000000000060015WOLLBAUM       GAYLE       WOLLBAUM       GAYLE       19600609F49344262    344262   763393         10003001432000215000000000000001215000000000000000000000000000000002862001646000000000000000000001215000000000000000000000000000046000182000000000000000000000000000000000000000000 E2DGD4D8WH  00000027433001646000-00214280808NN TA 1220000000000000                   Y202606014                       129461    000000          00              DA  002633D5036 03  R08 009049283009049283R000600000600       KC         71E2DJ              Y   0000008 G129461         71000000                            
4S503892074887424202601152026011510E0000042260003513800351382026011502246040JAMP-CALCIUM 500MG TAB        JAMP-CALCIUM 500MG CO.        010000000000034034WOLLBAUM       GAYLE       WOLLBAUM       GAYLE       19600609F49344262    344262   763393         10003000089000000000000000000000608000000000000000000000000000000000697000000000000000000000000000000000000000000000000000000000000000000000000000000000000000000000000000000000000 E2CO        00000000000000000000000000920140UDRTA 1220000000000000                   N000000004                       D5036     000001          01              DA  000000D5036 03  B05 003513865003513865N000340000000       KC         76E2D1              N   000000  GD5036          76000000                            
60000050000067100000671                                                                                                                                                                                                                                                                                                                                                                                                                                                                                                                                                                                                                                                                                                                                                       
20000042269PHARMASAVE #412               203 BROADWAY STREET                BOX 1030                           FORT QU'APPELLE                    SKS0G1S03063325717E1NEIGHBOUR Y                                                                                                                                                                                                                                                                                                                                                                                                                                                                                                                                                                                             
4S503891212164535202601152026011500E0000042269003762000376202026011502509911JAMP BUSPIRONE 10MG TAB       JAMP BUSPIRONE 10MG CO.       030000000000028028RHEAD          KIMBERLEY   RHEAD          KIMBERLEY   19540419F49344262    344262   624873         10003000809000121000000000000001215000000000000000000000000000000002145000930000000000000000000001215000000000000000000000000000300001202000000000000000000000000000000000000000000 E2D4D8WH    00000033214000930000-00121282492FF TA 1220000000000000                   Y202606014                       76110     000003          03              DA  000643D4870 03  R88 003762033003762033R000280000280       KC         71E2                Y   0000008 G76110          71000000                            
4S503891213164536202601152026011500E0000042269003762000376202026011502313340SANDOZ LOSARTAN 50MG TAB      SANDOZ LOSARTAN 50MG CO.      030000000000028028RHEAD          KIMBERLEY   RHEAD          KIMBERLEY   19540419F49344262    344262   624873         10003000939000141000000000000001215000000000000000000000000000000002295001079000000000000000000001215000000000000000000000000000321001285000000000000000000000000000000000000000000 E2DGD4D8WH  00000038536001079000-00140243208FF TA 1220000000000000                   Y202606014                       12822     000003          03              DA  000688D4870 03  R44 003762035003762035R000280000280       KC         71E2DJ              Y   0000008 G12822          71000000                            
4S503891214164537202601152026011500E0000042269003762000376202026011502390140JAMP-QUETIAPINE 25MG TAB      JAMP-QUETIAPINE 25MG CO.      040000000000084028RHEAD          KIMBERLEY   RHEAD          KIMBERLEY   19540419F49344262    344262   624873         10003000442000133000000000000001215000000000000000000000000000000001790000575000000000000000000001215000000000000000000000000000251001002000000000000000000000000000000000000000000 E2D4D8WH    00000006845000575000-00133281608FF TA 1220000000000000                   Y202606014                       76110     000004          04              DA  000537D4870 03  R86 003762037003762037R000840000840       KC         71E2                Y   0000008 G76110          71000000                            
4S503891215164538202601152026011500E0000042269003762000376202026011502354616TEVA-ROSUVASTATIN 10MG TAB    TEVA-ROSUVASTATIN 10MG CO.    030000000000028028RHEAD          KIMBERLEY   RHEAD          KIMBERLEY   19540419F49344262    344262   624873         10003000404000121000000000000001215000000000000000000000000000000001740000525000000000000000000001215000000000000000000000000000244000974000000000000000000000000000000000000000000 E2D4D8WH    00000018750000525000-00121240608FF TA 1220000000000000                   Y202606014                       12822     000003          03              DA  000522D4870 03  R40 003762040003762040R000280000280       KC         71E2                Y   0000008 G12822          71000000                            
4S503891216164539202601152026011500E0000042269003762000376202026011502304333ACT-VENLAFAXINE XR 150MG CAP  ACT-VENLAFAXINE XR 150MG CAP. 030000000000028028RHEAD          KIMBERLEY   RHEAD          KIMBERLEY   19540419F49344262    344262   624873         10003000575000172000000000000001215000000000000000000000000000000001962000747000000000000000000001215000000000000000000000000000275001098000000000000000000000000000000000000000000 E2D4D8WH    00000026679000747000-00172281604FF CA 1220000000000000                   Y202606014                       76110     000003          03              DA  000589D4870 0367R84 003762042003762042R000280000280       KC         71E2                Y   0000008 G76110          71000000                            
4S503891217164540202601152026011500E0000042269003762000376202026011502304325ACT-VENLAFAXINE XR 75MG CAP   ACT-VENLAFAXINE XR 75MG CAP.  030000000000028028RHEAD          KIMBERLEY   RHEAD          KIMBERLEY   19540419F49344262    344262   624873         10003000544000163000000000000001215000000000000000000000000000000001922000707000000000000000000001215000000000000000000000000000269001076000000000000000000000000000000000000000000 E2D4D8WH    00000025250000707000-00163281604FF CA 1220000000000000                   Y202606014                       76110     000003          03              DA  000577D4870 0367R84 003762044003762044R000280000280       KC         71E2                Y   0000008 G76110          71000000                            
4S503891291164554202601152026011500E0000042269003762000376202026011502504197JAMP-ATORVASTATIN 10MG TAB    JAMP-ATORVASTATIN 10MG CO.    050000000000030030LUGRIN         RUTH        LUGRIN         RUTH        19510117F49310138    310138   281430         10003000557000167000000000000001215000000000000000000000000000000001939000724000000000000000000001215000000000000000000000600000000001339000000000000000000000000000000000000000000 E2D4D8WH    00000024133000724000-00167240608FF TA 1220000000000000                   Y202605014                       9969      000005          05              DA  000000D4870 03  R40 003762060003762060N000300000300       KC         71E2                Y   0000008 G9969           71000000                            
4S503891333164564202601152026011510E0000042269003762000376202026011502443937JARDIANCE 10MG TAB            JARDIANCE 10MG CO.            050000000000030030LUGRIN         RUTH        LUGRIN         RUTH        19510117F49310138    310138   281430         10003008975000897000000000000001215000000000000000000000000000000011087000000000000000000000000000000000000000000000000000000000000000000000000000000000000000000000000000000000000 E2CO        00000000000000000000000000682018FF TA 1220000000000000                   N000000004                       9969      000005          05              DA  008588D4870 03  R60 003762079003762079N000300000000       KC         71E2D1              E   000000   9969           71000000                            
4S503891383164578202601152026011500E0000042269003762000376202026011502403587APO-MOMETASONE 50MCG NAS SPR  APO-MOMETASONE 50MCG VAP. NAS 010000000000140030BECKER         GRANT       BECKER         GRANT       19440506M49282368    282368   101294         10003001122000168000000000000001215000000000000000000000000000000002505001290000000000000000000001215000000000000000000000000001215000614000000000000000000000000000000000000000000 E2D4D8WH    00000009214001290000-00168520808FF NA 1220000000000000                   Y202607014                       134043    000001          01              DA  000676D4870 03  R82 003762081003762081R001400001400       KC         71E2                Y   0000008 G134043         71000000                            
4S503891590164588202601152026011500E0000042269003762000376202026011502314185SANDOZ-RABEPRAZOLE EC 20MG TABSANDOZ-RABEPRAZOLE EC 20MG CO.110000000000062031SPENCER        KATHERINE   SPENCER        KATHERINE   19580213F49344262    344262   929360         10003000884000133000000000000001215000000000000000000000000000000002232001016000000000000000000001215000000000000000000000000000446001785000000000000000000000000000000000000000000 E2DGD4D8ERES00000016387001016000-00132562836FF TA 1220000000000000                   Y202606014                       1066      000011          11              DA  000000D4870 03  R74 003762090003762090N000620000620       KC         71E2DJENEO          Y   0000008 G1066           71000000                            
4S503892680164680202601152026011500E0000042269003762200376222026011502410753LORAZEPAM 1MG SL TAB          LORAZEPAM 1MG SL CO.          000000000000006003HICKEY         JACQUELINE  HICKEY         JACQUELINE  19620206F49344262    344262   214104         10003000105000032000000000000001215000000000000000000000000000000001352000137000000000000000000001215000000000000000000000000000270001082000000000000000000000000000000000000000000 E2D4D8WH    00000022833000137000-00032282408FF TA 1220000000000000                   Y202606014                       D4870     000000          00              DA  000000D4870 03  R88 003762208003762208N000060000060       KC         76E2                N   0000008 GD4870          76000000                            
4S503893150164708202601152026011500E0000042269003762200376222026011502420066MAR-CELECOXIB 200MG CAP       MAR-CELECOXIB 200MG CAP.      010000000000090090DEDMAN         BRENDA      DEDMAN         BRENDA      19551120F49344262    344262   821962         10003002453000245000000000000001215000000000000000000000000000000003913002697000000000000000000001215000000000000000000000000000500001999000000000000000000000000000000000000000000 E2DGD4D8WH  00000029967002697000-00244280804FF CA 1220000000000000                   Y202606014                       73173     000001          01              DA  001413D4870 03  R24 003762251003762251N000900000900       KC         71E2DJ              Y   0000008 G73173          71000000                            
5S503893155164711202601152026011500E0000042269003761700376172026011402326450NOVO-SALBUTAMOL HFA 100MCG INHNOVO-SALBUTAMOL HFA 100MCG INH010000000000600090DEDMAN         BRENDA      DEDMAN         BRENDA      19551120F49344262    344262   821962         10003001917000192000000000000001215000000000000000000000000000000003324002109000000000000000000001215000000000000000000000000000500002000000000000000000000000000000000000000000000               000003116002109000-00192121208FF IN 1220000000000000                   Y202606014S503888785164324       73173     000001          01              DA  000824D4870 0369R32 003761704003761704N006000006000       KC         71                  Y   000000  G73173          71000000                            
4S503893472164772202601152026011510E0000042269003762300376232026011501945904ANUSOL PLUS SUPP              ANUSOL PLUS SUPP              010000000000010010BILALLI        ERONA       BILALLI        ERONA       20010610F491149125   1149125  1233150        10003000579000000000000000000000608000000000000000000000000000000001187000000000000000000000000000000000000000000000000000000000000000000000000000000000000000000000000000000000000 E2CO        00000000000000000000000000840800UDRSU 1220000000000000                   N000000004                       132840    000001          01              DA  000000D4870 03  B99 003762318003762318N000100000000       KC         99E2D1              N   000000   132840         99000000                            
60000160001145600015456                                                                                                                                                                                                                                                                                                                                                                                                                                                                                                                                                                                                                                                                                                                                                       
20000042271BABER'S PHARMASAVE 447        130 MAIN STREET BOX 490                                               BALCARRES                          SKS0G0C03063342424E0          Y                                                                                                                                                                                                                                                                                                                                                                                                                                                                                                                                                                                             
4S503890396893770202601152026011500E0000042271003527600352762026011501964054ORACORT 0.10% DENTAL PASTE    ORACORT 0.1% POM.DENTAIRE     010000000000007007BLAYONE        SHIRLEY     BLAYONE        SHIRLEY     19520322F49344262    344262   496812         10003001355000203000000000000001215000000000000000000000000000000002773001558000000000000000000001215000000000000000000000000000129000515000000000000000000000000000000000000000000 E2D4D8WH    00000207733001558000-00203840608FF MI 1220000000000000                   Y202606014                       43573     000001          01              DA  002129D4424 0338R94 003527680003527680N000075000075       KC         77E2                Y   0000008 G43573          77000000                            
4S503890397893771202601152026011500E0000042271003527600352762026011502474522TRELEGY ELLIPTA 100/62.5/25MCGTRELEGY ELLIPTA 100/62.5/25MCG010000000000030030BLAYONE        SHIRLEY     BLAYONE        SHIRLEY     19520322F49344262    344262   496812         10003014935001494000000000000001215000000000000000000000000000000017644016429000000000000000000001215000000000000000000000000000917003670000000000000000000000000000000000000000000 E2D4D8WH    00000547633016429000-01494680400FF IN 1220000000000000                   Y202606014                       43573     000001          01              DA  013057D4424 03  R32 003527681003527681N000300000300       KC         77E2                E   0000008  43573          77000000                            
4S503891586893833202601152026011500E0000042271003527700352772026011502433079JAMP-AMOXICILLIN 500MG CAP    JAMP-AMOXICILLIN 500MG CAP.   000000000000004001HENLEY         JEAN        HENLEY         WARREN      19570716M49344262    344262   169702         10113000056000017000000000000001215000000000000000000000000000000001288000072000000000000000000001215000000000000000000000000000257001030000000000000000000000000000000000000000000 E2DGD4D8WH  00000018000000072000-00016081216FF CA 1220000000000000                   Y202606014                       72424     000000          00              DA  000000D4424 03  R16 003527740003527740N000040000040       KC           E2DJ              Y   0000008 G72424            000000                            
4S503892912893941202601152026011500E0000042271003527800352782026011502504200JAMP-ATORVASTATIN 20MG TAB    JAMP-ATORVASTATIN 20MG CO.    010000000000030030SCHILL         LUCILLE     SCHILL         LUCILLE     19451105F49344262    344262   350452         10003000696000104000000000000001215000000000000000000000000000000002015000800000000000000000000001215000000000000000000000000000403001612000000000000000000000000000000000000000000 E2D4D8WH    00000026667000800000-00104240608FF TA 1220000000000000                   Y202606014                       11538     000001          01              DA  000000D4424 03  R40 003527851003527851R000300000300       KC         71E2                Y   0000008 G11538          71000000                            
4S503892913893942202601152026011500E0000042271003527800352782026011502422255MAR-CLOPIDOGREL 75MG TAB      MAR-CLOPIDOGREL 75MG CO.      010000000000030030SCHILL         LUCILLE     SCHILL         LUCILLE     19451105F49344262    344262   350452         10003000841000126000000000000001215000000000000000000000000000000002182000967000000000000000000001215000000000000000000000000000436001746000000000000000000000000000000000000000000 E2D4D8WH    00000032233000967000-00126201218FF TA 1220000000000000                   Y202606014                       11538     000001          01              DA  000000D4424 03  R48 003527852003527852R000300000300       KC         71E2                Y   0000008 G11538          71000000                            
4S503892914893943202601152026011500E0000042271003527800352782026011502422662MAR-EZETIMIBE 10MG TAB        MAR-EZETIMIBE 10MG CO.        010000000000030030SCHILL         LUCILLE     SCHILL         LUCILLE     19451105F49344262    344262   350452         10003000579000174000000000000001215000000000000000000000000000000001968000752000000000000000000001215000000000000000000000000000393001574000000000000000000000000000000000000000000 E2QODGD4D8WH00000025067000752000-00173240605FF TA 1220000000000000                   Y202606014                       11538     000001          01              DA  000000D4424 03  R40 003527853003527853R000300000300       KC         71E2QODJ            Y   0000008 G11538          71000000                            
4S503892915893944202601152026011500E0000042271003527800352782026011502251574APO-RAMIPRIL 5MG CAP          APO-RAMIPRIL 5MG CAP.         020000000000030030SCHILL         LUCILLE     SCHILL         LUCILLE     19451105F49344262    344262   350452         10003000261000078000000000000001215000000000000000000000000000000001554000339000000000000000000001215000000000000000000000000000311001243000000000000000000000000000000000000000000 E2D4D8WH    00000011300000339000-00078243204FF CA 1220000000000000                   Y202606014                       1564      000002          02              DA  000000D4424 03  R44 003527855003527855R000300000300       KC         00E2                Y   0000008 G1564           00000000                            
4S503892922893945202601152026011500E0000042271003527800352782026011502245058APO-OMEPRAZOLE 20MG CAP       APO-OMEPRAZOLE 20MG CAP.      010000000000060030SCHILL         LUCILLE     SCHILL         LUCILLE     19451105F49344262    344262   350452         10003001461000219000000000000001215000000000000000000000000000000002895001680000000000000000000001215000000000000000000000000000579002316000000000000000000000000000000000000000000 E2D4D8WH    00000028000001680000-00219562836FF CA 1220000000000000                   Y202606014                       11538     000001          01              DA  000000D4424 03  R74 003527854003527854R000600000600       KC         71E2                Y   0000008 G11538          71000000                            
4S503892929893947202601152026011500E0000042271003527800352782026011502284391SANDOZ-AMLODIPINE 10MG TAB    SANDOZ-AMLODIPINE 10MG CO.    010000000000030030SCHILL         LUCILLE     SCHILL         JOSEPH      19440126M49344262    344262   350452         10113000637000096000000000000001215000000000000000000000000000000001948000732000000000000000000001215000000000000000000000000000389001558000000000000000000000000000000000000000000 E2DGD4D8WH  00000024400000732000-00095242808FF TA 1220000000000000                   Y202606014                       11538     000001          01              DA  000000D4424 03  R44 003527857003527857R000300000300       KC         71E2DJ              Y   0000008 G11538          71000000                            
4S503892930893948202601152026011500E0000042271003527800352782026011502504197JAMP-ATORVASTATIN 10MG TAB    JAMP-ATORVASTATIN 10MG CO.    010000000000030030SCHILL         LUCILLE     SCHILL         JOSEPH      19440126M49344262    344262   350452         10113000557000167000000000000001215000000000000000000000000000000001939000724000000000000000000001215000000000000000000000000000388001551000000000000000000000000000000000000000000 E2D4D8WH    00000024133000724000-00167240608FF TA 1220000000000000                   Y202606014                       11538     000001          01              DA  000000D4424 03  R40 003527858003527858R000300000300       KC         71E2                Y   0000008 G11538          71000000                            
4S503892931893950202601152026011500E0000042271003527800352782026011502171929TEVA-5 ASA 400MG TAB          TEVA-5 ASA 400MG CO.          010000000000120030SCHILL         LUCILLE     SCHILL         JOSEPH      19440126M49344262    344262   350452         10113006385000639000000000000001215000000000000000000000000000000008239007023000000000000000000001215000000000000000000000000001648006590000000000000000000000000000000000000000000 E2DGD4D8WH  00000058525007023000-00638563600FF TA 1220000000000000                   Y202606014                       11538     000001          01              DA  000000D4424 03  R74 003527860003527860R001200001200       KC         71E2DJ              Y   0000008 G11538          71000000                            
4S503892932893949202601152026011500E0000042271003527800352782026011502337444SDZ-IRBESARTAN-HCTZ 300/25MG  SDZ-IRBESARTAN-HCTZ 300/25MG  010000000000030030SCHILL         LUCILLE     SCHILL         JOSEPH      19440126M49344262    344262   350452         10113000698000105000000000000001215000000000000000000000000000000002018000802000000000000000000001215000000000000000000000000000403001614000000000000000000000000000000000000000000 E2DGD4D8WH  00000026733000802000-00104243208FF TA 1220000000000000                   Y202606014                       11538     000001          01              DA  000000D4424 03  R44 003527859003527859R000300000300       KC         71E2DJ              Y   0000008 G11538          71000000                            
4S503892933893951202601152026011500E0000042271003527800352782026011502480107MAR-METHIMAZOLE 5MG TAB       MAR-METHIMAZOLE 5MG CO.       010000000000030030SCHILL         LUCILLE     SCHILL         JOSEPH      19440126M49344262    344262   350452         10113000489000147000000000000001215000000000000000000000000000000001851000636000000000000000000001215000000000000000000000000000370001481000000000000000000000000000000000000000000 E2D4D8WH    00000021200000636000-00147683608FF TA 1220000000000000                   Y202606014                       11538     000001          01              DA  000000D4424 03  R02 003527861003527861R000300000300       KC         71E2                Y   0000008 G11538          71000000                            
60000150002650000026500                                                                                                                                                                                                                                                                                                                                                                                                                                                                                                                                                                                                                                                                                                                                                       
20000042295PHARMASAVE #438               WRIGHT'S PHARMACY                  BOX 100 - 701 LALONDE STREET       WHITEWOOD                          SKS0G5C03067352303E1NEIGHBOUR Y                                                                                                                                                                                                                                                                                                                                                                                                                                                                                                                                                                                             
4S503890663586964202601152026011500E0000042295003132300313232026011502397358AURO-ESCITALOPRAM 10MG TAB    AURO-ESCITALOPRAM 10MG CO.    010000000000030030ELLIS          YVONNE      ELLIS          YVONNE      19651205F49344262    344262   1302569        10003000994000149000000000000001215000000000000000000000000000000002358001142000000000000000000001215000000000000000000000000000471001886000000000000000000000000000000000000000000 E2DGD4D8ERES00000038067001142000-00148281604FF TA 1220000000000000                   Y202606014                       75651     000001          01              DA  000000D4954 03  R84 003132314003132314R000300000300       KC         71E2DJENEO          Y   0000008 G75651          71000000                            
4S503890665586965202601152026011500E0000042295003132300313232026011502470683PMS-PERINDOPRIL 4MG TAB       PMS-PERINDOPRIL 4MG CO.       010000000000030030ELLIS          YVONNE      ELLIS          YVONNE      19651205F49344262    344262   1302569        10003000653000098000000000000001215000000000000000000000000000000001966000750000000000000000000001215000000000000000000000000000393001572000000000000000000000000000000000000000000 E2DGD4D8ERES00000025000000750000-00097243204FF TA 1220000000000000                   Y202606014                       75651     000001          01              DA  000000D4954 03  R44 003132315003132315R000300000300       KC         71E2DJENEO          Y   0000008 G75651          71000000                            
4S503890944586985202601152026011500E0000042295003132300313232026011502375958SANDOZ TELMISARTAN 40MG TAB   SANDOZ TELMISARTAN 40MG CO.   050000000000030030BEUTLER        MURIEL      BEUTLER        MURIEL      19560430F49344262    344262   732144         10003000691000104000000000000001215000000000000000000000000000000002010000794000000000000000000001215000000000000000000000000000402001607000000000000000000000000000000000000000000 E2DGD4D8WH  00000026467000794000-00103243208FF TA 1220000000000000                   Y202606014                       100444    000005          05              DA  000000D4954 03  R44 003132344003132344N000300000300       KC         71E2DJ              Y   0000008 G100444         71000000                            
4S503890945586986202601152026011500E0000042295003132300313232026011502443708MAR-RANITIDINE 150MG TAB      MAR-RANITIDINE 150MG CO.      050000000000060030BEUTLER        MURIEL      BEUTLER        MURIEL      19560430F49344262    344262   732144         10003000765000115000000000000001215000000000000000000000000000000002095000880000000000000000000001215000000000000000000000000000419001676000000000000000000000000000000000000000000 E2D4D8WH    00000014667000880000-00115562812FF TA 1220000000000000                   Y202606014                       100444    000005          05              DA  000000D4954 03  R74 003132346003132346N000600000600       KC         71E2                Y   0000008 G100444         71000000                            
4S503890946586987202601152026011500E0000042295003132300313232026011502246010APO-METOPROLOL 25MG TAB       APO-METOPROLOL 25MG CO.       050000000000060030BEUTLER        MURIEL      BEUTLER        MURIEL      19560430F49344262    344262   732144         10003000411000123000000000000001215000000000000000000000000000000001749000534000000000000000000001215000000000000000000000000000350001399000000000000000000000000000000000000000000 E2D4D8WH    00000008900000534000-00123242000FF TA 1220000000000000                   Y202606014                       100444    000005          05              DA  000000D4954 03  R46 003132347003132347N000600000600       KC         71E2                Y   0000008 G100444         71000000                            
4S503890947586988202601152026011500E0000042295003132300313232026011502354608TEVA-ROSUVASTATIN 5MG TAB     TEVA-ROSUVASTATIN 5MG CO.     050000000000030030BEUTLER        MURIEL      BEUTLER        MURIEL      19560430F49344262    344262   732144         10003000410000123000000000000001215000000000000000000000000000000001748000533000000000000000000001215000000000000000000000000000350001398000000000000000000000000000000000000000000 E2D4D8WH    00000017767000533000-00123240608FF TA 1220000000000000                   Y202606014                       100444    000005          05              DA  000000D4954 03  R40 003132348003132348N000300000300       KC         71E2                Y   0000008 G100444         71000000                            
4S503890952586989202601152026011500E0000042295003132300313232026011502172119SYNTHROID 125MCG TAB          SYNTHROID 125MCG CO.          010000000000090090BEUTLER        MURIEL      BEUTLER        MURIEL      19560430F49344262    344262   732144         10003001215000182000000000000001215000000000000000000000000000000002612000761000000000000000000001215000000000000000000000000000395001581000000000000000000000000000000000000000000 DFE2D4D8WH  00000008456000761000000454683604FF TA 1220000000000000                   Y202606014                       100444    000001          01              DA  000000D4954 03  R02 003132349003132349N000900000900       KC         71D8E2              Y   0000008 B100444         71000000                            
4S503891112586997202601152026011500E0000042295003132300313232026011502326973SANDOZ CANDESARTAN 16MG TAB   SANDOZ-CANDESARTAN 16MG CO.   030000000000030030BRULE-FRANCIS  HELEN       BRULE-FRANCIS  HELEN       19590107F49344262    344262   1190853        10003000729000109000000000000001215000000000000000000000000000000002053000838000000000000000000001215000000000000000000000000000222000887000000000000000000000000000000000000000000 E2D4D8WH    00000027933000838000-00109243208FF TA 1220000000000000                   Y202606014                       125122    000003          03              DA  000944D4954 03  R44 003132355003132355R000300000300       KC         71E2                Y   0000008 G125122         71000000                            
4S503891113586998202601152026011500E0000042295003132300313232026011500021474TEVA-HYDRAZIDE 25MG TAB       TEVA-HYDRAZIDE 25MG CO.       030000000000060030BRULE-FRANCIS  HELEN       BRULE-FRANCIS  HELEN       19590107F49344262    344262   1190853        10003000101000030000000000000001215000000000000000000000000000000001346000130000000000000000000001215000000000000000000000000000145000581000000000000000000000000000000000000000000 E2DGD4D8WH  00000002167000130000-00029402820FF TA 1220000000000000                   Y202606014S503891203587006       125122    000003          03              DA  000619D4954 03  R70 003132356003132356R000600000600       KC         71E2DJ              Y   0000008 G125122         71000000                            
4S503891115586999202601152026011500E0000042295003132300313232026011502321149MYLAN-NIFEDIPINE ER 60MG TAB  MYLAN-NIFEDIPINE ER 60MG CO.  040000000000030030BRULE-FRANCIS  HELEN       BRULE-FRANCIS  HELEN       19590107F49344262    344262   1190853        10003002995000300000000000000001215000000000000000000000000000000004510003294000000000000000000001215000000000000000000000000000487001947000000000000000000000000000000000000000000 E2DGD4D8WH  00000109800003294000-00299242808FF TA 1220000000000000                   Y202606014                       125122    000004          04              DA  002075D4954 0361R46 003132358003132358R000300000300       KC         71E2DJ              Y   0000008 G125122         71000000                            
4S503891117587000202601152026011500E0000042295003132300313232026011502246010APO-METOPROLOL 25MG TAB       APO-METOPROLOL 25MG CO.       040000000000030030BRULE-FRANCIS  HELEN       BRULE-FRANCIS  HELEN       19590107F49344262    344262   1190853        10003000205000062000000000000001215000000000000000000000000000000001482000267000000000000000000001215000000000000000000000000000160000640000000000000000000000000000000000000000000 E2D4D8WH    00000008900000267000-00062242000FF TA 1220000000000000                   Y202606014                       125122    000004          04              DA  000682D4954 03  R46 003132359003132359R000300000300       KC         71E2                Y   0000008 G125122         71000000                            
4S503891118587001202601152026011500E0000042295003132300313232026011502487403APO-APIXABAN 5MG TAB          APO-APIXABAN 5MG CO.          040000000000060030BRULE-FRANCIS  HELEN       BRULE-FRANCIS  HELEN       19590107F49344262    344262   1190853        10003002610000261000000000000001215000000000000000000000000000000004086002871000000000000000000001215000000000000000000000000000441001765000000000000000000000000000000000000000000 E2D4D8WH    00000047850002871000-00261201204FF TA 1220000000000000                   Y202606014                       125122    000004          04              DA  001880D4954 03  R48 003132360003132360R000600000600       KC         71E2                Y   0000008 G125122         71000000                            
4S503891119587002202601152026011500E0000042295003132300313232026011580108882PHARMARIS K-8 TAB             PHARMARIS K-8  CO.            040000000000030030BRULE-FRANCIS  HELEN       BRULE-FRANCIS  HELEN       19590107F49344262    344262   1190853        10003000141000042000000000000001215000000000000000000000000000000001398000183000000000000000000001215000000000000000000000000000151000604000000000000000000000000000000000000000000 E2D4D8WH    00000006100000183000-00042920113UC TA 1220000000000000                   Y202606014                       125122    000004          04              DA  000643D4954 03  B05 003132361003132361R000300000300       KC         71E2                Y   0000008 G125122         71000000                            
4S503891129587003202601152026011500E0000042295003132300313232026011502301083SANDOZ-PANTOPRAZOLE 40MG TAB  SANDOZ-PANTOPRAZOLE 40MG CO.  040000000000015030BRULE-FRANCIS  HELEN       BRULE-FRANCIS  HELEN       19590107F49344262    344262   1190853        10003000322000097000000000000001215000000000000000000000000000000001634000419000000000000000000001215000000000000000000000000000179000717000000000000000000000000000000000000000000 E2D4D8WH    00000027933000419000-00097562836FF TA 1220000000000000                   Y202606014                       125122    000004          04              DA  000738D4954 03  R74 003132357003132357R000150000150       KC         71E2                Y   0000008 G125122         71000000                            
4S503891146587004202601152026011500E0000042295003132300313232026011502443872AURO-OLMESARTAN 40MG TAB      AURO-OLMESARTAN 40MG CO.      100000000000030030MATSALLA       DONNA       MATSALLA       KEN         19590505M49344262    344262   1198144        10113000965000145000000000000001215000000000000000000000000000000002325001109000000000000000000001215000000000000000000000000000465001859000000000000000000000000000000000000000000 E2DGD4D8WH  00000036967001109000-00144243208FF TA 1220000000000000                   Y202606014                       125122    000010          10              DA  000000D4954 03  R44 003132365003132365R000300000300       KC         71E2DJ              Y   0000008 G125122         71000000                            
4S503891147587005202601152026011500E0000042295003132300313232026011502354624TEVA-ROSUVASTATIN 20MG TAB    TEVA-ROSUVASTATIN 20MG CO.    100000000000030030MATSALLA       DONNA       MATSALLA       KEN         19590505M49344262    344262   1198144        10113000541000162000000000000001215000000000000000000000000000000001918000703000000000000000000001215000000000000000000000000000384001534000000000000000000000000000000000000000000 E2D4D8WH    00000023433000703000-00162240608FF TA 1220000000000000                   Y202606014                       125122    000010          10              DA  000000D4954 03  R40 003132366003132366R000300000300       KC         71E2                Y   0000008 G125122         71000000                            
5S503891203587006202601152026011500E0000042295003132300313232026011500021474TEVA-HYDRAZIDE 25MG TAB       TEVA-HYDRAZIDE 25MG CO.       030000000000060030BRULE-FRANCIS  HELEN       BRULE-FRANCIS  HELEN       19590107F49344262    344262   1190853        10003000101000030000000000000001215000000000000000000000000000000001346000130000000000000000000001215000000000000000000000000000145000581000000000000000000000000000000000000000000               000002667000130000-00029402820FF TA 1220000000000000                   Y202606014S503891113586998       125122    000003          03              DA  000619D4954 03  R70 003132356003132356R000600000600       KC         71                  Y   000000  G125122         71000000                            
4S503891243587007202601152026011500E0000042295003132300313232026011502426196MINT-HYDROCHLOROTHIAZIDE 25MG MINT-HYDROCHLOROTHIAZIDE 25MG 030000000000060030BRULE-FRANCIS  HELEN       BRULE-FRANCIS  HELEN       19590107F49344262    344262   1190853        10003000100000030000000000000001215000000000000000000000000000000001345000130000000000000000000001215000000000000000000000000000145000581000000000000000000000000000000000000000000 E2D4D8WH    00000002167000130000-00030402820FF TA 1220000000000000                   Y202606014                       125122    000003          03              DA  000619D4954 03  R70 003132372003132372R000600000600       KC         71E2                Y   0000008 G125122         71000000                            
4S503891802587019202601152026011500E0000042295003132400313242026011502092832METROGEL 0.75% GEL            METROGEL 0.75% GEL            030000000000060007MACPHERSON     ROXANNE     MACPHERSON     ROXANNE     19650312F49344262    344262   1124654        10003028980002000000000000000001215000000000000000000000000000000032195030980000000000000000000001215000000000000000000000000006439025756000000000000000000000000000000000000000000 E2D4D8WH    00000516333030980000-02000840404FF GE 1220000000000000                   Y202606014S503891861587020       125122    000003          03              DA  000000D4954 0338R94 003132415003132415N000600000600       KC         71E2                N   0000008  125122         71000000                            
5S503891861587020202601152026011500E0000042295003132400313242026011502092832METROGEL 0.75% GEL            METROGEL 0.75% GEL            030000000000060007MACPHERSON     ROXANNE     MACPHERSON     ROXANNE     19650312F49344262    344262   1124654        10003028980002000000000000000001215000000000000000000000000000000032195030980000000000000000000001215000000000000000000000000006439025756000000000000000000000000000000000000000000               000516333030980000-02000840404FF GE 1220000000000000                   Y202606014S503891802587019       125122    000003          03              DA  000000D4954 0338R94 003132415003132415N000600000600       KC         71                  N   000000   125122         71000000                            
4S503892010587024202601152026011510E0000042295003132400313242026011502315963PMS-CETIRIZINE 20MG TAB       PMS-CETIRIZINE 20MG CO.       040000000000030030FRIER          MALCOLM     FRIER          MYA         20060109F49310138    310138   746749         10223002408000241000000000000001215000000000000000000000000000000003864000000000000000000000000000000000000000000000000000000000000000000000000000000000000000000000000000000000000 E2CO        00000000000000000000000000040000FF TA 1220000000000000                   N000000004                       125122    000004          04              DA  000000D4954 0353R21 003132430003132430R000300000000       KC         71E2D1              N   000000  G125122         71000000                            
4S503892012587025202601152026011500E0000042295003132400313242026011502410257MIRVALA 28 TAB                MIRVALA 28 CO.                020000000000084084FRIER          MALCOLM     FRIER          MYA         20060109F49310138    310138   746749         10223001689000169000000000000001215000000000000000000000000000000003073001855000000000000000000001215000000000000000000000600000000002470000000000000000000000000000000000000000000 E2DGD4D8WH  00000022083001855000-00166681200FF TA 1220000000000000                   Y202610014                       125122    000002          02              DA  000000D4954 03  R12 003132431003132431R000840000840       KC         71E2DJ              Y   0000008 G125122         71000000                            
4S503892015587026202601152026011500E0000042295003132400313242026011502403587APO-MOMETASONE 50MCG NAS SPR  APO-MOMETASONE 50MCG VAP. NAS 020000000000140014FRIER          MALCOLM     FRIER          MYA         20060109F49310138    310138   746749         10223001122000168000000000000001215000000000000000000000000000000002505001290000000000000000000001215000000000000000000000600000000001905000000000000000000000000000000000000000000 E2D4D8WH    00000009214001290000-00168520808FF NA 1220000000000000                   Y202610014                       125122    000002          02              DA  000000D4954 03  R82 003132432003132432R001400001400       KC         71E2                Y   0000008 G125122         71000000                            
60000250002602800078702                                                                                                                                                                                                                                                                                                                                                                                                                                                                                                                                                                                                                                                                                                                                                       
20000042333WOODLAND PHARMACY LTD         P.O. BOX 160 9 MAIN STREET                                            SHELLBROOK                         SKS0J2E03067472545E0          Y                                                                                                                                                                                                                                                                                                                                                                                                                                                                                                                                                                                             
4S503893445046643202601152026011500E0000042333003655400365542026011502540207AREXVY 120MCG/0.5ML INJ       AREXVY 120MCG/0.5ML INJ.      000000000000001001PEDERSON       KEN         PEDERSON       CINDY       19600618F49282368    282368   864328         10113026603002000000000000000001215000000000000000000000000000000029818028602000000000000000000001215000000000000000000000000001215028602000000000000000000000000000000000000000000 E2LMDGD4D8WH00028602000028602000-01999801200FF IN 1220000000000000                   Y202607014                       D2678     000000          00              DA  000000D2678 0332Z01 003655479003655479N000010000010       KC         76E2DJ              N   0000008  D2678          76000000                            
4S503893450046644202601152026011500E0000042333003655400365542026011502540207AREXVY 120MCG/0.5ML INJ       AREXVY 120MCG/0.5ML INJ.      000000000000001001PEDERSON       KEN         PEDERSON       KEN         19550614M49282368    282368   864328         10003026603002000000000000000001215000000000000000000000000000000029818028602000000000000000000001215000000000000000000000000001215028602000000000000000000000000000000000000000000 E2LMDGD4D8WH00028602000028602000-01999801200FF IN 1220000000000000                   Y202607014                       D2678     000000          00              DA  000000D2678 0332Z01 003655481003655481N000010000010       KC         76E2DJ              N   0000008  D2678          76000000                            
60000040005720400057204                                                                                                                                                                                                                                                                                                                                                                                                                                                                                                                                                                                                                                                                                                                                                       
20000042337SPIRITWOOD PHARMACY           120 MAIN STREET BOX 279                                               SPIRITWOOD                         SKS0J2M03068832391E0          Y                                                                                                                                                                                                                                                                                                                                                                                                                                                                                                                                                                                             
4S503890482044951202601152026011500E0000042337003805300380532026011502359626PMS-PREGABALIN 75MG CAP       PMS-PREGABALIN 75MG CAP.      020000000000060030PROULX         MARCEL      PROULX         EUNICE      19531123F49310138    310138   342139         10113001922000192000000000000001215000000000000000000000000000000003329002114000000000000000000001215000000000000000000000600000000001364000000000000000000000000000000000000000000 E2D4D8WH    00000035233002114000-00192280892FF CA 1220000000000000                   Y202602154                       9910      000002          02              DA  001365D3795 03  R08 003805327003805327N000600000600       KC         71E2                Y   0000008 G9910           71000000                            
4S503892806045097202601152026011500E0000042337003805500380552026011502248855PMS-METOPROLOL-L 25MG TAB     PMS-METOPROLOL-L 25MG CO.     000000000000030030SPENCE         ERIC        SPENCE         ERIC        19570718M49310138    310138   57427          10003000205000062000000000000001215000000000000000000000000000000001482000267000000000000000000001215000000000000000000000104000000000000000000000000000000000000000000000000000000 E2D4D8WHLK  00000008900000267000-00062242000FF TA 1220000000000000                   Y202610154                       13225     000000          00              DA  001378D3795 03  R46 003805557003805557R000300000300       KC         71E2LK              Y   0000008 G13225          710000006027                        
4S503892807045098202601152026011500E0000042337003805500380552026011502284391SANDOZ-AMLODIPINE 10MG TAB    SANDOZ-AMLODIPINE 10MG CO.    000000000000030030SPENCE         ERIC        SPENCE         ERIC        19570718M49310138    310138   57427          10003000637000096000000000000001215000000000000000000000000000000001948000732000000000000000000001215000000000000000000000135000000000000000000000000000000000000000000000000000000 E2DGD4D8WHLK00000024400000732000-00095242808FF TA 1220000000000000                   Y202610154                       13225     000000          00              DA  001812D3795 03  R44 003805558003805558R000300000300       KC         71E2DJLK            Y   0000008 G13225          710000006027                        
4S503892808045099202601152026011500E0000042337003805500380552026011502420740SANDOZ-CANDESAR PLUS 32/25MG  SANDOZ CANDESAR PLUS 32/25MG  000000000000030030SPENCE         ERIC        SPENCE         ERIC        19570718M49310138    310138   57427          10003000961000144000000000000001215000000000000000000000000000000002320001105000000000000000000001215000000000000000000000162000000000000000000000000000000000000000000000000000000 E2D4D8WHLK  00000036833001105000-00144243208FF TA 1220000000000000                   Y202610154                       13225     000000          00              DA  002158D3795 03  R44 003805559003805559R000300000300       KC         71E2LK              Y   0000008 G13225          710000006027                        
4S503892809045100202601152026011500E0000042337003805500380552026011502378531PMS-ROSUVASTATIN 10MG TAB     PMS-ROSUVASTATIN 10MG CO.     000000000000030030SPENCE         ERIC        SPENCE         ERIC        19570718M49310138    310138   57427          10003000433000130000000000000001215000000000000000000000000000000001778000562000000000000000000001215000000000000000000000123000000000000000000000000000000000000000000000000000000 E2DGD4D8WHLK00000018733000562000-00129240608FF TA 1220000000000000                   Y202610154                       13225     000000          00              DA  001654D3795 03  R40 003805560003805560R000300000300       KC         71E2DJLK            Y   0000008 G13225          71000000                            
4S503893005045108202601152026011500E0000042337003805500380552026011500021474TEVA-HYDRAZIDE 25MG TAB       TEVA-HYDRAZIDE 25MG CO.       010000000000180090PURDY          VIONA       PURDY          DONALD      19521026M49344262    344262   801575         10113000301000090000000000000001215000000000000000000000000000000001606000391000000000000000000001215000000000000000000000000000145000578000000000000000000000000000000000000000000 E2D4D8WH    00000002172000391000-00090402820FF TA 1220000000000000                   Y202606014S503893007045109       12842     000001          01              DA  000883D3795 03  R70 003805580003805580N001800001800       KC         71E2                Y   0000008 G12842          71000000                            
5S503893007045109202601152026011500E0000042337003805500380552026011500021474TEVA-HYDRAZIDE 25MG TAB       TEVA-HYDRAZIDE 25MG CO.       010000000000180090PURDY          VIONA       PURDY          DONALD      19521026M49344262    344262   801575         10113000301000090000000000000001215000000000000000000000000000000001606000391000000000000000000001215000000000000000000000000000145000578000000000000000000000000000000000000000000               000002772000391000-00090402820FF TA 1220000000000000                   Y202606014S503893005045108       12842     000001          01              DA  000883D3795 03  R70 003805580003805580N001800001800       KC         71                  Y   000000  G12842          71000000                            
60000090000136400002520                                                                                                                                                                                                                                                                                                                                                                                                                                                                                                                                                                                                                                                                                                                                                       
20000042350PHARMASAVE #429               531 MAIN STREET                    PO BOX 1210                        HUMBOLDT                           SKS0K2A03066822616E1NEIGHBOUR Y                                                                                                                                                                                                                                                                                                                                                                                                                                                                                                                                                                                             
4S503890999569452202601152026011500E0000042350002189200218922026011502550768APO-LEVOTHYROXINE 125MCG TAB  APO-LEVOTHYROXINE 125MCG CO.  050000000000030030HERMANN        TERRY       HERMANN        TERRY       19670726M49310138    310138   1037938        10003000220000066000000000000001215000000000000000000000000000000001501000286000000000000000000001215000000000000000000000600000000000901000000000000000000000000000000000000000000 E2D4D8WH    00000009533000286000-00066683604FF TA 1220000000000000                   Y202603264                       76977     000005          05              DA  000000D5075 03  R02 002189252002189252N000300000300       KC         71E2                Y   0000008 G76977          71000000                            
4S503891007569454202601152026011500E0000042350002189200218922026011502470683PMS-PERINDOPRIL 4MG TAB       PMS-PERINDOPRIL 4MG CO.       050000000000030030HERMANN        TERRY       HERMANN        TERRY       19670726M49310138    310138   1037938        10003000652000098000000000000001215000000000000000000000000000000001965000750000000000000000000001215000000000000000000000600000000001365000000000000000000000000000000000000000000 E2D4D8WH    00000025000000750000-00098243204FF TA 1220000000000000                   Y202603264                       76977     000005          05              DA  000000D5075 03  R44 002189254002189254N000300000300       KC         71E2                Y   0000008 G76977          71000000                            
4S503891013569456202601152026011500E0000042350002189200218922026011502504197JAMP-ATORVASTATIN 10MG TAB    JAMP-ATORVASTATIN 10MG CO.    050000000000030030HERMANN        TERRY       HERMANN        TERRY       19670726M49310138    310138   1037938        10003000557000167000000000000001215000000000000000000000000000000001939000724000000000000000000001215000000000000000000000600000000001339000000000000000000000000000000000000000000 E2D4D8WH    00000024133000724000-00167240608FF TA 1220000000000000                   Y202603264                       76977     000005          05              DA  000000D5075 03  R40 002189255002189255N000300000300       KC         71E2                Y   0000008 G76977          71000000                            
4S503892221569495202601152026011500E0000042350002189300218932026011502482258SANDOZ RIVAROXABAN 20MG TAB   SANDOZ RIVAROXABAN 20MG CO.   000000000000015030KIRSCH         WENDY       KIRSCH         BRENT       19600217M49344262    344262   1149533        10113001146000172000000000000001215000000000000000000000000000000002533001318000000000000000000001215000000000000000000000000000507002026000000000000000000000000000000000000000000 E2D4D8WH    00000087867001318000-00172201204FF TA 1220000000000000                   Y202606014                       124984    000000          00              DA  000000D5075 03  R48 002189347002189347R000150000150       KC         71E2                Y   0000008 G124984         71000000                            
4S503892222569496202601152026011500E0000042350002189300218932026011502420740SANDOZ-CANDESAR PLUS 32/25MG  SANDOZ CANDESAR PLUS 32/25MG  000000000000030030KIRSCH         WENDY       KIRSCH         BRENT       19600217M49344262    344262   1149533        10113000961000144000000000000001215000000000000000000000000000000002320001105000000000000000000001215000000000000000000000000000464001856000000000000000000000000000000000000000000 E2D4D8WH    00000036833001105000-00144243208FF TA 1220000000000000                   Y202606014                       124984    000000          00              DA  000000D5075 03  R44 002189348002189348R000300000300       KC         71E2                Y   0000008 G124984         71000000                            
4S503892229569497202601152026011500E0000042350002189300218932026011502464020TEVA-PERINDO-INDAP 4/1.25MG   TEVA-PERINDO-INDAPA 4/1.25MG  030000000000015030KIRSCH         WENDY       KIRSCH         WENDY       19620223F49344262    344262   1149533        10003000408000122000000000000001215000000000000000000000000000000001745000530000000000000000000001215000000000000000000000000000349001396000000000000000000000000000000000000000000 E2D4D8WH    00000035333000530000-00122243204FF TA 1220000000000000                   Y202606014                       101258    000003          03              DA  000000D5075 03  R44 002189350002189350R000150000150       KC         71E2                Y   0000008 G101258         71000000                            
60000080000888300008883                                                                                                                                                                                                                                                                                                                                                                                                                                                                                                                                                                                                                                                                                                                                                       
20000042365THE DELTA CO-OP PHARMACY      130-2ND AVENUE W                                                      UNITY                              SKS0K4L03062282629E0          Y                                                                                                                                                                                                                                                                                                                                                                                                                                                                                                                                                                                             
4S503890511583564202601152026011500E0000042365001230200123022026011502397714ELIQUIS 5MG TAB               ELIQUIS 5MG CO.               040000000000060030DYCK           RODERICK    DYCK           RODERICK    19521117M49310138    310138   55225          10002010635001063000000000000001215000000000000000000000000000000012913002871000000000000000000001215000000000000000000000600000000001280000000000000000000000000000000000000000000 DFE2D4D8WH  00000047850002871000007764201204FF TA 1220000000000000                   Y202602174                       75670     000004          04              DA  002206D3551 03  R48 001230294001230294R000600000600       KC         71D8E2              Y   0000008 B75670          71000000                            
4S503890516583566202601152026011500E0000042365001230200123022026011502420740SANDOZ-CANDESAR PLUS 32/25MG  SANDOZ CANDESAR PLUS 32/25MG  040000000000034034DYCK           RODERICK    DYCK           RODERICK    19521117M49310138    310138   55225          10003001089000163000000000000001215000000000000000000000000000000002467001252000000000000000000001215000000000000000000000600000000000535000000000000000000000000000000000000000000 E2D4D8WH    00000036824001252000-00163243208FF TA 1220000000000000                   Y202602174                       75670     000004          04              DA  001332D3551 03  R44 001230295001230295R000340000340       KC         71E2                Y   0000008 G75670          71000000                            
4S503890529583567202601152026011500E0000042365001230200123022026011502246010APO-METOPROLOL 25MG TAB       APO-METOPROLOL 25MG CO.       040000000000068034DYCK           RODERICK    DYCK           RODERICK    19521117M49310138    310138   55225          10003000466000140000000000000001215000000000000000000000000000000001821000605000000000000000000001215000000000000000000000600000000000237000000000000000000000000000000000000000000 E2DGD4D8WH  00000008897000605000-00139242000FF TA 1220000000000000                   Y202602174                       75670     000004          04              DA  000983D3551 03  R46 001230296001230296R000680000680       KC         71E2DJ              Y   0000008 G75670          71000000                            
4S503890540583568202601152026011510E0000042365001230200123022026011502295261APO-ATORVASTATIN 10MG TAB     APO-ATORVASTATIN 10MG CO.     040000000000034034DYCK           RODERICK    DYCK           RODERICK    19521117M49310138    310138   55225          10002000631000095000000000000001215000000000000000000000000000000001941000000000000000000000000000000000000000000000000000000000000000000000000000000000000000000000000000000000000 E2COC1      00000000000000000000000000240608FF TA 1220000000000000                   N000000004                       75670     000004          04              DA  001048D3551 03  R40 001230297001230297R000340000000       KC         71E2CS              Y   000000  G75670          71000000                            
4S503890546583569202601152026011500E0000042365001230200123022026011502286610APO-MIRTAZAPINE 15MG TAB      APO-MIRTAZAPINE 15MG CO.      040000000000034034DYCK           RODERICK    DYCK           RODERICK    19521117M49310138    310138   55225          10003000355000106000000000000001215000000000000000000000000000000001676000459000000000000000000001215000000000000000000000600000000000168000000000000000000000000000000000000000000 E2DGD4D8WH  00000013500000459000-00104281604FF TA 1220000000000000                   Y202602174                       75670     000004          04              DA  000906D3551 03  R84 001230298001230298R000340000340       KC         71E2DJ              Y   0000008 G75670          71000000                            
4S503890566583570202601152026011500E0000042365001230200123022026011502320134AURO-TERBINAFINE 250MG TAB    AURO-TERBINAFINE 250MG CO.    040000000000017034DYCK           RODERICK    DYCK           RODERICK    19521117M49310138    310138   55225          10003001397000210000000000000001215000000000000000000000000000000002822001606000000000000000000001215000000000000000000000600000000000697000000000000000000000000000000000000000000 E2DGD4D8WH  00000094471001606000-00209081404FF TA 1220000000000000                   Y202602174                       75670     000004          04              DA  001524D3551 03  R17 001230299001230299R000170000170       KC         71E2DJ              Y   0000008 G75670          71000000                            
60000080000291700002917                                                                                                                                                                                                                                                                                                                                                                                                                                                                                                                                                                                                                                                                                                                                                       
20000042366OUR DRUG STORE                115 MAIN STREET P.O. BOX 877                                          UNITY                              SKS0K4L03062282121E0          Y                                                                                                                                                                                                                                                                                                                                                                                                                                                                                                                                                                                             
4S503890870138254202601152026011500E0000042366001423300142332026011502454130BLEXTEN 20MG TAB              BLEXTEN 20MG CO.              040000000000034034ELDER          BREANNA     ELDER          BREANNA     20010301F49310138    310138   864801         10003004879000488000000000000001215000000000000000000000000000000006582005366000000000000000000001215000000000000000000000600000000005981000000000000000000000000000000000000000000 E2EGDGD4D8WH00000157824005366000-00487040000FF TA 1220000000000000                   Y202602014                       11991     000004          04              DA  000000D4972 0353R21 001423397001423397R000340000340       KC         71E2DJ              N   0000008  11991          710000006027                        
4S503891024138262202601152026011510E0000042366009006200900622026011500621463TEVA-LENOLTEC #4 60MG/300MG   TEVA-LENOLTEC #4 60MG/300MG   030000000000090030NEIL           DEBORA      NEIL           BRIAN       19540525M49310138    310138   159584         10113001736000174000000000000001215000000000000000000000000000000003125000000000000000000000000000000000000000000000000000000000000000000000000000000000000000000000000000000000000 E2COC1      00000000000000000000000000280808NN TA 1220000000000000                   N000000004                       9850      000003          03              DA  002250D4972 03  R08 009006272009006272N000900000000       KC         71E2CS              Y   000000  G9850           71000000                            
4S503891903138279202601152026011500E0000042366001423400142342026011502284391SANDOZ-AMLODIPINE 10MG TAB    SANDOZ-AMLODIPINE 10MG CO.    060000000000030030ORDYNAS        WAYNE       ORDYNAS        WAYNE       19600217M495963      5963     1220108        10003000637000096000000000000001215000000000000000000000000000000001948000732000000000000000000001215000000000000000000000000000031000124000000000000000000000000000000000000000000 E2DGD4D8WH  00000024400000732000-00095242808FF TA 1220000000000000                   Y202701094                       9908      000006          06              DA  001792D2574 03  R44 001423488001423488R000300000300       KC         81E2DJ              Y   0000008 G9908           81000000                            
4S503891906138281202601152026011500E0000042366001423400142342026011502230803PMS-METOPROLOL-L 50MG TAB     PMS-METOPROLOL-L 50MG CO.     060000000000060030ORDYNAS        WAYNE       ORDYNAS        WAYNE       19600217M495963      5963     1220108        10003000399000120000000000000001215000000000000000000000000000000001734000518000000000000000000001215000000000000000000000000000028000110000000000000000000000000000000000000000000 E2DGD4D8WH  00000008633000518000-00119242000FF TA 1220000000000000                   Y202701094                       9908      000006          06              DA  001595D2574 03  R46 001423490001423490R000600000600       KC         81E2DJ              Y   0000008 G9908           81000000                            
4S503891910138283202601152026011500E0000042366001423400142342026011500613215TEVA-SPIROTON 25MG  TAB       TEVA-SPIROTON 25MG CO.        010000000000015090ORDYNAS        WAYNE       ORDYNAS        WAYNE       19600217M495963      5963     1220108        10003000065000019000000000000001215000000000000000000000000000000001299000084000000000000000000001215000000000000000000000000000021000082000000000000000000000000000000000000000000 E2D4D8WH    00000005600000084000-00019243220FF TA 1220000000000000                   Y202701094                       D2567     000001          01              DA  001196D2574 03  R70 001423492001423492R000150000150       KC         76E2                Y   0000008 GD2567          76000000                            
4S503892693138339202601152026011500E0000042366001423500142352026011502243426PMS-ZOPICLONE 5MG TAB         PMS-ZOPICLONE 5MG CO.         020000000000034034STEPHEN        MARK        STEPHEN        MARGARET    19571205F49344262    344262   653050         10113000808000121000000000000001215000000000000000000000000000000002144000929000000000000000000001215000000000000000000000000000429001715000000000000000000000000000000000000000000 E2D4D8WH    00000027324000929000-00121282492FF TA 1220000000000000                   Y202606014                       1116      000002          02              DA  000000D4972 03  R88 001423577001423577N000340000340       KC         71E2                N   0000008 G1116           71000000                            
4S503893227138353202601152026011500E0000042366001423600142362026011502289296APO-PERINDOPRIL 8MG TAB       APO-PERINDOPRIL 8MG CO.       010000000000034034WAGNER         DIANE       WAGNER         WILLIAM     19511005M49310138    310138   126473         10113001025000154000000000000001215000000000000000000000000000000002394001179000000000000000000001215000000000000000000000600000000001794000000000000000000000000000000000000000000 E2D4D8WH    00000034676001179000-00154243204FF TA 1220000000000000                   Y202607234                       9850      000001          01              DA  000000D2574 03  R44 001423601001423601R000340000340       KC         71E2                Y   0000008 G9850           71000000                            
60000090000980600009806                                                                                                                                                                                                                                                                                                                                                                                                                                                                                                                                                                                                                                                                                                                                                       
20000042374PHARMASAVE #432               RUBICON PHARMACIES CORP            PO BOX 69   114 MAIN STREET        WATSON                             SKS0K4V03062873215E1NEIGHBOUR Y                                                                                                                                                                                                                                                                                                                                                                                                                                                                                                                                                                                             
4S503892436452773202601152026011500E0000042374001689800168982026011501937227PMS-TRAZODONE 50MG TAB        PMS-TRAZODONE 50MG CO.        020000000000030030SCHOETTLER     JEANETTE    SCHOETTLER     JEANETTE    19450716F49344262    344262   316154         10003000177000053000000000000001215000000000000000000000000000000001445000230000000000000000000001215000000000000000000000000000289001156000000000000000000000000000000000000000000 E2D4D8WH    00000007667000230000-00053281604FF TA 1220000000000000                   Y202606014                       11115     000002          02              DA  000000D2700 03  R84 001689812001689812N000300000300       KC         71E2                Y   0000008 G11115          71000000                            
4S503892699452782202601152026011500E0000042374001689800168982026011502248010PMS-CITALOPRAM 20MG TAB       PMS-CITALOPRAM 20MG CO.       080000000000035035HURION         CHERYL      HURION         CHERYL      19621218F49344262    344262   1175394        10003000497000149000000000000001215000000000000000000000000000000001861000645000000000000000000001215000000000000000000000000000372001488000000000000000000000000000000000000000000 E2DGD4D8ERES00000018429000645000-00148281604FF TA 1220000000000000                   Y202606014                       8629      000008          08              DA  000000D2700 03  R84 001689830001689830R000350000350       KC         71E2DJENEO          Y   0000008 G8629           71000000                            
4S503892704452783202601152026011500E0000042374001689800168982026011502408570MYLAN-PANTOPRAZOLE T 40MG TAB MYLAN-PANTOPRAZOLE T 40MG CO. 080000000000035035HURION         CHERYL      HURION         CHERYL      19621218F49344262    344262   1175394        10003000699000105000000000000001215000000000000000000000000000000002019000804000000000000000000001215000000000000000000000000000404001615000000000000000000000000000000000000000000 E2D4D8ERESWH00000022971000804000-00105562836FF TA 1220000000000000                   Y202606014                       8629      000008          08              DA  000000D2700 03  R74 001689831001689831R000350000350       KC         71E2ENEO            Y   0000008 G8629           71000000                            
4S503892705452784202601152026011500E0000042374001689800168982026011502550717APO-LEVOTHYROXINE 50MCG TAB   APO-LEVOTHYROXINE 50MCG CO.   090000000000035035HURION         CHERYL      HURION         CHERYL      19621218F49344262    344262   1175394        10003000139000042000000000000001215000000000000000000000000000000001396000181000000000000000000001215000000000000000000000000000279001117000000000000000000000000000000000000000000 E2D4D8ERESWH00000005171000181000-00042683604FF TA 1220000000000000                   Y202606014                       8629      000009          09              DA  000000D2700 03  R02 001689833001689833R000350000350       KC         71E2ENEO            Y   0000008 G8629           71000000                            
4S503892710452785202601152026011510E0000042374001689800168982026011599400742FLANGE FOR 2PC OSTOMY SYSTEM  COLLERETTE PR SYSTEME 2 PC    990000000000010007HURION         CHERYL      HURION         LONNIE      19600601M49344262    344262   1175394           13021826000000000000000000000000000000000000000000000000000000021826000000000000000000000000000000000000000000000000000000000000000000000000000000000000000000000000000000000000 E2AY        00000000000000000000000000940000U  MI 1220000000000000                   N000000004                       10449     000099          99              DA  010913D2859 03  Q01 001689834001689834R000100000000       KC         71E256                  000000   10449          71000000                            
4S503892712452786202601152026011510E0000042374001689800168982026011599400415DRAINABLE POUCH 2PC COL/ILE SYSAC VIDABLE COL/ILEO/SYST 2PC 990000000000010007HURION         CHERYL      HURION         LONNIE      19600601M49344262    344262   1175394           13008077000000000000000000000000000000000000000000000000000000008077000000000000000000000000000000000000000000000000000000000000000000000000000000000000000000000000000000000000 E2AY        00000000000000000000000000940000U  MI 1220000000000000                   N000000004                       10449     000099          99              DA  004038D2859 03  Q01 001689835001689835R000100000000       KC         71E256                  000000   10449          71000000                            
4S503892726452787202601152026011500E0000042374001689800168982026011502301083SANDOZ-PANTOPRAZOLE 40MG TAB  SANDOZ-PANTOPRAZOLE 40MG CO.  000000000000035035HURION         CHERYL      HURION         LONNIE      19600601M49344262    344262   1175394        10113000752000053000000000000001215000000000000000000000000000000002020000805000000000000000000001215000000000000000000000000000404001616000000000000000000000000000000000000000000 E2D4D8ERESWH00000023000000805000-00053562836FF TA 1220000000000000                   Y202606014                       D2859     000000          00              DA  000000D2859 03  R74 001689839001689839N000350000350       KC         76E2ENEO            Y   0000008 GD2859          76000000                            
60000090000699200006992                                                                                                                                                                                                                                                                                                                                                                                                                                                                                                                                                                                                                                                                                                                                                       
20000042392KINDERSLEY CO-OP PHARMACY     214 MAIN ST                        PO BOX 1120                        KINDERSLEY                         SKS0L1S03064632770E0          Y                                                                                                                                                                                                                                                                                                                                                                                                                                                                                                                                                                                             
4S503890831018922202601152026011510E0000042392002408600240862026011502301083SANDOZ-PANTOPRAZOLE 40MG TAB  SANDOZ-PANTOPRAZOLE 40MG CO.  040000000000034034ALDRIDGE       BONITA      ALDRIDGE       RAYMOND     19541204M49344262    344262   387906         10113000730000110000000000000001215000000000000000000000000000000002055000000000000000000000000000000000000000000000000000000000000000000000000000000000000000000000000000000000000 E2DGD4D8CL  00000000000000000000000000562836FF TA 1220000000000000                   N202606014                       133542    000004          04              DA  001398D4812 03  R74 002408640002408640R000340000000       KC         77E2DJC5            Y   0000008 G133542         77000000                            
4S503890876018928202601152026011510E0000042392002408600240862026011502425483INVOKANA 100MG TAB            INVOKANA 100MG CO.            030000000000030030ALDRIDGE       BONITA      ALDRIDGE       RAYMOND     19541204M49344262    344262   387906         10113009410000941000000000000001215000000000000000000000000000000011566000000000000000000000000000000000000000000000000000000000000000000000000000000000000000000000000000000000000 E2QOD4D8CL  00000000000000000000000000682018FF TA 1220000000000000                   N202606014                       133542    000003          03              DA  000000D4812 03  R60 002408651002408651R000300000000       KC         77E2QOC5            E   0000008  133542         77000000                            
4S503891071018943202601152026011500E0000042392002408600240862026011502470438SDZ-PERINDO-INDAP 4/1.25MG    SDZ-PERINDO-INDAPA 4/1.25MG   040000000000030030ALDRIDGE       BONITA      ALDRIDGE       BONITA      19540322F49344262    344262   387906         10003000817000123000000000000001215000000000000000000000000000000002155000939000000000000000000001215000000000000000000000000000129000517000000000000000000000000000000000000000000 E2DGD4D8WH  00000031300000939000-00122243204FF TA 1220000000000000                   Y202606014                       129420    000004          04              DA  001508D4812 03  R44 002408676002408676R000300000300       KC         71E2DJ              Y   0000008 G129420         71000000                            
4S503891074018945202601152026011500E0000042392002408600240862026011502329131TARO-SIMVASTATIN 5MG TAB      TARO-SIMVASTATIN 5MG CO.      040000000000030030ALDRIDGE       BONITA      ALDRIDGE       BONITA      19540322F49344262    344262   387906         10003000327000098000000000000001215000000000000000000000000000000001640000425000000000000000000001215000000000000000000000000000098000394000000000000000000000000000000000000000000 E2D4D8WH    00000014167000425000-00098240608FF TA 1220000000000000                   Y202606014                       129420    000004          04              DA  001148D4812 03  R40 002408678002408678R000300000300       KC         71E2                Y   0000008 G129420         71000000                            
