0610068ECLIPSE             GROUP MEDICAL SERV  200-300 HILLSDALE STREET      REGINA         SKS4S7J83063527638202601222026012128903                                                                                                                                                                                                                                                                                                                                                                                                                                                                                                                                                                                                                                           
20000041326CALGARY CO-OP PHARMACY #13    35 CROWFOOT WAY NW                                                    CALGARY                            ABT3G2L44032995350E1CALCOOP   Y                                                                                                                                                                                                                                                                                                                                                                                                                                                                                                                                                                                             
4S503912543744431202601212026012100E0000041326004254100425412026012101978926PULMICORT NEBUAMP 0.5MG/ML    PULMICORT NEBUAMP 0.5MG/ML    000000000000080042OLSON          SHERRY      OLSON          SHERRY      19570219F49344262    344262   1031913        10003008720000610000000000000001215000000000000000000000000000000010545004020000000000000000000001215000000000000000000000000000000000000000000000000000000000000000000000000000000 DFE2D4D8MLLK00000050250004020000004700680400FF IN 1220000000000000                   Y000000004                       014196    000000          00              DA  0097457883  0369R32 004254133004254133N000800000800       KC         81D8E2LK            Y   0000008 B014196         81000000                            
60000030000000000000000                                                                                                                                                                                                                                                                                                                                                                                                                                                                                                                                                                                                                                                                                                                                                       
20000042154PHARMASAVE #405               BOX #579                           219 KAISER WILHELM AVE             LANGENBURG                         SKS0A2A03067432333E1NEIGHBOUR Y                                                                                                                                                                                                                                                                                                                                                                                                                                                                                                                                                                                             
5S503911248555367202601212026012100E0000042154001958800195882026012002528495GLN-ATOVAQUONE 750MG/5ML O/L  GLN-ATOVAQUONE 750MG/5ML SOL. 030000000000300030WEISS          LEAH        WEISS          LEAH        19570822F49344262    344262   169852         1000 075994002000000000000000001215000000000000000000000000000000079209063239000000000000000000001215000000000000000000000000012891051563000000000000000000000000000000000000000000               000259778063239000012755083012FF O/ 1220000000000000                   Y202606014S503908839555346       134320    000003          03              DADX000000D5137 03  R16 001958893001958893N003000003000       KC         71                  E   000000  G134320         71000000                            
4S503911517555371202601212026012100E0000042154001958900195892026012102528495GLN-ATOVAQUONE 750MG/5ML O/L  GLN-ATOVAQUONE 750MG/5ML SOL. 040000000000210021WEISS          LEAH        WEISS          LEAH        19570822F49344262    344262   169852         1000 053196002000000000000000001215000000000000000000000000000000056411055195000000000000000000001215000000000000000000000000011282045128000000000000000000000000000000000000000000 E2LMDGD4D8WH00000262833055195000-01999083012FF O/ 1220000000000000                   Y202606014S503911523555372       134320    000004          04              DADX000000D4752 03  R16 001958926001958926N002100002100       KC         71E2DJ              E   0000008 G134320         71000000                            
5S503911523555372202601212026012100E0000042154001958900195892026012102528495GLN-ATOVAQUONE 750MG/5ML O/L  GLN-ATOVAQUONE 750MG/5ML SOL. 040000000000210021WEISS          LEAH        WEISS          LEAH        19570822F49344262    344262   169852         1000 053196002000000000000000001215000000000000000000000000000000056411055195000000000000000000001215000000000000000000000000011282045128000000000000000000000000000000000000000000               000262334055195000-01999083012FF O/ 1220000000000000                   Y202606014S503911517555371       134320    000004          04              DADX000000D4752 03  R16 001958926001958926N002100002100       KC         71                  E   000000  G134320         71000000                            
6000005-005156300141819                                                                                                                                                                                                                                                                                                                                                                                                                                                                                                                                                                                                                                                                                                                                                       
20000042248DAVIS REXALL DRUGS LTD        110-1ST AVENUE WEST                P.O. BOX 1923                      NIPAWIN                            SKS0E1E03068623141E1NEIGHBOUR Y                                                                                                                                                                                                                                                                                                                                                                                                                                                                                                                                                                                             
4S503909662655273202601212026012100E0000042248005341800534182026012102313707TARO-ATORVASTATIN 10MG TAB    TARO-ATORVASTATIN 10MG CO.    040000000000030030SMITH          JEFFERY     SMITH          ANNETTE     19610207F49310138    310138   481946         10113000557000167000000000000001215000000000000000000000000000000001939000724000000000000000000001215000000000000000000000600000000001339000000000000000000000000000000000000000000 E2D4D8WH    00000024133000724000-00167240608FF TA 1220000000000000                   Y202604014                       0038717   000004          04              DA  000000D5332 03  R40 005341827005341827R000300000300       KC         77E2                Y   0000008 G0038717        77000000                            
4S503909663655274202601212026012100E0000042248005341800534182026012102327856APO-HYDRO 12.5MG TAB          APO-HYDRO 12.5MG CO.          030000000000030030SMITH          JEFFERY     SMITH          ANNETTE     19610207F49310138    310138   481946         10113000025000008000000000000001215000000000000000000000000000000001248000033000000000000000000001215000000000000000000000600000000000648000000000000000000000000000000000000000000 E2D4D8WH    00000001100000033000-00008402820FF TA 1220000000000000                   Y202604014S503909720655293       0038717   000003          03              DA  000000D5332 03  R70 005341828005341828R000300000300       KC         77E2                Y   0000008 G0038717        77000000                            
4S503909664655275202601212026012110E0000042248005341800534182026012102388553AURO-ALENDRONATE 70MG TAB     AURO-ALENDRONATE 70MG CO.     070000000000004028SMITH          JEFFERY     SMITH          ANNETTE     19610207F49310138    310138   481946         10113000758000114000000000000001215000000000000000000000000000000002087000000000000000000000000000000000000000000000000000000000000000000000000000000000000000000000000000000000000 E2CO        00000000000000000000000000922400FF TA 1220000000000000                   N000000004                       0038717   000007          07              DA  000000D5332 03  R72 005341829005341829R000040000000       KC         77E2D1              E   000000  G0038717        77000000                            
4S503909665655276202601212026012110E0000042248005341800534182026012102248011PMS-CITALOPRAM 40MG TAB       PMS-CITALOPRAM 40MG CO.       030000000000030030SMITH          JEFFERY     SMITH          ANNETTE     19610207F49310138    310138   481946         10113000426000128000000000000001215000000000000000000000000000000001769000000000000000000000000000000000000000000000000000000000000000000000000000000000000000000000000000000000000 E2COC1      00000000000000000000000000281604FF TA 1220000000000000                   N000000004                       0038717   000003          03              DA  000000D5332 03  R84 005341830005341830R000300000000       KC         77E2CS              Y   000000  G0038717        77000000                            
4S503909667655279202601212026012100E0000042248005341800534182026012102245058APO-OMEPRAZOLE 20MG CAP       APO-OMEPRAZOLE 20MG CAP.      030000000000030030SMITH          JEFFERY     SMITH          ANNETTE     19610207F49310138    310138   481946         10113000731000110000000000000001215000000000000000000000000000000002056000840000000000000000000001215000000000000000000000600000000001455000000000000000000000000000000000000000000 E2DGD4D8WH  00000028000000840000-00109562836FF CA 1220000000000000                   Y202604014                       0038717   000003          03              DA  000000D5332 03  R74 005341831005341831R000300000300       KC         77E2DJ              Y   0000008 G0038717        77000000                            
4S503909703655283202601212026012100E0000042248005341800534182026012102284391SANDOZ-AMLODIPINE 10MG TAB    SANDOZ-AMLODIPINE 10MG CO.    010000000000030030LEYH           CINDY       LEYH           BRIAN       19580302M49344262    344262   861542         10113000637000096000000000000001215000000000000000000000000000000001948000732000000000000000000001215000000000000000000000000000086000342000000000000000000000000000000000000000000 E2DGD4D8WH  00000024400000732000-00095242808FF TA 1220000000000000                   Y202606014                       0038717   000001          01              DA  001519D5332 03  R44 005341835005341835R000300000300       KC         77E2DJ              Y   0000008 G0038717        77000000                            
4S503909704655284202601212026012100E0000042248005341800534182026012102250594SANDOZ-MIRTAZAPINE 15MG TAB   SANDOZ-MIRTAZAPINE 15MG CO.   010000000000060030LEYH           CINDY       LEYH           BRIAN       19580302M49344262    344262   861542         10113000623000187000000000000001215000000000000000000000000000000002025000810000000000000000000001215000000000000000000000000000089000357000000000000000000000000000000000000000000 E2D4D8WH    00000013500000810000-00187281604FF TA 1220000000000000                   Y202606014                       0038717   000001          01              DA  001579D5332 03  R84 005341836005341836R000600000600       KC         77E2                Y   0000008 G0038717        77000000                            
4S503909706655285202601212026012100E0000042248005341800534182026012102443937JARDIANCE 10MG TAB            JARDIANCE 10MG CO.            010000000000030030LEYH           CINDY       LEYH           BRIAN       19580302M49344262    344262   861542         10113008976000898000000000000001215000000000000000000000000000000011089009874000000000000000000001215000000000000000000000000000488001952000000000000000000000000000000000000000000 E2D4D8WH    00000329133009874000-00898682018FF TA 1220000000000000                   Y202606014                       0038717   000001          01              DA  008649D5332 03  R60 005341837005341837R000300000300       KC         77E2                E   0000008  0038717        77000000                            
4S503909707655286202601212026012100E0000042248005341800534182026012102408287TEVA-DUTASTERIDE 0.5MG CAP    TEVA-DUTASTERIDE 0.5MG CAP.   000000000000030030LEYH           CINDY       LEYH           BRIAN       19580302M49344262    344262   861542         10113000820000123000000000000001215000000000000000000000000000000002158000942000000000000000000001215000000000000000000000000000095000379000000000000000000000000000000000000000000 E2DGD4D8WH  00000031400000942000-00122920400FF CA 1220000000000000                   Y202606014                       0038717   000000          00              DA  001683D5332 03  R76 005341838005341838R000300000300       KC         77E2DJ              Y   0000008 G0038717        77000000                            
4S503909708655287202601212026012100E0000042248005341800534182026012102319217SANDOZ TAMSULOSIN 0.4MG CAP   SANDOZ TAMSULOSIN 0.4MG CAP   010000000000060030LEYH           CINDY       LEYH           BRIAN       19580302M49344262    344262   861542         10113003035000304000000000000001215000000000000000000000000000000004554003339000000000000000000001215000000000000000000000000000200000802000000000000000000000000000000000000000000 E2D4D8WH    00000055650003339000-00304121604FF CA 1220000000000000                   Y202606014                       0038717   000001          01              DA  003552D5332 03  R76 005341839005341839R000600000600       KC         77E2                Y   0000008 G0038717        77000000                            
4S503909709655288202601212026012100E0000042248005341800534182026012102326973SANDOZ CANDESARTAN 16MG TAB   SANDOZ-CANDESARTAN 16MG CO.   020000000000030030LEYH           CINDY       LEYH           BRIAN       19580302M49344262    344262   861542         10113000729000109000000000000001215000000000000000000000000000000002053000838000000000000000000001215000000000000000000000000000090000362000000000000000000000000000000000000000000 E2D4D8WH    00000027933000838000-00109243208FF TA 1220000000000000                   Y202606014                       0038717   000002          02              DA  001601D5332 03  R44 005341840005341840R000300000300       KC         77E2                Y   0000008 G0038717        77000000                            
4S503909711655289202601212026012100E0000042248005341800534182026012100716634BETADERM SCALP 0.1% LOT       BETADERM CAPIL. 0.1% LOT.     010000000000075020LEYH           CINDY       LEYH           BRIAN       19580302M49344262    344262   861542         10113001015000152000000000000001215000000000000000000000000000000002382001167000000000000000000001215000000000000000000000000000105000419000000000000000000000000000000000000000000 E2D4D8WH    00000015560001167000-00152840608FF LO 1220000000000000                   Y202606014                       0038717   000001          01              DA  001858D5332 0338R94 005341841005341841R000750000750       KC         77E2                Y   0000008 G0038717        77000000                            
4S503909712655290202601212026012100E0000042248005341800534182026012102240113COSOPT 20MG/5MG/ML OP SOL     COSOPT 20MG/5MG/ML SOL. OP    080000000000010030LEYH           CINDY       LEYH           BRIAN       19580302M49344262    344262   861542         10111008556000856000000000000001215000000000000000000000000000000010627009412000000000000000000001215000000000000000000000000000468001870000000000000000000000000000000000000000000 E2DED4D8WH  00000941200009412000-00856524012FF OP 1220000000000000                   Y202606014                       8962      000008          08              DA  008289D5332 0345R82 005341842005341842R000100000100       KC         71E2                Y   0000008 B8962           71000000                            
4S503909713655291202601212026012100E0000042248005341800534182026012102420171SDZ-OLOPATADINE 0.2% OP SOL   SDZ-OLOPATADINE 0.2% SOL. OP  100000000000002030LEYH           CINDY       LEYH           BRIAN       19580302M49344262    344262   861542         10113002783000278000000000000001215000000000000000000000000000000004276003061000000000000000000001215000000000000000000000000000855003421000000000000000000000000000000000000000000 E2D4D8WH    00001224400003061000-00278520200FF OP 1220000000000000                   Y202606014                       8962      000010          10              DA  000000D5332 03  R82 005341843005341843N000025000025       KC         71E2                N   0000008 G8962           71000000                            
4S503909714655292202601212026012100E0000042248005341800534182026012102471469OZEMPIC 1MG/ACT INJ           OZEMPIC 1MG/ACT INJ.          060000000000003028LEYH           CINDY       LEYH           BRIAN       19580302M49344262    344262   861542         10113024224002000000000000000001215000000000000000000000000000000027439026224000000000000000000001215000000000000000000000000001207004830000000000000000000000000000000000000000000 E2LMD4D8WH  00008741333026224000-02000682006FF IN 1220000000000000                   Y202606014                       0038717   000006          06              DA  021402D5332 03  R60 005341844005341844R000030000030       KC         77E2                E   0000008  0038717        77000000                            
5S503909720655293202601212026012100E0000042248005341800534182026012102327856APO-HYDRO 12.5MG TAB          APO-HYDRO 12.5MG CO.          030000000000030030SMITH          JEFFERY     SMITH          ANNETTE     19610207F49310138    310138   481946         10113000025000008000000000000001215000000000000000000000000000000001248000033000000000000000000001215000000000000000000000600000000000648000000000000000000000000000000000000000000               000001001000033000-00008402820FF TA 1220000000000000                   Y202604014S503909663655274       0038717   000003          03              DA  000000D5332 03  R70 005341828005341828R000300000300       KC         77                  Y   000000  G0038717        77000000                            
4S503909723655294202601212026012110E0000042248005341800534182026012102471469OZEMPIC 1MG/ACT INJ           OZEMPIC 1MG/ACT INJ.          000000000000003028SMITH          JEFFERY     SMITH          ANNETTE     19610207F49310138    310138   481946         10113024224002000000000000000001215000000000000000000000000000000027439000000000000000000000000000000000000000000000000000000000000000000000000000000000000000000000000000000000000 E2CO        00000000000000000000000000682006FF IN 1220000000000000                   N000000004                       D5332     000000          00              DA  000000D5332 03  R60 005341845005341845N000030000000       KC         76E2D1              E   000000   D5332          76000000                            
4S503909742655301202601212026012100E0000042248005341800534182026012102425947MINT-HYDROCHLOROTHIAZIDE 12.5 MINT-HYDROCHLOROTHIAZIDE 12.5 030000000000030030SMITH          JEFFERY     SMITH          ANNETTE     19610207F49310138    310138   481946         10113000025000008000000000000001215000000000000000000000000000000001248000033000000000000000000001215000000000000000000000600000000000648000000000000000000000000000000000000000000 E2D4D8WH    00000001100000033000-00008402820FF TA 1220000000000000                   Y202604014                       0038717   000003          03              DA  000000D5332 03  R70 005341853005341853R000300000300       KC         77E2                Y   0000008 G0038717        77000000                            
4S503909752655308202601212026012100E0000042248005341800534182026012100021474TEVA-HYDRAZIDE 25MG TAB       TEVA-HYDRAZIDE 25MG CO.       020000000000030030LEYH           CINDY       LEYH           BRIAN       19580302M49344262    344262   861542         10113000050000015000000000000001215000000000000000000000000000000001280000065000000000000000000001215000000000000000000000000000056000226000000000000000000000000000000000000000000 E2D4D8WH    00000002167000065000-00015402820FF TA 1220000000000000                   Y202606014                       0038717   000002          02              DA  000998D5332 03  R70 005341858005341858R000300000300       KC         77E2                Y   0000008 G0038717        77000000                            
4S503911055655416202601212026012110E0000042248005342000534202026012102375966SANDOZ TELMISARTAN 80MG TAB   SANDOZ TELMISARTAN 80MG CO.   000000000000060060SWEHLA         DAVID       SWEHLA         LINDA       19530404F49282368    282368   226754         10113001381000207000000000000001215000000000000000000000000000000002803000000000000000000000000000000000000000000000000000000000000000000000000000000000000000000000000000000000000 E2CJHBCK    00000000000000000000000000243208F  TA 1220000000000000                   N000000004                       D5081     000000          00              DA  000000D2736 03  R44 005342006005342006N000600000000       KC         76E2C4HB                000000  GD5081          76000000                            
4S503912536655603202601212026012110E0000042248005342200534222026012102458543PMS-ZOPICLONE 3.75MG TAB      PMS-ZOPICLONE 3.75MG CO.      040000000000060030SMITH          JEFFERY     SMITH          JEFFERY     19590424M49310138    310138   481946         10003001498000225000000000000001215000000000000000000000000000000002938000000000000000000000000000000000000000000000000000000000000000000000000000000000000000000000000000000000000 E2CO        00000000000000000000000000282492FF TA 1220000000000000                   N000000004                       0038717   000004          04              DA  000000D2736 03  R88 005342203005342203R000600000000       KC         77E2D1              N   000000  G0038717        77000000                            
60000230001840200019698                                                                                                                                                                                                                                                                                                                                                                                                                                                                                                                                                                                                                                                                                                                                                       
20000042260PHARMASAVE #430               518 MAIN STREET                    BOX 27                             BROADVIEW                          SKS0G0K03066962274E1NEIGHBOUR Y                                                                                                                                                                                                                                                                                                                                                                                                                                                                                                                                                                                             
4S503909636888050202601212026012100E0000042260003514500351452026012102265826SANDOZ AZITHROMYCIN 250MG TAB SANDOZ AZITHROMYCIN 250 MG CO.000000000000006005RYGH           DARLENE     RYGH           DARLENE     19621024F49344262    344262   173533         10003000601000180000000000000001215000000000000000000000000000000001996000781000000000000000000001215000000000000000000000000000399001597000000000000000000000000000000000000000000 E2D4D8ERESWH00000130167000781000-00180081212FF TA 1220000000000000                   Y202606014                       134446    000000          00              DA  000000D5036 03  R16 003514521003514521N000060000060       KC         77E2ENEO            Y   0000008 G134446         77000000                            
4S503909644888051202601212026012100E0000042260003514500351452026012101964054ORACORT 0.10% DENTAL PASTE    ORACORT 0.1% POM.DENTAIRE     000000000000007007RYGH           DARLENE     RYGH           DARLENE     19621024F49344262    344262   173533         10003001355000203000000000000001215000000000000000000000000000000002773001558000000000000000000001215000000000000000000000000000555002218000000000000000000000000000000000000000000 E2D4D8ERESWH00000207733001558000-00203840608FF MI 1220000000000000                   Y202606014S503909658888052       134446    000000          00              DA  000000D5036 0338R94 003514522003514522N000075000075       KC         77E2ENEO            Y   0000008 G134446         77000000                            
5S503909658888052202601212026012100E0000042260003514500351452026012101964054ORACORT 0.10% DENTAL PASTE    ORACORT 0.1% POM.DENTAIRE     000000000000007007RYGH           DARLENE     RYGH           DARLENE     19621024F49344262    344262   173533         10003001355000203000000000000001215000000000000000000000000000000002773001558000000000000000000001215000000000000000000000000000555002218000000000000000000000000000000000000000000               000207334001558000-00203840608FF MI 1220000000000000                   Y202606014S503909644888051       134446    000000          00              DA  000000D5036 0338R94 003514522003514522N000075000075       KC         77                  Y   000000  G134446         77000000                            
4S503909675888056202601212026012100E0000042260003514500351452026012101964054ORACORT 0.10% DENTAL PASTE    ORACORT 0.1% POM.DENTAIRE     000000000000007007RYGH           DARLENE     RYGH           DARLENE     19621024F49344262    344262   173533         10003001355000203000000000000001215000000000000000000000000000000002773001558000000000000000000001215000000000000000000000000000555002218000000000000000000000000000000000000000000 E2D4D8ERESWH00000207733001558000-00203840608FF MI 1220000000000000                   Y202606014S503909751888059       134446    000000          00              DA  000000D5036 0338R94 003514525003514525N000075000075       KC         77E2ENEO            Y   0000008 G134446         77000000                            
5S503909751888059202601212026012100E0000042260003514500351452026012101964054ORACORT 0.10% DENTAL PASTE    ORACORT 0.1% POM.DENTAIRE     000000000000007007RYGH           DARLENE     RYGH           DARLENE     19621024F49344262    344262   173533         10003001355000203000000000000001215000000000000000000000000000000002773001558000000000000000000001215000000000000000000000000000555002218000000000000000000000000000000000000000000               000207334001558000-00203840608FF MI 1220000000000000                   Y202606014S503909675888056       134446    000000          00              DA  000000D5036 0338R94 003514525003514525N000075000075       KC         77                  Y   000000  G134446         77000000                            
4S503910618888090202601212026012100E0000042260003514500351452026012102243506APO-PRAVASTATIN 10MG TAB      APO-PRAVASTATIN 10MG CO.      060000000000017034KEMP           MARLENE     KEMP           MARLENE     19630725F49344262    344262   117138         10003000528000158000000000000001215000000000000000000000000000000001901000686000000000000000000001215000000000000000000000000000125000502000000000000000000000000000000000000000000 E2D4D8WH    00000040353000686000-00158240608FF TA 1220000000000000                   Y202606014                       134001    000006          06              DA  001274D5036 03  R40 003514597003514597N000170000170       KC         71E2                Y   0000008 G134001         71000000                            
60000080000209900010971                                                                                                                                                                                                                                                                                                                                                                                                                                                                                                                                                                                                                                                                                                                                                       
20000042269PHARMASAVE #412               203 BROADWAY STREET                BOX 1030                           FORT QU'APPELLE                    SKS0G1S03063325717E1NEIGHBOUR Y                                                                                                                                                                                                                                                                                                                                                                                                                                                                                                                                                                                             
4S503910831165686202601212026012100E0000042269003763400376342026012102550725APO-LEVOTHYROXINE 75MCG TAB   APO-LEVOTHYROXINE 75MCG CO.   000000000000090090STARUIALA      MYRNA       STARUIALA      MYRNA       19450927F49344262    344262   740070         10003000619000186000000000000001215000000000000000000000000000000002020000805000000000000000000001215000000000000000000000000000024000097000000000000000000000000000000000000000000 E2D4D8WH    00000008944000805000-00186683604FF TA 1220000000000000                   Y202606014                       12822     000000          00              DA  001899D4870 03  R02 003763492003763492N000900000900       KC         71E2                Y   0000008 G12822          71000000                            
4S503912156165749202601212026012100E0000042269003763600376362026012102241497VENTOLIN HFA 100MCG INH       VENTOLIN HFA 100MCG INH.      020000000040000025MORTON         CLARA       MORTON         BEVERLEY    19400919M49344262    344262   673724         10113000727000109000000000000001215000000000000000000000000000000002051000836000000000000000000001215000000000000000000000000000274001095000000000000000000000000000000000000000000 E2D4D8WH    00000000021000836000-00109121208FF IN 1220000000000000                   Y202606014                       76425     000002          02              DA  000682D4870 0369R32 003763663003763663R400000400000       KC         71E2                Y   0000008 B76425          71000000                            
60000040000119200001192                                                                                                                                                                                                                                                                                                                                                                                                                                                                                                                                                                                                                                                                                                                                                       
20000042271BABER'S PHARMASAVE 447        130 MAIN STREET BOX 490                                               BALCARRES                          SKS0G0C03063342424E0          Y                                                                                                                                                                                                                                                                                                                                                                                                                                                                                                                                                                                             
4S503909583894583202601212026012100E0000042271003528900352892026012102354624TEVA-ROSUVASTATIN 20MG TAB    TEVA-ROSUVASTATIN 20MG CO.    050000000000030030RUECKER        MICHELLE    PATTISON       RICHARD     19550328M49518412    518412   294323         10113000541000162000000000000001215000000000000000000000000000000001918000703000000000000000000001215000000000000000000000000000384001534000000000000000000000000000000000000000000 E2D4D8ERESWH00000023433000703000-00162240608FF TA 1220000000000000                   Y202612014                       38094     000005          05              DA  000000D4424 03  R40 003528937003528937R000300000300       KC         77E2ENEO            Y   0000008 G38094          77000000                            
4S503909589894584202601212026012100E0000042271003528900352892026012102354616TEVA-ROSUVASTATIN 10MG TAB    TEVA-ROSUVASTATIN 10MG CO.    130000000000030030RUECKER        MICHELLE    RUECKER        MICHELLE    19620810F49518412    518412   294323         10003000433000130000000000000001215000000000000000000000000000000001778000562000000000000000000001215000000000000000000000000000355001422000000000000000000000000000000000000000000 E2DGD4D8ERES00000018733000562000-00129240608FF TA 1220000000000000                   Y202612014                       38094     000013          13              DA  000000D4424 03  R40 003528938003528938R000300000300       KC         77E2DJENEO          Y   0000008 G38094          77000000                            
4S503911292894651202601212026012100E0000042271003529000352902026012102425491INVOKANA 300MG TAB            INVOKANA 300MG CO.            010000000000034034SKJERVEN       DARCI       SKJERVEN       DARCI       19800207F491149125   1149125  424842         10003011087001109000000000000001215000000000000000000000000000000013411012196000000000000000000001215000000000000000000000000000349001394000000000000000000000000000000000000000000 E2D4D8WH    00000358706012196000-01109682018FF TA 1220000000000000                   Y202607014                       4102      000001          01              DA  011668D4424 03  R60 003529012003529012R000340000340       KC         91E2                E   0000008  4102           91000000                            
4S503911294894652202601212026012100E0000042271003529000352902026012102356708SANDOZ-VALSARTAN-HCTZ 160/12.5SANDOZ-VALSARTAN-HCTZ 160/12.5010000000000034034SKJERVEN       DARCI       SKJERVEN       DARCI       19800207F491149125   1149125  424842         10003000811000122000000000000001215000000000000000000000000000000002148000933000000000000000000001215000000000000000000000000000056000223000000000000000000000000000000000000000000 E2D4D8WH    00000027441000933000-00122243208FF TA 1220000000000000                   Y202607014                       4102      000001          01              DA  001869D4424 03  R44 003529013003529013R000340000340       KC         91E2                Y   0000008 G4102           91000000                            
4S503911295894653202601212026012100E0000042271003529000352902026012102439654TEVA-BUPROPION XL 150MG TAB   TEVA-BUPROPION XL 150MG CO.   010000000000034034SKJERVEN       DARCI       SKJERVEN       DARCI       19800207F491149125   1149125  424842         10003001060000159000000000000001215000000000000000000000000000000002434001218000000000000000000001215000000000000000000000000000063000252000000000000000000000000000000000000000000 E2DGD4D8WH  00000035824001218000-00158281604FF TA 1220000000000000                   Y202607014                       4102      000001          01              DA  002118D4424 0367R84 003529014003529014R000340000340       KC         91E2DJ              Y   0000008 G4102           91000000                            
4S503911296894654202601212026012100E0000042271003529000352902026012102354608TEVA-ROSUVASTATIN 5MG TAB     TEVA-ROSUVASTATIN 5MG CO.     010000000000034034SKJERVEN       DARCI       SKJERVEN       DARCI       19800207F491149125   1149125  424842         10003000465000139000000000000001215000000000000000000000000000000001819000604000000000000000000001215000000000000000000000000000047000189000000000000000000000000000000000000000000 E2D4D8WH    00000017765000604000-00139240608FF TA 1220000000000000                   Y202607014                       4102      000001          01              DA  001583D4424 03  R40 003529015003529015R000340000340       KC         91E2                Y   0000008 G4102           91000000                            
4S503911297894655202601212026012100E0000042271009046000904602026012102247734CONCERTA 54MG TAB             CONCERTA 54MG CO.             030000000000034030SKJERVEN       DARCI       MCGILL-SKJERVENDANIEL      20140911M491149125   1149125  424842         10123019669001967000000000000001215000000000000000000000000000000022851021636000000000000000000001215000000000000000000000000000500002000000000000000000000000000000000000000000000 E2EGD4D8WH  00000636353021636000-01967282032FG TA 1220000000000000                   Y202607014                       10766     000003          03              DA  020351D4424 0367R87 009046076009046076R000340000340       KC         71E2                Y   0000008  10766          71000000                            
4S503911298894656202601212026012100E0000042271003529000352902026012102385635AURO-FLUOXETINE 20MG CAP      AURO-FLUOXETINE 20MG CAP.     030000000000034034SKJERVEN       DARCI       MCGILL-SKJERVENDANIEL      20140911M491149125   1149125  424842         10123001199000180000000000000001215000000000000000000000000000000002594001379000000000000000000001215000000000000000000000000000067000270000000000000000000000000000000000000000000 E2D4D8WH    00000040559001379000-00180281604FF CA 1220000000000000                   Y202607014                       10766     000003          03              DA  002257D4424 03  R84 003529016003529016R000340000340       KC         71E2                Y   0000008 G10766          71000000                            
4S503911299894657202601212026012100E0000042271003529000352902026012102515784SANDOZ CLONIDINE 0.1MG TAB    SANDOZ CLONIDINE 0.1MG CO.    030000000000034034SKJERVEN       DARCI       MCGILL-SKJERVENDANIEL      20140911M491149125   1149125  424842         10123000246000074000000000000001215000000000000000000000000000000001535000320000000000000000000001215000000000000000000000000000040000160000000000000000000000000000000000000000000 E2D4D8WH    00000009412000320000-00074242400FF TA 1220000000000000                   Y202607014                       10766     000003          03              DA  001335D4424 03  R44 003529017003529017R000340000340       KC         71E2                Y   0000008 G10766          71000000                            
4S503911581894664202601212026012100E0000042271003529000352902026012197799597FREESTYLE LITE STRIP          FREESTYLE LITE BATONNET       110000000000100030SIEBEN         LORELEI     SIEBEN         LORELEI     19571030F49344262    344262   779555         10003007228000723000000000000001215000000000000000000000000000000009166007951000000000000000000001215000000000000000000000000000000002500000000000000000000000000000000000000000000 E2D4D8WH    00000079510007951000-00723362600UDRST 1220000000000000                   Y202606014                       12896     000011          11              DA  006666D2422 0301Q01 003529030003529030N001000001000       KC         71E2                Y   0000008  12896          710000000173                        
60000120000994400009944                                                                                                                                                                                                                                                                                                                                                                                                                                                                                                                                                                                                                                                                                                                                                       
20000042295PHARMASAVE #438               WRIGHT'S PHARMACY                  BOX 100 - 701 LALONDE STREET       WHITEWOOD                          SKS0G5C03067352303E1NEIGHBOUR Y                                                                                                                                                                                                                                                                                                                                                                                                                                                                                                                                                                                             
4S503909544587673202601212026012100E0000042295003133200313322026012102414686PREMARIN 0.625MG TAB          PREMARIN 0.625MG CO.          020000000000030030TOPINKA        HELEN       TOPINKA        HELEN       19660328F49344262    344262   1152427        10003001332000200000000000000001215000000000000000000000000000000002747001531000000000000000000001215000000000000000000000000000549002197000000000000000000000000000000000000000000 E2DGD4D8ERES00000051033001531000-00199681604FF TA 1220000000000000                   Y202606014S503909578587679       D4954     000002          02              DA  000000D4954 03  R04 003133218003133218N000300000300       KC         76E2DJENEO          Y   0000008  D4954          76000000                            
5S503909578587679202601212026012100E0000042295003133200313322026012102414686PREMARIN 0.625MG TAB          PREMARIN 0.625MG CO.          020000000000030030TOPINKA        HELEN       TOPINKA        HELEN       19660328F49344262    344262   1152427        10003001332000200000000000000001215000000000000000000000000000000002747001531000000000000000000001215000000000000000000000000000549002197000000000000000000000000000000000000000000               000051333001531000-00199681604FF TA 1220000000000000                   Y202606014S503909544587673       D4954     000002          02              DA  000000D4954 03  R04 003133218003133218N000300000300       KC         76                  Y   000000   D4954          76000000                            
4S503909601587680202601212026012100E0000042295003133200313322026012102414686PREMARIN 0.625MG TAB          PREMARIN 0.625MG CO.          020000000000030030TOPINKA        HELEN       TOPINKA        HELEN       19660328F49344262    344262   1152427        10003001200000180000000000000001215000000000000000000000000000000002595001380000000000000000000001215000000000000000000000000000519002076000000000000000000000000000000000000000000 E2D4D8ERESWH00000046000001380000-00180681604FF TA 1220000000000000                   Y202606014                       D4954     000002          02              DA  000000D4954 03  R04 003133221003133221N000300000300       KC         76E2ENEO            Y   0000008  D4954          76000000                            
4S503909609587683202601212026012100E0000042295003133200313322026012102301083SANDOZ-PANTOPRAZOLE 40MG TAB  SANDOZ-PANTOPRAZOLE 40MG CO.  070000000000030030TOPINKA        HELEN       TOPINKA        HELEN       19660328F49344262    344262   1152427        10003000644000097000000000000001215000000000000000000000000000000001956000741000000000000000000001215000000000000000000000000000391001565000000000000000000000000000000000000000000 E2D4D8ERESWH00000024700000741000-00097562836FF TA 1220000000000000                   Y202606014                       75651     000007          07              DA  000000D4954 03  R74 003133222003133222R000300000300       KC         71E2ENEO            Y   0000008 G75651          71000000                            
4S503911029587859202601212026012100E0000042295003133300313332026012102284383SANDOZ-AMLODIPINE 5MG TAB     SANDOZ-AMLODIPINE 5MG CO.     020000000000030030DOMRES         THERESA     DOMRES         THERESA     19560107F49344262    344262   145023         10003000429000129000000000000001215000000000000000000000000000000001773000558000000000000000000001215000000000000000000000000000355001418000000000000000000000000000000000000000000 E2D4D8WH    00000018600000558000-00129242808FF TA 1220000000000000                   Y202606014                       75651     000002          02              DA  000000D4954 03  R44 003133329003133329R000300000300       KC         71E2                Y   0000008 G75651          71000000                            
4S503911031587860202601212026012100E0000042295003133300313332026012102449455TARO-RAMIPRIL HCTZ 10/12.5MG  TARO-RAMIPRIL HCTZ 10/12.5MG  020000000000030030DOMRES         THERESA     DOMRES         THERESA     19560107F49344262    344262   145023         10003000842000126000000000000001215000000000000000000000000000000002183000968000000000000000000001215000000000000000000000000000437001746000000000000000000000000000000000000000000 E2D4D8WH    00000032267000968000-00126243204FF TA 1220000000000000                   Y202606014                       75651     000002          02              DA  000000D4954 03  R44 003133330003133330R000300000300       KC         71E2                Y   0000008 G75651          71000000                            
4S503911032587861202601212026012100E0000042295003133300313332026012102354616TEVA-ROSUVASTATIN 10MG TAB    TEVA-ROSUVASTATIN 10MG CO.    020000000000030030DOMRES         THERESA     DOMRES         THERESA     19560107F49344262    344262   145023         10003000433000130000000000000001215000000000000000000000000000000001778000562000000000000000000001215000000000000000000000000000355001422000000000000000000000000000000000000000000 E2DGD4D8WH  00000018733000562000-00129240608FF TA 1220000000000000                   Y202606014                       75651     000002          02              DA  000000D4954 03  R40 003133331003133331R000300000300       KC         71E2DJ              Y   0000008 G75651          71000000                            
60000090000822700012621                                                                                                                                                                                                                                                                                                                                                                                                                                                                                                                                                                                                                                                                                                                                                       
20000042333WOODLAND PHARMACY LTD         P.O. BOX 160 9 MAIN STREET                                            SHELLBROOK                         SKS0J2E03067472545E0          Y                                                                                                                                                                                                                                                                                                                                                                                                                                                                                                                                                                                             
4S503910653047282202601212026012110E0000042333003656500365652026012102356708SANDOZ-VALSARTAN-HCTZ 160/12.5SANDOZ-VALSARTAN-HCTZ 160/12.5000000000000034034WESTBURY       GAIL        WESTBURY       GAIL        19490510F49310138    310138   482478         10003000811000122000000000000001215000000000000000000000000000000002148000000000000000000000000000000000000000000000000000000000000000000000000000000000000000000000000000000000000 E2COC1      00000000000000000000000000243208FF TA 1220000000000000                   N000000004                       100298    000000          00              DA  000000D2352 03  R44 003656532003656532R000340000000       KC         77E2CS              Y   000000  G100298         77000000                            
4S503910654047283202601212026012110E0000042333003656500365652026012102378523PMS-ROSUVASTATIN 5MG TAB      PMS-ROSUVASTATIN 5MG CO.      000000000000034034WESTBURY       GAIL        WESTBURY       GAIL        19490510F49310138    310138   482478         10003000465000139000000000000001215000000000000000000000000000000001819000000000000000000000000000000000000000000000000000000000000000000000000000000000000000000000000000000000000 E2COC1      00000000000000000000000000240608FF TA 1220000000000000                   N000000004                       100298    000000          00              DA  000000D2352 03  R40 003656533003656533R000340000000       KC         77E2CS              Y   000000  G100298         77000000                            
4S503910655047284202601212026012100E0000042333003656500365652026012102380196JAMP-METFORMIN 500MG TAB      JAMP-METFORMIN 500MG CO.      000000000000136034WESTBURY       GAIL        WESTBURY       GAIL        19490510F49310138    310138   482478         10003000358000107000000000000001215000000000000000000000000000000001680000465000000000000000000001215000000000000000000000600000000001080000000000000000000000000000000000000000000 E2D4D8WH    00000003419000465000-00107682004FF TA 1220000000000000                   Y202603154                       100298    000000          00              DA  000000D2352 03  R60 003656534003656534R001360001360       KC         77E2                Y   0000008 G100298         77000000                            
60000050000108000001080                                                                                                                                                                                                                                                                                                                                                                                                                                                                                                                                                                                                                                                                                                                                                       
20000042337SPIRITWOOD PHARMACY           120 MAIN STREET BOX 279                                               SPIRITWOOD                         SKS0J2M03068832391E0          Y                                                                                                                                                                                                                                                                                                                                                                                                                                                                                                                                                                                             
4S503909553045860202601212026012110E0000042337003807100380712026012102550717APO-LEVOTHYROXINE 50MCG TAB   APO-LEVOTHYROXINE 50MCG CO.   000000000000100100VANDALE        SHERI-LYNN  VANDALE        SHERI-LYNN  19600422F49344262    344262   1308704        10003000397000119000000000000001215000000000000000000000000000000001731000000000000000000000000000000000000000000000000000000000000000000000000000000000000000000000000000000000000 E2CJHBCK    00000000000000000000000000683604F  TA 1220000000000000                   N000000004                       863       000000          00              DA  000000D3795 03  R02 003807124003807124R001000000000       KC         00E2C4HB                000000  G863            00000000                            
4S503909567045861202601212026012110E0000042337003807100380712026012102230997APO-DILTIAZ CD 120MG CAP      APO-DILTIAZ CD 120MG CAP.     020000000000030030VANDALE        SHERI-LYNN  VANDALE        SHERI-LYNN  19600422F49344262    344262   1308704        10003001161000174000000000000001215000000000000000000000000000000002550000000000000000000000000000000000000000000000000000000000000000000000000000000000000000000000000000000000000 E2CJHBCK    00000000000000000000000000242892F  CA 1220000000000000                   N000000004                       944       000002          02              DA  000050D3795 0361R46 003807125003807125R000300000000       KC         71E2C4HB                000000  G944            71000000                            
4S503911678046093202601212026012100E0000042337003807400380742026012102402882MYRBETRIQ 50MG TAB            MYRBETRIQ 50MG CO.            100000000000034034DUBYK          JUDY        DUBYK          JUDY        19560717F49344262    344262   1024606        10003005386000539000000000000001215000000000000000000000000000000007140005925000000000000000000001215000000000000000000000000001085004341000000000000000000000000000000000000000000 E2D4D8WH    00000174265005925000-00539861208FF TA 1220000000000000                   Y202606014                       12783     000010          10              DA  001714D3795 03  R76 003807458003807458N000340000340       KC         71E2                E   0000008  12783          71000000                            
60000050000434100004341                                                                                                                                                                                                                                                                                                                                                                                                                                                                                                                                                                                                                                                                                                                                                       
20000042350PHARMASAVE #429               531 MAIN STREET                    PO BOX 1210                        HUMBOLDT                           SKS0K2A03066822616E1NEIGHBOUR Y                                                                                                                                                                                                                                                                                                                                                                                                                                                                                                                                                                                             
4S503909377570312202601212026012110E0000042350002191000219102026012100896411PMS-SENNOSIDES 8.6MG TAB      PMS-SENNOSIDES 8.6MG CO.      990000000000021021WASSERMANN     MARIAN      WASSERMANN     ROMAN       19410812M49344262    344262   371528         10113000114000000000000000000000607000000000000000000000000000000000721000000000000000000000000000000000000000000000000000000000000000000000000000000000000000000000000000000000000 E2CO        00000000000000000000000000920100UDRTA 1220000000000000                   N000000004                       451       000099          99              DA  000000D4453 03  B35 002191082002191082N000210000000       KC         71E2D1              N   000000  G451            71000000                            
4S503911449570366202601212026012100E0000042350002191300219132026012102358913SDZ-OLOPATADINE 0.1% OP SOL   SDZ-OLOPATADINE 0.1% SOL. OP  020000000000005030PRODAHL        NAOMI       PRODAHL        TIM         19591210M49344262    344262   1146387        10113002783000278000000000000001215000000000000000000000000000000004276003061000000000000000000001215000000000000000000000000000855003421000000000000000000000000000000000000000000 E2D4D8WH    00000612200003061000-00278520200FF OP 1220000000000000                   Y202606014                       72996     000002          02              DA  000000D4453 03  R82 002191312002191312R000050000050       KC         94E2                N   0000008 G72996          94000000                            
60000040000342100003421                                                                                                                                                                                                                                                                                                                                                                                                                                                                                                                                                                                                                                                                                                                                                       
20000042365THE DELTA CO-OP PHARMACY      130-2ND AVENUE W                                                      UNITY                              SKS0K4L03062282629E0          Y                                                                                                                                                                                                                                                                                                                                                                                                                                                                                                                                                                                             
4S503910373583947202601212026012100E0000042365001230900123092026012102402882MYRBETRIQ 50MG TAB            MYRBETRIQ 50MG CO.            010000000000100100DESMARAIS      OMER        DESMARAIS      OMER        19501015M49282368    282368   783493         10003015841001584000000000000001215000000000000000000000000000000018640017425000000000000000000001215000000000000000000000000001215001285000000000000000000000000000000000000000000 E2D4D8WH    00000174250017425000-01584861208FF TA 1220000000000000                   Y202607014                       118960    000001          01              DA  016140D3551 03  R76 001230921001230921N001000001000       KC         71E2                E   0000008  118960         71000000                            
4S503910390583949202601212026012100E0000042365001230900123092026012102295296APO-ATORVASTATIN 40MG TAB     APO-ATORVASTATIN 40MG CO.     010000000000100100DESMARAIS      OMER        DESMARAIS      OMER        19501015M49282368    282368   783493         10003002494000249000000000000001215000000000000000000000000000000003958002743000000000000000000001215000000000000000000000000001215001285000000000000000000000000000000000000000000 E2D4D8WH    00000027430002743000-00249240608FF TA 1220000000000000                   Y202607014                       118960    000001          01              DA  001458D3551 03  R40 001230922001230922N001000001000       KC         71E2                Y   0000008 G118960         71000000                            
4S503910405583951202601212026012100E0000042365001230900123092026012102470683PMS-PERINDOPRIL 4MG TAB       PMS-PERINDOPRIL 4MG CO.       010000000000090090DESMARAIS      OMER        DESMARAIS      OMER        19501015M49282368    282368   783493         10004001958000196000000000000001215000000000000000000000000000000003369002153000000000000000000001215000000000000000000000000001215001284000000000000000000000000000000000000000000 E2DGD4D8WH  00000023922002153000-00195243204FF TA 1220000000000000                   Y202607014                       118960    000001          01              DA  000869D3551 03  R44 001230923001230923N000900000900       KC         71E2DJ              Y   0000008 G118960         71000000                            
4S503910423583954202601212026012100E0000042365001230900123092026012100312770APO-PREDNISONE 5MG TAB        APO-PREDNISONE 5MG CO.        070000000000045030DESMARAIS      OMER        DESMARAIS      OMER        19501015M49282368    282368   783493         10003000192000058000000000000001215000000000000000000000000000000001465000250000000000000000000001215000000000000000000000000001215000045000000000000000000000000000000000000000000 E2D4D8WH    00000005556000250000-00058680400FF TA 1220000000000000                   Y202607014                       118960    000007          07              DA  000205D3551 03  R52 001230925001230925N000450000450       KC         71E2                Y   0000008 G118960         71000000                            
4S503912529584008202601212026012100E0000042365001230900123092026012100362166APO-FUROSEMIDE 40MG TAB       APO-FUROSEMIDE 40MG CO.       000000000000300100SEGO           JAMES       SEGO           JAMES       19441103M49310138    310138   45151          10003001045000156000000000000001215000000000000000000000000000000002416001201000000000000000000001215000000000000000000000600000000001816000000000000000000000000000000000000000000 E2D4D8WH    00000004003001201000-00156402808FF TA 1220000000000000                   Y202607014                       75670     000000          00              DA  000000D3551 03  R70 001230999001230999N003000003000       KC         71E2                Y   0000008 G75670          71000000                            
60000070000571500005715                                                                                                                                                                                                                                                                                                                                                                                                                                                                                                                                                                                                                                                                                                                                                       
20000042366OUR DRUG STORE                115 MAIN STREET P.O. BOX 877                                          UNITY                              SKS0K4L03062282121E0          Y                                                                                                                                                                                                                                                                                                                                                                                                                                                                                                                                                                                             
4S503910105139053202601212026012100E0000042366001424400142442026012102534150JAMP SITAGLIPTIN 100MG TAB    JAMP SITAGLIPTIN 100MG CO.    000000000000034034WORRALL        KIM         WORRALL        KIM         19631126M491090635   1090635  1090686        10003002968000297000000000000001215000000000000000000000000000000004480003265000000000000000000001215000000000000000000000000000896003584000000000000000000000000000000000000000000 E2QOD4D8WH  00000096029003265000-00297682005FF TA 1220000000000000                   Y202610014                       9850      000000          00              DADV000000D4972 03  R60 001424407001424407R000340000340       KC         71E2QO              E   0000008 G9850           71000000                            
4S503910149139065202601212026012100E0000042366001424400142442026012102265826SANDOZ AZITHROMYCIN 250MG TAB SANDOZ AZITHROMYCIN 250 MG CO.000000000000006005TILBERT        CRISTI      TILBERT        AUSTYN      20130619M491090635   1090635  1090679        10223000601000180000000000000001215000000000000000000000000000000001996000286000000000000000000000445000000000000000000000000000000000731000000000000000000000000000000000000000000 E3FK        00000130167000286000000315081212FF TA 1220000000000000                   Y202610014                       13674     000000          00              DB  001265D4972 03  R16 001424420001424420N000060000060       KC         71E3DJ              Y   000000  G13674          71000000                            
4S503912526139179202601212026012100E0000042366001424500142452026012102489236SANDOZ APIXABAN SDZ 5MG TAB   SANDOZ APIXABAN SDZ 5MG CO.   030000000000060030TILBERT        CRISTI      TILBERT        ALEX        19890811M491090635   1090635  1090679        10113002610000261000000000000001215000000000000000000000000000000004086000808000000000000000000000342000000000000000000000000000000001150000000000000000000000000000000000000000000 E3FK        00000047850000808000001802201204FF TA 1220000000000000                   Y202610014                       13674     000003          03              DB  002936D4972 03  R48 001424556001424556R000600000600       KC         71E3DJ              Y   000000  G13674          71000000                            
60000050000546500005465                                                                                                                                                                                                                                                                                                                                                                                                                                                                                                                                                                                                                                                                                                                                                       
20000042374PHARMASAVE #432               RUBICON PHARMACIES CORP            PO BOX 69   114 MAIN STREET        WATSON                             SKS0K4V03062873215E1NEIGHBOUR Y                                                                                                                                                                                                                                                                                                                                                                                                                                                                                                                                                                                             
4S503909961453161202601212026012100E0000042374001690600169062026012102354616TEVA-ROSUVASTATIN 10MG TAB    TEVA-ROSUVASTATIN 10MG CO.    060000000000034034OCHITWA        LINDA       OCHITWA        LINDA       19520707F49344262    344262   257425         10003000490000147000000000000001215000000000000000000000000000000001852000637000000000000000000001215000000000000000000000000000370001482000000000000000000000000000000000000000000 E2D4D8WH    00000018735000637000-00147240608FF TA 1220000000000000                   Y202606014                       13088     000006          06              DA  000000D2700 03  R40 001690619001690619R000340000340       KC         71E2                Y   0000008 G13088          71000000                            
4S503909963453162202601212026012100E0000042374001690600169062026012102507749JAMP FAMOTIDINE 20MG TAB      JAMP FAMOTIDINE 20MG CO.      060000000000068034OCHITWA        LINDA       OCHITWA        LINDA       19520707F49344262    344262   257425         10003001925000193000000000000001215000000000000000000000000000000003333002117000000000000000000001215000000000000000000000000000500001999000000000000000000000000000000000000000000 E2DGD4D8WH  00000031132002117000-00192562812FF TA 1220000000000000                   Y202606014                       13088     000006          06              DA  000833D2700 03  R74 001690620001690620R000680000680       KC         71E2DJ              Y   0000008 G13088          71000000                            
4S503910736453180202601212026012110E0000042374001690600169062026012197798966FREESTYLE LIBRE 3 PLUS SENSOR CAPTEUR FREESTYLE LIBRE 3 PLUS990000000000002028TSCHETTER      GEORGE      TSCHETTER      SUSIE       19620814F49286887    286887   286907         10113020428002000000000000000001215000000000000000000000000000000023643000000000000000000000000000000000000000000000000000000000000000000000000000000000000000000000000000000000000 E2CJHBCK    00000000000000000000000000940100U  DE 1220000000000000                   N000000004                       D2859     000099          99              DA  000000D2859 0384Q01 001690647001690647N000020000000       KC         76E2C4HB                000000   D2859          76000000                            
5S503910931453184202601212026012100E0000042374001689800168982026011501937227PMS-TRAZODONE 50MG TAB        PMS-TRAZODONE 50MG CO.        020000000000030030SCHOETTLER     JEANETTE    SCHOETTLER     JEANETTE    19450716F49344262    344262   316154         10003000177000053000000000000001215000000000000000000000000000000001445000230000000000000000000001215000000000000000000000000000289001156000000000000000000000000000000000000000000               000007667000230000-00053281604FF TA 1220000000000000                   Y202606014S503892436452773       11115     000002          02              DA  000000D2700 03  R84 001689812001689812N000300000300       KC         71                  Y   000000  G11115          71000000                            
5S503911631453201202601212026012100E0000042374001690500169052026012002340208SANDOZ TAMSULOSIN 0.4MG CR TABSANDOZ-TAMSULOSIN CR 0.4MG CO.100000000000035035HURION         CHERYL      HURION         LONNIE      19600601M49344262    344262   1175394        10113000559000168000000000000001215000000000000000000000000000000001942000727000000000000000000001215000000000000000000000000000388001554000000000000000000000000000000000000000000               000020771000727000-00168121604FF TA 1220000000000000                   Y202606014S503907565453100       10449     000010          10              DA  000000D2700 03  R76 001690509001690509N000350000350       KC         71                  Y   000000  G10449          71000000                            
4S503911635453202202601212026012100E0000042374001690600169062026012102442256LUXA-D 2,000U CAP             LUXA-D 2,000U CAP.            020000000000070035TSCHETTER      JOHN        TSCHETTER      MARTHA      19631104F49286887    286887   286888         10113000526000000000000000000000608000000000000000000000000000000001134000526000000000000000000000608000000000000000000000300000167000667000000000000000000000000000000000000000000 E2EGD4D8WH  00000007514000526000000000881600FF CA 1220000000000000                   Y202610014                       101258    000002          02              DA  000000D2700 0347R73 001690681001690681R000700000700       KC         71E2                N   0000008  101258         71000000                            
4S503911636453203202601212026012100E0000042374001690600169062026012100015229AVENTYL 10MG CAP              AVENTYL 10MG CAP.             020000000000035035TSCHETTER      JOHN        TSCHETTER      MARTHA      19631104F49286887    286887   286888         10113001219000183000000000000001215000000000000000000000000000000002617001402000000000000000000001215000000000000000000000300000463001854000000000000000000000000000000000000000000 E2EGD4D8WH  00000040057001402000-00183281604FF CA 1220000000000000                   Y202610014                       101258    000002          02              DA  000000D2700 03  R84 001690682001690682R000350000350       KC         71E2                Y   0000008  101258         71000000                            
4S503911637453204202601212026012100E0000042374001690600169062026012102388553AURO-ALENDRONATE 70MG TAB     AURO-ALENDRONATE 70MG CO.     060000000000005035TSCHETTER      JOHN        TSCHETTER      MARTHA      19631104F49286887    286887   286888         10113000949000142000000000000001215000000000000000000000000000000002306001090000000000000000000001215000000000000000000000300000401001604000000000000000000000000000000000000000000 E2DGD4D8WH  00000218000001090000-00141922400FF TA 1220000000000000                   Y202610014                       101258    000006          06              DADW000000D2700 03  R72 001690683001690683R000050000050       KC         71E2DJ              E   0000008 G101258         71000000                            
4S503911665453212202601212026012100E0000042374001690600169062026012102356694SANDOZ-VALSARTAN-HCT 80/12.5MGSANDOZ-VALSARTAN-HCT 80/12.5MG010000000000035035FRANKO         LIANNA      FRANKO         LIANNA      19630526F49344262    344262   1124268        10003000825000124000000000000001215000000000000000000000000000000002164000949000000000000000000001215000000000000000000000000000433001731000000000000000000000000000000000000000000 E2D4D8ERESWH00000027114000949000-00124243208FF TA 1220000000000000                   Y202606014                       8629      000001          01              DA  000000D2700 03  R44 001690691001690691R000350000350       KC         71E2ENEO            Y   0000008 G8629           71000000                            
4S503911666453213202601212026012100E0000042374001690600169062026012102354608TEVA-ROSUVASTATIN 5MG TAB     TEVA-ROSUVASTATIN 5MG CO.     010000000000035035FRANKO         LIANNA      FRANKO         LIANNA      19630526F49344262    344262   1124268        10003000479000144000000000000001215000000000000000000000000000000001838000622000000000000000000001215000000000000000000000000000367001470000000000000000000000000000000000000000000 E2DGD4D8ERES00000017771000622000-00143240608FF TA 1220000000000000                   Y202606014                       8629      000001          01              DA  000000D2700 03  R40 001690692001690692R000350000350       KC         71E2DJENEO          Y   0000008 G8629           71000000                            
4S503911667453214202601212026012100E0000042374001690600169062026012102507781JAMP PAROXETINE 20MG TAB      JAMP PAROXETINE 20MG CO.      010000000000018036FRANKO         LIANNA      FRANKO         LIANNA      19630526F49344262    344262   1124268        1000 000623000187000000000000001215000000000000000000000000000000002025000810000000000000000000001215000000000000000000000000000405001620000000000000000000000000000000000000000000 E2D4D8ERESWH00000045000000810000-00187281604FF TA 1220000000000000                   Y202606014                       8629      000001          01              DA  000000D2700 03  R84 001690693001690693R000180000180       KC         71E2ENEO            Y   0000008 G8629           71000000                            
4S503911672453215202601212026012100E0000042374001690600169062026012102380196JAMP-METFORMIN 500MG TAB      JAMP-METFORMIN 500MG CO.      060000000000070035FRANKO         LIANNA      FRANKO         GRANT       19630726M49344262    344262   1124268        10113000184000055000000000000001215000000000000000000000000000000001454000239000000000000000000001215000000000000000000000000000291001163000000000000000000000000000000000000000000 E2D4D8ERESWH00000003414000239000-00055682004FF TA 1220000000000000                   Y202606014                       8647      000006          06              DA  000000D2700 03  R60 001690694001690694R000700000700       KC         71E2ENEO            Y   0000008 G8647           71000000                            
4S503911673453216202601212026012100E0000042374001690600169062026012102354616TEVA-ROSUVASTATIN 10MG TAB    TEVA-ROSUVASTATIN 10MG CO.    080000000000035035FRANKO         LIANNA      FRANKO         GRANT       19630726M49344262    344262   1124268        10113000505000151000000000000001215000000000000000000000000000000001871000656000000000000000000001215000000000000000000000000000374001497000000000000000000000000000000000000000000 E2D4D8ERESWH00000018743000656000-00151240608FF TA 1220000000000000                   Y202606014                       8647      000008          08              DA  000000D2700 03  R40 001690695001690695R000350000350       KC         71E2ENEO            Y   0000008 G8647           71000000                            
4S503911674453217202601212026012100E0000042374001690600169062026012100362166APO-FUROSEMIDE 40MG TAB       APO-FUROSEMIDE 40MG CO.       080000000000035042FRANKO         LIANNA      FRANKO         GRANT       19630726M49344262    344262   1124268        10113000122000037000000000000001215000000000000000000000000000000001374000158000000000000000000001215000000000000000000000000000275001098000000000000000000000000000000000000000000 E2DGD4D8ERES00000004514000158000-00036402808FF TA 1220000000000000                   Y202606014                       8647      000008          08              DA  000000D2700 03  R70 001690696001690696R000350000350       KC         71E2DJENEO          Y   0000008 G8647           71000000                            
4S503912447453276202601212026012100E0000042374001691100169112026012102501244ENERZAIR BREEZHALER CAP       ENERZAIR BREEZHALER CAP.      000000000000030030WIID           LEMMER      WIID           LEMMER      19920217M491205000   1205000  866907         10003011154001115000000000000001215000000000000000000000000000000013484012269000000000000000000001215000000000000000000000000002697010787000000000000000000000000000000000000000000 E2D4D8WH    00000408967012269000-01115120808FF CA 1220000000000000                   Y202610014                       D2859     000000          00              DA  000000D2700 03  R32 001691134001691134N000300000300       KC         76E2                E   0000008  D2859          76000000                            
60000170002426200029682                                                                                                                                                                                                                                                                                                                                                                                                                                                                                                                                                                                                                                                                                                                                                       
20000042392KINDERSLEY CO-OP PHARMACY     214 MAIN ST                        PO BOX 1120                        KINDERSLEY                         SKS0L1S03064632770E0          Y                                                                                                                                                                                                                                                                                                                                                                                                                                                                                                                                                                                             
4S503909628019738202601212026012100E0000042392002410000241002026012197799177ACCU-CHEK GUIDE STRIP         ACCU-CHEK GUIDE BATONNET      990000000000100030GAFF           JO-ANN      GAFF           DOUGLAS     19581229M49344262    344262   206263         10113007222000722000000000000001215000000000000000000000000000000009159007944000000000000000000001215000000000000000000000000000000002500000000000000000000000000000000000000000000 E2D4D8WH    00000079440007944000-00722362600UDRST 1220000000000000                   Y202606014                       D4812     000099          99              DA  006659D4812 0301Q01 002410088002410088R001000001000       KC         76E2                Y   0000008  D4812          760000000173                        
4S503909652019739202601212026012100E0000042392002410000241002026012102461528BASAGLAR 100U/ML INJ CARTRIDGEBASAGLAR 100U/ML INJ CARTOUCHE030000000000029030GAFF           JO-ANN      GAFF           DOUGLAS     19581229M49344262    344262   206263         10113017188001719000000000000000000000000000000000000000000000000018907018842000000000000000000000000000000000000000000000000000487001948000000000000000000000000000000000000000000 E2DGD4D8WH  00000630167018842000-01654682008UC IN 1220000000000000                   Y202606014                       D4812     000003          03              DA  016407D4812 03  A64 002410089002410089N000299000299       KC         76E2DJ              Y   0000008  D4812          76000000                            
4S503909657019740202601212026012100E0000042392002410000241002026012102340208SANDOZ TAMSULOSIN 0.4MG CR TABSANDOZ-TAMSULOSIN CR 0.4MG CO.030000000000030030GAFF           JO-ANN      GAFF           DOUGLAS     19581229M49344262    344262   206263         10113000479000144000000000000001215000000000000000000000000000000001838000623000000000000000000001215000000000000000000000000000147000588000000000000000000000000000000000000000000 E2D4D8WH    00000020767000623000-00144121604FF TA 1220000000000000                   Y202606014                       127362    000003          03              DA  001103D4812 03  R76 002410090002410090R000300000300       KC         71E2                Y   0000008 G127362         71000000                            
4S503909659019741202601212026012100E0000042392002410000241002026012102251515APO-RAMIPRIL 1.25MG CAP       APO-RAMIPRIL 1.25MG CAP.      030000000000030030GAFF           JO-ANN      GAFF           DOUGLAS     19581229M49344262    344262   206263         10113000226000068000000000000001215000000000000000000000000000000001509000294000000000000000000001215000000000000000000000000000121000483000000000000000000000000000000000000000000 E2D4D8WH    00000009800000294000-00068243204FF CA 1220000000000000                   Y202606014                       127362    000003          03              DA  000905D4812 03  R44 002410091002410091R000300000300       KC         71E2                Y   0000008 G127362         71000000                            
4S503909666019742202601212026012100E0000042392002410000241002026012102245058APO-OMEPRAZOLE 20MG CAP       APO-OMEPRAZOLE 20MG CAP.      030000000000030030GAFF           JO-ANN      GAFF           DOUGLAS     19581229M49344262    344262   206263         10113000731000110000000000000001215000000000000000000000000000000002056000840000000000000000000001215000000000000000000000000000172000686000000000000000000000000000000000000000000 E2DGD4D8WH  00000028000000840000-00109562836FF CA 1220000000000000                   Y202606014                       127362    000003          03              DA  001197D4812 03  R74 002410092002410092R000300000300       KC         71E2DJ              Y   0000008 G127362         71000000                            
4S503909670019743202601212026012100E0000042392002410000241002026012101959220HUMULIN R INJ                 HUMULIN R INJ.                990000000000029030GAFF           JO-ANN      GAFF           DOUGLAS     19581229M49344262    344262   206263         10113012046001205000000000000000000000000000000000000000000000000013251013206000000000000000000000000000000000000000000000000000491001964000000000000000000000000000000000000000000 E2DGD4D8WH  00000441672013206000-01160682008UC IN 1220000000000000                   Y202606014                       D3673     000099          99              DA  010751D4812 03  A64 002410093002410093R000299000299       KC         76E2DJ              Y   0000008  D3673          76000000                            
4S503909677019744202601212026012100E0000042392002410000241002026012102378531PMS-ROSUVASTATIN 10MG TAB     PMS-ROSUVASTATIN 10MG CO.     040000000000030030GAFF           JO-ANN      GAFF           JO-ANN      19571107F49344262    344262   206263         10003000433000130000000000000001215000000000000000000000000000000001778000562000000000000000000001215000000000000000000000000000142000568000000000000000000000000000000000000000000 E2DGD4D8WH  00000018733000562000-00129240608FF TA 1220000000000000                   Y202606014                       123100    000004          04              DA  001067D4812 03  R40 002410094002410094R000300000300       KC         71E2DJ              Y   0000008 G123100         71000000                            
4S503911438019810202601212026012100E0000042392002410100241012026012102243426PMS-ZOPICLONE 5MG TAB         PMS-ZOPICLONE 5MG CO.         010000000000030030SERFAS         MAUREEN     SERFAS         MURRAY      19620609M49344262    344262   700814         10113000713000107000000000000001215000000000000000000000000000000002035000820000000000000000000001215000000000000000000000000000407001628000000000000000000000000000000000000000000 E2D4D8WH    00000027333000820000-00107282492FF TA 1220000000000000                   Y202606014S503911480019814       76056     000001          01              DA  000000D4812 03  R88 002410179002410179R000300000300       KC         71E2                N   0000008 G76056          71000000                            
4S503911474019811202601212026012100E0000042392002410100241012026012102302365SANDOZ-LISINOPRIL-HCT 10/12.5 SANDOZ-LISINOPRIL-HCT 10/12.5 010000000000030030SERFAS         MAUREEN     SERFAS         MURRAY      19620609M49344262    344262   700814         10113000666000100000000000000001215000000000000000000000000000000001981000766000000000000000000001215000000000000000000000000000396001585000000000000000000000000000000000000000000 E2D4D8WH    00000025533000766000-00100243204FF TA 1220000000000000                   Y202606014                       76056     000001          01              DA  000000D4812 03  R44 002410186002410186R000300000300       KC         71E2                Y   0000008 G76056          71000000                            
4S503911476019812202601212026012100E0000042392002410100241012026012102284383SANDOZ-AMLODIPINE 5MG TAB     SANDOZ-AMLODIPINE 5MG CO.     010000000000030030SERFAS         MAUREEN     SERFAS         MURRAY      19620609M49344262    344262   700814         10113000429000129000000000000001215000000000000000000000000000000001773000558000000000000000000001215000000000000000000000000000355001418000000000000000000000000000000000000000000 E2D4D8WH    00000018600000558000-00129242808FF TA 1220000000000000                   Y202606014                       76056     000001          01              DA  000000D4812 03  R44 002410187002410187R000300000300       KC         71E2                Y   0000008 G76056          71000000                            
4S503911478019813202601212026012100E0000042392002410100241012026012102506882SDZ-CIPROFLOXACIN/DEX OT SOL  SDZ-CIPROFLOXACIN/DEX SOL. OT 020000000000007007SERFAS         MAUREEN     SERFAS         MURRAY      19620609M49344262    344262   700814         10113001536000230000000000000001215000000000000000000000000000000002981001766000000000000000000001215000000000000000000000000000596002385000000000000000000000000000000000000000000 E2D4D8WH    00000235467001766000-00230520404FF OT 1220000000000000                   Y202606014                       76056     000002          02              DA  000000D4812 03  R82 002410188002410188R000075000075       KC         71E2                Y   0000008 G76056          71000000                            
5S503911480019814202601212026012100E0000042392002410100241012026012102243426PMS-ZOPICLONE 5MG TAB         PMS-ZOPICLONE 5MG CO.         010000000000030030SERFAS         MAUREEN     SERFAS         MURRAY      19620609M49344262    344262   700814         10113000713000107000000000000001215000000000000000000000000000000002035000820000000000000000000001215000000000000000000000000000407001628000000000000000000000000000000000000000000               000027333000820000-00107282492FF TA 1220000000000000                   Y202606014S503911438019810       76056     000001          01              DA  000000D4812 03  R88 002410179002410179R000300000300       KC         71                  N   000000  G76056          71000000                            
4S503911484019815202601212026012100E0000042392002410100241012026012102243426PMS-ZOPICLONE 5MG TAB         PMS-ZOPICLONE 5MG CO.         010000000000030030SERFAS         MAUREEN     SERFAS         MURRAY      19620609M49344262    344262   700814         10113000713000107000000000000001215000000000000000000000000000000002035000820000000000000000000001215000000000000000000000000000407001628000000000000000000000000000000000000000000 E2D4D8WH    00000027333000820000-00107282492FF TA 1220000000000000                   Y202606014                       76056     000001          01              DA  000000D4812 03  R88 002410189002410189R000300000300       KC         71E2                N   0000008 G76056          71000000                            
4S503912099019864202601212026012100E0000042392002410200241022026012100042579MAXIDEX 0.1% OP OINT          MAXIDEX 0.1% ONG.OP           010000000000001007SCHMALTZ       COLIN       SCHMALTZ       COLLEEN     19540418F49310138    310138   54001          10113001010000151000000000000001215000000000000000000000000000000002376000375000000000000000000001215000000000000000000000600000000000990000000000000000000000000000000000000000000 E2DGD4D8WH  00000375000000375000000635520808FF OP 1220000000000000                   Y202701124                       100410    000001          01              DA  000000D3673 03  R82 002410248002410248N000010000010       KC         00E2DJ              Y   0000008  100410         00000000                            
4S503912109019865202601212026012100E0000042392002410200241022026012100396788APO-FUROSEMIDE 20MG TAB       APO-FUROSEMIDE 20MG CO.       050000000000030030KRENTZ         ANNELLA     KRENTZ         ANNELLA     19430303F49310138    310138   161640         10003000070000021000000000000001215000000000000000000000000000000001306000091000000000000000000001215000000000000000000000600000000000040000000000000000000000000000000000000000000 E2D4D8WH    00000003033000091000-00021402808FF TA 1220000000000000                   Y202606014                       126622    000005          05              DA  000666D4812 03  R70 002410250002410250N000300000300       KC         77E2                Y   0000008 G126622         77000000                            
4S503912113019866202601212026012100E0000042392002410200241022026012102295288APO-ATORVASTATIN 20MG TAB     APO-ATORVASTATIN 20MG CO.     030000000000030030KRENTZ         ANNELLA     KRENTZ         ANNELLA     19430303F49310138    310138   161640         10003000696000104000000000000001215000000000000000000000000000000002015000800000000000000000000001215000000000000000000000600000000000387000000000000000000000000000000000000000000 E2D4D8WH    00000026667000800000-00104240608FF TA 1220000000000000                   Y202606014                       126622    000003          03              DA  001028D4812 03  R40 002410251002410251R000300000300       KC         77E2                Y   0000008 G126622         77000000                            
4S503912115019867202601212026012100E0000042392002410200241022026012102327902SANDOZ-CANDESAR PLUS 16/12.5MGSANDOZ CANDESAR PLUS 16/12.5MG030000000000030030KRENTZ         ANNELLA     KRENTZ         ANNELLA     19430303F49310138    310138   161640         10003000689000103000000000000001215000000000000000000000000000000002007000792000000000000000000001215000000000000000000000600000000000383000000000000000000000000000000000000000000 E2D4D8WH    00000026400000792000-00103243208FF TA 1220000000000000                   Y202606014                       126622    000003          03              DA  001024D4812 03  R44 002410252002410252R000300000300       KC         77E2                Y   0000008 G126622         77000000                            
4S503912118019868202601212026012100E0000042392002410200241022026012102452383APO-FELODIPINE 10MG TAB       APO-FELODIPINE 10MG CO.       030000000000030030KRENTZ         ANNELLA     KRENTZ         ANNELLA     19430303F49310138    310138   161640         10003001709000171000000000000001215000000000000000000000000000000003095001880000000000000000000001215000000000000000000000600000000000917000000000000000000000000000000000000000000 E2D4D8WH    00000062667001880000-00171242808FF TA 1220000000000000                   Y202606014                       126622    000003          03              DA  001578D4812 03  R44 002410253002410253R000300000300       KC         77E2                Y   0000008 G126622         77000000                            
4S503912125019869202601212026012110E0000042392002410200241022026012102240606PMS-ZOPICLONE 7.5MG TAB       PMS-ZOPICLONE 7.5MG CO.       020000000000015030KRENTZ         ANNELLA     KRENTZ         ANNELLA     19430303F49310138    310138   161640         10003000748000112000000000000001215000000000000000000000000000000002075000000000000000000000000000000000000000000000000000000000000000000000000000000000000000000000000000000000000 E2CO        00000000000000000000000000282492FF TA 1220000000000000                   N000000004                       126622    000002          02              DA  000000D4812 03  R88 002410255002410255N000150000000       KC         77E2D1              N   000000  G126622         77000000                            
4S503912128019870202601212026012100E0000042392002410200241022026012101916203SANDOZ-PREDNISOLONE 1% OPH    SANDOZ-PREDNISOLONE 1% SOL. OP020000000000005005SCHMALTZ       COLIN       SCHMALTZ       COLLEEN     19540418F49310138    310138   54001          10113001412000212000000000000001215000000000000000000000000000000002839001623000000000000000000001215000000000000000000000600000000002238000000000000000000000000000000000000000000 E2DGD4D8WH  00000324600001623000-00211520808FF OP 1220000000000000                   Y202701124                       100410    000002          02              DA  000000D3673 03  R82 002410254002410254N000050000050       KC         00E2DJ              Y   0000008 G100410         00000000                            
4S503912142019871202601212026012110E0000042392002410200241022026012100252506CYCLOGYL 1% OP SOL            CYCLOGYL 1% SOL. OP           000000000000015005SCHMALTZ       COLIN       SCHMALTZ       COLLEEN     19540418F49310138    310138   54001          10113001986000199000000000000001215000000000000000000000000000000003400000000000000000000000000000000000000000000000000000000000000000000000000000000000000000000000000000000000000 E2CO        00000000000000000000000000522400FF OP 1220000000000000                   N000000004                       100410    000000          00              DA  000000D3673 03  R82 002410256002410256N000150000000       KC         00E2D1              N   000000  B100410         00000000                            
4S503912547019882202601212026012110E0000042392002410300241032025120902425483INVOKANA 100MG TAB            INVOKANA 100MG CO.            040000000000030030ALDRIDGE       BONITA      ALDRIDGE       RAYMOND     19541204M49344262    344262   387906         10113009410000941000000000000001215000000000000000000000000000000011566000000000000000000000000000000000000000000000000000000000000000000000000000000000000000000000000000000000000 E2D4D8CL    00000000000000000000000000682018FF TA 1220000000000000                   N202606014                       133542    000004          04              DA  005205D4812 03  R60 002410301002410301R000300000000       KC         77E2C5              E   0000008  133542         77000000                            
60000240002070800023964                                                                                                                                                                                                                                                                                                                                                                                                                                                                                                                                                                                                                                                                                                                                                       
