0610068ECLIPSE             GROUP MEDICAL SERV  200-300 HILLSDALE STREET      REGINA         SKS4S7J83063527638202601202026011928703                                                                                                                                                                                                                                                                                                                                                                                                                                                                                                                                                                                                                                           
20000042154PHARMASAVE #405               BOX #579                           219 KAISER WILHELM AVE             LANGENBURG                         SKS0A2A03067432333E1NEIGHBOUR Y                                                                                                                                                                                                                                                                                                                                                                                                                                                                                                                                                                                             
4S503901536555245202601192026011900E0000042154001958700195872026011902469308AURO-DUTASTERIDE 0.5MG CAP    AURO-DUTASTERIDE 0.5MG CAP.   010000000000060060KAMINSKI       MONA        KAMINSKI       DANIAL      19590121M49344262    344262   1061296        1011 001630000163000000000000001215000000000000000000000000000000003008001793000000000000000000001215000000000000000000000000000602002406000000000000000000000000000000000000000000 E2D4D8WH    00000029883001793000-00163920400FF CA 1220000000000000                   Y202606014                       9348      000001          01              DA  000000D4752 03  R76 001958736001958736R000600000600       KC         71E2                Y   0000008 G9348           71000000                            
4S503901540555246202601192026011900E0000042154001958700195872026011902422662MAR-EZETIMIBE 10MG TAB        MAR-EZETIMIBE 10MG CO.        010000000000060060KAMINSKI       MONA        KAMINSKI       DANIAL      19590121M49344262    344262   1061296        1011 001157000174000000000000001215000000000000000000000000000000002546001331000000000000000000001215000000000000000000000000000509002037000000000000000000000000000000000000000000 E2QOD4D8WH  00000022183001331000-00174240605FF TA 1220000000000000                   Y202606014                       9348      000001          01              DA  000000D4752 03  R40 001958737001958737R000600000600       KC         71E2QO              Y   0000008 G9348           71000000                            
4S503901549555247202601192026011900E0000042154001958700195872026011902301083SANDOZ-PANTOPRAZOLE 40MG TAB  SANDOZ-PANTOPRAZOLE 40MG CO.  000000000000030030KAMINSKI       MONA        KAMINSKI       DANIAL      19590121M49344262    344262   1061296        1011 000644000097000000000000001215000000000000000000000000000000001956000741000000000000000000001215000000000000000000000000000391001565000000000000000000000000000000000000000000 E2D4D8WH    00000024700000741000-00097562836FF TA 1220000000000000                   Y202606014                       D5207     000000          00              DA  000000D4752 03  R74 001958738001958738R000300000300       KC         76E2                Y   0000008 GD5207          76000000                            
4S503901659555251202601192026011900E0000042154001958700195872026011902403587APO-MOMETASONE 50MCG NAS SPR  APO-MOMETASONE 50MCG VAP. NAS 020000000000140030OTT            BRIGID      OTT            BRIGID      19570318F49344262    344262   137673         1000 001122000168000000000000001215000000000000000000000000000000002505001290000000000000000000001215000000000000000000000000000501002004000000000000000000000000000000000000000000 E3ERES      00000009214001290000-00168520808FF NA 1220000000000000                   Y202606014                       2754      000002          02              DB  000000D4752 03  R82 001958740001958740R001400001400       KC         71E3ENEO            Y   000000  G2754           71000000                            
4S503901664555254202601192026011900E0000042154001958700195872026011902240606PMS-ZOPICLONE 7.5MG TAB       PMS-ZOPICLONE 7.5MG CO.       030000000000030030OTT            BRIGID      OTT            BRIGID      19570318F49344262    344262   137673         1000 001497000225000000000000001215000000000000000000000000000000002937001722000000000000000000001215000000000000000000000000000587002350000000000000000000000000000000000000000000 E3          00000057400001722000-00225282492FF TA 1220000000000000                   Y202606014                       2754      000003          03              DB  000000D4752 03  R88 001958741001958741R000300000300       KC         71E3                N   000000  G2754           71000000                            
4S503901802555255202601192026011900E0000042154001958700195872026011902248010PMS-CITALOPRAM 20MG TAB       PMS-CITALOPRAM 20MG CO.       040000000000030030KAMINSKI       MONA        KAMINSKI       MONA        19621019F49344262    344262   1061296        1000 000426000128000000000000001215000000000000000000000000000000001769000553000000000000000000001215000000000000000000000000000354001414000000000000000000000000000000000000000000 E2DGD4D8WH  00000018433000553000-00127281604FF TA 1220000000000000                   Y202606014                       105421    000004          04              DA  000000D4752 03  R84 001958742001958742R000300000300       KC         77E2DJ              Y   0000008 G105421         77000000                            
4S503901811555256202601192026011900E0000042154001958700195872026011902420058MAR-CELECOXIB 100MG CAP       MAR-CELECOXIB 100MG CAP.      040000000000030030KAMINSKI       MONA        KAMINSKI       MONA        19621019F49344262    344262   1061296        1000 000409000123000000000000001215000000000000000000000000000000001747000531000000000000000000001215000000000000000000000000000349001397000000000000000000000000000000000000000000 E2DGD4D8WH  00000017700000531000-00122280804FF CA 1220000000000000                   Y202606014                       105421    000004          04              DA  000000D4752 03  R24 001958743001958743R000300000300       KC         77E2DJ              Y   0000008 G105421         77000000                            
4S503901816555257202601192026011900E0000042154001958700195872026011902245058APO-OMEPRAZOLE 20MG CAP       APO-OMEPRAZOLE 20MG CAP.      040000000000030030KAMINSKI       MONA        KAMINSKI       MONA        19621019F49344262    344262   1061296        1000 000731000110000000000000001215000000000000000000000000000000002056000840000000000000000000001215000000000000000000000000000411001644000000000000000000000000000000000000000000 E2DGD4D8WH  00000028000000840000-00109562836FF CA 1220000000000000                   Y202606014                       105421    000004          04              DA  000000D4752 03  R74 001958744001958744R000300000300       KC         77E2DJ              Y   0000008 G105421         77000000                            
4S503901818555258202601192026011900E0000042154001958700195872026011902354616TEVA-ROSUVASTATIN 10MG TAB    TEVA-ROSUVASTATIN 10MG CO.    040000000000030030KAMINSKI       MONA        KAMINSKI       MONA        19621019F49344262    344262   1061296        1000 000433000130000000000000001215000000000000000000000000000000001778000562000000000000000000001215000000000000000000000000000355001422000000000000000000000000000000000000000000 E2DGD4D8WH  00000018733000562000-00129240608FF TA 1220000000000000                   Y202606014                       105421    000004          04              DA  000000D4752 03  R40 001958745001958745R000300000300       KC         77E2DJ              Y   0000008 G105421         77000000                            
4S503903747555298202601192026011900E0000042154001958700195872026011902298457PMS-VALACYCLOVIR 500MG TAB    PMS-VALACYCLOVIR 500MG CO.    040000000000008001OTT            BRIGID      OTT            BRIGID      19570318F49344262    344262   137673         1000 000528000158000000000000001215000000000000000000000000000000001901000686000000000000000000001215000000000000000000000000000380001521000000000000000000000000000000000000000000 E3ERES      00000085750000686000-00158081832FF TA 1220000000000000                   Y202606014                       2754      000004          04              DB  000000D4752 03  R18 001958795001958795R000080000080       KC         71E3ENEO            Y   000000  G2754           71000000                            
60000120001776000017760                                                                                                                                                                                                                                                                                                                                                                                                                                                                                                                                                                                                                                                                                                                                                       
20000042248DAVIS REXALL DRUGS LTD        110-1ST AVENUE WEST                P.O. BOX 1923                      NIPAWIN                            SKS0E1E03068623141E1NEIGHBOUR Y                                                                                                                                                                                                                                                                                                                                                                                                                                                                                                                                                                                             
4S503900929654258202601192026011900E0000042248005340400534042026011902471469OZEMPIC 1MG/ACT INJ           OZEMPIC 1MG/ACT INJ.          120000000000003028HARTNESS       JAMES       HARTNESS       VALERIE     19550423F49310138    310138   480565         10113024224002000000000000000001215000000000000000000000000000000027439026224000000000000000000001215000000000000000000000600000000001900000000000000000000000000000000000000000000 E2LMD4D8WH  00008741333026224000-02000682006FF IN 1220000000000000                   Y202602154                       73921     000012          12              DA  024939D2736 03  R60 005340415005340415R000030000030       KC         71E2                E   0000008  73921          710000006027                        
4S503900933654259202601192026011900E0000042248005340400534042026011902494035SANDOZ BISOPROLOL 5MG TAB     SANDOZ BISOPROLOL 5MG CO.     100000000000034034HARTNESS       JAMES       HARTNESS       VALERIE     19550423F49310138    310138   480565         10113000220000066000000000000001215000000000000000000000000000000001501000285000000000000000000001215000000000000000000000600000000000900000000000000000000000000000000000000000000 E2DGD4D8WH  00000008382000285000-00065242000FF TA 1220000000000000                   Y202602154                       10827     000010          10              DA  000000D2736 03  R46 005340417005340417R000340000340       KC         71E2DJ              Y   0000008 G10827          71000000                            
4S503900936654260202601192026011900E0000042248005340400534042026011902301083SANDOZ-PANTOPRAZOLE 40MG TAB  SANDOZ-PANTOPRAZOLE 40MG CO.  000000000000034034HARTNESS       JAMES       HARTNESS       VALERIE     19550423F49310138    310138   480565         10113000730000110000000000000001215000000000000000000000000000000002055000839000000000000000000001215000000000000000000000600000000001454000000000000000000000000000000000000000000 E2DGD4D8WH  00000024676000839000-00109562836FF TA 1220000000000000                   Y202602154                       41106     000000          00              DA  000000D2736 03  R74 005340418005340418R000340000340       KC         77E2DJ              Y   0000008 G41106          77000000                            
4S503900949654266202601192026011900E0000042248005340400534042026011902378558PMS-ROSUVASTATIN 20MG TAB     PMS-ROSUVASTATIN 20MG CO.     020000000000030030HARTNESS       JAMES       HARTNESS       JAMES       19530716M49310138    310138   480565         10003000541000162000000000000001215000000000000000000000000000000001918000703000000000000000000001215000000000000000000000600000000001318000000000000000000000000000000000000000000 E2D4D8WH    00000023433000703000-00162240608FF TA 1220000000000000                   Y202602154                       128001    000002          02              DA  000000D2736 03  R40 005340422005340422R000300000300       KC         71E2                Y   0000008 G128001         710000006027                        
4S503900952654268202601192026011900E0000042248005340400534042026011902240606PMS-ZOPICLONE 7.5MG TAB       PMS-ZOPICLONE 7.5MG CO.       010000000000034034HARTNESS       JAMES       HARTNESS       JAMES       19530716M49310138    310138   480565         10003001664000166000000000000001215000000000000000000000000000000003045001830000000000000000000001215000000000000000000000600000000002445000000000000000000000000000000000000000000 E2D4D8WH    00000053824001830000-00166282492FF TA 1220000000000000                   Y202602154                       128001    000001          01              DA  000000D2736 03  R88 005340423005340423R000340000340       KC         71E2                N   0000008 G128001         710000006027                        
4S503900956654270202601192026011900E0000042248005340400534042026011902251531APO-RAMIPRIL 2.5MG CAP        APO-RAMIPRIL 2.5MG CAP.       020000000000030030HARTNESS       JAMES       HARTNESS       JAMES       19530716M49310138    310138   480565         10003000261000078000000000000001215000000000000000000000000000000001554000339000000000000000000001215000000000000000000000600000000000954000000000000000000000000000000000000000000 E2D4D8WH    00000011300000339000-00078243204FF CA 1220000000000000                   Y202602154                       128001    000002          02              DA  000000D2736 03  R44 005340426005340426R000300000300       KC         71E2                Y   0000008 G128001         710000006027                        
4S503901022654276202601192026011900E0000042248005340400534042026011902471469OZEMPIC 1MG/ACT INJ           OZEMPIC 1MG/ACT INJ.          040000000000003028GEREIN         DONNA       GEREIN         DONNA       19560427F49344262    344262   1139877        10003024224002000000000000000001215000000000000000000000000000000027439026224000000000000000000001215000000000000000000000000000439001756000000000000000000000000000000000000000000 E2LMD4D8WH  00008741333026224000-02000682006FF IN 1220000000000000                   Y202606014                       9120      000004          04              DA  025244D5081 03  R60 005340431005340431N000030000030       KC         71E2                E   0000008  9120           71000000                            
4S503901024654277202601192026011900E0000042248005340400534042026011997798972DEXCOM G7 SENSOR              DEXCOM G7 CAPTEURS            020000000000003030GEREIN         DONNA       GEREIN         DONNA       19560427F49344262    344262   1139877        10003023625002000000000000000001215000000000000000000000000000000026840025625000000000000000000001215000000000000000000000000000000026840000000000000000000000000000000000000000000 E2D4D8WH    00008541667025625000-02000940000UDRDE 1220000000000000                   Y202606014                       D4861     000002          02              DA  000000D5081 0388Q01 005340433005340433R000030000030       KC         76E2                E   0000008  D4861          760000000173                        
4S503902813654412202601192026011900E0000042248005340600534062026011900613215TEVA-SPIROTON 25MG  TAB       TEVA-SPIROTON 25MG CO.        120000000000015030BELL           DONNA       BELL           FRANKLIN    19550214M49344262    344262   703771         10113000065000019000000000000001215000000000000000000000000000000001299000084000000000000000000001215000000000000000000000000000145000582000000000000000000000000000000000000000000 E2D4D8WH    00000005600000084000-00019243220FF TA 1220000000000000                   Y202606014                       13131     000012          12              DA  000572D2736 03  R70 005340622005340622N000150000150       KC         71E2                Y   0000008 G13131          71000000                            
4S503902814654413202601192026011900E0000042248005340600534062026011902243836SANDOZ-AMIODARONE 200MG TAB   SANDOZ-AMIODARONE 200MG CO.   120000000000030030BELL           DONNA       BELL           FRANKLIN    19550214M49344262    344262   703771         10113001184000178000000000000001215000000000000000000000000000000002577001362000000000000000000001215000000000000000000000000000289001154000000000000000000000000000000000000000000 E2D4D8WH    00000045400001362000-00178240404FF TA 1220000000000000                   Y202606014                       13131     000012          12              DA  001134D2736 03  R46 005340623005340623N000300000300       KC         71E2                Y   0000008 G13131          71000000                            
4S503902815654414202601192026011900E0000042248005340600534062026011902507226TEVA-RIVAROXABAN 20MG TAB     TEVA-RIVAROXABAN 20MG CO.     040000000000030030BELL           DONNA       BELL           FRANKLIN    19550214M49344262    344262   703771         10113002293000229000000000000001215000000000000000000000000000000003737002522000000000000000000001215000000000000000000000000000419001674000000000000000000000000000000000000000000 E2D4D8WH    00000084067002522000-00229201204FF TA 1220000000000000                   Y202606014                       12368     000004          04              DA  001644D2736 03  R48 005340624005340624R000300000300       KC         71E2                Y   0000008 G12368          71000000                            
60000130004097700040977                                                                                                                                                                                                                                                                                                                                                                                                                                                                                                                                                                                                                                                                                                                                                       
20000042260PHARMASAVE #430               518 MAIN STREET                    BOX 27                             BROADVIEW                          SKS0G0K03066962274E1NEIGHBOUR Y                                                                                                                                                                                                                                                                                                                                                                                                                                                                                                                                                                                             
4S503900896887644202601192026011900E0000042260003514100351412026011902326450NOVO-SALBUTAMOL HFA 100MCG INHNOVO-SALBUTAMOL HFA 100MCG INH030000000000200025RYGH           DARLENE     RYGH           NELSON      19620731M49344262    344262   173533         10113000639000096000000000000001215000000000000000000000000000000001950000735000000000000000000001215000000000000000000000000000390001560000000000000000000000000000000000000000000 E2D4D8ERESWH00000003675000735000-00096121208FF IN 1220000000000000                   Y202606014                       129461    000003          03              DA  000000D5036 0369R32 003514121003514121R002000002000       KC         71E2ENEO            Y   0000008 G129461         71000000                            
4S503900901887645202601192026011900E0000042260003514100351412026011902247686ATROVENT HFA 20MCG INH        ATROVENT HFA 20MCG INH        030000000000200030RYGH           DARLENE     RYGH           NELSON      19620731M49344262    344262   173533         10113002170000217000000000000001215000000000000000000000000000000003602001379000000000000000000001215000000000000000000000000000519002075000000000000000000000000000000000000000000 DFE2D4D8ERES00000006895001379000000791120808FF IN 1220000000000000                   Y202606014                       129461    000003          03              DA  000000D5036 0369R32 003514122003514122R002000002000       KC         71D8E2ENEO          Y   0000008 B129461         71000000                            
60000040000363500003635                                                                                                                                                                                                                                                                                                                                                                                                                                                                                                                                                                                                                                                                                                                                                       
20000042269PHARMASAVE #412               203 BROADWAY STREET                BOX 1030                           FORT QU'APPELLE                    SKS0G1S03063325717E1NEIGHBOUR Y                                                                                                                                                                                                                                                                                                                                                                                                                                                                                                                                                                                             
4S503900913165064202601192026011900E0000042269003762600376262026011902433079JAMP-AMOXICILLIN 500MG CAP    JAMP-AMOXICILLIN 500MG CAP.   000000000000020010SALIHU         ARBERESHA   SALIHU         ARBERESHA   19970921F491149125   1149125  1250613        10003000279000084000000000000001215000000000000000000000000000000001578000362000000000000000000001215000000000000000000000000000315001262000000000000000000000000000000000000000000 E2DGD4D8ERES00000018100000362000-00083081216FF CA 1220000000000000                   Y202607014S503901131165094       127282    000000          00              DA  000000D4870 03  R16 003762695003762695N000200000200       KC         71E2DJENEO          Y   0000008 G127282         71000000                            
5S503901131165094202601192026011900E0000042269003762600376262026011902433079JAMP-AMOXICILLIN 500MG CAP    JAMP-AMOXICILLIN 500MG CAP.   000000000000020010SALIHU         ARBERESHA   SALIHU         ARBERESHA   19970921F491149125   1149125  1250613        10003000279000084000000000000001215000000000000000000000000000000001578000362000000000000000000001215000000000000000000000000000315001262000000000000000000000000000000000000000000               000018001000362000-00083081216FF CA 1220000000000000                   Y202607014S503900913165064       127282    000000          00              DA  000000D4870 03  R16 003762695003762695N000200000200       KC         71                  Y   000000  G127282         71000000                            
4S503901786165131202601192026011900E0000042269003762700376272026011902284383SANDOZ-AMLODIPINE 5MG TAB     SANDOZ-AMLODIPINE 5MG CO.     000000000000030030HELFRICK       CONNIE      HELFRICK       CONNIE      19530105F495963      5963     288199         10003000429000129000000000000001215000000000000000000000000000000001773000558000000000000000000001215000000000000000000000000000355001418000000000000000000000000000000000000000000 E2D4D8ERESWH00000018600000558000-00129242808FF TA 1220000000000000                   Y202602144                       76918     000000          00              DA  000000D4870 03  R44 003762776003762776R000300000300       KC         71E2ENEO            Y   0000008 G76918          71000000                            
4S503901978165149202601192026011900E0000042269003762700376272026011902356716SANDOZ-VALSARTA-HCTZ 160/25MG SANDOZ-VALSARTA-HCTZ 160/25MG 020000000000030030HELFRICK       CONNIE      HELFRICK       CONNIE      19530105F495963      5963     288199         10003000715000107000000000000001215000000000000000000000000000000002037000822000000000000000000001215000000000000000000000000000407001630000000000000000000000000000000000000000000 E2D4D8ERESWH00000027400000822000-00107243208FF TA 1220000000000000                   Y202602144                       D4870     000002          02              DA  000000D4870 03  R44 003762790003762790N000300000300       KC         76E2ENEO            Y   0000008 GD4870          76000000                            
4S503902350165175202601192026011900E0000042269003762800376282026011902550776APO-LEVOTHYROXINE 137MCG TAB  APO-LEVOTHYROXINE 137MCG CO.  010000000000090090HOFMEISTER     KEN         DAMMANN-HOFMEISBEV         19530203F49282368    282368   263511         10113001727000173000000000000001215000000000000000000000000000000003115000001000000000000000000000000000000000000000000000000000000000001000000000000000000000000000000000000000000 E3FKDGWH    00000021100000001000001726683604FF TA 1220000000000000                   Y202607014                       131462    000001          01              DB  003114D4870 03  R02 003762818003762818N000900000900       KC         71E3DJ              Y   000000  G131462         71000000                            
4S503902380165178202601192026011900E0000042269003762800376282026011902354608TEVA-ROSUVASTATIN 5MG TAB     TEVA-ROSUVASTATIN 5MG CO.     010000000000090090HOFMEISTER     KEN         DAMMANN-HOFMEISBEV         19530203F49282368    282368   263511         10113001231000185000000000000001215000000000000000000000000000000002631000001000000000000000000000000000000000000000000000000000000000001000000000000000000000000000000000000000000 E3FKDGWH    00000015722000001000001230240608FF TA 1220000000000000                   Y202607014                       131462    000001          01              DB  002630D4870 03  R40 003762819003762819N000900000900       KC         71E3DJ              Y   000000  G131462         71000000                            
4S503902395165180202601192026011910E0000042269003762800376282026011902357127JAMP-CYCLOBENZAPRINE 10MG TAB JAMP-CYCLOBENZAPRINE 10MG CO. 000000000000030030BOEHME         DARYL       BOEHME         DARYL       19600224M49310138    310138   767375         10003000327000098000000000000001215000000000000000000000000000000001640000000000000000000000000000000000000000000000000000000000000000000000000000000000000000000000000000000000000 E2CO        00000000000000000000000000122004FF TA 1220000000000000                   N000000004                       12822     000000          00              DA  000000D4870 03  R96 003762822003762822N000300000000       KC         71E2D1              E   000000  G12822          71000000                            
4S503902420165181202601192026011910E0000042269003762800376282026011902302624PMS-DICLOFENAC DR 50MG TAB    PMS-DICLOFENAC DR 50MG CO.    000000000000042014BOEHME         DARYL       BOEHME         DARYL       19600224M49310138    310138   767375         10003000992000149000000000000001215000000000000000000000000000000002356000000000000000000000000000000000000000000000000000000000000000000000000000000000000000000000000000000000000 E2COC1      00000000000000000000000000280804FF TA 1220000000000000                   N000000004                       12822     000000          00              DA  000000D4870 03  R24 003762823003762823N000420000000       KC         71E2CS              Y   000000  G12822          71000000                            
4S503902667165188202601192026011900E0000042269003762800376282026011902242684TARO-WARFARIN 4MG TAB         TARO-WARFARIN 4MG CO.         010000000000090090WEIMER         CINDY       WEIMER         FRED        19560613M49344262    344262   1168107        10113001000000150000000000000001215000000000000000000000000000000002365001150000000000000000000001215000000000000000000000000000473001892000000000000000000000000000000000000000000 E2D4D8WH    00000012778001150000-00150201204FF TA 1220000000000000                   Y202606014                       12822     000001          01              DA  000000D4870 03  R48 003762833003762833N000900000900       KC         71E2                Y   0000008 G12822          71000000                            
4S503902744165190202601192026011900E0000042269003762800376282026011902242680TARO-WARFARIN 1MG TAB         TARO-WARFARIN 1MG CO.         010000000000090090WEIMER         CINDY       WEIMER         FRED        19560613M49344262    344262   1168107        10113000749000112000000000000001215000000000000000000000000000000002076000861000000000000000000001215000000000000000000000000000415001661000000000000000000000000000000000000000000 E2D4D8WH    00000009567000861000-00112201204FF TA 1220000000000000                   Y202606014                       12822     000001          01              DA  000000D4870 03  R48 003762834003762834N000900000900       KC         71E2                Y   0000008 G12822          71000000                            
4S503904665165277202601192026011900E0000042269003762900376292026011902470683PMS-PERINDOPRIL 4MG TAB       PMS-PERINDOPRIL 4MG CO.       030000000000090090NOELS          MARK        NOELS          NOREEN      19630630F49310138    310138   6562           10113001958000196000000000000001215000000000000000000000000000000003369002153000000000000000000001215000000000000000000000600000000002768000000000000000000000000000000000000000000 E2DGD4D8WH  00000023922002153000-00195243204FF TA 1220000000000000                   Y202608014                       127282    000003          03              DA  000000D4870 03  R44 003762956003762956N000900000900       KC         71E2DJ              Y   0000008 G127282         71000000                            
4S503904756165278202601192026011900E0000042269003762900376292026011902390140JAMP-QUETIAPINE 25MG TAB      JAMP-QUETIAPINE 25MG CO.      010000000000030030NOELS          MARK        NOELS          NOREEN      19630630F49310138    310138   6562           10113000158000047000000000000001215000000000000000000000000000000001420000205000000000000000000001215000000000000000000000600000000000820000000000000000000000000000000000000000000 E2D4D8WH    00000006833000205000-00047281608FF TA 1220000000000000                   Y202608014                       127282    000001          01              DA  000000D4870 03  R86 003762958003762958N000300000300       KC         71E2                Y   0000008 G127282         71000000                            
60000140001019100012715                                                                                                                                                                                                                                                                                                                                                                                                                                                                                                                                                                                                                                                                                                                                                       
20000042271BABER'S PHARMASAVE 447        130 MAIN STREET BOX 490                                               BALCARRES                          SKS0G0C03063342424E0          Y                                                                                                                                                                                                                                                                                                                                                                                                                                                                                                                                                                                             
4S503901359894199202601192026011900E0000042271003528200352822026011902251582APO-RAMIPRIL 10MG CAP         APO-RAMIPRIL 10MG CAP.        010000000000030030PAUS           VICTORIA    PAUS           VICTORIA    19590414F49344262    344262   598239         10003000330000099000000000000001215000000000000000000000000000000001644000429000000000000000000001215000000000000000000000000000247000986000000000000000000000000000000000000000000 E2D4D8WH    00000014300000429000-00099243204FF CA 1220000000000000                   Y202606014                       12822     000001          01              DA  000411D4424 03  R44 003528202003528202R000300000300       KC         71E2                Y   0000008 G12822          71000000                            
4S503901360894200202601192026011900E0000042271003528200352822026011902375613JAMP-SIMVASTATIN 20MG TAB     JAMP-SIMVASTATIN 20MG CO.     010000000000030030PAUS           VICTORIA    PAUS           VICTORIA    19590414F49344262    344262   598239         10003000799000120000000000000001215000000000000000000000000000000002134000919000000000000000000001215000000000000000000000000000320001281000000000000000000000000000000000000000000 E2D4D8WH    00000030633000919000-00120240608FF TA 1220000000000000                   Y202606014                       12822     000001          01              DA  000533D4424 03  R40 003528203003528203R000300000300       KC         71E2                Y   0000008 G12822          71000000                            
4S503901361894201202601192026011900E0000042271003528200352822026011902359634PMS-PREGABALIN 150MG CAP      PMS-PREGABALIN 150MG CAP.     010000000000060030PAUS           VICTORIA    PAUS           VICTORIA    19590414F49344262    344262   598239         10003002649000265000000000000001215000000000000000000000000000000004129002914000000000000000000001215000000000000000000000000000619002478000000000000000000000000000000000000000000 E2D4D8WH    00000048567002914000-00265280892FF CA 1220000000000000                   Y202606014                       12822     000001          01              DA  001032D4424 03  R08 003528204003528204R000600000600       KC         71E2                Y   0000008 G12822          71000000                            
4S503901426894209202601192026011900E0000042271003528200352822026011902243446PMS-GABAPENTIN 100MG CAP      PMS-GABAPENTIN 100MG CAP.     030000000000102034HENLEY         JEAN        HENLEY         WARREN      19570716M49344262    344262   169702         10113000452000136000000000000001215000000000000000000000000000000001803000587000000000000000000001215000000000000000000000000000360001442000000000000000000000000000000000000000000 E2DGD4D8WH  00000005755000587000-00135281292FF CA 1220000000000000                   Y202606014                       77518     000003          03              DA  000000D4424 03  R20 003528212003528212R001020001020       KC           E2DJ              Y   0000008 G77518            000000                            
60000060000618700006187                                                                                                                                                                                                                                                                                                                                                                                                                                                                                                                                                                                                                                                                                                                                                       
20000042295PHARMASAVE #438               WRIGHT'S PHARMACY                  BOX 100 - 701 LALONDE STREET       WHITEWOOD                          SKS0G5C03067352303E1NEIGHBOUR Y                                                                                                                                                                                                                                                                                                                                                                                                                                                                                                                                                                                             
4S503901850587244202601192026011900E0000042295003132700313272026011902230803PMS-METOPROLOL-L 50MG TAB     PMS-METOPROLOL-L 50MG CO.     050000000000084028HOGGARTH       MARLA       HOGGARTH       MARLA       19570509F49344262    344262   1259949        10003000558000167000000000000001215000000000000000000000000000000001940000725000000000000000000001215000000000000000000000000000190000761000000000000000000000000000000000000000000 E2D4D8WH    00000008631000725000-00167242000FF TA 1220000000000000                   Y202606014                       100315    000005          05              DA  000989D4954 03  R46 003132764003132764N000840000840       KC         71E2                Y   0000008 G100315         71000000                            
4S503901851587245202601192026011900E0000042295003132700313272026011902354616TEVA-ROSUVASTATIN 10MG TAB    TEVA-ROSUVASTATIN 10MG CO.    050000000000028028HOGGARTH       MARLA       HOGGARTH       MARLA       19570509F49344262    344262   1259949        10003000404000121000000000000001215000000000000000000000000000000001740000525000000000000000000001215000000000000000000000000000171000682000000000000000000000000000000000000000000 E2D4D8WH    00000018750000525000-00121240608FF TA 1220000000000000                   Y202606014                       100315    000005          05              DA  000887D4954 03  R40 003132765003132765N000280000280       KC         71E2                Y   0000008 G100315         71000000                            
4S503901852587246202601192026011900E0000042295003132700313272026011902527197APO-DAPAGLIFLOZIN 10MG TAB    APO-DAPAGLIFLOZIN 10MG CO.    050000000000028028HOGGARTH       MARLA       HOGGARTH       MARLA       19570509F49344262    344262   1259949        10003002035000204000000000000001215000000000000000000000000000000003454002239000000000000000000001215000000000000000000000000000338001354000000000000000000000000000000000000000000 E2D4D8WH    00000079964002239000-00204682018FF TA 1220000000000000                   Y202606014                       100315    000005          05              DA  001762D4954 03  R60 003132766003132766N000280000280       KC         71E2                Y   0000008 G100315         71000000                            
4S503901853587247202601192026011900E0000042295003132700313272026011902487403APO-APIXABAN 5MG TAB          APO-APIXABAN 5MG CO.          050000000000056028HOGGARTH       MARLA       HOGGARTH       MARLA       19570509F49344262    344262   1259949        10003002436000244000000000000001215000000000000000000000000000000003895002679000000000000000000001215000000000000000000000000000382001526000000000000000000000000000000000000000000 E2DGD4D8WH  00000047839002679000-00243201204FF TA 1220000000000000                   Y202606014                       100315    000005          05              DA  001986D4954 03  R48 003132767003132767N000560000560       KC         71E2DJ              Y   0000008 G100315         71000000                            
4S503901854587248202601192026011900E0000042295003132700313272026011900362166APO-FUROSEMIDE 40MG TAB       APO-FUROSEMIDE 40MG CO.       030000000000084028HOGGARTH       MARLA       HOGGARTH       MARLA       19570509F49344262    344262   1259949        10003000293000088000000000000001215000000000000000000000000000000001596000380000000000000000000001215000000000000000000000000000156000625000000000000000000000000000000000000000000 E2DGD4D8WH  00000004524000380000-00087402808FF TA 1220000000000000                   Y202606014                       100315    000003          03              DA  000814D4954 03  R70 003132769003132769R000840000840       KC         71E2DJ              Y   0000008 G100315         71000000                            
4S503901858587250202601192026011910E0000042295003132700313272026011902543389JAMP EPLERENONE 25MG TAB      JAMP EPLERENONE 25MG CO.      050000000000028028HOGGARTH       MARLA       HOGGARTH       MARLA       19570509F49344262    344262   1259949        10003004000000409000000000000001215000000000000000000000000000000005624000000000000000000000000000000000000000000000000000000000000000000000000000000000000000000000000000000000000 E2KT        00000000000000000000000000243220FF TA 1220000000000000                   N000000004                       100315    000005          05              DA  000000D4954 03  R70 003132768003132768N000280000000       KC         71E286              E   000000  G100315         71000000                            
4S503902915587419202601192026011910E0000042295003132900313292026011902248757SANDOZ-CIPROFLOXACIN 500MG TABSANDOZ-CIPROFLOXACIN 500MG CO.000000000000020010VELESTUK       BONNIE      VELESTUK       BONNIE      19650416F49344262    344262   681580         10003001070000161000000000000001215000000000000000000000000000000002446000000000000000000000000000000000000000000000000000000000000000000000000000000000000000000000000000000000000 E2KT        00000000000000000000000000081218FF TA 1220000000000000                   N000000004                       75651     000000          00              DA  000000D4954 03  R16 003132955003132955N000200000000       KC         71E286              E   000000  G75651          71000000                            
4S503903049587422202601192026011910E0000042295003132900313292026011902438658MYLAN-GLICLAZIDE MR 30MG TAB  MYLAN-GLICLAZIDE MR 30MG CO.  020000000000030030JACOBS         COLE        JACOBS         COLE        19850321M49310138    310138   1245501        10003000298000089000000000000001215000000000000000000000000000000001602000000000000000000000000000000000000000000000000000000000000000000000000000000000000000000000000000000000000 E2CJHBCK    00000000000000000000000000682020F  TA 1220000000000000                   N000000004                       D4954     000002          02              DA  000064D4954 03  R60 003132959003132959N000300000000       KC         76E2C4HB                000000  GD4954          76000000                            
4S503904769587522202601192026011910E0000042295003133000313302026011902471469OZEMPIC 1MG/ACT INJ           OZEMPIC 1MG/ACT INJ.          020000000000003028JACOBS         COLE        JACOBS         COLE        19850321M49310138    310138   1245501        10003024220002000000000000000001215000000000000000000000000000000027435000000000000000000000000000000000000000000000000000000000000000000000000000000000000000000000000000000000000 E2CJHBCK    00000000000000000000000000682006F  IN 1220000000000000                   N000000004                       125122    000002          02              DA  001097D4954 03  R60 003133062003133062R000030000000       KC         71E2C4HB                000000   125122         71000000                            
4S503904775587526202601192026011910E0000042295003133000313302026011902471469OZEMPIC 1MG/ACT INJ           OZEMPIC 1MG/ACT INJ.          020000000000003028JACOBS         COLE        JACOBS         COLE        19850321M49310138    310138   1245501        10003024220002000000000000000001215000000000000000000000000000000027435000000000000000000000000000000000000000000000000000000000000000000000000000000000000000000000000000000000000 E2CJHBCK    00000000000000000000000000682006F  IN 1220000000000000                   N000000004                       125122    000002          02              DA  001097D4954 03  R60 003133063003133063R000030000000       KC         71E2C4HB                000000   125122         71000000                            
60000120000494800004948                                                                                                                                                                                                                                                                                                                                                                                                                                                                                                                                                                                                                                                                                                                                                       
20000042333WOODLAND PHARMACY LTD         P.O. BOX 160 9 MAIN STREET                                            SHELLBROOK                         SKS0J2E03067472545E0          Y                                                                                                                                                                                                                                                                                                                                                                                                                                                                                                                                                                                             
4S503902681046984202601192026011900E0000042333003656000365602026011902378531PMS-ROSUVASTATIN 10MG TAB     PMS-ROSUVASTATIN 10MG CO.     030000000000034034JOHNSTON       FAYE        JOHNSTON       FAYE        19530501F49344262    344262   720577         10003000490000147000000000000001215000000000000000000000000000000001852000637000000000000000000001215000000000000000000000000000370001482000000000000000000000000000000000000000000 E2D4D8WH    00000018735000637000-00147240608FF TA 1220000000000000                   Y202606014                       116103    000003          03              DA  000000D3698 03  R40 003656050003656050R000340000340       KC         71E2                Y   0000008 G116103         71000000                            
4S503902684046985202601192026011900E0000042333003656000365602026011902460920SANDOZ-ESOMEPRAZOLE 20MG TAB  SANDOZ-ESOMEPRAZOLE 20MG CO.  050000000000034034JOHNSTON       FAYE        JOHNSTON       FAYE        19530501F49344262    344262   720577         10003001992000199000000000000001215000000000000000000000000000000003406002191000000000000000000001215000000000000000000000000000681002725000000000000000000000000000000000000000000 E2QOD4D8WH  00000064441002191000-00199562836FF TA 1220000000000000                   Y202606014                       116103    000005          05              DADW000000D3698 03  R74 003656051003656051R000340000340       KC         71E2QO              E   0000008 G116103         71000000                            
4S503902705046986202601192026011900E0000042333003656000365602026011902340208SANDOZ TAMSULOSIN 0.4MG CR TABSANDOZ-TAMSULOSIN CR 0.4MG CO.040000000000068034JOHNSTON       FAYE        SMITH          EVERETT     19530615M49344262    344262   720577         10113001086000163000000000000001215000000000000000000000000000000002464001249000000000000000000001215000000000000000000000000000493001971000000000000000000000000000000000000000000 E2D4D8WH    00000018368001249000-00163121604FF TA 1220000000000000                   Y202606014                       106663    000004          04              DA  000000D3698 03  R76 003656052003656052R000680000680       KC         71E2                Y   0000008 G106663         71000000                            
4S503902706046988202601192026011900E0000042333003656000365602026011902246581PMS-ATENOLOL 25MG TAB         PMS-ATENOLOL 25MG CO.         040000000000068034JOHNSTON       FAYE        SMITH          EVERETT     19530615M49344262    344262   720577         10113000319000096000000000000001215000000000000000000000000000000001630000415000000000000000000001215000000000000000000000000000326001304000000000000000000000000000000000000000000 E2D4D8WH    00000006103000415000-00096242000FF TA 1220000000000000                   Y202606014                       106663    000004          04              DA  000000D3698 03  R46 003656054003656054R000680000680       KC         71E2                Y   0000008 G106663         71000000                            
4S503902707046987202601192026011900E0000042333003656000365602026011902405814AURO-FINASTERIDE 5MG TAB      AURO-FINASTERIDE 5MG CO.      040000000000034034JOHNSTON       FAYE        SMITH          EVERETT     19530615M49344262    344262   720577         10113001270000190000000000000001215000000000000000000000000000000002675001460000000000000000000001215000000000000000000000000000500001999000000000000000000000000000000000000000000 E2D4D8WH    00000042941001460000-00190920400FF TA 1220000000000000                   Y202606014                       106663    000004          04              DA  000176D3698 03  R76 003656053003656053R000340000340       KC         71E2                Y   0000008 G106663         71000000                            
4S503902709046989202601192026011900E0000042333003656000365602026011902313715TARO-ATORVASTATIN 20MG TAB    TARO-ATORVASTATIN 20MG CO.    040000000000034034JOHNSTON       FAYE        SMITH          EVERETT     19530615M49344262    344262   720577         10113000789000118000000000000001215000000000000000000000000000000002122000907000000000000000000001215000000000000000000000000000424001698000000000000000000000000000000000000000000 E2D4D8WH    00000026676000907000-00118240608FF TA 1220000000000000                   Y202606014                       106663    000004          04              DA  000000D3698 03  R40 003656056003656056R000340000340       KC         71E2                Y   0000008 G106663         71000000                            
4S503902710046990202601192026011900E0000042333003656000365602026011902375966SANDOZ TELMISARTAN 80MG TAB   SANDOZ TELMISARTAN 80MG CO.   040000000000034034JOHNSTON       FAYE        SMITH          EVERETT     19530615M49344262    344262   720577         10113000783000117000000000000001215000000000000000000000000000000002115000900000000000000000000001215000000000000000000000000000423001692000000000000000000000000000000000000000000 E2D4D8WH    00000026471000900000-00117243208FF TA 1220000000000000                   Y202606014                       106663    000004          04              DA  000000D3698 03  R44 003656057003656057R000340000340       KC         71E2                Y   0000008 G106663         71000000                            
4S503902711046991202601192026011900E0000042333003656000365602026011902244305APO-GABAPENTIN 300MG CAP      APO-GABAPENTIN 300MG CAP.     010000000000090030JOHNSTON       FAYE        SMITH          EVERETT     19530615M49344262    344262   720577         10113000970000146000000000000001215000000000000000000000000000000002331001116000000000000000000001215000000000000000000000000000466001865000000000000000000000000000000000000000000 E2D4D8WH    00000012400001116000-00146281292FF CA 1220000000000000                   Y202606014                       106663    000001          01              DA  000000D3698 03  R20 003656058003656058R000900000900       KC         71E2                Y   0000008 G106663         71000000                            
4S503902717046992202601192026011900E0000042333003656000365602026011902240606PMS-ZOPICLONE 7.5MG TAB       PMS-ZOPICLONE 7.5MG CO.       040000000000034034JOHNSTON       FAYE        SMITH          EVERETT     19530615M49344262    344262   720577         10113001696000170000000000000001215000000000000000000000000000000003081001866000000000000000000001215000000000000000000000000000616002465000000000000000000000000000000000000000000 E2D4D8WH    00000054882001866000-00170282492FF TA 1220000000000000                   Y202606014                       106663    000004          04              DA  000000D3698 03  R88 003656055003656055R000340000340       KC         71E2                N   0000008 G106663         71000000                            
4S503903925047061202601192026011900E0000042333009004000900402026011902536315TESTOSTERONE ENANTHATE INJ    TESTOSTERONE ENANTHATE INJ.   090000000000005035HENDERSON      AGNES       HENDERSON      CALVIN      19550613M49344262    344262   1154548        10113003791000379000000000000001215000000000000000000000000000000005385004170000000000000000000001215000000000000000000000000001077004308000000000000000000000000000000000000000000 E2D4D8WH    00000834000004170000-00379680800FG IN 1220000000000000                   Y202606014                       73596     000009          09              DA  000000D3698 0303R01 009004092009004092N000050000050       KC         71E2                Y   0000008 G73596          71000000                            
4S503904076047066202601192026011900E0000042333003656100365612026011902359618PMS-PREGABALIN 50MG CAP       PMS-PREGABALIN 50MG CAP.      050000000000060030MOSS           LORI        MOSS           KEITH       19590617M49344262    344262   1357883        10113001480000222000000000000001215000000000000000000000000000000002917001702000000000000000000001215000000000000000000000000000500002000000000000000000000000000000000000000000000 E2D4D8WH    00000028367001702000-00222280892FF CA 1220000000000000                   Y202606014                       75320     000005          05              DA  000417D3698 03  R08 003656133003656133N000600000600       KC         71E2                Y   0000008 G75320          71000000                            
60000130002350900023509                                                                                                                                                                                                                                                                                                                                                                                                                                                                                                                                                                                                                                                                                                                                                       
20000042337SPIRITWOOD PHARMACY           120 MAIN STREET BOX 279                                               SPIRITWOOD                         SKS0J2M03068832391E0          Y                                                                                                                                                                                                                                                                                                                                                                                                                                                                                                                                                                                             
4S503901550045445202601192026011900E0000042337003806100380612026011902313715TARO-ATORVASTATIN 20MG TAB    TARO-ATORVASTATIN 20MG CO.    010000000000180090PURDY          VIONA       PURDY          DONALD      19521026M49344262    344262   801575         10113004177000418000000000000001215000000000000000000000000000000005810004595000000000000000000001215000000000000000000000000000500001999000000000000000000000000000000000000000000 E2D4D8WH    00000025528004595000-00418240608FF TA 1220000000000000                   Y202606014                       12842     000001          01              DA  003311D2542 03  R40 003806140003806140N001800001800       KC         71E2                Y   0000008 G12842          71000000                            
4S503901553045446202601192026011900E0000042337003806100380612026011902443708MAR-RANITIDINE 150MG TAB      MAR-RANITIDINE 150MG CO.      020000000000060030PURDY          VIONA       PURDY          VIONA       19561204F49344262    344262   801575         10003000765000115000000000000001215000000000000000000000000000000002095000880000000000000000000001215000000000000000000000000000189000754000000000000000000000000000000000000000000 E2D4D8WH    00000014667000880000-00115562812FF TA 1220000000000000                   Y202606014                       12842     000002          02              DA  001152D2542 03  R74 003806141003806141R000600000600       KC         71E2                Y   0000008 G12842          71000000                            
4S503901672045453202601192026011900E0000042337003806100380612026011902303671OMNARIS 50MCG NAS SPR         OMNARIS 50MCG/ACT VAP. NAS    040000000000120030PRIMEAU        GAYLA       PRIMEAU        GAYLA       19590101F49344262    344262   606422         10003003342000334000000000000001215000000000000000000000000000000004891003676000000000000000000001215000000000000000000000000000783003130000000000000000000000000000000000000000000 E2D4D8WH    00000030633003676000-00334520808FF NA 1220000000000000                   Y202606014                       45732     000004          04              DA  000978D2542 0369R82 003806150003806150R001200001200       KC         77E2                Y   0000008  45732          77000000                            
4S503901676045454202601192026011900E0000042337003806100380612026011902489236SANDOZ APIXABAN SDZ 5MG TAB   SANDOZ APIXABAN SDZ 5MG CO.   010000000000060030PRIMEAU        GAYLA       PRIMEAU        GAYLA       19590101F49344262    344262   606422         10003002610000261000000000000001215000000000000000000000000000000004086002871000000000000000000001215000000000000000000000000000654002615000000000000000000000000000000000000000000 E2D4D8WH    00000047850002871000-00261201204FF TA 1220000000000000                   Y202606014                       45732     000001          01              DA  000817D2542 03  R48 003806151003806151R000600000600       KC         77E2                Y   0000008 G45732          77000000                            
4S503901682045455202601192026011900E0000042337003806100380612026011902378531PMS-ROSUVASTATIN 10MG TAB     PMS-ROSUVASTATIN 10MG CO.     010000000000030030PRIMEAU        GAYLA       PRIMEAU        GAYLA       19590101F49344262    344262   606422         10003000433000130000000000000001215000000000000000000000000000000001778000562000000000000000000001215000000000000000000000000000284001137000000000000000000000000000000000000000000 E2DGD4D8WH  00000018733000562000-00129240608FF TA 1220000000000000                   Y202606014                       45732     000001          01              DA  000356D2542 03  R40 003806152003806152R000300000300       KC         77E2DJ              Y   0000008 G45732          77000000                            
4S503901687045458202601192026011900E0000042337003806100380612026011902246820SANDOZ-METFORMIN FC 500MG TAB SANDOZ-METFORMIN FC 500MG CO. 010000000000060030PRIMEAU        GAYLA       PRIMEAU        GAYLA       19590101F49344262    344262   606422         10003000158000047000000000000001215000000000000000000000000000000001420000205000000000000000000001215000000000000000000000000000227000909000000000000000000000000000000000000000000 E2D4D8WH    00000003417000205000-00047682004FF TA 1220000000000000                   Y202606014                       45732     000001          01              DA  000284D2542 03  R60 003806155003806155R000600000600       KC         77E2                Y   0000008 G45732          77000000                            
4S503901689045459202601192026011900E0000042337003806100380612026011902326957SANDOZ CANDESARTAN 4MG TAB    SANDOZ-CANDESARTAN 4MG CO.    000000000000030030PRIMEAU        GAYLA       PRIMEAU        GAYLA       19590101F49344262    344262   606422         10003000543000163000000000000001215000000000000000000000000000000001921000706000000000000000000001215000000000000000000000000000307001230000000000000000000000000000000000000000000 E2D4D8WH    00000023533000706000-00163243208FF TA 1220000000000000                   Y202606014                       45732     000000          00              DA  000384D2542 03  R44 003806156003806156R000300000300       KC         77E2                Y   0000008 G45732          77000000                            
4S503901696045460202601192026011900E0000042337003806100380612026011902496380MINT-NADOLOL 40MG TAB         MINT-NADOLOL 40MG CO.         010000000000015030PRIMEAU        GAYLA       PRIMEAU        GAYLA       19590101F49344262    344262   606422         10003000380000114000000000000001215000000000000000000000000000000001709000493000000000000000000001215000000000000000000000000000273001093000000000000000000000000000000000000000000 E2DGD4D8WH  00000032867000493000-00113242000FF TA 1220000000000000                   Y202606014                       45732     000001          01              DA  000342D2542 03  R46 003806157003806157R000150000150       KC         77E2DJ              Y   0000008 G45732          77000000                            
4S503901703045461202601192026011900E0000042337003806100380612026011902460939SANDOZ-ESOMEPRAZOLE 40MG TAB  SANDOZ-ESOMEPRAZOLE 40MG CO.  010000000000030030PRIMEAU        GAYLA       PRIMEAU        GAYLA       19590101F49344262    344262   606422         10003001757000176000000000000001215000000000000000000000000000000003148001933000000000000000000001215000000000000000000000000000550002199000000000000000000000000000000000000000000 E2D4D8WH    00000064433001933000-00176562836FF TA 1220000000000000                   Y202606014                       45732     000001          01              DA  000399D2542 03  R74 003806158003806158R000300000300       KC         77E2                E   0000008 G45732          77000000                            
4S503902527045479202601192026011900E0000042337003806200380622026011902289261APO-PERINDOPRIL 2MG TAB       APO-PERINDOPRIL 2MG CO.       070000000000030030DOUCETTE       CHERYL      DOUCETTE       DAVID       19590731M49310138    310138   403922         10113000521000156000000000000001215000000000000000000000000000000001892000677000000000000000000001215000000000000000000000600000000001292000000000000000000000000000000000000000000 E2D4D8WH    00000022567000677000-00156243204FF TA 1220000000000000                   Y202605054                       9910      000007          07              DA  000000D2542 03  R44 003806201003806201R000300000300       KC         71E2                Y   0000008 G9910           71000000                            
4S503903040045505202601192026011900E0000042337003806200380622026011902313723TARO-ATORVASTATIN 40MG TAB    TARO-ATORVASTATIN 40MG CO.    060000000000034034DUBYK          JUDY        DUBYK          JUDY        19560717F49344262    344262   1024606        10003000848000127000000000000001215000000000000000000000000000000002190000975000000000000000000001215000000000000000000000000000333001331000000000000000000000000000000000000000000 E2D4D8WH    00000028676000975000-00127240608FF TA 1220000000000000                   Y202606014                       12783     000006          06              DA  000526D2542 03  R40 003806252003806252N000340000340       KC         71E2                Y   0000008 G12783          71000000                            
4S503903070045509202601192026011900E0000042337003806200380622026011902246010APO-METOPROLOL 25MG TAB       APO-METOPROLOL 25MG CO.       000000000000017034DUBYK          JUDY        DUBYK          JUDY        19560717F49344262    344262   1024606        10003000116000035000000000000001215000000000000000000000000000000001366000151000000000000000000001215000000000000000000000000000208000830000000000000000000000000000000000000000000 E2D4D8WH    00000008882000151000-00035242000FF TA 1220000000000000                   Y202606014                       12783     000000          00              DA  000328D2542 03  R46 003806257003806257N000170000170       KC         71E2                Y   0000008 G12783          71000000                            
4S503903086045511202601192026011910E0000042337003806200380622026011902283700PRAXIS ASA EC 81MG TAB        PRAXIS AAS 81MG CO.           080000000000034034DUBYK          JUDY        DUBYK          JUDY        19560717F49344262    344262   1024606        10003000192000000000000000000000607000000000000000000000000000000000799000000000000000000000000000000000000000000000000000000000000000000000000000000000000000000000000000000000000 E2CO        00000000000000000000000000280804UDRTA 1220000000000000                   N000000004                       12783     000008          08              DA  000000D2542 0343B09 003806259003806259N000340000000       KC         71E2D1              N   000000  G12783          71000000                            
4S503903136045513202601192026011900E0000042337003806200380622026011902251531APO-RAMIPRIL 2.5MG CAP        APO-RAMIPRIL 2.5MG CAP.       080000000000034034DUBYK          JUDY        DUBYK          JUDY        19560717F49344262    344262   1024606        10003000296000089000000000000001215000000000000000000000000000000001600000385000000000000000000001215000000000000000000000000000243000973000000000000000000000000000000000000000000 E2D4D8WH    00000011324000385000-00089243204FF CA 1220000000000000                   Y202606014                       12783     000008          08              DA  000384D2542 03  R44 003806262003806262N000340000340       KC         71E2                Y   0000008 G12783          71000000                            
4S503903152045515202601192026011900E0000042337003806200380622026011902413159SANDOZ TOLTERODINE LA 4MG CAP SANDOZ TOLTERODINE LA 4MG CAP.080000000000034034DUBYK          JUDY        DUBYK          JUDY        19560717F49344262    344262   1024606        10003003557000356000000000000001215000000000000000000000000000000005128003912000000000000000000001215000000000000000000000000000779003117000000000000000000000000000000000000000000 E2DGD4D8WH  00000115059003912000-00355861204FF CA 1220000000000000                   Y202606014S503904509045586       12783     000008          08              DA  001231D2542 03  R76 003806264003806264N000340000340       KC         71E2DJ              Y   0000008 G12783          71000000                            
4S503903180045517202601192026011900E0000042337003806200380622026011902534681APO-LEVOTHYROXINE 100MCG TAB  APO-LEVOTHYROXINE 100MCG CO.  020000000000100100DUBYK          JUDY        DUBYK          JUDY        19560717F49344262    344262   1024606        10003000490000147000000000000001215000000000000000000000000000000001852000637000000000000000000001215000000000000000000000000000282001126000000000000000000000000000000000000000000 E2D4D8WH    00000006370000637000-00147683604FF TA 1220000000000000                   Y202606014                       12783     000002          02              DA  000444D2542 03  R02 003806266003806266N001000001000       KC         71E2                Y   0000008 G12783          71000000                            
4S503903982045570202601192026011900E0000042337003806300380632026011902289288APO-PERINDOPRIL 4MG TAB       APO-PERINDOPRIL 4MG CO.       010000000000034034LOSETH         ROGER       LOSETH         ROGER       19660217M49405767    405767   1184926        10003000739000111000000000000001215000000000000000000000000000000002065000850000000000000000000001215000000000000000000000000000413001652000000000000000000000000000000000000000000 E2D4D8ERESWH00000025000000850000-00111243204FF TA 1220000000000000                   Y202606014                       13349     000001          01              DA  000000D2542 03  R44 003806346003806346R000340000340       KC         71E2ENEO            Y   0000008 G13349          71000000                            
4S503903985045571202601192026011900E0000042337003806300380632026011902378558PMS-ROSUVASTATIN 20MG TAB     PMS-ROSUVASTATIN 20MG CO.     020000000000034034LOSETH         ROGER       LOSETH         ROGER       19660217M49405767    405767   1184926        10003000613000184000000000000001215000000000000000000000000000000002012000796000000000000000000001215000000000000000000000000000402001609000000000000000000000000000000000000000000 E2DGD4D8ERES00000023412000796000-00183240608FF TA 1220000000000000                   Y202606014                       13349     000002          02              DA  000000D2542 03  R40 003806348003806348R000340000340       KC         71E2DJENEO          Y   0000008 G13349          71000000                            
4S503903988045572202601192026011900E0000042337003806300380632026011902423596INCRUSE ELLIPTA 62.5MCG INH   INCRUSE ELLIPTA 62.5MCG INH   020000000000030030LOSETH         ROGER       LOSETH         ROGER       19660217M49405767    405767   1184926        10003005425000542000000000000001215000000000000000000000000000000007182005967000000000000000000001215000000000000000000000000001436005746000000000000000000000000000000000000000000 E2D4D8WH    00000198900005967000-00542120808FF IN 1220000000000000                   Y202606014                       13349     000002          02              DA  000000D2542 03  R32 003806349003806349R000300000300       KC         71E2                E   0000008  13349          71000000                            
5S503904509045586202601192026011900E0000042337003806200380622026011902413159SANDOZ TOLTERODINE LA 4MG CAP SANDOZ TOLTERODINE LA 4MG CAP.080000000000034034DUBYK          JUDY        DUBYK          JUDY        19560717F49344262    344262   1024606        10003003557000356000000000000001215000000000000000000000000000000005128003912000000000000000000001215000000000000000000000000000779003117000000000000000000000000000000000000000000               000115559003912000-00355861204FF CA 1220000000000000                   Y202606014S503903152045515       12783     000008          08              DA  001231D2542 03  R76 003806264003806264N000340000340       KC         71                  Y   000000  G12783          71000000                            
60000220002962500035859                                                                                                                                                                                                                                                                                                                                                                                                                                                                                                                                                                                                                                                                                                                                                       
20000042350PHARMASAVE #429               531 MAIN STREET                    PO BOX 1210                        HUMBOLDT                           SKS0K2A03066822616E1NEIGHBOUR Y                                                                                                                                                                                                                                                                                                                                                                                                                                                                                                                                                                                             
4S503902021570046202601192026011910E0000042350002190400219042026011902240606PMS-ZOPICLONE 7.5MG TAB       PMS-ZOPICLONE 7.5MG CO.       020000000000009028BACHMAN        DUANE       BACHMAN        DUANE       19570327M49310138    310138   265627         10003000449000135000000000000001215000000000000000000000000000000001799000000000000000000000000000000000000000000000000000000000000000000000000000000000000000000000000000000000000 E2CO        00000000000000000000000000282492FF TA 1220000000000000                   N000000004                       76977     000002          02              DA  000000D4453 03  R88 002190444002190444N000090000000       KC         71E2D1              N   000000  G76977          71000000                            
4S503903519570115202601192026011900E0000042350002190600219062026011902397358AURO-ESCITALOPRAM 10MG TAB    AURO-ESCITALOPRAM 10MG CO.    000000000000028028MEYERS         GLORIA      MEYERS         GLORIA      19541009F49344262    344262   611039         10003000927000139000000000000001215000000000000000000000000000000002281001066000000000000000000001215000000000000000000000000000040000160000000000000000000000000000000000000000000 E2D4D8WH    00000038071001066000-00139281604FF TA 1220000000000000                   Y202606014                       D4453     000000          00              DA  002081D4453 03  R84 002190607002190607N000280000280       KC         76E2                Y   0000008 GD4453          76000000                            
60000040000016000000160                                                                                                                                                                                                                                                                                                                                                                                                                                                                                                                                                                                                                                                                                                                                                       
20000042365THE DELTA CO-OP PHARMACY      130-2ND AVENUE W                                                      UNITY                              SKS0K4L03062282629E0          Y                                                                                                                                                                                                                                                                                                                                                                                                                                                                                                                                                                                             
4S503901045583683202601192026011900E0000042365001230500123052026011902284383SANDOZ-AMLODIPINE 5MG TAB     SANDOZ-AMLODIPINE 5MG CO.     020000000000015030SEGO           JAMES       SEGO           CAROLE      19441015F49310138    310138   45151          10113000215000064000000000000001215000000000000000000000000000000001494000279000000000000000000001215000000000000000000000600000000000894000000000000000000000000000000000000000000 E2D4D8WH    00000018600000279000-00064242808FF TA 1220000000000000                   Y202607014                       135100    000002          02              DA  000000D3551 03  R44 001230518001230518R000150000150       KC         71E2                Y   0000008 G135100         71000000                            
4S503904868583804202601192026011900E0000042365001230600123062026011902246820SANDOZ-METFORMIN FC 500MG TAB SANDOZ-METFORMIN FC 500MG CO. 050000000000140028SOLOHUB        EDITH       SOLOHUB        EDITH       19410321F49310138    310138   157905         10003000368000110000000000000001215000000000000000000000000000000001693000478000000000000000000001215000000000000000000000372000000000000000000000000000000000000000000000000000000 E2D4D8WHLK  00000003414000478000-00110682004FF TA 1220000000000000                   Y202610114                       106782    000005          05              DA  001321D3551 03  R60 001230681001230681N001400001400       KC         71E2LK              Y   0000008 G106782         710000006027                        
4S503904869583805202601192026011900E0000042365001230600123062026011902463571TARO-GLICLAZIDE MR 30MG TAB   TARO-GLICLAZIDE MR 30MG CO.   110000000000028028SOLOHUB        EDITH       SOLOHUB        EDITH       19410321F49310138    310138   157905         10003000278000083000000000000001215000000000000000000000000000000001576000361000000000000000000001215000000000000000000000347000000000000000000000000000000000000000000000000000000 E2D4D8WHLK  00000012893000361000-00083682020FF TA 1220000000000000                   Y202610114                       106782    000011          11              DA  001229D3551 03  R60 001230682001230682N000280000280       KC         71E2LK              Y   0000008 G106782         710000006027                        
4S503904870583806202601192026011900E0000042365001230600123062026011902504065SANDOZ SITAGLIPTIN 100MG TAB  SANDOZ SITAGLIPTIN 100MG CO.  050000000000028028SOLOHUB        EDITH       SOLOHUB        EDITH       19410321F49310138    310138   157905         10003002444000244000000000000001215000000000000000000000000000000003903002688000000000000000000001215000000000000000000000600000000000259000000000000000000000000000000000000000000 E2D4D8WH    00000096000002688000-00244682005FF TA 1220000000000000                   Y202610114                       106782    000005          05              DA  003044D3551 03  R60 001230683001230683N000280000280       KC         71E2                E   0000008 G106782         710000006027                        
4S503904871583807202601192026011900E0000042365001230600123062026011902326965SANDOZ CANDESARTAN 8MG TAB    SANDOZ-CANDESARTAN 8MG CO.    050000000000028028SOLOHUB        EDITH       SOLOHUB        EDITH       19410321F49310138    310138   157905         10003000680000102000000000000001215000000000000000000000000000000001997000782000000000000000000001215000000000000000000000439000000000000000000000000000000000000000000000000000000 E2D4D8WHLK  00000027929000782000-00102243208FF TA 1220000000000000                   Y202610114                       106782    000005          05              DA  001558D3551 03  R44 001230685001230685N000280000280       KC         71E2LK              Y   0000008 G106782         710000006027                        
4S503904872583808202601192026011900E0000042365001230600123062026011902378523PMS-ROSUVASTATIN 5MG TAB      PMS-ROSUVASTATIN 5MG CO.      050000000000028028SOLOHUB        EDITH       SOLOHUB        EDITH       19410321F49310138    310138   157905         10003000383000115000000000000001215000000000000000000000000000000001713000498000000000000000000001215000000000000000000000377000000000000000000000000000000000000000000000000000000 E2D4D8WHLK  00000017786000498000-00115240608FF TA 1220000000000000                   Y202610114                       106782    000005          05              DA  001336D3551 03  R40 001230686001230686N000280000280       KC         71E2LK              Y   0000008 G106782         71000000                            
4S503904875583809202601192026011900E0000042365001230600123062026011980003663VITAMIN D 1000IU TAB          VITAMINE D 1000UI CO.         020000000000028028SOLOHUB        EDITH       SOLOHUB        EDITH       19410321F49310138    310138   157905         10003000041000000000000000000000608000000000000000000000000000000000649000041000000000000000000000608000000000000000000000600000000000049000000000000000000000000000000000000000000 E2D4D8WH    00000001464000041000000000920188UDRTA 1220000000000000                   Y202610114                       135100    000002          02              DA  000000D3551 03  Q01 001230687001230687R000280000280       KC         71E2                N   0000008 G135100         710000006027                        
4S503904883583813202601192026011900E0000042365001230600123062026011902443945JARDIANCE 25MG TAB            JARDIANCE 25MG CO.            050000000000028028SOLOHUB        EDITH       SOLOHUB        EDITH       19410321F49310138    310138   157905         10003008378000838000000000000001215000000000000000000000000000000010431009216000000000000000000001215000000000000000000000600000000001695000000000000000000000000000000000000000000 E2D4D8WH    00000329143009216000-00838682018FF TA 1220000000000000                   Y202610114                       106782    000005          05              DA  008136D3551 03  R60 001230684001230684N000280000280       KC         71E2                E   0000008  106782         710000006027                        
60000100000289700002897                                                                                                                                                                                                                                                                                                                                                                                                                                                                                                                                                                                                                                                                                                                                                       
20000042366OUR DRUG STORE                115 MAIN STREET P.O. BOX 877                                          UNITY                              SKS0K4L03062282121E0          Y                                                                                                                                                                                                                                                                                                                                                                                                                                                                                                                                                                                             
4S503900930138538202601192026011900E0000042366001423700142372026011902207818PMS-CLONAZEPAM R 0.5MG TAB    PMS-CLONAZEPAM 0.5MG CO.      010000000000042028STEPHEN        MARK        STEPHEN        MARK        19580519M49344262    344262   653050         10003000187000056000000000000001215000000000000000000000000000000001458000243000000000000000000001215000000000000000000000000000245000980000000000000000000000000000000000000000000 E2D4D8WH    00000005786000243000-00056281208FF TA 1220000000000000                   Y202606014                       1309      000001          01              DA  000233D4972 03  R20 001423780001423780R000420000420       KC         91E2                Y   0000008 G1309           91000000                            
4S503900935138539202601192026011900E0000042366001423700142372026011902248504PAXIL CR 25MG TAB             PAXIL CR 25MG CO.             010000000000028028STEPHEN        MARK        STEPHEN        MARK        19580519M49344262    344262   653050         10003008198000820000000000000001215000000000000000000000000000000010233009017000000000000000000001215000000000000000000000000002046008186000000000000000000000000000000000000000000 E2DGD4D8WH  00000322036009017000-00819281604FF TA 1220000000000000                   Y202606014                       1309      000001          01              DA  000000D4972 03  R84 001423781001423781R000280000280       KC         91E2DJ              N   0000008  1309           91000000                            
4S503900983138542202601192026011900E0000042366001423700142372026011902422662MAR-EZETIMIBE 10MG TAB        MAR-EZETIMIBE 10MG CO.        010000000000028028STEPHEN        MARK        STEPHEN        MARK        19580519M49344262    344262   653050         10003000540000162000000000000001215000000000000000000000000000000001917000702000000000000000000001215000000000000000000000000000383001534000000000000000000000000000000000000000000 E3QOFK      00000025071000702000-00162240605FF TA 1220000000000000                   Y202606014                       1116      000001          01              DB  000307D4972 03  R40 001423782001423782R000280000280       KC         71E3QO              Y   000000  G1116           71000000                            
4S503900987138543202601192026011900E0000042366001423700142372026011902531410AURO-DAPAGLIFLOZIN 10MG TAB   AURO-DAPAGLIFLOZIN 10MG CO.   010000000000028028STEPHEN        MARK        STEPHEN        MARK        19580519M49344262    344262   653050         10003002035000204000000000000001215000000000000000000000000000000003454001353000000000000000000000000000000000000000000000000000080000319000000000000000000000000000000000000000000 E2DID4D8WH  00000079964001353000000682682018FF TA 1220000000000000                   Y202606014                       1116      000001          01              DA  000954D4972 03  R60 001423783001423783R000280000280       KC         71E2RS              Y   0000008 G1116           71000000                            
4S503900990138544202601192026011910E0000042366001423700142372026011902313723TARO-ATORVASTATIN 40MG TAB    TARO-ATORVASTATIN 40MG CO.    010000000000014028STEPHEN        MARK        STEPHEN        MARK        19580519M49344262    344262   653050         10003000349000105000000000000001215000000000000000000000000000000001669000000000000000000000000000000000000000000000000000000000000000000000000000000000000000000000000000000000000 E2D4D8CL    00000000000000000000000000240608FF TA 1220000000000000                   N202606014                       1116      000001          01              DA  000267D4972 03  R40 001423784001423784R000140000000       KC         71E2C5              Y   0000008 G1116           71000000                            
4S503900995138545202601192026011910E0000042366001423700142372026011902246820SANDOZ-METFORMIN FC 500MG TAB SANDOZ-METFORMIN FC 500MG CO. 010000000000112028STEPHEN        MARK        STEPHEN        MARK        19580519M49344262    344262   653050         10003000295000088000000000000001215000000000000000000000000000000001598000000000000000000000000000000000000000000000000000000000000000000000000000000000000000000000000000000000000 E2D4D8CL    00000000000000000000000000682004FF TA 1220000000000000                   N202606014                       1116      000001          01              DA  000256D4972 03  R60 001423785001423785R001120000000       KC         71E2C5              Y   0000008 G1116           71000000                            
4S503901004138546202601192026011910E0000042366001423700142372026011902301075SANDOZ-PANTOPRAZOLE 20MG TAB  SANDOZ-PANTOPRAZOLE 20MG CO.  010000000000056028STEPHEN        MARK        STEPHEN        MARK        19580519M49344262    344262   653050         10003001076000161000000000000001215000000000000000000000000000000002452000000000000000000000000000000000000000000000000000000000000000000000000000000000000000000000000000000000000 E2D4D8CL    00000000000000000000000000562836FF TA 1220000000000000                   N202606014                       1116      000001          01              DA  000392D4972 03  R74 001423786001423786R000560000000       KC         71E2C5              Y   0000008 G1116           71000000                            
4S503901009138547202601192026011910E0000042366001423700142372026011902356767SANDOZ VALSARTAN 160MG TAB    SANDOZ-VALSARTAN 160MG CO.    010000000000028028STEPHEN        MARK        STEPHEN        MARK        19580519M49344262    344262   653050         10003000644000097000000000000001215000000000000000000000000000000001956000000000000000000000000000000000000000000000000000000000000000000000000000000000000000000000000000000000000 E2DGD4D8CL  00000000000000000000000000243208FF TA 1220000000000000                   N202606014                       1116      000001          01              DA  000313D4972 03  R44 001423787001423787R000280000000       KC         71E2DJC5            Y   0000008 G1116           71000000                            
4S503901389138566202601192026011900E0000042366001423800142382026011902378523PMS-ROSUVASTATIN 5MG TAB      PMS-ROSUVASTATIN 5MG CO.      010000000000030030WAGNER         MARY        WAGNER         TIM         19530124M49344262    344262   244843         10113000410000123000000000000001215000000000000000000000000000000001748000533000000000000000000001215000000000000000000000000000350001398000000000000000000000000000000000000000000 E2D4D8WH    00000017767000533000-00123240608FF TA 1220000000000000                   Y202606014                       12317     000001          01              DA  000000D2574 03  R40 001423820001423820R000300000300       KC         71E2                Y   0000008 G12317          71000000                            
4S503901392138568202601192026011900E0000042366001423800142382026011902240606PMS-ZOPICLONE 7.5MG TAB       PMS-ZOPICLONE 7.5MG CO.       030000000000035028WAGNER         MARY        WAGNER         TIM         19530124M49344262    344262   244843         10113001747000175000000000000001215000000000000000000000000000000003137001922000000000000000000001215000000000000000000000000000627002510000000000000000000000000000000000000000000 E2D4D8WH    00000054914001922000-00175282492FF TA 1220000000000000                   Y202606014                       9850      000003          03              DA  000000D2574 03  R88 001423821001423821N000350000350       KC         71E2                N   0000008 G9850           71000000                            
4S503901395138570202601192026011900E0000042366001423800142382026011902284391SANDOZ-AMLODIPINE 10MG TAB    SANDOZ-AMLODIPINE 10MG CO.    030000000000034034WAGNER         MARY        WAGNER         TIM         19530124M49344262    344262   244843         10113000722000108000000000000001215000000000000000000000000000000002045000830000000000000000000001215000000000000000000000000000409001636000000000000000000000000000000000000000000 E2D4D8WH    00000024412000830000-00108242808FF TA 1220000000000000                   Y202606014                       9850      000003          03              DA  000000D2574 03  R44 001423822001423822N000340000340       KC         71E2                Y   0000008 G9850           71000000                            
4S503901402138572202601192026011900E0000042366001423800142382026011902470446SDZ-PERINDO-INDAP 8/2.5MG     SDZ-PERINDO-INDAPA 8/2.5MG    030000000000034034WAGNER         MARY        WAGNER         TIM         19530124M49344262    344262   244843         10113001035000155000000000000001215000000000000000000000000000000002405001190000000000000000000001215000000000000000000000000000481001924000000000000000000000000000000000000000000 E2D4D8WH    00000035000001190000-00155243204FF TA 1220000000000000                   Y202606014                       9850      000003          03              DA  000000D2574 03  R44 001423823001423823N000340000340       KC         71E2                Y   0000008 G9850           71000000                            
4S503901413138574202601192026011900E0000042366001423800142382026011902248855PMS-METOPROLOL-L 25MG TAB     PMS-METOPROLOL-L 25MG CO.     030000000000068034WAGNER         MARY        WAGNER         TIM         19530124M49344262    344262   244843         10113000466000140000000000000001215000000000000000000000000000000001821000605000000000000000000001215000000000000000000000000000364001456000000000000000000000000000000000000000000 E2DGD4D8WH  00000008897000605000-00139242000FF TA 1220000000000000                   Y202606014                       9850      000003          03              DA  000000D2574 03  R46 001423824001423824N000680000680       KC         71E2DJ              Y   0000008 G9850           71000000                            
4S503901592138585202601192026011900E0000042366001423800142382026011900740675TEVA-PROPRANOLOL 20MG TAB     TEVA-PROPRANOLOL 20MG CO.     040000000000068034NOBBS          ELSIE       NOBBS          ELSIE       19490613F49310138    310138   252340         10003000811000122000000000000001215000000000000000000000000000000002148000932000000000000000000001215000000000000000000000600000000001547000000000000000000000000000000000000000000 E2DGD4D8WH  00000013706000932000-00121242000FF TA 1220000000000000                   Y202701014                       9906      000004          04              DA  000000D2574 03  R46 001423834001423834R000680000680       KC         01E2DJ              Y   0000008 G9906           01000000                            
4S503901593138586202601192026011900E0000042366001423800142382026011902327902SANDOZ-CANDESAR PLUS 16/12.5MGSANDOZ CANDESAR PLUS 16/12.5MG080000000000034034NOBBS          ELSIE       NOBBS          ELSIE       19490613F49310138    310138   252340         10003000781000117000000000000001215000000000000000000000000000000002113000898000000000000000000001215000000000000000000000600000000001513000000000000000000000000000000000000000000 E2D4D8WH    00000026412000898000-00117243208FF TA 1220000000000000                   Y202701014                       9906      000008          08              DA  000000D2574 03  R44 001423835001423835R000340000340       KC         01E2                Y   0000008 G9906           01000000                            
4S503901600138587202601192026011900E0000042366001423800142382026011902550717APO-LEVOTHYROXINE 50MCG TAB   APO-LEVOTHYROXINE 50MCG CO.   010000000000100100WAGNER         MARY        WAGNER         MARY        19540828F49344262    344262   244843         10003000397000119000000000000001215000000000000000000000000000000001731000516000000000000000000001215000000000000000000000000000346001385000000000000000000000000000000000000000000 E2D4D8WH    00000005160000516000-00119683604FF TA 1220000000000000                   Y202606014                       13546     000001          01              DA  000000D2574 03  R02 001423836001423836N001000001000       KC         71E2                Y   0000008 G13546          71000000                            
4S503901617138589202601192026011900E0000042366001423800142382026011902378531PMS-ROSUVASTATIN 10MG TAB     PMS-ROSUVASTATIN 10MG CO.     030000000000034034WAGNER         MARY        WAGNER         MARY        19540828F49344262    344262   244843         10003000490000147000000000000001215000000000000000000000000000000001852000637000000000000000000001215000000000000000000000000000370001482000000000000000000000000000000000000000000 E2D4D8WH    00000018735000637000-00147240608FF TA 1220000000000000                   Y202606014                       13546     000003          03              DA  000000D2574 03  R40 001423837001423837R000340000340       KC         71E2                Y   0000008 G13546          71000000                            
4S503901619138592202601192026011900E0000042366001423800142382026011902326957SANDOZ CANDESARTAN 4MG TAB    SANDOZ-CANDESARTAN 4MG CO.    030000000000034034WAGNER         MARY        WAGNER         MARY        19540828F49344262    344262   244843         10003000616000185000000000000001215000000000000000000000000000000002016000800000000000000000000001215000000000000000000000000000403001612000000000000000000000000000000000000000000 E2DGD4D8WH  00000023529000800000-00184243208FF TA 1220000000000000                   Y202606014                       13546     000003          03              DA  000000D2574 03  R44 001423839001423839R000340000340       KC         71E2DJ              Y   0000008 G13546          71000000                            
4S503901626138594202601192026011900E0000042366001423800142382026011902314185SANDOZ-RABEPRAZOLE EC 20MG TABSANDOZ-RABEPRAZOLE EC 20MG CO.030000000000034034WAGNER         MARY        WAGNER         MARY        19540828F49344262    344262   244843         10003000485000145000000000000001215000000000000000000000000000000001845000630000000000000000000001215000000000000000000000000000369001476000000000000000000000000000000000000000000 E2D4D8WH    00000018529000630000-00145562836FF TA 1220000000000000                   Y202606014                       13546     000003          03              DA  000000D2574 03  R74 001423841001423841R000340000340       KC         71E2                Y   0000008 G13546          71000000                            
4S503901663138598202601192026011900E0000042366001423800142382026011902246820SANDOZ-METFORMIN FC 500MG TAB SANDOZ-METFORMIN FC 500MG CO. 010000000000204102WORRALL        KIM         WORRALL        CINDY       19610709F491090635   1090635  1090686        10113000537000161000000000000001215000000000000000000000000000000001913000698000000000000000000001215000000000000000000000000000383001530000000000000000000000000000000000000000000 E2D4D8WH    00000003422000698000-00161682004FF TA 1220000000000000                   Y202610014                       13356     000001          01              DA  000000D2574 03  R60 001423847001423847R002040002040       KC         71E2                Y   0000008 G13356          71000000                            
