0610068ESI Canada          GROUP MEDICAL SERV                                               SK      00000000002025110791020251106                                                        DentPredet/predet current 2017/12/12 11:01                                                                                                                                                                                                                                                                                                                                                                                                                                                                                                                                                                                                                                                                                                                                                                                                                                                                                                                                                                                                                                                            
20801200013697BARKER                        MICHAEL                       MICHAEL BARKER                636 MAIN ST N                                                                                                           MOOSE JAW                          SKCAN            S6H3K43066926438E                                                                                                                                                                                                                                                                                                                                                                                                                                                                                                                                                                                                                                                                                                                                                                                                                                                                                                                                                                                          
4610218008255042025110620251106E080120001BARKER                        MICHAEL                       3697SKGPROBERTS                       CHRISTA                       ROBERTS                       CHRISTA                       19561226F49344262    344262   1180662        1000KIML         1                                                                                                                                                                                                                                                                                                                                                                                                                                                                                                00000000        2Y20261105Y57 LEWRY CRESCENT                                                     MOOSE JAW                          SKCANADA         S6J1J9   3                                                                                                                                                                                                                                                                                                                            
501202511061000001268714612PERIODONTAL APPLIANCE-LOWER        APPAREILS PARODONTAUX              00     0341000341000000000272809911102400002400000000001920099555000000000000000000000000            005810001162008004648014612        933339338401PREVENTIVE SERVICES                     PREVENTION                              31          UNIV000000000000034100                                                                                                                                                                                                                                                                                                                                                                                                                                                                                                                                                                                                                                                                                                                                                                                                                                                                                                                        
6000004                                                                0005810000046480                                                                                                                                                                                                                                                                                                                                                                                                                                                                                                                                                                                                                                                                                                                                                                                                                                                                                                                                                                                                                                                                                                                                                                                                        
20801533012937DUFOUR                        MEENA                         MEENA DUFOUR                  PRAIRIE DENTAL CLINIC                   2109 RETALLACK ST                                                               REGINA                             SKCAN            S4T2K53063597707E                                                                                                                                                                                                                                                                                                                                                                                                                                                                                                                                                                                                                                                                                                                                                                                                                                                                                                                                                                                          
4610218008257332025110620251106E080153301DUFOUR                        MEENA                         2937SKGPLAZURCA                       DIANA                         LAZURCA                       DIANA                         19410612F49344262    344262   346906         1000CAPSS_CD     1                                                                                                                                                                                                                                                                                                                                                                                                                                                                                                00000000        2Y20261106Y901 - 2243 HAMILTON STREET                                            REGINA                             SKCANADA         S4P4B6   3                                                                                                                                                                                                                                                                                                                            
501202511061000001273702601X-RAY, PANORAMIC                   RADIOGRAPHIE PANORAMIQUE           00     008800008800000000007040     000000000000000000000000     000000000000000000000000            000880000176008000704002601        933339338402BASIC                                   RESTAURATIONS DE BASE                   31          UNIV000000000000008800                                                                                                                                                                                                                                                                                                                                                                                                                                                                                                                                                                                                                                                                                                                                                                                                                                                                                                                        
503202511061000001274612113FLUORIDE TREATMENT, VARNISH        FLUORURE, VERNIS                   00     003200003200000000002560     000000000000000000000000     000000000000000000000000            000320000064008000256012113        933339338401PREVENTIVE SERVICES                     PREVENTION                              31          UNIV000000000000003200                                                                                                                                                                                                                                                                                                                                                                                                                                                                                                                                                                                                                                                                                                                                                                                                                                                                                                                        
502202511061000001274511101POLISHING-15 MIN                   PROPHYLAXIE                        00     004400004400000000003520     000000000000000000000000     000000000000000000000000            000440000088008000352011101        933339338401PREVENTIVE SERVICES                     PREVENTION                              31          UNIV000000000000004400                                                                                                                                                                                                                                                                                                                                                                                                                                                                                                                                                                                                                                                                                                                                                                                                                                                                                                                        
6000006                                                                0001640000013120                                                                                                                                                                                                                                                                                                                                                                                                                                                                                                                                                                                                                                                                                                                                                                                                                                                                                                                                                                                                                                                                                                                                                                                                        
20801672016860MANG                          ALLISON                       ALLISON MANG                  450-2550 15TH AVE                                                                                                       REGINA                             SKCAN            S4P1A53063596661E                                                                                                                                                                                                                                                                                                                                                                                                                                                                                                                                                                                                                                                                                                                                                                                                                                                                                                                                                                                          
4610218008259792025110620251106E080167201MANG                          ALLISON                       6860SKGPNELSON                        BONNIE                        NELSON                        BONNIE                        19560802F49282368    282368   13447          1000VNCP         3                                                                                                                                                                                                                                                                                                                                                                                                                                                                                                00000000        2Y20261005YAPT 114 - 1621 DAKOTA DRIVE                                           REGINA                             SKCANADA         S4Z0A8   3                                                                                                                                                                                                                                                                                                                            
501202511061000001273227301CROWN, FULL, CAST METAL            COURONNE COMPLETE, METAL COULE     38     10270010270000000006675599111050000007085000000004605     000000000000000000000000W18         015270003842506507136027301        93333A046E03MAJOR                                   RESTAURATIONS MAJEURES                  31          UNIV027895000000102700                                                                                                                                                                                                                                                                                                                                                                                                                                                                                                                                                                                                                                                                                                                                                                                                                                                                                                                        
6000004                                                                0015270000071360                                                                                                                                                                                                                                                                                                                                                                                                                                                                                                                                                                                                                                                                                                                                                                                                                                                                                                                                                                                                                                                                                                                                                                                                        
20801717015791STEVENS                       JAY                           JAY STEVENS                   105 - 1526 8TH STREET E                                                                                                 SASKATOON                          SKCAN            S7H0T33063747272E                                                                                                                                                                                                                                                                                                                                                                                                                                                                                                                                                                                                                                                                                                                                                                                                                                                                                                                                                                                          
4610218008258072025110620251106E080171701STEVENS                       JAY                           5791SKGPBLEY                          LONNIE                        CLANCY                        PAUL                          19460329M49344262    344262   1375056        1011VNCP         3                                                                                                                                                                                                                                                                                                                                                                                                                                                                                                00000000        2Y20261105Y1612 VICTORIA AVE                                                     SASKATOON                          SKCANADA         S7H1Z5   3                                                                                                                                                                                                                                                                                                                            
501202511061000000000029301CROWN REMOVAL-15 MIN               COURONNE, ABLATION- 15 MIN         31     014700014700000000011760     000000000000000000000000     000000000000000000000000            001470000294008001176029301        933329329102BASIC                                   RESTAURATIONS DE BASE                   31          UNIV000000000000014700                                                                                                                                                                                                                                                                                                                                                                                                                                                                                                                                                                                                                                                                                                                                                                                                                                                                                                                        
504202511065000000000027201CROWN, PORCELAIN                   COURONNE, PORCELAINE               31     10270000000000000000000099111035000000000000000000000     000000000000000000000000169         0137700000000000000000             93332                                                                                       31          UNIV000000000000000000                                                                                                                                                                                                                                                                                                                                                                                                                                                                                                                                                                                                                                                                                                                                                                                                                                                                                                                        
503202511065000000000025731MAJOR RESTORATIVE, POST            PIVOTS PRE-FABRIQUES               31     025300000000000000000000     000000000000000000000000     000000000000000000000000169         0025300000000000000000             93332                                                                                       31          UNIV000000000000000000                                                                                                                                                                                                                                                                                                                                                                                                                                                                                                                                                                                                                                                                                                                                                                                                                                                                                                                        
502202511065000000000023602RESTORATION-BONDED                 RESTAURATION, LIE PAR MORDANCAGE   31     023400000000000000000000     000000000000000000000000     000000000000000000000000169         0023400000000000000000             93332                                                                                       31          UNIV000000000000000000                                                                                                                                                                                                                                                                                                                                                                                                                                                                                                                                                                                                                                                                                                                                                                                                                                                                                                                        
6000007                                                                0020110000011760                                                                                                                                                                                                                                                                                                                                                                                                                                                                                                                                                                                                                                                                                                                                                                                                                                                                                                                                                                                                                                                                                                                                                                                                        
20801759015937EBENAL                        GRANT A.                      GRANT A. EBENAL               PASQUA SOUTH ORAL HEALTH CLINIC         400-4002 PASQUA ST                                                              REGINA                             SKCAN            S4S6X23065842125E                                                                                                                                                                                                                                                                                                                                                                                                                                                                                                                                                                                                                                                                                                                                                                                                                                                                                                                                                                                          
4610218008259342025110620251106E080175901EBENAL                        GRANT A.                      5937SKGPLEBERSBACK                    BRIAN                         LEBERSBACK                    BRIAN                         19531212M49282368    282368   55321          1000CAPSS_CD     1                                                                                                                                                                                                                                                                                                                                                                                                                                                                                                00000000        1Y20261106Y3633 WEDGWOOD WAY                  WEDGWOOD WAY                       REGINA                             SKCANADA         S4V2M5   3                                                                                                                                                                                                                                                                                                                            
50220251106 000000000099111COMMERCIAL LABORATORY              PROCEDURES, LAB, COMMERCIAL        00     035000000000000000000000     000000000000000000000000     000000000000000000000000H10         0035000000000000000000                                                                                                         31          UNIV000000000000000000                                                                                                                                                                                                                                                                                                                                                                                                                                                                                                                                                                                                                                                                                                                                                                                                                                                                                                                        
50120251106 000000000014611PERIODONTAL APPLIANCE-UPPER        APPAREILS PARODONTAUX              00     045000000000000000000000     000000000000000000000000     000000000000000000000000B55         0045000000000000000000                                                                                                         31          UNIV000000000000000000                                                                                                                                                                                                                                                                                                                                                                                                                                                                                                                                                                                                                                                                                                                                                                                                                                                                                                                        
4610218008259762025110620251106E080175901EBENAL                        GRANT A.                      5937SKGPHARTWELL                      RANDI                         HARTWELL                      RANDI                         19520121F49344262    344262   144517         1000VNCP         3                                                                                                                                                                                                                                                                                                                                                                                                                                                                                                00000000        2Y20261105Y3135 HARDING STREET                                                   REGINA                             SKCANADA         S4V1Z1   3                                                                                                                                                                                                                                                                                                                            
502202511061000001273227211CROWN, PORCELAIN, METAL BASE       COURONNE, PORCELAINE, BASE METAL   24     10270010270000000005135099111045000045000000000022500     000000000000000000000000            014770007385005007385027211        933339338403MAJOR                                   RESTAURATIONS MAJEURES                  31          UNIV000000000000102700                                                                                                                                                                                                                                                                                                                                                                                                                                                                                                                                                                                                                                                                                                                                                                                                                                                                                                                        
501202511061000000000023602RESTORATION-BONDED                 RESTAURATION, LIE PAR MORDANCAGE   24     023400023400000000011700     000000000000000000000000     000000000000000000000000            002340001170005001170023602        933339338403MAJOR                                   RESTAURATIONS MAJEURES                  31          UNIV000000000000023400                                                                                                                                                                                                                                                                                                                                                                                                                                                                                                                                                                                                                                                                                                                                                                                                                                                                                                                        
6000008                                                                0025110000085550                                                                                                                                                                                                                                                                                                                                                                                                                                                                                                                                                                                                                                                                                                                                                                                                                                                                                                                                                                                                                                                                                                                                                                                                        
20801766011099HUBBARD                       ROBERT                        ROBERT HUBBARD                801 - 201 1ST AVE S.                                                                                                    SASKATOON                          SKCAN            S7K1J53066528575E                                                                                                                                                                                                                                                                                                                                                                                                                                                                                                                                                                                                                                                                                                                                                                                                                                                                                                                                                                                          
4610218008257422025110620251106E080176601HUBBARD                       ROBERT                        1099SKGPBRADLEY                       EARL                          BRADLEY                       EARL                          19570113M49344262    344262   957080         1000KIML         3                                                                                                                                                                                                                                                                                                                                                                                                                                                                                                00000000        2Y20261105Y150 CARLING PLACE                                                     SASKATOON                          SKCANADA         S7M4C2   3                                                                                                                                                                                                                                                                                                                            
501202511061000001273367201RETAINER, PORCELAIN                RETENTEUR, PORCELAINE              46     09130009130000000004565099111030000001580000000000790     000000000000000000000000W18         012130004644005004644067201        933339338403MAJOR                                   RESTAURATIONS MAJEURES                  31          UNIV014210000000091300                                                                                                                                                                                                                                                                                                                                                                                                                                                                                                                                                                                                                                                                                                                                                                                                                                                                                                                        
504202511065000000000029301CROWN REMOVAL-15 MIN               COURONNE, ABLATION- 15 MIN         00     014700000000000000000000     000000000000000000000000     000000000000000000000000158         0014700000000000000000                                                                                                         31          UNIV000000000000000000                                                                                                                                                                                                                                                                                                                                                                                                                                                                                                                                                                                                                                                                                                                                                                                                                                                                                                                        
503202511065000001273367201RETAINER, PORCELAIN                RETENTEUR, PORCELAINE              44     09130000000000000000000099111030000000000000000000000     000000000000000000000000E02         012130000000000000000067201        933339338403MAJOR                                   RESTAURATIONS MAJEURES                  31          UNIV000000000000091300                                                                                                                                                                                                                                                                                                                                                                                                                                                                                                                                                                                                                                                                                                                                                                                                                                                                                                                        
502202511065000001273462502PONTIC, PORCELAIN                  PONTIQUE, PORCELAINE               45     04620000000000000000000099111030000000000000000000000     000000000000000000000000E02         007620000000000000000062502        933339338403MAJOR                                   RESTAURATIONS MAJEURES                  31          UNIV000000000000046200                                                                                                                                                                                                                                                                                                                                                                                                                                                                                                                                                                                                                                                                                                                                                                                                                                                                                                                        
4610218008257442025110620251106E080176601HUBBARD                       ROBERT                        1099SKGPPASTL                         DENYSE                        PASTL                         RANDY                         19531212M49344262    344262   808024         1011KIML         3                                                                                                                                                                                                                                                                                                                                                                                                                                                                                                00000000        2Y20261105Y603 SHERRY WAY                                                        SASKATOON                          SKCANADA         S7M5S4   3                                                                                                                                                                                                                                                                                                                            
501202511061000001273227201CROWN, PORCELAIN                   COURONNE, PORCELAINE               25     10270010270000000005135099111034500034500000000017250     000000000000000000000000            013720006860005006860027201        933339338403MAJOR                                   RESTAURATIONS MAJEURES                  31          UNIV000000000000102700                                                                                                                                                                                                                                                                                                                                                                                                                                                                                                                                                                                                                                                                                                                                                                                                                                                                                                                        
4610218008257452025110620251106E080176601HUBBARD                       ROBERT                        1099SKGPPASTL                         DENYSE                        PASTL                         DENYSE                        19590120F49344262    344262   808024         1000KIML         3                                                                                                                                                                                                                                                                                                                                                                                                                                                                                                00000000        2Y20261105Y603 SHERRY WAY                                                        SASKATOON                          SKCANADA         S7M5S4   3                                                                                                                                                                                                                                                                                                                            
501202511061000001273227201CROWN, PORCELAIN                   COURONNE, PORCELAINE               44     10270010270000000005135099111034500034500000000017250     000000000000000000000000            013720006860005006860027201        933339338403MAJOR                                   RESTAURATIONS MAJEURES                  31          UNIV000000000000102700                                                                                                                                                                                                                                                                                                                                                                                                                                                                                                                                                                                                                                                                                                                                                                                                                                                                                                                        
4610218008257542025110620251106E080176601HUBBARD                       ROBERT                        1099SKGPPASTL                         DENYSE                        PASTL                         RANDY                         19531212M49344262    344262   808024         1011CAPSS_CD     1                                                                                                                                                                                                                                                                                                                                                                                                                                                                                                00000000        1Y20261106Y603 SHERRY WAY                                                        SASKATOON                          SKCANADA         S7M5S4   3                                                                                                                                                                                                                                                                                                                            
50120251106 000000000014612PERIODONTAL APPLIANCE-LOWER        APPAREILS PARODONTAUX              00     03410000000000000000000099111027500000000000000000000     000000000000000000000000B55         0061600000000000000000                                                                                                         31          UNIV000000000000000000                                                                                                                                                                                                                                                                                                                                                                                                                                                                                                                                                                                                                                                                                                                                                                                                                                                                                                                        
6000013                                                                0066950000183640                                                                                                                                                                                                                                                                                                                                                                                                                                                                                                                                                                                                                                                                                                                                                                                                                                                                                                                                                                                                                                                                                                                                                                                                        
2080176601384FHUBBARD                       ROBERT                        ROBERT HUBBARD                ACADIA DENTAL                           B7-3510 8TH ST E                                                                SASKATOON                          SKCAN            S7H0W63066642626E                                                                                                                                                                                                                                                                                                                                                                                                                                                                                                                                                                                                                                                                                                                                                                                                                                                                                                                                                                                          
4610218008253512025110620251106E080176601HUBBARD                       ROBERT                        384FSKGPARNESON                       BRIANNA                       ARNESON                       BRIANNA                       19501023F49344262    344262   682069         1000KIML         1                                                                                                                                                                                                                                                                                                                                                                                                                                                                                                00000000        2Y20261105YBOX 167                                                               FOAM LAKE                          SKCANADA         S0A1A0   3                                                                                                                                                                                                                                                                                                                            
501202511061000001268714612PERIODONTAL APPLIANCE-LOWER        APPAREILS PARODONTAUX              00     0341000341000000000272809911102630002630000000002104099555000000000000000000000000            006040001208008004832014612        933339338401PREVENTIVE SERVICES                     PREVENTION                              31          UNIV000000000000034100                                                                                                                                                                                                                                                                                                                                                                                                                                                                                                                                                                                                                                                                                                                                                                                                                                                                                                                        
6000004                                                                0006040000048320                                                                                                                                                                                                                                                                                                                                                                                                                                                                                                                                                                                                                                                                                                                                                                                                                                                                                                                                                                                                                                                                                                                                                                                                        
2080178601689FSEFERI                        JONIDA                        JONIDA SEFERI                 4-3602 TAYLOR ST E                                                                                                      SASKATOON                          SKCAN            S7H5H93069554131E                                                                                                                                                                                                                                                                                                                                                                                                                                                                                                                                                                                                                                                                                                                                                                                                                                                                                                                                                                                          
4610218008258192025110620251106E080178601SEFERI                        JONIDA                        689FSKGPCHELACK                       ROSANNE                       CHELACK                       BRIAN                         19570512M49344262    344262   267180         1011VNCP         3                                                                                                                                                                                                                                                                                                                                                                                                                                                                                                00000000        2Y20261105Y255 J J THIESSEN CRES                                                 SASKATOON                          SKCANADA         S7K5P1   3                                                                                                                                                                                                                                                                                                                            
501202511061000001273227201CROWN, PORCELAIN                   COURONNE, PORCELAINE               11     10270010270000000005135099111040000040000000000020000     000000000000000000000000            014270007135005007135027201        933339338403MAJOR                                   RESTAURATIONS MAJEURES                  31          UNIV000000000000102700                                                                                                                                                                                                                                                                                                                                                                                                                                                                                                                                                                                                                                                                                                                                                                                                                                                                                                                        
4610218008258242025110620251106E080178601SEFERI                        JONIDA                        689FSKGPSTRIEMER                      ROBIN                         STRIEMER                      WAYNE                         19511211M49344262    344262   737888         1011VNCP         3                                                                                                                                                                                                                                                                                                                                                                                                                                                                                                00000000        2Y20261105Y203 - 802 HERITAGE CRES.                                              SASKATOON                          SKCANADA         S7H5T3   3                                                                                                                                                                                                                                                                                                                            
501202511067000001273227201CROWN, PORCELAIN                   COURONNE, PORCELAINE               26     10270000000000000000000099111040000000000000000000000     000000000000000000000000125146      014270000000000000000027201        933339338403MAJOR                                   RESTAURATIONS MAJEURES                  31          UNIV000000000000102700                                                                                                                                                                                                                                                                                                                                                                                                                                                                                                                                                                                                                                                                                                                                                                                                                                                                                                                        
4610218008259582025110620251106E080178601SEFERI                        JONIDA                        689FSKGPGESY                          KATHLEEN                      GESY                          HOWARD                        19471228M49344262    344262   959034         1011CAPSS_CD     1                                                                                                                                                                                                                                                                                                                                                                                                                                                                                                00000000        1Y20261106Y339 SYLVIAN CRESCENT                                                  SASKATOON                          SKCANADA         S7H5E6   3                                                                                                                                                                                                                                                                                                                            
50120251106 000000000014611PERIODONTAL APPLIANCE-UPPER        APPAREILS PARODONTAUX              00     03410000000000000000000099111024000000000000000000000     000000000000000000000000B55         0058100000000000000000                                                                                                         31          UNIV000000000000000000                                                                                                                                                                                                                                                                                                                                                                                                                                                                                                                                                                                                                                                                                                                                                                                                                                                                                                                        
6000008                                                                0034350000071350                                                                                                                                                                                                                                                                                                                                                                                                                                                                                                                                                                                                                                                                                                                                                                                                                                                                                                                                                                                                                                                                                                                                                                                                        
20801809014389BULL                          EMILY                         EMILY BULL                    201 - 1414 8TH STREET EAST                                                                                              SASKATOON                          SKCAN            S7H0T13066652400E                                                                                                                                                                                                                                                                                                                                                                                                                                                                                                                                                                                                                                                                                                                                                                                                                                                                                                                                                                                          
4610218008259632025110620251106E080180901BULL                          EMILY                         4389SKGPCARLOS                        BARB                          CARLOS                        JOHN                          19660210M49282368    282368   1127132        1011VNCP         3                                                                                                                                                                                                                                                                                                                                                                                                                                                                                                00000000        2Y20261105YBOX 51                                                                ELSTOW                             SKCANADA         S0K1M0   3                                                                                                                                                                                                                                                                                                                            
501202511061000001273227201CROWN, PORCELAIN                   COURONNE, PORCELAINE               26     10270010270000000006675599111037500037500000000024375     000000000000000000000000            014020004907006509113027201        93333A046E03MAJOR                                   RESTAURATIONS MAJEURES                  31          UNIV000000000000102700                                                                                                                                                                                                                                                                                                                                                                                                                                                                                                                                                                                                                                                                                                                                                                                                                                                                                                                        
6000004                                                                0014020000091130                                                                                                                                                                                                                                                                                                                                                                                                                                                                                                                                                                                                                                                                                                                                                                                                                                                                                                                                                                                                                                                                                                                                                                                                        
20801814015543MEIER                         MICHAEL                       MICHAEL MEIER                 402-1 ST AVE N                                                                                                          SASKATOON                          SKCAN            S7K1X63066657676E                                                                                                                                                                                                                                                                                                                                                                                                                                                                                                                                                                                                                                                                                                                                                                                                                                                                                                                                                                                          
4610218008258972025110620251106E080181401MEIER                         MICHAEL                       5543SKGPZERFF                         TERRY LYNN                    ZERFF                         TERRY LYNN                    19600623F49282368    282368   317295         1000VNCP         3                                                                                                                                                                                                                                                                                                                                                                                                                                                                                                00000000        2Y20261105Y622 BAYFIELD COURT                                                    SASKATOON                          SKCANADA         S7V1E4   3                                                                                                                                                                                                                                                                                                                            
501202511061000001273367201RETAINER, PORCELAIN                RETENTEUR, PORCELAINE              17     09130009130000000005934599111065000042608000000027695     000000000000000000000000W18         015630004686806508704067201        93333A046E03MAJOR                                   RESTAURATIONS MAJEURES                  31          UNIV014555000000091300                                                                                                                                                                                                                                                                                                                                                                                                                                                                                                                                                                                                                                                                                                                                                                                                                                                                                                                        
504202511065000001273367201RETAINER, PORCELAIN                RETENTEUR, PORCELAINE              14     09130000000000000000000099111065000000000000000000000     000000000000000000000000E02         015630000000000000000067201        93333A046E03MAJOR                                   RESTAURATIONS MAJEURES                  31          UNIV000000000000091300                                                                                                                                                                                                                                                                                                                                                                                                                                                                                                                                                                                                                                                                                                                                                                                                                                                                                                                        
503202511065000001273462502PONTIC, PORCELAIN                  PONTIQUE, PORCELAINE               15     04620000000000000000000099111065000000000000000000000     000000000000000000000000E02         011120000000000000000062502        93333A046E03MAJOR                                   RESTAURATIONS MAJEURES                  31          UNIV000000000000046200                                                                                                                                                                                                                                                                                                                                                                                                                                                                                                                                                                                                                                                                                                                                                                                                                                                                                                                        
502202511065000001273462502PONTIC, PORCELAIN                  PONTIQUE, PORCELAINE               16     04620000000000000000000099111065000000000000000000000     000000000000000000000000E02         011120000000000000000062502        93333A046E03MAJOR                                   RESTAURATIONS MAJEURES                  31          UNIV000000000000046200                                                                                                                                                                                                                                                                                                                                                                                                                                                                                                                                                                                                                                                                                                                                                                                                                                                                                                                        
6000007                                                                0053500000087040                                                                                                                                                                                                                                                                                                                                                                                                                                                                                                                                                                                                                                                                                                                                                                                                                                                                                                                                                                                                                                                                                                                                                                                                        
20801849011556ABDULLA                       ADAM                          ADAM ABDULLA                  398 MCCARTHY BLVD N                                                                                                     REGINA                             SKCAN            S4R7M23069248409E                                                                                                                                                                                                                                                                                                                                                                                                                                                                                                                                                                                                                                                                                                                                                                                                                                                                                                                                                                                          
4610218008256772025110620251106E080184901ABDULLA                       ADAM                          1556SKGPWEST                          JANET                         WEST                          ROBERT                        19530520M49344262    344262   645095         1011CAPSS_CD     1                                                                                                                                                                                                                                                                                                                                                                                                                                                                                                00000000        2Y20261106Y2219 WALLACE STREET                                                   REGINA                             SKCANADA         S4N4A8   3                                                                                                                                                                                                                                                                                                                            
502202511061000000000072211EXTRACTION, IMPACTED TOOTH         ABLATION, DENT INCLUSE             18     042700042700000000034160     000000000000000000000000     000000000000000000000000            004270000854008003416072211        933339338402BASIC                                   RESTAURATIONS DE BASE                   31          UNIV000000000000042700                                                                                                                                                                                                                                                                                                                                                                                                                                                                                                                                                                                                                                                                                                                                                                                                                                                                                                                        
501202511061000000000066251FIXED BRIDGE-REPAIR-SECTIONING     REPARATIONS, SECTIONNEMENT         00     014200014200000000011360     000000000000000000000000     000000000000000000000000            001420000284008001136066251        933339338402BASIC                                   RESTAURATIONS DE BASE                   31          UNIV000000000000014700                                                                                                                                                                                                                                                                                                                                                                                                                                                                                                                                                                                                                                                                                                                                                                                                                                                                                                                        
6000005                                                                0005690000045520                                                                                                                                                                                                                                                                                                                                                                                                                                                                                                                                                                                                                                                                                                                                                                                                                                                                                                                                                                                                                                                                                                                                                                                                        
2080185301272ERIZVI                         ACIA                          ACIA RIZVI                    101-3725 PASQUA ST. S.                                                                                                  REGINA                             SKCAN            S4S6W83065252577E                                                                                                                                                                                                                                                                                                                                                                                                                                                                                                                                                                                                                                                                                                                                                                                                                                                                                                                                                                                          
4610218008254122025110620251106E080185301RIZVI                         ACIA                          272ESKGPMITCHELL                      MARY ANN                      MITCHELL                      MARY ANN                      19510803F49344262    344262   674278         1000KIML         1                                                                                                                                                                                                                                                                                                                                                                                                                                                                                                00000000        2Y20261105YBOX 25                                                                CRAVEN                             SKCANADA         S0G0W0   3                                                                                                                                                                                                                                                                                                                            
501202511061000000000023114RESTORATION, TOOTH COLOURED        RESTAURATION, MEME COULEUR DE DENT 11MIBL 0326000326000000000260809911100000000000000000000000099555000000000000000000000000            003260000652008002608023114        933339338402BASIC                                   RESTAURATIONS DE BASE                   31          UNIV000000000000032600                                                                                                                                                                                                                                                                                                                                                                                                                                                                                                                                                                                                                                                                                                                                                                                                                                                                                                                        
6000004                                                                0003260000026080                                                                                                                                                                                                                                                                                                                                                                                                                                                                                                                                                                                                                                                                                                                                                                                                                                                                                                                                                                                                                                                                                                                                                                                                        
20801864012621CHANDRAMOHAN                  MANASA                        MANASA CHANDRAMOHAN           2603 EAST STAR LITE ST                                                                                                  REGINA                             SKCAN            S4V3E13065222934E                                                                                                                                                                                                                                                                                                                                                                                                                                                                                                                                                                                                                                                                                                                                                                                                                                                                                                                                                                                          
4610218008253122025110620251106E080186401CHANDRAMOHAN                  MANASA                        2621SKGPPASS                          HOLLY                         PASS                          GEORGIA                       20050705F495963      5963     1021207        1032KIML         1                                                                                                                                                                                                                                                                                                                                                                                                                                                                                                00000000        2Y20261105YBOX 322                                                               BALGONIE                           SKCANADA         S0G0E0   3                                                                                                                                                                                                                                                                                                                            
501202511061000001320414611PERIODONTAL APPLIANCE-UPPER        APPAREILS PARODONTAUX              00     0344000341000000000272809911103100003100000000002480099555000000000000000000000000W12         006540001302008005208014611        964839359601PREVENTIVE SERVICES                     PREVENTION                              31          UNIV000000000000034100                                                                                                                                                                                                                                                                                                                                                                                                                                                                                                                                                                                                                                                                                                                                                                                                                                                                                                                        
6000004                                                                0006540000052080                                                                                                                                                                                                                                                                                                                                                                                                                                                                                                                                                                                                                                                                                                                                                                                                                                                                                                                                                                                                                                                                                                                                                                                                        
20801877016900POVEY                         NICOLE                        NICOLE POVEY                  UNIT E - 7 THATCHER DR E                                                                                                MOOSE JAW                          SKCAN            S6J1L83066930755E                                                                                                                                                                                                                                                                                                                                                                                                                                                                                                                                                                                                                                                                                                                                                                                                                                                                                                                                                                                          
