0610068ECLIPSE             GROUP MEDICAL SERV  200-300 HILLSDALE STREET      REGINA         SKS4S7J83063527638202511072025110623503                                                                                                                                                                                                                                                                                                                                                                                                                                                                                                                                                                                                                                           
20000041326CALGARY CO-OP PHARMACY #13    35 CROWFOOT WAY NW                                                    CALGARY                            ABT3G2L44032995350E1CALCOOP   Y                                                                                                                                                                                                                                                                                                                                                                                                                                                                                                                                                                                             
4S503659275707947202511062025110600E0000041326004227400422742025110602279983TARO-MUPIROCIN 2% OINT        TARO-MUPIROCIN 2% ONG.        000000000000045021OLSON          SHERRY      OLSON          SHERRY      19570219F49344262    344262   1031913        10003002565000180000000000000001215000000000000000000000000000000003960002745000000000000000000001215000000000000000000000000000238000950000000000000000000000000000000000000000000 E2D4D8ML    00000061000002745000-00180840404FF OI 1220000000000000                   Y202606014                       025829    000000          00              DA  0027727883  03  B45 004227429004227429N000450000450       KC         81E2                Y   0000008 G025829         81000000                            
60000030000095000000950                                                                                                                                                                                                                                                                                                                                                                                                                                                                                                                                                                                                                                                                                                                                                       
20000042154PHARMASAVE #405               BOX #579                           219 KAISER WILHELM AVE             LANGENBURG                         SKS0A2A03067432333E1NEIGHBOUR Y                                                                                                                                                                                                                                                                                                                                                                                                                                                                                                                                                                                             
4S503656245552593202511062025110600E0000042154001955100195512025110602443945JARDIANCE 25MG TAB            JARDIANCE 25MG CO.            040000000000030030SCHULTZ        DOUGLAS     SCHULTZ        DOUGLAS     19581115M495963      5963     59578          1000 008975000897000000000000001215000000000000000000000000000000011087009872000000000000000000001215000000000000000000000000001242004966000000000000000000000000000000000000000000 E2D4D8WH    00000329067009872000-00897682018FF TA 1220000000000000                   Y202511164                       127300    000004          04              DA  004879D5039 03  R60 001955113001955113R000300000300       KC         71E2                E   0000008  127300         71000000                            
4S503656250552594202511062025110600E0000042154001955100195512025110602354616TEVA-ROSUVASTATIN 10MG TAB    TEVA-ROSUVASTATIN 10MG CO.    040000000000030030SCHULTZ        DOUGLAS     SCHULTZ        DOUGLAS     19581115M495963      5963     59578          1000 000433000130000000000000001215000000000000000000000000000000001778000562000000000000000000001215000000000000000000000000000199000796000000000000000000000000000000000000000000 E2DGD4D8WH  00000018733000562000-00129240608FF TA 1220000000000000                   Y202511164                       127300    000004          04              DA  000782D5039 03  R40 001955114001955114R000300000300       KC         71E2DJ              Y   0000008 G127300         71000000                            
4S503656253552595202511062025110600E0000042154001955100195512025110602438658MYLAN-GLICLAZIDE MR 30MG TAB  MYLAN-GLICLAZIDE MR 30MG CO.  050000000000090030SCHULTZ        DOUGLAS     SCHULTZ        DOUGLAS     19581115M495963      5963     59578          1000 000893000134000000000000001215000000000000000000000000000000002242001026000000000000000000001215000000000000000000000000000251001004000000000000000000000000000000000000000000 E2DGD4D8WH  00000011400001026000-00133682020FF TA 1220000000000000                   Y202511164                       127300    000005          05              DA  000986D5039 03  R60 001955115001955115R000900000900       KC         71E2DJ              Y   0000008 G127300         71000000                            
4S503656259552596202511062025110600E0000042154001955100195512025110602420740SANDOZ-CANDESAR PLUS 32/25MG  SANDOZ CANDESAR PLUS 32/25MG  040000000000030030SCHULTZ        DOUGLAS     SCHULTZ        DOUGLAS     19581115M495963      5963     59578          1000 000961000144000000000000001215000000000000000000000000000000002320001105000000000000000000001215000000000000000000000000000260001039000000000000000000000000000000000000000000 E2D4D8WH    00000036833001105000-00144243208FF TA 1220000000000000                   Y202511164                       127300    000004          04              DA  001021D5039 03  R44 001955116001955116R000300000300       KC         71E2                Y   0000008 G127300         71000000                            
4S503656263552597202511062025110600E0000042154001955100195512025110602284391SANDOZ-AMLODIPINE 10MG TAB    SANDOZ-AMLODIPINE 10MG CO.    040000000000030030SCHULTZ        DOUGLAS     SCHULTZ        DOUGLAS     19581115M495963      5963     59578          1000 000637000096000000000000001215000000000000000000000000000000001948000732000000000000000000001215000000000000000000000000000218000872000000000000000000000000000000000000000000 E2DGD4D8WH  00000024400000732000-00095242808FF TA 1220000000000000                   Y202511164                       127300    000004          04              DA  000857D5039 03  R44 001955117001955117R000300000300       KC         71E2DJ              Y   0000008 G127300         71000000                            
4S503656268552598202511062025110600E0000042154001955100195512025110602380196JAMP-METFORMIN 500MG TAB      JAMP-METFORMIN 500MG CO.      040000000000120030SCHULTZ        DOUGLAS     SCHULTZ        DOUGLAS     19581115M495963      5963     59578          1000 000316000095000000000000001215000000000000000000000000000000001626000410000000000000000000001215000000000000000000000000000182000728000000000000000000000000000000000000000000 E2DGD4D8WH  00000003417000410000-00094682004FF TA 1220000000000000                   Y202511164S503656397552599       127300    000004          04              DA  000715D5039 03  R60 001955118001955118R001200001200       KC         71E2DJ              Y   0000008 G127300         71000000                            
5S503656397552599202511062025110600E0000042154001955100195512025110602380196JAMP-METFORMIN 500MG TAB      JAMP-METFORMIN 500MG CO.      040000000000120030SCHULTZ        DOUGLAS     SCHULTZ        DOUGLAS     19581115M495963      5963     59578          1000 000316000095000000000000001215000000000000000000000000000000001626000410000000000000000000001215000000000000000000000000000182000728000000000000000000000000000000000000000000               000003118000410000-00094682004FF TA 1220000000000000                   Y202511164S503656268552598       127300    000004          04              DA  000715D5039 03  R60 001955118001955118R001200001200       KC         71                  Y   000000  G127300         71000000                            
4S503656406552600202511062025110600E0000042154001955100195512025110602246820SANDOZ-METFORMIN FC 500MG TAB SANDOZ-METFORMIN FC 500MG CO. 040000000000120030SCHULTZ        DOUGLAS     SCHULTZ        DOUGLAS     19581115M495963      5963     59578          1000 000316000095000000000000001215000000000000000000000000000000001626000410000000000000000000001215000000000000000000000000000182000728000000000000000000000000000000000000000000 E2DGD4D8WH  00000003417000410000-00094682004FF TA 1220000000000000                   Y202511164                       127300    000004          04              DA  000715D5039 03  R60 001955119001955119R001200001200       KC         71E2DJ              Y   0000008 G127300         71000000                            
4S503657348552627202511062025110600E0000042154001955100195512025110602280191TEVA-BETAHISTINE 16MG TAB     TEVA-BETAHISTINE 16MG CO.     000000000000028014SCHERLOSKI     MARY-ANN    SCHERLOSKI     MARY-ANN    19610908F495963      5963     213943         10002000348000104000000000000001215000000000000000000000000000000001667000452000000000000000000001215000000000000000000000000000027000106000000000000000000000000000000000000000000 E2D4D8WH    00000016143000452000-00104920000FF TA 1220000000000000                   Y202603314                       100097    000000          00              DA  001534D5039 03  R99 001955147001955147R000280000280       KC         77E2                Y   0000008 G100097         77000000                            
4S503657352552628202511062025110600E0000042154001955100195512025110602246010APO-METOPROLOL 25MG TAB       APO-METOPROLOL 25MG CO.       030000000000090090SCHERLOSKI     MARY-ANN    SCHERLOSKI     MARY-ANN    19610908F495963      5963     213943         1000 000616000185000000000000001215000000000000000000000000000000002016000801000000000000000000001215000000000000000000000000000032000129000000000000000000000000000000000000000000 E2D4D8WH    00000008900000801000-00185242000FF TA 1220000000000000                   Y202603314                       100097    000003          03              DA  001855D5039 03  R46 001955148001955148N000900000900       KC         77E2                Y   0000008 G100097         77000000                            
4S503657416552631202511062025110600E0000042154001955100195512025110602248010PMS-CITALOPRAM 20MG TAB       PMS-CITALOPRAM 20MG CO.       000000000000051034SCHERLOSKI     MARY-ANN    SCHERLOSKI     MARY-ANN    19610908F495963      5963     213943         1000 000724000109000000000000001215000000000000000000000000000000002048000832000000000000000000001215000000000000000000000000000033000130000000000000000000000000000000000000000000 E2DGD4D8WH  00000016314000832000-00108281604FF TA 1220000000000000                   Y202603314                       D5039     000000          00              DA  001884D5039 03  R84 001955152001955152N000510000510       KC         76E2DJ              Y   0000008 GD5039          76000000                            
60000130000977000011226                                                                                                                                                                                                                                                                                                                                                                                                                                                                                                                                                                                                                                                                                                                                                       
20000042248DAVIS REXALL DRUGS LTD        110-1ST AVENUE WEST                P.O. BOX 1923                      NIPAWIN                            SKS0E1E03068623141E1NEIGHBOUR Y                                                                                                                                                                                                                                                                                                                                                                                                                                                                                                                                                                                             
4S503656634630696202511062025110600E0000042248005306600530662025110602289288APO-PERINDOPRIL 4MG TAB       APO-PERINDOPRIL 4MG CO.       000000000000075030SMITH          JEFFERY     SMITH          JEFFERY     19590424M49310138    310138   481946         10003001631000163000000000000001215000000000000000000000000000000003009001794000000000000000000001215000000000000000000000600000000002409000000000000000000000000000000000000000000 E2D4D8WH    00000023920001794000-00163243204FF TA 1220000000000000                   Y202604014                       0038717   000000          00              DA  000000D2736 03  R44 005306668005306668N000750000750       KC         77E2                Y   0000008 G0038717        77000000                            
4S503656795630711202511062025110600E0000042248005306600530662025110602237224OXEZE TURBUHALER 12MCG INH    OXEZE TURBUHALER 12MCG INH    020000000000060030MYSLICKI       ROSELIE     MYSLICKI       ROSELIE     19420105F49344262    344262   351798         10003005536000554000000000000001215000000000000000000000000000000007305006090000000000000000000001215000000000000000000000000001461005844000000000000000000000000000000000000000000 E2D4D8WH    00000101500006090000-00554121208FF IN 1220000000000000                   Y202606014                       0036806   000002          02              DADW000000D2736 0369R32 005306678005306678R000600000600       KC         77E2                E   0000008  0036806        77000000                            
4S503656802630712202511062025110600E0000042248005306600530662025110602407477MYLAN-NITRO 0.8MG PATCH       MYLAN-NITRO 0.8MG TIMB.       030000000000030030MYSLICKI       ROSELIE     MYSLICKI       ROSELIE     19420105F49344262    344262   351798         10003002932000293000000000000001215000000000000000000000000000000004440003225000000000000000000001215000000000000000000000000000426001705000000000000000000000000000000000000000000 E2D4D8WH    00000107500003225000-00293240808FF PA 1220000000000000                   Y202606014                       0036806   000003          03              DA  002309D2736 0335R42 005306679005306679R000300000300       KC         77E2                Y   0000008 G0036806        77000000                            
4S503656816630713202511062025110600E0000042248005306600530662025110602510987APO-FLUTICASONE HFA 250MCG INHAPO-FLUTICASONE HFA 250MCG INH020000000000120060MYSLICKI       ROSELIE     MYSLICKI       ROSELIE     19420105F49344262    344262   351798         10003004795000479000000000000001215000000000000000000000000000000006489005274000000000000000000001215000000000000000000000000000500001999000000000000000000000000000000000000000000 E2D4D8WH    00000043950005274000-00479680400FF IN 1220000000000000                   Y202606014                       0036806   000002          02              DA  003990D2736 0369R32 005306680005306680R001200001200       KC         77E2                Y   0000008 G0036806        77000000                            
4S503656857630716202511062025110600E0000042248005306600530662025110602489228SANDOZ APIXABAN SDZ 2.5MG TAB SANDOZ APIXABAN SDZ 2.5MG CO. 020000000000060030MYSLICKI       ROSELIE     MYSLICKI       ROSELIE     19420105F49344262    344262   351798         10003002610000261000000000000001215000000000000000000000000000000004086002871000000000000000000001215000000000000000000000000000392001569000000000000000000000000000000000000000000 E2D4D8WH    00000047850002871000-00261201204FF TA 1220000000000000                   Y202606014                       0036806   000002          02              DA  002125D2736 03  R48 005306682005306682R000600000600       KC         77E2                Y   0000008 G0036806        77000000                            
4S503656867630719202511062025110600E0000042248005306600530662025110602396327MAR-ALLOPURINOL 100MG TAB     MAR-ALLOPURINOL 100MG CO.     020000000000030030MYSLICKI       ROSELIE     MYSLICKI       ROSELIE     19420105F49344262    344262   351798         10003000249000075000000000000001215000000000000000000000000000000001539000324000000000000000000001215000000000000000000000000000148000591000000000000000000000000000000000000000000 E2D4D8WH    00000010800000324000-00075921600FF TA 1220000000000000                   Y202606014                       0036806   000002          02              DA  000800D2736 03  R78 005306686005306686R000300000300       KC         77E2                Y   0000008 G0036806        77000000                            
4S503656871630721202511062025110600E0000042248005306600530662025110602378523PMS-ROSUVASTATIN 5MG TAB      PMS-ROSUVASTATIN 5MG CO.      020000000000030030MYSLICKI       ROSELIE     MYSLICKI       ROSELIE     19420105F49344262    344262   351798         10003000410000123000000000000001215000000000000000000000000000000001748000533000000000000000000001215000000000000000000000000000168000671000000000000000000000000000000000000000000 E2D4D8WH    00000017767000533000-00123240608FF TA 1220000000000000                   Y202606014                       0036806   000002          02              DA  000909D2736 03  R40 005306688005306688R000300000300       KC         77E2                Y   0000008 G0036806        77000000                            
4S503656874630722202511062025110600E0000042248005306600530662025110602230803PMS-METOPROLOL-L 50MG TAB     PMS-METOPROLOL-L 50MG CO.     020000000000060030MYSLICKI       ROSELIE     MYSLICKI       ROSELIE     19420105F49344262    344262   351798         10003000399000120000000000000001215000000000000000000000000000000001734000518000000000000000000001215000000000000000000000000000166000665000000000000000000000000000000000000000000 E2DGD4D8WH  00000008633000518000-00119242000FF TA 1220000000000000                   Y202606014                       0036806   000002          02              DA  000902D2736 03  R46 005306690005306690R000600000600       KC         77E2DJ              Y   0000008 G0036806        77000000                            
4S503656879630723202511062025110600E0000042248005306600530662025110602284391SANDOZ-AMLODIPINE 10MG TAB    SANDOZ-AMLODIPINE 10MG CO.    020000000000030030MYSLICKI       ROSELIE     MYSLICKI       ROSELIE     19420105F49344262    344262   351798         10003000637000096000000000000001215000000000000000000000000000000001948000732000000000000000000001215000000000000000000000000000140000561000000000000000000000000000000000000000000 E2DGD4D8WH  00000024400000732000-00095242808FF TA 1220000000000000                   Y202606014                       0036806   000002          02              DA  001246D2736 03  R44 005306691005306691R000300000300       KC         77E2DJ              Y   0000008 G0036806        77000000                            
4S503656898630725202511062025110600E0000042248005306600530662025110602301083SANDOZ-PANTOPRAZOLE 40MG TAB  SANDOZ-PANTOPRAZOLE 40MG CO.  000000000000030030MYSLICKI       ROSELIE     MYSLICKI       ROSELIE     19420105F49344262    344262   351798         10003000644000097000000000000001215000000000000000000000000000000001956000741000000000000000000001215000000000000000000000000000132000527000000000000000000000000000000000000000000 E2D4D8WH    00000024700000741000-00097562836FF TA 1220000000000000                   Y202606014                       1002      000000          00              DA  001297D2736 03  R74 005306693005306693R000300000300       KC         71E2                Y   0000008 G1002           71000000                            
4S503656903630726202511062025110600E0000042248005306600530662025110602466767MINT-FUROSEMIDE 40MG TAB      MINT-FUROSEMIDE 40MG CO.      100000000000090030MYSLICKI       ROSELIE     MYSLICKI       ROSELIE     19420105F49344262    344262   351798         10003000313000094000000000000001215000000000000000000000000000000001622000407000000000000000000001215000000000000000000000000000114000454000000000000000000000000000000000000000000 E2D4D8WH    00000004522000407000-00094402808FF TA 1220000000000000                   Y202606014                       1002      000010          10              DA  001054D2736 03  R70 005306694005306694R000900000900       KC         71E2                Y   0000008 G1002           71000000                            
4S503657569630752202511062025110600E0000042248005306700530672025110600878928NORVASC 5MG TAB               NORVASC 5MG CO.               000000000000045030SMITH          JEFFERY     SMITH          JEFFERY     19590424M49310138    310138   481946         10003008022000802000000000000001215000000000000000000000000000000010039000740000000000000000000001215000000000000000000000600000000001355000000000000000000000000000000000000000000 DFE2D4D8WH  00000016444000740000007282242808FF TA 1220000000000000                   Y202604014S503657572630753       0038717   000000          00              DA  000000D2736 03  R44 005306758005306758N000450000450       KC         77D8E2              Y   0000008 B0038717        77000000                            
5S503657572630753202511062025110600E0000042248005306700530672025110600878928NORVASC 5MG TAB               NORVASC 5MG CO.               000000000000045030SMITH          JEFFERY     SMITH          JEFFERY     19590424M49310138    310138   481946         10003008022000802000000000000001215000000000000000000000000000000010039000740000000000000000000001215000000000000000000000600000000001355000000000000000000000000000000000000000000               000016444000740000007282242808FF TA 1220000000000000                   Y202604014S503657569630752       0038717   000000          00              DA  000000D2736 03  R44 005306758005306758N000450000450       KC         77                  Y   000000  B0038717        77000000                            
4S503657599630757202511062025110600E0000042248005306700530672025110602284383SANDOZ-AMLODIPINE 5MG TAB     SANDOZ-AMLODIPINE 5MG CO.     000000000000045030SMITH          JEFFERY     SMITH          JEFFERY     19590424M49310138    310138   481946         10003000644000097000000000000001215000000000000000000000000000000001956000740000000000000000000001215000000000000000000000600000000001355000000000000000000000000000000000000000000 E2DGD4D8WH  00000016444000740000-00096242808FF TA 1220000000000000                   Y202604014                       0038717   000000          00              DA  000000D2736 03  R44 005306762005306762N000450000450       KC         77E2DJ              Y   0000008 G0038717        77000000                            
4S503657624630761202511062025110600E0000042248005306700530672025110600312770APO-PREDNISONE 5MG TAB        APO-PREDNISONE 5MG CO.        030000000000030030GRASSING       JACK        GRASSING       JACK        19591231M49282368    282368   1333006        10003000128000038000000000000001215000000000000000000000000000000001381000166000000000000000000001215000000000000000000000000000608000000000000000000000000000000000000000000000000 E2D4D8WHLK  00000005533000166000-00038680400FF TA 1220000000000000                   Y202607014                       0038717   000003          03              DA  000773D4861 03  R52 005306765005306765R000300000300       KC         77E2LK              Y   0000008 G0038717        77000000                            
4S503657626630762202511062025110600E0000042248005306700530672025110602466198TEVA-FEBUXOSTAT 80MG TAB      TEVA-FEBUXOSTAT 80MG CO.      030000000000030030GRASSING       JACK        GRASSING       JACK        19591231M49282368    282368   1333006        10003001270000191000000000000001215000000000000000000000000000000002676001461000000000000000000001215000000000000000000000000001215001461000000000000000000000000000000000000000000 E2D4D8WH    00000048700001461000-00191921600FF TA 1220000000000000                   Y202607014                       0038717   000003          03              DA  000000D4861 03  R78 005306766005306766R000300000300       KC         77E2                E   0000008 G0038717        77000000                            
4S503657629630763202511062025110600E0000042248005306700530672025110602251531APO-RAMIPRIL 2.5MG CAP        APO-RAMIPRIL 2.5MG CAP.       030000000000030030GRASSING       JACK        GRASSING       JACK        19591231M49282368    282368   1333006        10003000261000078000000000000001215000000000000000000000000000000001554000339000000000000000000001215000000000000000000000000000684000000000000000000000000000000000000000000000000 E2D4D8WHLK  00000011300000339000-00078243204FF CA 1220000000000000                   Y202607014                       0038717   000003          03              DA  000870D4861 03  R44 005306767005306767R000300000300       KC         77E2LK              Y   0000008 G0038717        77000000                            
4S503657636630764202511062025110600E0000042248005306700530672025110602313715TARO-ATORVASTATIN 20MG TAB    TARO-ATORVASTATIN 20MG CO.    030000000000090030GRASSING       JACK        GRASSING       JACK        19591231M49282368    282368   1333006        10003002089000209000000000000001215000000000000000000000000000000003513002297000000000000000000001215000000000000000000000000001215000330000000000000000000000000000000000000000000 E2DGD4D8WH  00000025522002297000-00208240608FF TA 1220000000000000                   Y202607014                       0038717   000003          03              DA  001967D4861 03  R40 005306768005306768R000900000900       KC         77E2DJ              Y   0000008 G0038717        77000000                            
4S503657711630766202511062025110600E0000042248005306700530672025110602172127SYNTHROID 150MCG TAB          SYNTHROID 150MCG CO.          030000000000030030GRASSING       JACK        GRASSING       JACK        19591231M49282368    282368   1333006        10003000318000095000000000000001215000000000000000000000000000000001628000206000000000000000000001215000000000000000000000000000626000000000000000000000000000000000000000000000000 DFE2D4D8WHLK00000006867000206000000112683604FF TA 1220000000000000                   Y202607014                       0038717   000003          03              DA  000795D4861 03  R02 005306776005306776R000300000300       KC         77D8E2LK            Y   0000008 B0038717        77000000                            
4S503657721630768202511062025110600E0000042248005306700530672025110602373823JAMP-COLCHICINE 0.6MG TAB     JAMP-COLCHICINE 0.6MG CO.     030000000000060030GRASSING       JACK        GRASSING       JACK        19591231M49282368    282368   1333006        10003001639000164000000000000001215000000000000000000000000000000003018001803000000000000000000001215000000000000000000000000001215000113000000000000000000000000000000000000000000 E2D4D8WH    00000030050001803000-00164921600FF TA 1220000000000000                   Y202607014                       0038717   000003          03              DA  001690D4861 0318R78 005306779005306779R000600000600       KC         77E2                Y   0000008 G0038717        77000000                            
4S503657729630770202511062025110600E0000042248005306700530672025110602443708MAR-RANITIDINE 150MG TAB      MAR-RANITIDINE 150MG CO.      030000000000060030GRASSING       JACK        GRASSING       JACK        19591231M49282368    282368   1333006        10003000765000115000000000000001215000000000000000000000000000000002095000880000000000000000000001215000000000000000000000000000922000000000000000000000000000000000000000000000000 E2D4D8WHLK  00000014667000880000-00115562812FF TA 1220000000000000                   Y202607014                       0038717   000003          03              DA  001173D4861 03  R74 005306781005306781R000600000600       KC         77E2LK              Y   0000008 G0038717        77000000                            
4S503657738630771202511062025110600E0000042248005306700530672025110602248010PMS-CITALOPRAM 20MG TAB       PMS-CITALOPRAM 20MG CO.       030000000000015030GRASSING       JACK        GRASSING       JACK        19591231M49282368    282368   1333006        10003000213000064000000000000001215000000000000000000000000000000001492000277000000000000000000001215000000000000000000000000000656000000000000000000000000000000000000000000000000 E2D4D8WHLK  00000018467000277000-00064281604FF TA 1220000000000000                   Y202607014                       0038717   000003          03              DA  000836D4861 03  R84 005306782005306782R000150000150       KC         77E2LK              Y   0000008 G0038717        77000000                            
4S503657750630773202511062025110600E0000042248005306700530672025110602248855PMS-METOPROLOL-L 25MG TAB     PMS-METOPROLOL-L 25MG CO.     030000000000030030GRASSING       JACK        GRASSING       JACK        19591231M49282368    282368   1333006        10003000205000062000000000000001215000000000000000000000000000000001482000267000000000000000000001215000000000000000000000000000652000000000000000000000000000000000000000000000000 E2D4D8WHLK  00000008900000267000-00062242000FF TA 1220000000000000                   Y202607014                       0038717   000003          03              DA  000830D4861 03  R46 005306784005306784R000300000300       KC         77E2LK              Y   0000008 G0038717        77000000                            
4S503657759630774202511062025110600E0000042248009097400909742025110602336790APO-TRAMADOL/ACET 37.5MG/325MGAPO-TRAMADOL/ACET 37.5MG/325MG030000000000120030GRASSING       JACK        GRASSING       JACK        19591231M49282368    282368   1333006        10003008006000801000000000000001215000000000000000000000000000000010022008807000000000000000000001215000000000000000000000000001215008807000000000000000000000000000000000000000000 E2D4D8WH    00000073392008807000-00801280808NN TA 1220000000000000                   Y202607014                       0038717   000003          03              DA  000000D4861 03  R08 009097415009097415R001200001200       KC         77E2                N   0000008 G0038717        77000000                            
4S503657801630778202511062025110610E0000042248005306700530672025110602458543PMS-ZOPICLONE 3.75MG TAB      PMS-ZOPICLONE 3.75MG CO.      030000000000060030SMITH          JEFFERY     SMITH          JEFFERY     19590424M49310138    310138   481946         10003001498000225000000000000001215000000000000000000000000000000002938000000000000000000000000000000000000000000000000000000000000000000000000000000000000000000000000000000000000 E2CO        00000000000000000000000000282492FF TA 1220000000000000                   N000000004                       0038717   000003          03              DA  000000D2736 03  R88 005306793005306793N000600000000       KC         77E2D1              N   000000  G0038717        77000000                            
4S503657829630780202511062025110610E0000042248005306700530672025110602458543PMS-ZOPICLONE 3.75MG TAB      PMS-ZOPICLONE 3.75MG CO.      030000000000060030SMITH          JEFFERY     SMITH          JEFFERY     19590424M49310138    310138   481946         10003001498000225000000000000001215000000000000000000000000000000002938000000000000000000000000000000000000000000000000000000000000000000000000000000000000000000000000000000000000 E2CO        00000000000000000000000000282492FF TA 1220000000000000                   N000000004                       0038717   000003          03              DA  000000D2736 03  R88 005306797005306797N000600000000       KC         77E2D1              N   000000  G0038717        77000000                            
4S503657880630784202511062025110600E0000042248005306800530682025110602240550PMS-OXYBUTYNIN 5MG TAB        PMS-OXYBUTYNIN 5MG CO.        000000000000030030SMITH          JEFFERY     SMITH          JEFFERY     19590424M49310138    310138   481946         10003000315000095000000000000001215000000000000000000000000000000001625000410000000000000000000001215000000000000000000000600000000001025000000000000000000000000000000000000000000 E2D4D8WH    00000013667000410000-00095861204FF TA 1220000000000000                   Y202604014                       0038717   000000          00              DA  000000D2736 03  R76 005306805005306805N000300000300       KC         77E2                Y   0000008 G0038717        77000000                            
4S503658615630834202511062025110610E0000042248005306800530682025110602229977APO-ACETAMINOPHEN 500MG CAPL  APO-ACETAMINOPHENE 500MG CAPL.000000000000056007GEREIN         DONNA       GEREIN         DONNA       19560427F49344262    344262   1139877        10003000229000069000000000000000500000000000000000000000000000000000798000000000000000000000000000000000000000000000000000000000000000000000000000000000000000000000000000000000000 E2CO        00000000000000000000000000280892UDRCA 1220000000000000                   N000000004                       12061     000000          00              DA  000000D2736 03  B10 005306890005306890N000560000000       KC         71E2D1              N   000000  G12061          71000000                            
4S503658645630838202511062025110610E0000042248005306800530682025110600506052APO-IBUPROFEN 400MG TAB       APO-IBUPROFEN 400MG CO.       000000000000021007GEREIN         DONNA       GEREIN         DONNA       19560427F49344262    344262   1139877        10003000095000028000000000000001215000000000000000000000000000000001338000000000000000000000000000000000000000000000000000000000000000000000000000000000000000000000000000000000000 E2CO        00000000000000000000000000280804UDRTA 1220000000000000                   N000000004                       12061     000000          00              DA  001165D2736 03  B09 005306897005306897N000210000000       KC         71E2D1              N   000000  G12061          71000000                            
60000310003008600032796                                                                                                                                                                                                                                                                                                                                                                                                                                                                                                                                                                                                                                                                                                                                                       
20000042260PHARMASAVE #430               518 MAIN STREET                    BOX 27                             BROADVIEW                          SKS0G0K03066962274E1NEIGHBOUR Y                                                                                                                                                                                                                                                                                                                                                                                                                                                                                                                                                                                             
4S503656308879149202511062025110600E0000042260003504300350432025110602356716SANDOZ-VALSARTA-HCTZ 160/25MG SANDOZ-VALSARTA-HCTZ 160/25MG 030000000000030030GALBRAITH      BEVERLEY    GALBRAITH      H ARNOLD    19420530M49344262    344262   347875         10113000715000107000000000000001215000000000000000000000000000000002037000822000000000000000000001215000000000000000000000000000040000160000000000000000000000000000000000000000000 E2D4D8WH    00000027400000822000-00107243208FF TA 1220000000000000                   Y202606014                       129461    000003          03              DA  001837D5036 03  R44 003504328003504328R000300000300       KC         71E2                Y   0000008 G129461         71000000                            
4S503656309879150202511062025110600E0000042260003504300350432025110602354616TEVA-ROSUVASTATIN 10MG TAB    TEVA-ROSUVASTATIN 10MG CO.    030000000000030030GALBRAITH      BEVERLEY    GALBRAITH      H ARNOLD    19420530M49344262    344262   347875         10113000433000130000000000000001215000000000000000000000000000000001778000562000000000000000000001215000000000000000000000000000040000159000000000000000000000000000000000000000000 E2DGD4D8WH  00000018733000562000-00129240608FF TA 1220000000000000                   Y202606014                       129461    000003          03              DA  001578D5036 03  R40 003504329003504329R000300000300       KC         71E2DJ              Y   0000008 G129461         71000000                            
4S503656310879151202511062025110600E0000042260003504300350432025110602396327MAR-ALLOPURINOL 100MG TAB     MAR-ALLOPURINOL 100MG CO.     030000000000030030GALBRAITH      BEVERLEY    GALBRAITH      H ARNOLD    19420530M49344262    344262   347875         10113000249000075000000000000001215000000000000000000000000000000001539000324000000000000000000001215000000000000000000000000000040000160000000000000000000000000000000000000000000 E2D4D8WH    00000010800000324000-00075921600FF TA 1220000000000000                   Y202606014                       129461    000003          03              DA  001339D5036 03  R78 003504330003504330R000300000300       KC         71E2                Y   0000008 G129461         71000000                            
4S503656312879152202511062025110600E0000042260003504300350432025110602340208SANDOZ TAMSULOSIN 0.4MG CR TABSANDOZ-TAMSULOSIN CR 0.4MG CO.030000000000030030GALBRAITH      BEVERLEY    GALBRAITH      H ARNOLD    19420530M49344262    344262   347875         10113000479000144000000000000001215000000000000000000000000000000001838000623000000000000000000001215000000000000000000000000000040000160000000000000000000000000000000000000000000 E2D4D8WH    00000020767000623000-00144121604FF TA 1220000000000000                   Y202606014                       129461    000003          03              DA  001638D5036 03  R76 003504331003504331R000300000300       KC         71E2                Y   0000008 G129461         71000000                            
4S503656313879153202511062025110600E0000042260003504300350432025110602469308AURO-DUTASTERIDE 0.5MG CAP    AURO-DUTASTERIDE 0.5MG CAP.   030000000000030030GALBRAITH      BEVERLEY    GALBRAITH      H ARNOLD    19420530M49344262    344262   347875         10113000820000123000000000000001215000000000000000000000000000000002158000942000000000000000000001215000000000000000000000000000040000159000000000000000000000000000000000000000000 E2DGD4D8WH  00000031400000942000-00122920800FF CA 1220000000000000                   Y202606014                       129461    000003          03              DA  001958D5036 03  R76 003504333003504333R000300000300       KC         71E2DJ              Y   0000008 G129461         71000000                            
4S503656315879154202511062025110600E0000042260003504300350432025110602349167MYLAN-NIFEDIPINE ER 30MG TAB  MYLAN-NIFEDIPINE ER 30MG CO.  030000000000030030GALBRAITH      BEVERLEY    GALBRAITH      H ARNOLD    19420530M49344262    344262   347875         10113001972000197000000000000001215000000000000000000000000000000003384002169000000000000000000001215000000000000000000000000000040000160000000000000000000000000000000000000000000 E2D4D8WH    00000072300002169000-00197242808FF TA 1220000000000000                   Y202606014                       129461    000003          03              DA  003184D5036 0361R46 003504334003504334R000300000300       KC         71E2                Y   0000008 G129461         71000000                            
4S503656328879155202511062025110600E0000042260003504300350432025110602423987TARO-ESOMEPRAZOLE 40MG TAB    TARO-ESOMEPRAZOLE 40MG CO.    030000000000030030GALBRAITH      BEVERLEY    GALBRAITH      H ARNOLD    19420530M49344262    344262   347875         10113001757000176000000000000001215000000000000000000000000000000003148001933000000000000000000001215000000000000000000000000000630002518000000000000000000000000000000000000000000 E2QOD4D8WH  00000064433001933000-00176562836FF CA 1220000000000000                   Y202606014S503656787879181       129461    000003          03              DA  000000D5036 03  R74 003504332003504332R000300000300       KC         71E2QO              E   0000008 G129461         71000000                            
5S503656787879181202511062025110600E0000042260003504300350432025110602423987TARO-ESOMEPRAZOLE 40MG TAB    TARO-ESOMEPRAZOLE 40MG CO.    030000000000030030GALBRAITH      BEVERLEY    GALBRAITH      H ARNOLD    19420530M49344262    344262   347875         10113001757000176000000000000001215000000000000000000000000000000003148001933000000000000000000001215000000000000000000000000000630002518000000000000000000000000000000000000000000               000064334001933000-00176562836FF CA 1220000000000000                   Y202606014S503656328879155       129461    000003          03              DA  000000D5036 03  R74 003504332003504332R000300000300       KC         71                  E   000000  G129461         71000000                            
4S503656798879182202511062025110600E0000042260003504300350432025110602339102APO-ESOMEPRAZOLE 40MG DR TAB  APO-ESOMEPRAZOLE 40MG DR CO.  030000000000030030GALBRAITH      BEVERLEY    GALBRAITH      H ARNOLD    19420530M49344262    344262   347875         10113001757000176000000000000001215000000000000000000000000000000003148001933000000000000000000001215000000000000000000000000000630002518000000000000000000000000000000000000000000 E2QOD4D8WH  00000064433001933000-00176562836FF TA 1220000000000000                   Y202606014                       129461    000003          03              DA  000000D5036 0365R74 003504365003504365R000300000300       KC         71E2QO              E   0000008 G129461         71000000                            
4S503656844879183202511062025110600E0000042260003504300350432025110601978918PULMICORT NEBUAMP 0.25MG/ML   PULMICORT NEBUAMP 0.25MG/ML   040000000000040014RYGH           DARLENE     RYGH           DARLENE     19621024F49344262    344262   173533         10003002369000237000000000000001215000000000000000000000000000000003821002606000000000000000000001215000000000000000000000000000764003057000000000000000000000000000000000000000000 E2D4D8ERESWH00000065150002606000-00237680400FF IN 1220000000000000                   Y202606014                       4131      000004          04              DA  000000D5036 0369R32 003504366003504366R000400000400       KC         71E2ENEO            Y   0000008 B4131           71000000                            
4S503656852879184202511062025110600E0000042260003504300350432025110602531186RYALTRIS 25/665MCG NAS SPR    RYALTRIS 25/665MCG VAP. NAS   040000000000240030RYGH           DARLENE     RYGH           DARLENE     19621024F49344262    344262   173533         10003006391000639000000000000001215000000000000000000000000000000008245007030000000000000000000001215000000000000000000000000001649006596000000000000000000000000000000000000000000 E2D4D8WH    00000029292007030000-00639520808FF NA 1220000000000000                   Y202606014                       4131      000004          04              DA  000000D5036 03  R82 003504367003504367R002400002400       KC         71E2                N   0000008  4131           71000000                            
4S503657872879210202511062025110600E0000042260003504400350442025110602314185SANDOZ-RABEPRAZOLE EC 20MG TABSANDOZ-RABEPRAZOLE EC 20MG CO.030000000000030030KUCULYM        JEANNETTE   KUCULYM        LESLIE      19560215M49344262    344262   132368         10113000428000128000000000000001215000000000000000000000000000000001771000556000000000000000000001215000000000000000000000000000354001417000000000000000000000000000000000000000000 E2D4D8WH    00000018533000556000-00128562836FF TA 1220000000000000                   Y202606014                       4468      000003          03              DA  000000D5036 03  R74 003504422003504422R000300000300       KC         71E2                Y   0000008 G4468           71000000                            
4S503657873879211202511062025110600E0000042260003504400350442025110602464039TEVA-PERINDO-INDAP 8/2.5MG    TEVA-PERINDO-INDAPA 8/2.5MG   030000000000030030KUCULYM        JEANNETTE   KUCULYM        LESLIE      19560215M49344262    344262   132368         10113000914000137000000000000001215000000000000000000000000000000002266001050000000000000000000001215000000000000000000000000000453001812000000000000000000000000000000000000000000 E2DGD4D8WH  00000035000001050000-00136243204FF TA 1220000000000000                   Y202606014                       4468      000003          03              DA  000000D5036 03  R44 003504423003504423R000300000300       KC         71E2DJ              Y   0000008 G4468           71000000                            
4S503657874879212202511062025110600E0000042260003504400350442025110602354616TEVA-ROSUVASTATIN 10MG TAB    TEVA-ROSUVASTATIN 10MG CO.    030000000000030030KUCULYM        JEANNETTE   KUCULYM        LESLIE      19560215M49344262    344262   132368         10113000433000130000000000000001215000000000000000000000000000000001778000562000000000000000000001215000000000000000000000000000355001422000000000000000000000000000000000000000000 E2DGD4D8WH  00000018733000562000-00129240608FF TA 1220000000000000                   Y202606014                       4468      000003          03              DA  000000D5036 03  R40 003504424003504424R000300000300       KC         71E2DJ              Y   0000008 G4468           71000000                            
4S503657875879213202511062025110610E0000042260003504400350442025110602406306AURO-RISEDRONATE 35MG TAB     AURO-RISEDRONATE 35MG CO.     060000000000004028KUCULYM        JEANNETTE   KUCULYM        JEANNETTE   19641206F49344262    344262   132368         10003000695000104000000000000001215000000000000000000000000000000002014000000000000000000000000000000000000000000000000000000000000000000000000000000000000000000000000000000000000 E2KT        00000000000000000000000000922400FF TA 1220000000000000                   N000000004                       4468      000006          06              DA  000000D5036 03  R72 003504421003504421R000040000000       KC         71E286              E   000000  G4468           71000000                            
4S503657876879214202511062025110600E0000042260003504400350442025110602340208SANDOZ TAMSULOSIN 0.4MG CR TABSANDOZ-TAMSULOSIN CR 0.4MG CO.030000000000030030KUCULYM        JEANNETTE   KUCULYM        LESLIE      19560215M49344262    344262   132368         10113000479000144000000000000001215000000000000000000000000000000001838000623000000000000000000001215000000000000000000000000000368001470000000000000000000000000000000000000000000 E2D4D8WH    00000020767000623000-00144121604FF TA 1220000000000000                   Y202606014                       4468      000003          03              DA  000000D5036 03  R76 003504425003504425R000300000300       KC         71E2                Y   0000008 G4468           71000000                            
4S503657878879220202511062025110600E0000042260003504400350442025110602406306AURO-RISEDRONATE 35MG TAB     AURO-RISEDRONATE 35MG CO.     060000000000004028KUCULYM        JEANNETTE   KUCULYM        JEANNETTE   19641206F49344262    344262   132368         10003000695000104000000000000001215000000000000000000000000000000002014000799000000000000000000001215000000000000000000000000000403001611000000000000000000000000000000000000000000 E2D4D8WH    00000199750000799000-00104922400FF TA 1220000000000000                   Y202606014                       4468      000006          06              DADW000000D5036 03  R72 003504421003504421R000040000040       KC         71E2                E   0000008 G4468           71000000                            
4S503657893879222202511062025110610E0000042260003504400350442025110602440156TEVA-TADALAFIL 5MG TAB        TEVA-TADALAFIL 5MG CO.        040000000000030030KUCULYM        JEANNETTE   KUCULYM        LESLIE      19560215M49344262    344262   132368         10113011653001165000000000000001215000000000000000000000000000000014033000000000000000000000000000000000000000000000000000000000000000000000000000000000000000000000000000000000000 E2CO        00000000000000000000000000240812FF TA 1220000000000000                   N000000004                       4468      000004          04              DA  000000D5036 0376R91 003504426003504426R000300000000       KC         71E2D1              N   000000  G4468           71000000                            
60000200002086100025897                                                                                                                                                                                                                                                                                                                                                                                                                                                                                                                                                                                                                                                                                                                                                       
20000042269PHARMASAVE #412               203 BROADWAY STREET                BOX 1030                           FORT QU'APPELLE                    SKS0G1S03063325717E1NEIGHBOUR Y                                                                                                                                                                                                                                                                                                                                                                                                                                                                                                                                                                                             
4S503657387151391202511062025110610E0000042269003744400374442025110602354632TEVA-ROSUVASTATIN 40MG TAB    TEVA-ROSUVASTATIN 40MG CO.    000000000000090090HINTON         KENNETH     GORDON         DARLENE     19600305F49310138    310138   112631         10113001908000191000000000000001215000000000000000000000000000000003314000000000000000000000000000000000000000000000000000000000000000000000000000000000000000000000000000000000000 E2BV        00000000000000000000000000240608FF TA 1220000000000000                   N000000004                       131462    000000          00              DA  000000D4229 03  R40 003744438003744438R000900000000       KC         71E2A3              Y   000000  G131462         71000000                            
4S503658522151470202511062025110610E0000042269003744500374452025110602411520SANDOZ MOXIFLOXACIN 0.5% OP SOSANDOZ MOXIFLOXACIN 0.5% SOL. 010000000000003021DECORBY        GLORIA      DECORBY        GLORIA      19420407F49310138    310138   300618         10003000494000148000000000000001215000000000000000000000000000000001857000000000000000000000000000000000000000000000000000000000000000000000000000000000000000000000000000000000000 E2CO        00000000000000000000000000520404FF OP 1220000000000000                   N000000004                       123120    000001          01              DA  000000D4229 03  R82 003744517003744517N000030000000       KC         71E2D1              E   000000  G123120         71000000                            
4S503658527151471202511062025110610E0000042269003744500374452025110602308983NEVANAC 0.1% OP SOL           NEVANAC 0.1% SOL. OP          010000000000005021DECORBY        GLORIA      DECORBY        GLORIA      19420407F49310138    310138   300618         10003002541000254000000000000001215000000000000000000000000000000004010000000000000000000000000000000000000000000000000000000000000000000000000000000000000000000000000000000000000 E2CO        00000000000000000000000000520820FF OP 1220000000000000                   N000000004                       123120    000001          01              DA  000000D4229 03  R82 003744518003744518N000050000000       KC         71E2D1              N   000000   123120         71000000                            
4S503658546151472202511062025110600E0000042269003744500374452025110600042560MAXIDEX 0.1% OP SOL           MAXIDEX 0.1% SOL. OP          010000000000005021DECORBY        GLORIA      DECORBY        GLORIA      19420407F49310138    310138   300618         10003000932000140000000000000001215000000000000000000000000000000002287001072000000000000000000001215000000000000000000000600000000001687000000000000000000000000000000000000000000 E2EGD4D8ERES00000214400001072000-00140520808FF OP 1220000000000000                   Y202602284                       123120    000001          01              DA  000000D4229 03  R82 003744519003744519N000050000050       KC         71E2ENEO            Y   0000008  123120         71000000                            
4S503659001151477202511062025110600E0000042269003744500374452025110602371049TWYNSTA 5/80MG TAB            TWYNSTA 5/80MG CO.            010000000000090090MCDONALD       DOLORES     MCDONALD       DOLORES     19560916F495963      5963     1168579        10003007330000733000000000000001215000000000000000000000000000000009278008063000000000000000000001215000000000000000000000000001856007422000000000000000000000000000000000000000000 E2EGD4D8ERES00000089589008063000-00733242808FF TA 1220000000000000                   Y202601034                       76094     000001          01              DA  000000D4229 03  R44 003744523003744523N000900000900       KC         71E2ENEO            Y   0000008  76094          71000000                            
4S503659889151538202511062025110600E0000042269003744500374452025110602314185SANDOZ-RABEPRAZOLE EC 20MG TABSANDOZ-RABEPRAZOLE EC 20MG CO.010000000000090090DEDMAN         BRENDA      DEDMAN         BRENDA      19551120F49344262    344262   821962         10003001283000192000000000000001215000000000000000000000000000000002690001475000000000000000000001215000000000000000000000000000538002152000000000000000000000000000000000000000000 E2D4D8WH    00000016389001475000-00192562836FF TA 1220000000000000                   Y202606014                       73173     000001          01              DA  000000D4229 03  R74 003744587003744587N000900000900       KC         71E2                Y   0000008 G73173          71000000                            
4S503659906151540202511062025110600E0000042269003744500374452025110602238465NASONEX AQ 50MCG/MET NAS SPR  NASONEX AQ 50MCG/DOSE VAP. NAS020000000000140031DEDMAN         BRENDA      DEDMAN         BRENDA      19551120F49344262    344262   821962         10003003532000353000000000000001215000000000000000000000000000000005100003885000000000000000000001215000000000000000000000000001020004080000000000000000000000000000000000000000000 E2D4D8WH    00000027750003885000-00353520808FF NA 1220000000000000                   Y202606014                       73173     000002          02              DA  000000D4229 03  R82 003744588003744588N001400001400       KC         71E2                Y   0000008 B73173          71000000                            
4S503659910151543202511062025110600E0000042269003744500374452025110602244293FLOVENT HFA 250MCG INH        FLOVENT HFA 250MCG INH        050000000000001031DEDMAN         BRENDA      DEDMAN         BRENDA      19551120F49344262    344262   821962         10003010341001034000000000000001215000000000000000000000000000000012590000052000000000000000000001215000000000000000000000000000253001014000000000000000000000000000000000000000000 DFE2D4D8WH  00000052000000052000010289680400FF IN 1220000000000000                   Y202606014                       73173     000005          05              DA  000000D4229 0369R32 003744589003744589N000010000010       KC         71D8E2              Y   0000008 B73173          71000000                            
4S503659920151545202511062025110600E0000042269003744500374452025110602326450NOVO-SALBUTAMOL HFA 100MCG INHNOVO-SALBUTAMOL HFA 100MCG INH050000000000200025DEDMAN         BRENDA      DEDMAN         BRENDA      19551120F49344262    344262   821962         10003000639000096000000000000001215000000000000000000000000000000001950000735000000000000000000001215000000000000000000000000000390001560000000000000000000000000000000000000000000 E2D4D8WH    00000003675000735000-00096121208FF IN 1220000000000000                   Y202606014                       73173     000005          05              DA  000000D4229 0369R32 003744590003744590N002000002000       KC         71E2                Y   0000008 G73173          71000000                            
60000110001791500017915                                                                                                                                                                                                                                                                                                                                                                                                                                                                                                                                                                                                                                                                                                                                                       
20000042271BABER'S PHARMASAVE 447        130 MAIN STREET BOX 490                                               BALCARRES                          SKS0G0C03063342424E0          Y                                                                                                                                                                                                                                                                                                                                                                                                                                                                                                                                                                                             
4S503656215881840202511062025110600E0000042271003511800351182025110602313855SANDOZ-MYCOPHENOLATE 500MG TABSANDOZ-MYCOPHENOLATE 500MG CO.120000000000140028SKJERVEN       DARCI       SCHAFFER       TORRIE      20070117F491149125   1149125  424842         10223010394001039000000000000001215000000000000000000000000000000012648011433000000000000000000001215000000000000000000000000000040000160000000000000000000000000000000000000000000 E2D4D8WH    00000081664011433000-01039924400FF TA 1220000000000000                   Y202607014                       106548    000012          12              DA  012448D2168 03  R30 003511860003511860N001400001400       KC         71E2                E   0000008 G106548         71000000                            
4S503657769881914202511062025110600E0000042271003511900351192025110602380196JAMP-METFORMIN 500MG TAB      JAMP-METFORMIN 500MG CO.      000000000000184046DIXON          LAURA       DIXON          FLOYD       19570721M49344262    344262   855340         1011 000484000145000000000000001215000000000000000000000000000000001844000629000000000000000000001215000000000000000000000000000369001475000000000000000000000000000000000000000000 E2D4D8WH    00000003418000629000-00145682004FF TA 1220000000000000                   Y202606014                       43573     000000          00              DA  000000D2168 03  R60 003511970003511970R001840001840       KC         77E2                Y   0000008 G43573          77000000                            
4S503658707881952202511062025110600E0000042271003512000351202025110602251574APO-RAMIPRIL 5MG CAP          APO-RAMIPRIL 5MG CAP.         020000000000090030SMITH          BARBARA     SMITH          JOEL        19600201M49344262    344262   1123287        10113000783000117000000000000001215000000000000000000000000000000002115000900000000000000000000001215000000000000000000000000000423001692000000000000000000000000000000000000000000 E2D4D8WH    00000010000000900000-00117243204FF CA 1220000000000000                   Y202606014                       38094     000002          02              DA  000000D2168 03  R44 003512029003512029R000900000900       KC         77E2                Y   0000008 G38094          77000000                            
4S503659296881981202511062025110600E0000042271003512000351202025110602240606PMS-ZOPICLONE 7.5MG TAB       PMS-ZOPICLONE 7.5MG CO.       040000000000030030SMITH          BARBARA     SMITH          BARBARA     19600126F49344262    344262   1123287        10003001497000225000000000000001215000000000000000000000000000000002937001722000000000000000000001215000000000000000000000000000587002350000000000000000000000000000000000000000000 E2D4D8WH    00000057400001722000-00225282492FF TA 1220000000000000                   Y202606014                       38094     000004          04              DA  000000D2168 03  R88 003512067003512067N000300000300       KC         77E2                N   0000008 G38094          77000000                            
60000060000567700005677                                                                                                                                                                                                                                                                                                                                                                                                                                                                                                                                                                                                                                                                                                                                                       
20000042295PHARMASAVE #438               WRIGHT'S PHARMACY                  BOX 100 - 701 LALONDE STREET       WHITEWOOD                          SKS0G5C03067352303E1NEIGHBOUR Y                                                                                                                                                                                                                                                                                                                                                                                                                                                                                                                                                                                             
4S503656601578522202511062025110600E0000042295003122400312242025110602340208SANDOZ TAMSULOSIN 0.4MG CR TABSANDOZ-TAMSULOSIN CR 0.4MG CO.060000000000068034GRIMEAU        BONNIE      GRIMEAU        VICTOR      19480301M49344262    344262   210764         10113001086000163000000000000001215000000000000000000000000000000002464001249000000000000000000001215000000000000000000000000000399001597000000000000000000000000000000000000000000 E2D4D8WH    00000018368001249000-00163121604FF TA 1220000000000000                   Y202606014                       125122    000006          06              DA  000468D4954 03  R76 003122467003122467N000680000680       KC         71E2                Y   0000008 G125122         71000000                            
4S503656603578524202511062025110600E0000042295003122400312242025110602354616TEVA-ROSUVASTATIN 10MG TAB    TEVA-ROSUVASTATIN 10MG CO.    060000000000034034GRIMEAU        BONNIE      GRIMEAU        VICTOR      19480301M49344262    344262   210764         10113000491000147000000000000001215000000000000000000000000000000001853000637000000000000000000001215000000000000000000000000000300001200000000000000000000000000000000000000000000 E2DGD4D8WH  00000018735000637000-00146240608FF TA 1220000000000000                   Y202606014                       125122    000006          06              DA  000352D4954 03  R40 003122468003122468N000340000340       KC         71E2DJ              Y   0000008 G125122         71000000                            
4S503656608578525202511062025110600E0000042295003122400312242025110602443945JARDIANCE 25MG TAB            JARDIANCE 25MG CO.            040000000000030030GRIMEAU        BONNIE      GRIMEAU        VICTOR      19480301M49344262    344262   210764         10113008975000897000000000000001215000000000000000000000000000000011087002225000000000000000000000274000000000000000000000000000000002499000000000000000000000000000000000000000000 E3FK        00000329067002225000006750682018FF TA 1220000000000000                   Y202606014                       125122    000004          04              DB  008588D4954 03  R60 003122463003122463R000300000300       KC         71E3DJ              E   000000   125122         71000000                            
4S503656617578526202511062025110600E0000042295003122400312242025110602470675PMS-PERINDOPRIL 2MG TAB       PMS-PERINDOPRIL 2MG CO.       050000000000034034GRIMEAU        BONNIE      GRIMEAU        VICTOR      19480301M49344262    344262   210764         10113000591000177000000000000001215000000000000000000000000000000001983000768000000000000000000001215000000000000000000000000000397001586000000000000000000000000000000000000000000 E3FK        00000022588000768000-00177243204FF TA 1220000000000000                   Y202606014                       125122    000005          05              DB  000377D4954 03  R44 003122464003122464N000340000340       KC         71E3                Y   000000  G125122         71000000                            
4S503656623578527202511062025110600E0000042295003122400312242025110602438658MYLAN-GLICLAZIDE MR 30MG TAB  MYLAN-GLICLAZIDE MR 30MG CO.  050000000000068034GRIMEAU        BONNIE      GRIMEAU        VICTOR      19480301M49344262    344262   210764         10113000675000101000000000000001215000000000000000000000000000000001991000775000000000000000000001215000000000000000000000000000398001592000000000000000000000000000000000000000000 E3FKDGWH    00000011397000775000-00100682020FF TA 1220000000000000                   Y202606014                       125122    000005          05              DB  000378D4954 03  R60 003122465003122465N000680000680       KC         71E3DJ              Y   000000  G125122         71000000                            
4S503656689578528202511062025110600E0000042295003122400312242025110602469308AURO-DUTASTERIDE 0.5MG CAP    AURO-DUTASTERIDE 0.5MG CAP.   060000000000034034GRIMEAU        BONNIE      GRIMEAU        VICTOR      19480301M49344262    344262   210764         10113000929000139000000000000001215000000000000000000000000000000002283001068000000000000000000001215000000000000000000000000000457001826000000000000000000000000000000000000000000 E3FK        00000031412001068000-00139920800FF CA 1220000000000000                   Y202606014                       125122    000006          06              DB  000434D4954 03  R76 003122469003122469N000340000340       KC         71E3                Y   000000  G125122         71000000                            
4S503656692578530202511062025110610E0000042295003122400312242025110602402874MYRBETRIQ 25MG TAB            MYRBETRIQ 25MG CO.            050000000000030030GRIMEAU        BONNIE      GRIMEAU        VICTOR      19480301M49344262    344262   210764         10113004752000475000000000000001215000000000000000000000000000000006442000000000000000000000000000000000000000000000000000000000000000000000000000000000000000000000000000000000000 E3ST        00000000000000000000000000861208FF TA 1220000000000000                   N000000004                       125122    000005          05              DB  000322D4954 03  R76 003122466003122466N000300000000       KC         71E3SA              E   000000   125122         71000000                            
4S503656737578534202511062025110610E0000042295003122400312242025110602460939SANDOZ-ESOMEPRAZOLE 40MG TAB  SANDOZ-ESOMEPRAZOLE 40MG CO.  020000000000034034GRIMEAU        BONNIE      GRIMEAU        VICTOR      19480301M49344262    344262   210764         10113001992000199000000000000001215000000000000000000000000000000003406000000000000000000000000000000000000000000000000000000000000000000000000000000000000000000000000000000000000 E3QOKT      00000000000000000000000000562836FF TA 1220000000000000                   N000000004                       D4954     000002          02              DB  000000D4954 03  R74 003122471003122471N000340000000       KC         76E3QO86            E   000000  GD4954          76000000                            
4S503659037578600202511062025110610E0000042295003122500312252025110602237452PERIDEX 0.12% ORAL RINSE      PERIDEX 0.12% RINCE-BOUCHE    000000000000475007BOND           TRUDY       TEBBUTT-BOND   KIANDRA     20040601F49310138    310138   231180         10223001416000212000000000000001215000000000000000000000000000000002843000000000000000000000000000000000000000000000000000000000000000000000000000000000000000000000000000000000000 E2HBCK      00000000000000000000000000522800F  MW 1220000000000000                   N000000004                       9907      000000          00              DA  000000D4954 0348R82 003122558003122558N004750000000       KC         07E2HBC4                000000  B9907           07000000                            
4S503659064578601202511062025110610E0000042295003122500312252025110602243351APO-AMOXI CLAV 500/125MG TAB  APO-AMOXI CLAV 500MG/125MG CO.000000000000021007BOND           TRUDY       TEBBUTT-BOND   KIANDRA     20040601F49310138    310138   231180         10223000845000127000000000000001215000000000000000000000000000000002187000000000000000000000000000000000000000000000000000000000000000000000000000000000000000000000000000000000000 E2HBCK      00000000000000000000000000081216F  TA 1220000000000000                   N000000004                       9907      000000          00              DA  000000D4954 03  R16 003122559003122559N000210000000       KC         07E2HBC4                000000  G9907           07000000                            
4S503659077578603202511062025110610E0000042295003122500312252025110602250055APO-DEXAMETHASONE 4MG TAB     APO-DEXAMETHASONE 4MG CO.     000000000000004004BOND           TRUDY       TEBBUTT-BOND   KIANDRA     20040601F49310138    310138   231180         10223000260000078000000000000001215000000000000000000000000000000001553000000000000000000000000000000000000000000000000000000000000000000000000000000000000000000000000000000000000 E2HBCK      00000000000000000000000000680400F  TA 1220000000000000                   N000000004                       9907      000000          00              DA  000000D4954 03  R52 003122560003122560N000040000000       KC         07E2HBC4                000000  G9907           07000000                            
4S503659124578607202511062025110610E0000042295003122500312252025110602229080APO-KETOROLAC 10MG TAB        APO-KETOROLAC 10MG CO.        000000000000024008BOND           TRUDY       TEBBUTT-BOND   KIANDRA     20040601F49310138    310138   231180         10223001541000231000000000000001215000000000000000000000000000000002987000000000000000000000000000000000000000000000000000000000000000000000000000000000000000000000000000000000000 E2HBCK      00000000000000000000000000280804F  TA 1220000000000000                   N000000004                       9907      000000          00              DA  000000D4954 03  R24 003122563003122563N000240000000       KC         07E2HBC4                000000  G9907           07000000                            
60000140001030000010300                                                                                                                                                                                                                                                                                                                                                                                                                                                                                                                                                                                                                                                                                                                                                       
20000042333WOODLAND PHARMACY LTD         P.O. BOX 160 9 MAIN STREET                                            SHELLBROOK                         SKS0J2E03067472545E0          Y                                                                                                                                                                                                                                                                                                                                                                                                                                                                                                                                                                                             
4S503656176037621202511062025110610E0000042333003637800363782025110602440172TEVA-TADALAFIL 20MG TAB       TEVA-TADALAFIL 20MG CO.       020000000000008014                           CAMPBELL       WILLIAM     19590616M49344262             423186            13010530001053000000000000001215000000000000000000000000000000012798000000000000000000000000000000000000000000000000000000000000000000000000000000000000000000000000000000000000 AL          00000000000000000000000000000000      1220000000000000                   N000000004                       75055     000002          02              DA  000000D3698 03  R91 003637838003637838N000080000000       KC         7132                    000000   75055          71000000                            
4S503656286037622202511062025110600E0000042333003637800363782025110601929372DRISTAN LONG LASTING NAS MIST DRISTAN LONG LASTING VAP. NAS 020000000000015007CAMERON        MURRAY      CAMERON        MURRAY      19421013M49310138    310138   774937         10003000460000138000000000000001215000000000000000000000000000000001813000598000000000000000000001215000000000000000000000600000000001213000000000000000000000000000000000000000000 E2D4D8WH    00000039867000598000-00138523200UDRNA 1220000000000000                   Y202604054S503660001037819       132721    000002          02              DA  000000D2678 03  B40 003637841003637841R000150000150       KC         71E2                N   0000008  132721         710000006027                        
4S503656863037631202511062025110600E0000042333003637800363782025110602313723TARO-ATORVASTATIN 40MG TAB    TARO-ATORVASTATIN 40MG CO.    090000000000028028ZMUD           SANDRA      ZMUD           SANDRA      19421208F49344262    344262   1375821        10003000698000105000000000000001215000000000000000000000000000000002018000803000000000000000000001215000000000000000000000000000198000791000000000000000000000000000000000000000000 E2D4D8WH    00000028679000803000-00105240608FF TA 1220000000000000                   Y202606014                       76988     000009          09              DA  001029D2678 03  R40 003637867003637867R000280000280       KC         71E2                Y   0000008 G76988          71000000                            
4S503656882037633202511062025110600E0000042333003637800363782025110602466767MINT-FUROSEMIDE 40MG TAB      MINT-FUROSEMIDE 40MG CO.      000000000000028028ZMUD           SANDRA      ZMUD           SANDRA      19421208F49344262    344262   1375821        10003000098000029000000000000001215000000000000000000000000000000001342000127000000000000000000001215000000000000000000000000000132000526000000000000000000000000000000000000000000 E2D4D8WH    00000004536000127000-00029402808FF TA 1220000000000000                   Y202606014                       76988     000000          00              DA  000684D2678 03  R70 003637869003637869R000280000280       KC         71E2                Y   0000008 G76988          71000000                            
4S503656884037635202511062025110600E0000042333003637800363782025110602550733APO-LEVOTHYROXINE 88MCG TAB   APO-LEVOTHYROXINE 88MCG CO.   090000000000028028ZMUD           SANDRA      ZMUD           SANDRA      19421208F49344262    344262   1375821        10003000193000058000000000000001215000000000000000000000000000000001466000250000000000000000000001215000000000000000000000000000143000574000000000000000000000000000000000000000000 E2DGD4D8WH  00000008929000250000-00057683604FF TA 1220000000000000                   Y202606014                       76988     000009          09              DA  000748D2678 03  R02 003637870003637870R000280000280       KC         71E2DJ              Y   0000008 G76988          71000000                            
4S503656885037637202511062025110600E0000042333003637800363782025110600015237AVENTYL 25MG CAP              AVENTYL 25MG CAP.             010000000000028028ZMUD           SANDRA      ZMUD           SANDRA      19421208F49344262    344262   1375821        10003002008000201000000000000001215000000000000000000000000000000003424002209000000000000000000001215000000000000000000000000000336001342000000000000000000000000000000000000000000 E2EGD4D8WH  00000078893002209000-00201281604FF CA 1220000000000000                   Y202606014                       76988     000001          01              DA  001746D2678 03  R84 003637871003637871R000280000280       KC         71E2                Y   0000008  76988          71000000                            
4S503656890037639202511062025110600E0000042333003637800363782025110602301083SANDOZ-PANTOPRAZOLE 40MG TAB  SANDOZ-PANTOPRAZOLE 40MG CO.  090000000000028028ZMUD           SANDRA      ZMUD           SANDRA      19421208F49344262    344262   1375821        10003000601000180000000000000001215000000000000000000000000000000001996000781000000000000000000001215000000000000000000000000000201000804000000000000000000000000000000000000000000 E2D4D8WH    00000027893000781000-00180562836FF TA 1220000000000000                   Y202606014                       76988     000009          09              DA  000991D2678 03  R74 003637873003637873R000280000280       KC         71E2                Y   0000008 G76988          71000000                            
4S503656893037641202511062025110600E0000042333003637800363782025110602470438SDZ-PERINDO-INDAP 4/1.25MG    SDZ-PERINDO-INDAPA 4/1.25MG   040000000000028028ZMUD           SANDRA      ZMUD           SANDRA      19421208F49344262    344262   1375821        10003000762000114000000000000001215000000000000000000000000000000002091000876000000000000000000001215000000000000000000000000000205000820000000000000000000000000000000000000000000 E2D4D8WH    00000031286000876000-00114243204FF TA 1220000000000000                   Y202606014                       76988     000004          04              DA  001066D2678 03  R44 003637875003637875R000280000280       KC         71E2                Y   0000008 G76988          71000000                            
4S503656896037643202511062025110600E0000042333003637800363782025110602359626PMS-PREGABALIN 75MG CAP       PMS-PREGABALIN 75MG CAP.      020000000000056028ZMUD           SANDRA      ZMUD           SANDRA      19421208F49344262    344262   1375821        10003001794000179000000000000001215000000000000000000000000000000003188001973000000000000000000001215000000000000000000000000000312001250000000000000000000000000000000000000000000 E2D4D8WH    00000035232001973000-00179280892FF CA 1220000000000000                   Y202606014                       76988     000002          02              DA  001626D2678 03  R08 003637877003637877N000560000560       KC         71E2                Y   0000008 G76988          71000000                            
4S503657654037689202511062025110600E0000042333003637900363792025110602244840PMS-SERTRALINE 100MG CAP      PMS-SERTRALINE 100MG CAP.     000000000000030030GAUDRY         TYSON       GAUDRY         TYSON       19950510M491185488   1185488  1186334        10003001055000158000000000000001215000000000000000000000000000000002428001213000000000000000000001215000000000000000000000000000728001700000000000000000000000000000000000000000000 E2D4D8ERESWH00000040433001213000-00158281604FF CA 1220000000000000                   Y202606014                       D3698     000000          00              DA  000000D3698 03  R84 003637972003637972N000300000300       KC         76E2ENEO            Y   0000008 GD3698          76000000                            
4S503657662037690202511062025110600E0000042333003637900363792025110602244839PMS-SERTRALINE 50MG CAP       PMS-SERTRALINE 50MG CAP.      000000000000030030GAUDRY         TYSON       GAUDRY         TYSON       19950510M491185488   1185488  1186334        10003000969000145000000000000001215000000000000000000000000000000002329001114000000000000000000001215000000000000000000000000000699001630000000000000000000000000000000000000000000 E2D4D8ERESWH00000037133001114000-00145281604FF CA 1220000000000000                   Y202606014                       D3698     000000          00              DA  000000D3698 03  R84 003637973003637973N000300000300       KC         76E2ENEO            Y   0000008 GD3698          76000000                            
4S503657669037691202511062025110600E0000042333003637900363792025110602296578PMS-QUETIAPINE 100MG TAB      PMS-QUETIAPINE 100MG CO.      000000000000030030GAUDRY         TYSON       GAUDRY         TYSON       19950510M491185488   1185488  1186334        10003000421000126000000000000001215000000000000000000000000000000001762000547000000000000000000001215000000000000000000000000000529001233000000000000000000000000000000000000000000 E2D4D8ERESWH00000018233000547000-00126281608FF TA 1220000000000000                   Y202606014                       D3698     000000          00              DA  000000D3698 03  R86 003637974003637974N000300000300       KC         76E2ENEO            Y   0000008 GD3698          76000000                            
4S503658176037715202511062025110610E0000042333003638000363802025110602243351APO-AMOXI CLAV 500/125MG TAB  APO-AMOXI CLAV 500MG/125MG CO.000000000000030010WEBERG         ANDREA      WEBERG         ANDREA      19810327F49310138    310138   594522         10003001207000181000000000000001215000000000000000000000000000000002603000000000000000000000000000000000000000000000000000000000000000000000000000000000000000000000000000000000000 E2CJHBCK    00000000000000000000000000081216F  TA 1220000000000000                   N000000004                       100082    000000          00              DA  001692D3698 03  R16 003638013003638013N000300000000       KC         71E2C4HB                000000  G100082         71000000                            
4S503658211037716202511062025110610E0000042333003638000363802025110602465124MAR-KETOROLAC 10MG TAB        MAR-KETOROLAC 10MG CO.        000000000000030010WEBERG         ANDREA      WEBERG         ANDREA      19810327F49310138    310138   594522         10003001926000193000000000000001215000000000000000000000000000000003334000000000000000000000000000000000000000000000000000000000000000000000000000000000000000000000000000000000000 E2CJHBCK    00000000000000000000000000280804F  TA 1220000000000000                   N000000004                       100082    000000          00              DA  000000D3698 03  R24 003638014003638014N000300000000       KC         71E2C4HB                000000  G100082         71000000                            
4S503658216037717202511062025110610E0000042333003638000363802025110602512335ACCEL-HYOSCINE 10MG TAB       ACCEL-HYOSCINE 10MG CO.       000000000000030010WEBERG         ANDREA      WEBERG         ANDREA      19810327F49310138    310138   594522         10003000866000130000000000000001215000000000000000000000000000000002211000000000000000000000000000000000000000000000000000000000000000000000000000000000000000000000000000000000000 E2CJHBCK    00000000000000000000000000120808U  TA 1220000000000000                   N000000004                       100082    000000          00              DA  001437D3698 03  Q01 003638015003638015N000300000000       KC         71E2C4HB                000000  G100082         71000000                            
4S503658845037739202511062025110600E0000042333003638000363802025110602351579MYLAN-VALACYCLOVIR 500MG TAB  MYLAN-VALACYCLOVIR 500MG CO.  010000000000008001SIMMONDS       LAURA       SIMMONDS       LAURA       19710708F49310138    310138   650652         10003000528000158000000000000001215000000000000000000000000000000001901000686000000000000000000001215000000000000000000000600000000001301000000000000000000000000000000000000000000 E2D4D8WH    00000085750000686000-00158081832FF TA 1220000000000000                   Y202601014                       D2678     000001          01              DA  000000D2678 03  R18 003638049003638049N000080000080       KC         76E2                Y   0000008 GD2678          76000000                            
5S503660001037819202511062025110600E0000042333003637800363782025110601929372DRISTAN LONG LASTING NAS MIST DRISTAN LONG LASTING VAP. NAS 020000000000015007CAMERON        MURRAY      CAMERON        MURRAY      19421013M49310138    310138   774937         10003000460000138000000000000001215000000000000000000000000000000001813000598000000000000000000001215000000000000000000000600000000001213000000000000000000000000000000000000000000               000039668000598000-00138523200UDRNA 1220000000000000                   Y202604054S503656286037622       132721    000002          02              DA  000000D2678 03  B40 003637841003637841R000150000150       KC         71                  N   000000   132721         710000006027                        
4S503660004037820202511062025110600E0000042333003638200363822025110601929372DRISTAN LONG LASTING NAS MIST DRISTAN LONG LASTING VAP. NAS 000000000000045030CAMERON        MURRAY      CAMERON        MURRAY      19421013M49310138    310138   774937         10003001380000207000000000000001215000000000000000000000000000000002802001587000000000000000000001215000000000000000000000600000000002202000000000000000000000000000000000000000000 E2D4D8WH    00000035267001587000-00207523200UDRNA 1220000000000000                   Y202604054                       132721    000000          00              DA  000000D3698 03  B40 003638254003638254R000450000450       KC         71E2                N   0000008  132721         710000006027                        
60000200001417300016599                                                                                                                                                                                                                                                                                                                                                                                                                                                                                                                                                                                                                                                                                                                                                       
20000042337SPIRITWOOD PHARMACY           120 MAIN STREET BOX 279                                               SPIRITWOOD                         SKS0J2M03068832391E0          Y                                                                                                                                                                                                                                                                                                                                                                                                                                                                                                                                                                                             
4S503659116033766202511062025110610E0000042337003786600378662025110602440172TEVA-TADALAFIL 20MG TAB       TEVA-TADALAFIL 20MG CO.       040000000000008008BOOTH          DONALD      BOOTH          DONALD      19540116M49310138    310138   315597         10003010530001053000000000000001215000000000000000000000000000000012798000000000000000000000000000000000000000000000000000000000000000000000000000000000000000000000000000000000000 E3CO        00000000000000000000000000240812FF TA 1220000000000000                   N000000004                       124243    000004          04              DB  000000D3795 0376R91 003786691003786691R000080000000       KC         71E3D1              N   000000  G124243         71000000                            
4S503659726033811202511062025110610E0000042337003786700378672025110602230997APO-DILTIAZ CD 120MG CAP      APO-DILTIAZ CD 120MG CAP.     040000000000030030VANDALE        SHERI-LYNN  VANDALE        SHERI-LYNN  19600422F49344262    344262   1308704        10003001161000174000000000000001215000000000000000000000000000000002550000000000000000000000000000000000000000000000000000000000000000000000000000000000000000000000000000000000000 E2CJHBCK    00000000000000000000000000242892F  CA 1220000000000000                   N000000004                       944       000004          04              DA  000050D3795 0361R46 003786763003786763R000300000000       KC         71E2C4HB                000000  G944            71000000                            
60000040000000000000000                                                                                                                                                                                                                                                                                                                                                                                                                                                                                                                                                                                                                                                                                                                                                       
20000042350PHARMASAVE #429               531 MAIN STREET                    PO BOX 1210                        HUMBOLDT                           SKS0K2A03066822616E1NEIGHBOUR Y                                                                                                                                                                                                                                                                                                                                                                                                                                                                                                                                                                                             
4S503656105559500202511062025110600E0000042350002167800216782025110602444771MAR-ENALAPRIL 10MG TAB        MAR-ENALAPRIL 10MG CO.        010000000000060030THEVENOT       ANNETTE     THEVENOT       ANNETTE     19470202F49344262    344262   468944         10003001692000169000000000000001215000000000000000000000000000000003076001861000000000000000000001215000000000000000000000000000615002461000000000000000000000000000000000000000000 E2D4D8WH    00000031017001861000-00169243204FF TA 1220000000000000                   Y202606014                       2092      000001          01              DA  000000D5075 03  R44 002167849002167849R000600000600       KC         71E2                Y   0000008 G2092           71000000                            
4S503656704559522202511062025110610E0000042350002167800216782025110602528509WEGOVY 1MG/1.5ML INJ          WEGOVY 1MG/0.5ML INJ.         000000000000001028KLITCH         AMY         KLITCH         AMY         19780525F49310138    310138   735866         10003043171002000000000000000001215000000000000000000000000000000046386000000000000000000000000000000000000000000000000000000000000000000000000000000000000000000000000000000000000 E2CJHBCK    00000000000000000000000000682006F  IN 1220000000000000                   N000000004                       9040      000000          00              DA  000000D5075 0334R93 002167894002167894N000015000000       KC         71E2C4HB                000000   9040           71000000                            
4S503660084559586202511062025110600E0000042350002168000216802025110602304333ACT-VENLAFAXINE XR 150MG CAP  ACT-VENLAFAXINE XR 150MG CAP. 040000000000030030KIRSCH         PERRY       KIRSCH         DARCY       19660506F49310138    310138   825144         10113000616000185000000000000001215000000000000000000000000000000002016000800000000000000000000001215000000000000000000000600000000001415000000000000000000000000000000000000000000 E2DGD4D8WH  00000026667000800000-00184281604FF CA 1220000000000000                   Y202605014S503660085559587       118823    000004          04              DA  000000D3331 0367R84 002168044002168044R000300000300       KC         71E2DJ              Y   0000008 G118823         71000000                            
5S503660085559587202511062025110600E0000042350002168000216802025110602304333ACT-VENLAFAXINE XR 150MG CAP  ACT-VENLAFAXINE XR 150MG CAP. 040000000000030030KIRSCH         PERRY       KIRSCH         DARCY       19660506F49310138    310138   825144         10113000616000185000000000000001215000000000000000000000000000000002016000800000000000000000000001215000000000000000000000600000000001415000000000000000000000000000000000000000000               000026667000800000-00184281604FF CA 1220000000000000                   Y202605014S503660084559586       118823    000004          04              DA  000000D3331 0367R84 002168044002168044R000300000300       KC         71                  Y   000000  G118823         71000000                            
60000060000246100005291                                                                                                                                                                                                                                                                                                                                                                                                                                                                                                                                                                                                                                                                                                                                                       
20000042365THE DELTA CO-OP PHARMACY      130-2ND AVENUE W                                                      UNITY                              SKS0K4L03062282629E0          Y                                                                                                                                                                                                                                                                                                                                                                                                                                                                                                                                                                                             
4S503656469578629202511062025110600E0000042365001222400122242025110602518848JAMP SPIRONOLACTONE 100MG TAB JAMP SPIRONOLACTONE 100MG CO. 000000000000016064HEIT           DANIEL      HEIT           DANIEL      19500920M49310138    310138   53320          10003000163000049000000000000001215000000000000000000000000000000001427000212000000000000000000001215000000000000000000000600000000000827000000000000000000000000000000000000000000 E2D4D8WH    00000013250000212000-00049243220FF TA 1220000000000000                   Y202609234                       133983    000000          00              DA  000000D3551 03  R70 001222449001222449R000160000160       KC         71E2                Y   0000008 G133983         71000000                            
4S503656481578631202511062025110600E0000042365001222400122242025110602247163CRESTOR 20MG TAB              CRESTOR 20MG CO.              010000000000060060HEIT           DANIEL      HEIT           DANIEL      19500920M49310138    310138   53320          10002012813001281000000000000001215000000000000000000000000000000015309001243000000000000000000001215000000000000000000000600000000001858000000000000000000000000000000000000000000 DFE2D4D8WH  00000020717001243000011570240608FF TA 1220000000000000                   Y202609234                       133983    000001          01              DA  000000D3551 03  R40 001222450001222450R000600000600       KC         71D8E2              Y   0000008 B133983         71000000                            
