0610068ESI Canada          GROUP MEDICAL SERV                                               SK      00000000002026011996120260118                                                        DentPredet/predet current 2017/12/12 11:01                                                                                                                                                                                                                                                                                                                                                                                                                                                                                                                                                                                                                                                                                                                                                                                                                                                                                                                                                                                                                                                            
20801628013697VICZKO                        KELL                          KELL VICZKO                   636 MAIN ST N                                                                                                           MOOSE JAW                          SKCAN            S6H3K43066926438E                                                                                                                                                                                                                                                                                                                                                                                                                                                                                                                                                                                                                                                                                                                                                                                                                                                                                                                                                                                          
4610218008398522026011620260116E080162801VICZKO                        KELL                          3697SKGPHASAPIS                       CRISTINA                      HASAPIS                       CRISTINA                      19550127F49310138    310138   136759         1000CAPSS_CD     1                                                                                                                                                                                                                                                                                                                                                                                                                                                                                                00000000        2Y20270116Y1426 GRANDVIEW ST W                                                   MOOSE JAW                          SKCANADA         S6H6S6   3                                                                                                                                                                                                                                                                                                                            
501202601165000001372733131ENDODONTICS, ROOT CANAL            TRAITEMENT DE CANAL                26     117800000000000000000000     000000000000000000000000     000000000000000000000000FB2         011780000000000000000033131        93375     02BASIC                                   RESTAURATIONS DE BASE                   31          UNIV000000000000000000                                                                                                                                                                                                                                                                                                                                                                                                                                                                                                                                                                                                                                                                                                                                                                                                                                                                                                                        
4610218008398562026011620260116E080162801VICZKO                        KELL                          3697SKGPHASAPIS                       CRISTINA                      HASAPIS                       CRISTINA                      19550127F49310138    310138   136759         1000CAPSS_CD     1                                                                                                                                                                                                                                                                                                                                                                                                                                                                                                00000000        2Y20270116Y1426 GRANDVIEW ST W                                                   MOOSE JAW                          SKCANADA         S6H6S6   3                                                                                                                                                                                                                                                                                                                            
501202601165000001372733135ENDODONTICS-ROOT CANAL-RETREAT     PERFORATION/RESORPTION             26     148200000000000000000000     000000000000000000000000     000000000000000000000000FB2         014820000000000000000033135        93375     02BASIC                                   RESTAURATIONS DE BASE                   31          UNIV000000000000000000                                                                                                                                                                                                                                                                                                                                                                                                                                                                                                                                                                                                                                                                                                                                                                                                                                                                                                                        
6000006                                                                0026600000000000                                                                                                                                                                                                                                                                                                                                                                                                                                                                                                                                                                                                                                                                                                                                                                                                                                                                                                                                                                                                                                                                                                                                                                                                        
20801749210001PHEE                          ALYSEN                        ALYSEN PHEE                   396 UNIVERSITY PARK DR                                                                                                  REGINA                             SKCAN            S4V0Y83063593636E                                                                                                                                                                                                                                                                                                                                                                                                                                                                                                                                                                                                                                                                                                                                                                                                                                                                                                                                                                                          
4610218008399942026011620260116E080174921PHEE                          ALYSEN                        0001SKENGRILL                         RANDALL                       GRILL                         TRUDY                         19591222F49282368    282368   1132210        1011AHYH    GME  3                                                                                                                                                                                                                                                                                                                                                                                                                                                                                                00000000        2Y20270115Y43 KENNEDY CRESCENT                                                   REGINA                             SKCANADA         S4R6G3   3                                                                                                                                                                                                                                                                                                                            
501202601161000001268933141ENDODONTICS, ROOT CANAL            TRAITEMENT DE CANAL                26     160000087800000000070240     000000000000000000000000     000000000000000000000000W18         016000001756008007024033141        93333A046E02BASIC                                   RESTAURATIONS DE BASE                   31          UNIV057760000000175400                                                                                                                                                                                                                                                                                                                                                                                                                                                                                                                                                                                                                                                                                                                                                                                                                                                                                                                        
504202601165000000000039502OPENING THROUGH CROWN              OUVERTURE A TRAVERS UNE COURONNE   26     010000000000000000000000     000000000000000000000000     000000000000000000000000B01         0010000000000000000000             93333                                                                                       31          UNIV000000000000000000                                                                                                                                                                                                                                                                                                                                                                                                                                                                                                                                                                                                                                                                                                                                                                                                                                                                                                                        
503202601165072781268502111X-RAY, PERIAPICAL-SINGLE           RADIOGRAPHIE PERIAPICALE           26     005000000000000000000000     000000000000000000000000     000000000000000000000000U61         0005000000000000000000             93333     02BASIC                                   RESTAURATIONS DE BASE                   31          UNIV000000000000000000                                                                                                                                                                                                                                                                                                                                                                                                                                                                                                                                                                                                                                                                                                                                                                                                                                                                                                                        
502202601165000000000023321RESTORATION, TOOTH COLOURED        RESTAURATION, MEME COULEUR DE DENT 26O    030000000000000000000000     000000000000000000000000     000000000000000000000000106         0030000000000000000000                                                                                                         31          UNIV000000000000000000                                                                                                                                                                                                                                                                                                                                                                                                                                                                                                                                                                                                                                                                                                                                                                                                                                                                                                                        
6000007                                                                0020500000070240                                                                                                                                                                                                                                                                                                                                                                                                                                                                                                                                                                                                                                                                                                                                                                                                                                                                                                                                                                                                                                                                                                                                                                                                        
2080178601689FSEFERI                        JONIDA                        JONIDA SEFERI                 4-3602 TAYLOR ST E                                                                                                      SASKATOON                          SKCAN            S7H5H93069554131E                                                                                                                                                                                                                                                                                                                                                                                                                                                                                                                                                                                                                                                                                                                                                                                                                                                                                                                                                                                          
4610218008399642026011620260116E080178601SEFERI                        JONIDA                        689FSKGPHATTIE                        BRENT                         HATTIE                        BRENT                         19630129M495963      5963     891317         1000CAPSS_CD     1                                                                                                                                                                                                                                                                                                                                                                                                                                                                                                00000000        1Y20270116Y1513 SHANNON CRESCENT                                                 SASKATOON                          SKCANADA         S7H2T6   3                                                                                                                                                                                                                                                                                                                            
50120260116 000000000027301CROWN, FULL, CAST METAL            COURONNE COMPLETE, METAL COULE     37     10580000000000000000000099111040000000000000000000000     000000000000000000000000B10         0145800000000000000000                                                                                                         31          UNIV000000000000000000                                                                                                                                                                                                                                                                                                                                                                                                                                                                                                                                                                                                                                                                                                                                                                                                                                                                                                                        
6000004                                                                0014580000000000                                                                                                                                                                                                                                                                                                                                                                                                                                                                                                                                                                                                                                                                                                                                                                                                                                                                                                                                                                                                                                                                                                                                                                                                        
2080181301068GCHAUKLA                       ABEKAR                        ABEKAR CHAUKLA                201 WASHINGTON AVE                      BOX 687                                                                         DAVIDSON                           SKCAN            S0G1A03065675300E                                                                                                                                                                                                                                                                                                                                                                                                                                                                                                                                                                                                                                                                                                                                                                                                                                                                                                                                                                                          
4610218008399822026011620260116E080181301CHAUKLA                       ABEKAR                        068GSKGPREICH                         LORI                          REICH                         LARRY                         19590401M49344262    344262   1013478        1011CAPSS_CD     1                                                                                                                                                                                                                                                                                                                                                                                                                                                                                                00000000        1Y20270116YPO BOX 333                                                            DAVIDSON                           SKCANADA         S0G1A0   3                                                                                                                                                                                                                                                                                                                            
50120260116 000000000014611PERIODONTAL APPLIANCE-UPPER        APPAREILS PARODONTAUX              00     03460000000000000000000099111027500000000000000000000     000000000000000000000000B55         0062100000000000000000                                                                                                         31          UNIV000000000000000000                                                                                                                                                                                                                                                                                                                                                                                                                                                                                                                                                                                                                                                                                                                                                                                                                                                                                                                        
4610218008399962026011620260116E080181301CHAUKLA                       ABEKAR                        068GSKGPREICH                         LORI                          REICH                         LARRY                         19590401M49344262    344262   1013478        1011CAPSS_CD     1                                                                                                                                                                                                                                                                                                                                                                                                                                                                                                00000000        1Y20270116YPO BOX 333                                                            DAVIDSON                           SKCANADA         S0G1A0   3                                                                                                                                                                                                                                                                                                                            
50120260116 000000000067211RETAINER, PORCELAIN TO METAL       RETENTEUR, PORCELAINE SUR METAL    45     09130000000000000000000099111035000000000000000000000     000000000000000000000000B04         0126300000000000000000                                                                                                         31          UNIV000000000000000000                                                                                                                                                                                                                                                                                                                                                                                                                                                                                                                                                                                                                                                                                                                                                                                                                                                                                                                        
50320260116 000000000067211RETAINER, PORCELAIN TO METAL       RETENTEUR, PORCELAINE SUR METAL    47     09130000000000000000000099111035000000000000000000000     000000000000000000000000B04         0126300000000000000000                                                                                                         31          UNIV000000000000000000                                                                                                                                                                                                                                                                                                                                                                                                                                                                                                                                                                                                                                                                                                                                                                                                                                                                                                                        
50220260116 000000000062501PONTIC, PORCELAIN TO  METAL        PONTIQUE, PORCELAINE               46     04780000000000000000000099111040000000000000000000000     000000000000000000000000B04         0087800000000000000000                                                                                                         31          UNIV000000000000000000                                                                                                                                                                                                                                                                                                                                                                                                                                                                                                                                                                                                                                                                                                                                                                                                                                                                                                                        
6000008                                                                0040250000000000                                                                                                                                                                                                                                                                                                                                                                                                                                                                                                                                                                                                                                                                                                                                                                                                                                                                                                                                                                                                                                                                                                                                                                                                        
2080195261524GYUE                           CHRISTOPHER                   CHRISTOPHER YUE               600B VICTORIA AVE E                                                                                                     REGINA                             SKCAN            S4N0N73067215437E                                                                                                                                                                                                                                                                                                                                                                                                                                                                                                                                                                                                                                                                                                                                                                                                                                                                                                                                                                                          
4610218008399562026011620260116E080195261YUE                           CHRISTOPHER                   524GSKPAANFINSON                      TREVOR                        MINTY                         ANASTASIA                     20170925F49447114    447114   1372211        1012AHYH    GME  3                                                                                                                                                                                                                                                                                                                                                                                                                                                                                                00000000        2Y20270114Y22 SCRIVENER CR.                                                      REGINA                             SKCANADA         S4N4V7   3                                                                                                                                                                                                                                                                                                                            
501202601161000001268502111X-RAY, PERIAPICAL-SINGLE           RADIOGRAPHIE PERIAPICALE           00     004800004800000000004800     000000000000000000000000     000000000000000000000000            000480000000010000480002111        932629327902BASIC                                   RESTAURATIONS DE BASE                   31          UNIV000000000000005000                                                                                                                                                                                                                                                                                                                                                                                                                                                                                                                                                                                                                                                                                                                                                                                                                                                                                                                        
502202601161000001268502142X-RAYS, BITEWING-TWO FILMS         RADIOGRAPHIES INTERPROXIMALES      00     005800005800000000005800     000000000000000000000000     000000000000000000000000            000580000000010000580002142        932629327902BASIC                                   RESTAURATIONS DE BASE                   31          UNIV000000000000006100                                                                                                                                                                                                                                                                                                                                                                                                                                                                                                                                                                                                                                                                                                                                                                                                                                                                                                                        
503202601161000000000023322RESTORATION, TOOTH COLOURED        RESTAURATION, MEME COULEUR DE DENT 16MO   029300029300000000029300     000000000000000000000000     000000000000000000000000            002930000000010002930023322        932629327902BASIC                                   RESTAURATIONS DE BASE                   31          UNIV000000000000029800                                                                                                                                                                                                                                                                                                                                                                                                                                                                                                                                                                                                                                                                                                                                                                                                                                                                                                                        
504202601161000001162713401SEALANT, PIT & FISSURE             SCELLANTS PUITS FISSURES           26     008300008300000000008300     000000000000000000000000     000000000000000000000000            000830000000010000830013401        932629327901PREVENTIVE SERVICES                     PREVENTION                              31          UNIV000000000000008700                                                                                                                                                                                                                                                                                                                                                                                                                                                                                                                                                                                                                                                                                                                                                                                                                                                                                                                        
505202601161000001162713401SEALANT, PIT & FISSURE             SCELLANTS PUITS FISSURES           36     008300008300000000008300     000000000000000000000000     000000000000000000000000            000830000000010000830013401        932629327901PREVENTIVE SERVICES                     PREVENTION                              31          UNIV000000000000008700                                                                                                                                                                                                                                                                                                                                                                                                                                                                                                                                                                                                                                                                                                                                                                                                                                                                                                                        
512202601165000000000022211RESTORATION-PREFABRICATED          RESTAURATION PREFABRIQUEE          75     032200000000000000000000     000000000000000000000000     000000000000000000000000E02         003220000000000000000022211        932629327902BASIC                                   RESTAURATIONS DE BASE                   31          UNIV000000000000033800                                                                                                                                                                                                                                                                                                                                                                                                                                                                                                                                                                                                                                                                                                                                                                                                                                                                                                                        
507202601161000000000071101EXTRACTION, ERUPTED TOOTH          ABLATION, DENT AYANT FAIT ERUPTION 54     021400021400000000021400     000000000000000000000000     000000000000000000000000            002140000000010002140071101        932629327902BASIC                                   RESTAURATIONS DE BASE                   31          UNIV000000000000023600                                                                                                                                                                                                                                                                                                                                                                                                                                                                                                                                                                                                                                                                                                                                                                                                                                                                                                                        
508202601161000000000022211RESTORATION-PREFABRICATED          RESTAURATION PREFABRIQUEE          55     032200013800000000013800     000000000000000000000000     000000000000000000000000W18         003220000000010001380022211        932629327902BASIC                                   RESTAURATIONS DE BASE                   31          UNIV018400000000033800                                                                                                                                                                                                                                                                                                                                                                                                                                                                                                                                                                                                                                                                                                                                                                                                                                                                                                                        
509202601165000000000022211RESTORATION-PREFABRICATED          RESTAURATION PREFABRIQUEE          65     032200000000000000000000     000000000000000000000000     000000000000000000000000E02         003220000000000000000022211        932629327902BASIC                                   RESTAURATIONS DE BASE                   31          UNIV000000000000033800                                                                                                                                                                                                                                                                                                                                                                                                                                                                                                                                                                                                                                                                                                                                                                                                                                                                                                                        
510202601165000000000023412RESTORATION, TOOTH COLOURED        RESTAURATION, MEME COULEUR DE DENT 73DL   028500000000000000000000     000000000000000000000000     000000000000000000000000E02         002850000000000000000023412        932629327902BASIC                                   RESTAURATIONS DE BASE                   31          UNIV000000000000029800                                                                                                                                                                                                                                                                                                                                                                                                                                                                                                                                                                                                                                                                                                                                                                                                                                                                                                                        
511202601165000000000022211RESTORATION-PREFABRICATED          RESTAURATION PREFABRIQUEE          74     032200000000000000000000     000000000000000000000000     000000000000000000000000E02         003220000000000000000022211        932629327902BASIC                                   RESTAURATIONS DE BASE                   31          UNIV000000000000033800                                                                                                                                                                                                                                                                                                                                                                                                                                                                                                                                                                                                                                                                                                                                                                                                                                                                                                                        
506202601161000001162713401SEALANT, PIT & FISSURE             SCELLANTS PUITS FISSURES           46     008300008300000000008300     000000000000000000000000     000000000000000000000000            000830000000010000830013401        932629327901PREVENTIVE SERVICES                     PREVENTION                              31          UNIV000000000000008700                                                                                                                                                                                                                                                                                                                                                                                                                                                                                                                                                                                                                                                                                                                                                                                                                                                                                                                        
6000015                                                                0024350000100000                                                                                                                                                                                                                                                                                                                                                                                                                                                                                                                                                                                                                                                                                                                                                                                                                                                                                                                                                                                                                                                                                                                                                                                                        
20801992016654GALLAGHER                     RYAN                          RYAN GALLAGHER                208-3929 8TH ST E                                                                                                       SASKATOON                          SKCAN            S7H5M23069554611E                                                                                                                                                                                                                                                                                                                                                                                                                                                                                                                                                                                                                                                                                                                                                                                                                                                                                                                                                                                          
4610218008400142026011620260116E080199201GALLAGHER                     RYAN                          6654SKGPKEMP                          CHRISTIANE                    KEMP                          CHRISTIANE                    19590728F495963      5963     1166635        1000AHYH    GME  3                                                                                                                                                                                                                                                                                                                                                                                                                                                                                                00000000        2Y20270114Y52 HOWELL AVE                                                         SASKATOON                          SKCANADA         S7L3S8   3                                                                                                                                                                                                                                                                                                                            
501202601161000002333323602RESTORATION-BONDED                 RESTAURATION, LIE PAR MORDANCAGE   36     023800023800000000011900     000000000000000000000000     000000000000000000000000            002380001190005001190023602        964829359603MAJOR                                   RESTAURATIONS MAJEURES                  31          UNIV000000000000023800                                                                                                                                                                                                                                                                                                                                                                                                                                                                                                                                                                                                                                                                                                                                                                                                                                                                                                                        
503202601161000002333329301CROWN REMOVAL-15 MIN               COURONNE, ABLATION- 15 MIN         36     015600015600000000012480     000000000000000000000000     000000000000000000000000            001560000312008001248029301        964829359602BASIC                                   RESTAURATIONS DE BASE                   31          UNIV000000000000015600                                                                                                                                                                                                                                                                                                                                                                                                                                                                                                                                                                                                                                                                                                                                                                                                                                                                                                                        
502202601161000001319727211CROWN, PORCELAIN, METAL BASE       COURONNE, PORCELAINE, BASE METAL   36     10580010580000000005290099111045000045000000000022500     000000000000000000000000            015080007540005007540027211        964829359603MAJOR                                   RESTAURATIONS MAJEURES                  31          UNIV000000000000105800                                                                                                                                                                                                                                                                                                                                                                                                                                                                                                                                                                                                                                                                                                                                                                                                                                                                                                                        
6000006                                                                0019020000099780                                                                                                                                                                                                                                                                                                                                                                                                                                                                                                                                                                                                                                                                                                                                                                                                                                                                                                                                                                                                                                                                                                                                                                                                        
20802103012172MUENCH                        TROY                          TROY MUENCH                   205 - 303 WELLMAN LANE                                                                                                  SASKATOON                          SKCAN            S7T0J13069552555E                                                                                                                                                                                                                                                                                                                                                                                                                                                                                                                                                                                                                                                                                                                                                                                                                                                                                                                                                                                          
4610218008398792026011620260116E080210301MUENCH                        TROY                          2172SKGPCHOMETSKY                     WILMA                         CHOMETSKY                     WILMA                         19511006F49344262    344262   658645         1000CAPSS_CD     1                                                                                                                                                                                                                                                                                                                                                                                                                                                                                                00000000        2Y20270116Y830 - 140 MEILICKE RD                                                 SASKATOON                          SKCANADA         S7K7Y5   3                                                                                                                                                                                                                                                                                                                            
501202601161000000000071101EXTRACTION, ERUPTED TOOTH          ABLATION, DENT AYANT FAIT ERUPTION 18     018200018200000000014560     000000000000000000000000     000000000000000000000000            001820000364008001456071101        933339338402BASIC                                   RESTAURATIONS DE BASE                   31          UNIV000000000000018200                                                                                                                                                                                                                                                                                                                                                                                                                                                                                                                                                                                                                                                                                                                                                                                                                                                                                                                        
4610218008398802026011620260116E080210301MUENCH                        TROY                          2172SKGPCHOMETSKY                     WILMA                         CHOMETSKY                     WILMA                         19511006F49344262    344262   658645         1000CAPSS_CD     1                                                                                                                                                                                                                                                                                                                                                                                                                                                                                                00000000        2Y20270116Y830 - 140 MEILICKE RD                                                 SASKATOON                          SKCANADA         S7K7Y5   3                                                                                                                                                                                                                                                                                                                            
501202601161000000000023322RESTORATION, TOOTH COLOURED        RESTAURATION, MEME COULEUR DE DENT 18MO   029100029100000000023280     000000000000000000000000     000000000000000000000000            002910000582008002328023322        933339338402BASIC                                   RESTAURATIONS DE BASE                   31          UNIV000000000000029100                                                                                                                                                                                                                                                                                                                                                                                                                                                                                                                                                                                                                                                                                                                                                                                                                                                                                                                        
6000006                                                                0004730000037840                                                                                                                                                                                                                                                                                                                                                                                                                                                                                                                                                                                                                                                                                                                                                                                                                                                                                                                                                                                                                                                                                                                                                                                                        
20802125016654DOIG                          ANDREW                        ANDREW DOIG                   208-3929 8TH ST E                                                                                                       SASKATOON                          SKCAN            S7H5M23069554611E                                                                                                                                                                                                                                                                                                                                                                                                                                                                                                                                                                                                                                                                                                                                                                                                                                                                                                                                                                                          
4610218008399592026011620260116E080212501DOIG                          ANDREW                        6654SKGPCOLLINS                       DARLA                         COLLINS                       DARLA                         19780819F49344262    344262   1271634        1000AHYH    GME  3                                                                                                                                                                                                                                                                                                                                                                                                                                                                                                00000000        2Y20270114YBOX 266                                                               KENASTON                           SKCANADA         S0G2N0   3                                                                                                                                                                                                                                                                                                                            
501202601161000000000029301CROWN REMOVAL-15 MIN               COURONNE, ABLATION- 15 MIN         36     015600015600000000012480     000000000000000000000000     000000000000000000000000            001560000312008001248029301        933339338402BASIC                                   RESTAURATIONS DE BASE                   31          UNIV000000000000015600                                                                                                                                                                                                                                                                                                                                                                                                                                                                                                                                                                                                                                                                                                                                                                                                                                                                                                                        
503202601161000001273227211CROWN, PORCELAIN, METAL BASE       COURONNE, PORCELAINE, BASE METAL   36     10580010580000000005290099111045000045000000000022500     000000000000000000000000            015080007540005007540027211        933339338403MAJOR                                   RESTAURATIONS MAJEURES                  31          UNIV000000000000105800                                                                                                                                                                                                                                                                                                                                                                                                                                                                                                                                                                                                                                                                                                                                                                                                                                                                                                                        
502202601161000000000023602RESTORATION-BONDED                 RESTAURATION, LIE PAR MORDANCAGE   36     023800023800000000011900     000000000000000000000000     000000000000000000000000            002380001190005001190023602        933339338403MAJOR                                   RESTAURATIONS MAJEURES                  31          UNIV000000000000023800                                                                                                                                                                                                                                                                                                                                                                                                                                                                                                                                                                                                                                                                                                                                                                                                                                                                                                                        
6000006                                                                0019020000099780                                                                                                                                                                                                                                                                                                                                                                                                                                                                                                                                                                                                                                                                                                                                                                                                                                                                                                                                                                                                                                                                                                                                                                                                        
2080212901535MWANG                          BI SHUO                       BI SHUO WANG                  3-807 THATCHER DR E                                                                                                     MOOSE JAW                          SKCAN            S6J0A93069943969E                                                                                                                                                                                                                                                                                                                                                                                                                                                                                                                                                                                                                                                                                                                                                                                                                                                                                                                                                                                          
4610218008400112026011620260116E080212901WANG                          BI SHUO                       535MSKGPARNOTT                        GLENDA                        ARNOTT                        GLENDA                        19591020F49344262    344262   817324         1000CAPSS_CD     1                                                                                                                                                                                                                                                                                                                                                                                                                                                                                                00000000        2Y20270116YPO BOX 1813, STN MAIN                                                 MOOSE JAW                          SKCANADA         S6H7K8   3                                                                                                                                                                                                                                                                                                                            
501202601161000001274612113FLUORIDE TREATMENT, VARNISH        FLUORURE, VERNIS                   00     003300003300000000002640     000000000000000000000000     000000000000000000000000            000330000066008000264012113        933339338401PREVENTIVE SERVICES                     PREVENTION                              31          UNIV000000000000003300                                                                                                                                                                                                                                                                                                                                                                                                                                                                                                                                                                                                                                                                                                                                                                                                                                                                                                                        
503202601161000001275411113SCALING-45 MIN                     DETARTRAGE- 45 MIN                 00     016950016950000000013560     000000000000000000000000     000000000000000000000000            001695000339008001356011113        933339338401PREVENTIVE SERVICES                     PREVENTION                              31          UNIV000000000000016950                                                                                                                                                                                                                                                                                                                                                                                                                                                                                                                                                                                                                                                                                                                                                                                                                                                                                                                        
502202601161000001274511101POLISHING-15 MIN                   PROPHYLAXIE                        00     004400004400000000003520     000000000000000000000000     000000000000000000000000            000440000088008000352011101        933339338401PREVENTIVE SERVICES                     PREVENTION                              31          UNIV000000000000004400                                                                                                                                                                                                                                                                                                                                                                                                                                                                                                                                                                                                                                                                                                                                                                                                                                                                                                                        
4610218008400122026011620260116E080212901WANG                          BI SHUO                       535MSKGPARNOTT                        GLENDA                        ARNOTT                        GLENDA                        19591020F49344262    344262   817324         1000CAPSS_CD     1                                                                                                                                                                                                                                                                                                                                                                                                                                                                                                00000000        2Y20270116YPO BOX 1813, STN MAIN                                                 MOOSE JAW                          SKCANADA         S6H7K8   3                                                                                                                                                                                                                                                                                                                            
501202601161000001270601202EXAM, LIMITED-RECALL               EXAMEN SOMMAIRE RAPPEL             00     004380004380000000003504     000000000000000000000000     000000000000000000000000            000438000087608000350401202        933339338402BASIC                                   RESTAURATIONS DE BASE                   31          UNIV000000000000004380                                                                                                                                                                                                                                                                                                                                                                                                                                                                                                                                                                                                                                                                                                                                                                                                                                                                                                                        
502202601161000001274511101POLISHING-15 MIN                   PROPHYLAXIE                        00     004400004400000000003520     000000000000000000000000     000000000000000000000000            000440000088008000352011101        933339338401PREVENTIVE SERVICES                     PREVENTION                              31          UNIV000000000000004400                                                                                                                                                                                                                                                                                                                                                                                                                                                                                                                                                                                                                                                                                                                                                                                                                                                                                                                        
506202601161000001274612113FLUORIDE TREATMENT, VARNISH        FLUORURE, VERNIS                   00     003300003300000000002640     000000000000000000000000     000000000000000000000000            000330000066008000264012113        933339338401PREVENTIVE SERVICES                     PREVENTION                              31          UNIV000000000000003300                                                                                                                                                                                                                                                                                                                                                                                                                                                                                                                                                                                                                                                                                                                                                                                                                                                                                                                        
504202601161000001268502144X-RAYS, BITEWING-FOUR FILMS        RADIOGRAPHIES INTERPROXIMALES      00     006000004900000000003920     000000000000000000000000     000000000000000000000000W02W12      000600000098008000392002143        933339338402BASIC                                   RESTAURATIONS DE BASE                   31          UNIV000000000000004900                                                                                                                                                                                                                                                                                                                                                                                                                                                                                                                                                                                                                                                                                                                                                                                                                                                                                                                        
505202601165000001268502113X-RAYS, PERIAPICAL-THREE           RADIOGRAPHIES PERIAPICALES         00     004900000000000000000000     000000000000000000000000     000000000000000000000000FV8         000490000000000000000002113        93333     02BASIC                                   RESTAURATIONS DE BASE                   31          UNIV000000000000000000                                                                                                                                                                                                                                                                                                                                                                                                                                                                                                                                                                                                                                                                                                                                                                                                                                                                                                                        
503202601161000001275411113SCALING-45 MIN                     DETARTRAGE- 45 MIN                 00     016950016950000000013560     000000000000000000000000     000000000000000000000000            001695000339008001356011113        933339338401PREVENTIVE SERVICES                     PREVENTION                              31          UNIV000000000000016950                                                                                                                                                                                                                                                                                                                                                                                                                                                                                                                                                                                                                                                                                                                                                                                                                                                                                                                        
6000013                                                                0006458000046864                                                                                                                                                                                                                                                                                                                                                                                                                                                                                                                                                                                                                                                                                                                                                                                                                                                                                                                                                                                                                                                                                                                                                                                                        
2080213601595LJOHN                          TESS                          TESS JOHN                     1B-3850 GREEN FALLS DR                                                                                                  REGINA                             SKCAN            S4V3T63063477441E                                                                                                                                                                                                                                                                                                                                                                                                                                                                                                                                                                                                                                                                                                                                                                                                                                                                                                                                                                                          
4610218008400282026011720260117E080213601JOHN                          TESS                          595LSKGPSCOTT ESTATE OF               AMELIA                        SCOTT ESTATE OF               AMELIA                        19330125F49310138    310138   284081         1000CAPSS_CD     1                                                                                                                                                                                                                                                                                                                                                                                                                                                                                                00000000        2Y20270117Y3624 22ND STREET NW                                                   EDMONTON                           ABCANADA         T6T1S2   3                                                                                                                                                                                                                                                                                                                            
501202601175000000000001202EXAM, LIMITED-RECALL               EXAMEN SOMMAIRE RAPPEL             00     004380000000000000000000     000000000000000000000000     000000000000000000000000C04         0004380000000000000000                                                                                                         31          UNIV000000000000000000                                                                                                                                                                                                                                                                                                                                                                                                                                                                                                                                                                                                                                                                                                                                                                                                                                                                                                                        
504202601175000000000012113FLUORIDE TREATMENT, VARNISH        FLUORURE, VERNIS                   00     003300000000000000000000     000000000000000000000000     000000000000000000000000C04         0003300000000000000000                                                                                                         31          UNIV000000000000000000                                                                                                                                                                                                                                                                                                                                                                                                                                                                                                                                                                                                                                                                                                                                                                                                                                                                                                                        
503202601175000000000011107POLISHING-7 & 1/2 MIN              PROPHYLAXIE                        00     003600000000000000000000     000000000000000000000000     000000000000000000000000C04         0003600000000000000000                                                                                                         31          UNIV000000000000000000                                                                                                                                                                                                                                                                                                                                                                                                                                                                                                                                                                                                                                                                                                                                                                                                                                                                                                                        
502202601175000000000011111SCALING-15 MIN                     DETARTAGE- 15 MIN                  00     005650000000000000000000     000000000000000000000000     000000000000000000000000C04         0005650000000000000000                                                                                                         31          UNIV000000000000000000                                                                                                                                                                                                                                                                                                                                                                                                                                                                                                                                                                                                                                                                                                                                                                                                                                                                                                                        
6000007                                                                0001693000000000                                                                                                                                                                                                                                                                                                                                                                                                                                                                                                                                                                                                                                                                                                                                                                                                                                                                                                                                                                                                                                                                                                                                                                                                        
2080237501254JPATEL                         NEILKET                       NEILKET PATEL                 1709 WINNIPEG ST                                                                                                        REGINA                             SKCAN            S4P1G13062051012E                                                                                                                                                                                                                                                                                                                                                                                                                                                                                                                                                                                                                                                                                                                                                                                                                                                                                                                                                                                          
