0610068ESI Canada          GROUP MEDICAL SERV                                               SK      00000000002026012096220260119                                                        DentPredet/predet current 2017/12/12 11:01                                                                                                                                                                                                                                                                                                                                                                                                                                                                                                                                                                                                                                                                                                                                                                                                                                                                                                                                                                                                                                                            
20801378011387OLSON                         BERNARD                       BERNARD OLSON                 1C-705 CENTRAL AVE                                                                                                      SASKATOON                          SKCAN            S7N3A43069558011E                                                                                                                                                                                                                                                                                                                                                                                                                                                                                                                                                                                                                                                                                                                                                                                                                                                                                                                                                                                          
4610218008402242026011920260119E080137801OLSON                         BERNARD                       1387SKGPSCHMIDT                       KATHERINE                     SCHMIDT                       LYLE                          19550306M495963      5963     667785         1011VNCP         3                                                                                                                                                                                                                                                                                                                                                                                                                                                                                                00000000        2Y20270115Y726 1ST AVE NORTH                                                     WARMAN                             SKCANADA         S0K4S2   3                                                                                                                                                                                                                                                                                                                            
502202601197000002331427201CROWN, PORCELAIN                   COURONNE, PORCELAINE               26     10580010580000000005290099111040000040000000000020000     000000000000000000000000            014580007290005007290027201        964839359603MAJOR                                   RESTAURATIONS MAJEURES                  31          UNIV000000000000105800                                                                                                                                                                                                                                                                                                                                                                                                                                                                                                                                                                                                                                                                                                                                                                                                                                                                                                                        
501202601197000002331442341PERIODONTICS, GINGIVECTOMY         GINGIVECTOMIE                      26     014900014900000000011920     000000000000000000000000     000000000000000000000000            001490000298008001192042341        964839359602BASIC                                   RESTAURATIONS DE BASE                   31          UNIV000000000000014900                                                                                                                                                                                                                                                                                                                                                                                                                                                                                                                                                                                                                                                                                                                                                                                                                                                                                                                        
6000005                                                                0016070000084820                                                                                                                                                                                                                                                                                                                                                                                                                                                                                                                                                                                                                                                                                                                                                                                                                                                                                                                                                                                                                                                                                                                                                                                                        
2080143201342KSLOWENKO                      ROBIN                         ROBIN SLOWENKO                720-800 15TH ST E                                                                                                       PRINCE ALBERT                      SKCAN            S6V8E33067644144E                                                                                                                                                                                                                                                                                                                                                                                                                                                                                                                                                                                                                                                                                                                                                                                                                                                                                                                                                                                          
4610218008401832026011920260119E080143201SLOWENKO                      ROBIN                         342KSKGPMCCALMON                      MONIQUE                       MCCALMON                      MONIQUE                       19590701F49282368    1386860  1056367        1000CAPSS_CD     1                                                                                                                                                                                                                                                                                                                                                                                                                                                                                                00000000        2Y20270119Y488 MAHON DRIVE                                                       PRINCE ALBERT                      SKCANADA         S6V7Z8   3                                                                                                                                                                                                                                                                                                                            
501202601191000001270601202EXAM, LIMITED-RECALL               EXAMEN SOMMAIRE RAPPEL             00     004380004380000000003504     000000000000000000000000     000000000000000000000000            000438000087608000350401202        93333A046E02BASIC                                   RESTAURATIONS DE BASE                   31          UNIV000000000000004380                                                                                                                                                                                                                                                                                                                                                                                                                                                                                                                                                                                                                                                                                                                                                                                                                                                                                                                        
502202601191000001275411114SCALING-1 HOUR                     DETARTRAGE- 1 HEURE                00     022600022600000000018080     000000000000000000000000     000000000000000000000000            002260000452008001808011114        93333A046E01PREVENTIVE SERVICES                     PREVENTION                              31          UNIV000000000000022600                                                                                                                                                                                                                                                                                                                                                                                                                                                                                                                                                                                                                                                                                                                                                                                                                                                                                                                        
505202601191000001268502144X-RAYS, BITEWING-FOUR FILMS        RADIOGRAPHIES INTERPROXIMALES      00     006000006000000000004800     000000000000000000000000     000000000000000000000000            000600000120008000480002144        93333A046E02BASIC                                   RESTAURATIONS DE BASE                   31          UNIV000000000000006000                                                                                                                                                                                                                                                                                                                                                                                                                                                                                                                                                                                                                                                                                                                                                                                                                                                                                                                        
504202601191000001274612113FLUORIDE TREATMENT, VARNISH        FLUORURE, VERNIS                   00     003300003300000000002640     000000000000000000000000     000000000000000000000000            000330000066008000264012113        93333A046E01PREVENTIVE SERVICES                     PREVENTION                              31          UNIV000000000000003300                                                                                                                                                                                                                                                                                                                                                                                                                                                                                                                                                                                                                                                                                                                                                                                                                                                                                                                        
503202601191000001274511101POLISHING-15 MIN                   PROPHYLAXIE                        00     004400004400000000003520     000000000000000000000000     000000000000000000000000            000440000088008000352011101        93333A046E01PREVENTIVE SERVICES                     PREVENTION                              31          UNIV000000000000004400                                                                                                                                                                                                                                                                                                                                                                                                                                                                                                                                                                                                                                                                                                                                                                                                                                                                                                                        
6000008                                                                0004068000032544                                                                                                                                                                                                                                                                                                                                                                                                                                                                                                                                                                                                                                                                                                                                                                                                                                                                                                                                                                                                                                                                                                                                                                                                        
20801670015100KOROL                         STEPHEN                       STEPHEN KOROL                 4-303 STONEBRIDGE BOULEVARD                                                                                             SASKATOON                          SKCAN            S7T0G33062444656E                                                                                                                                                                                                                                                                                                                                                                                                                                                                                                                                                                                                                                                                                                                                                                                                                                                                                                                                                                                          
4610218008403362026011920260119E080167001KOROL                         STEPHEN                       5100SKGPSEIDLE                        SHERRYL                       SEIDLE                        SHERRYL                       19621208F49282368    282368   1202837        1000VNCP         3                                                                                                                                                                                                                                                                                                                                                                                                                                                                                                00000000        2Y20270113Y414 - 3134 11TH STREET W.                                             SASKATOON                          SKCANADA         S7M4A5   3                                                                                                                                                                                                                                                                                                                            
501202601191000001275352301PARTIAL DENTURE-UPPER              PROTHESE PARTIELLE - HAUT          00     06780006780000000004407099111055000020200000000013130     000000000000000000000000W18         012280003080006505720052301        93333A046E03MAJOR                                   RESTAURATIONS MAJEURES                  31          UNIV022620000000067800                                                                                                                                                                                                                                                                                                                                                                                                                                                                                                                                                                                                                                                                                                                                                                                                                                                                                                                        
6000004                                                                0012280000057200                                                                                                                                                                                                                                                                                                                                                                                                                                                                                                                                                                                                                                                                                                                                                                                                                                                                                                                                                                                                                                                                                                                                                                                                        
20801679010860NGUYEN                        DAVID                         DAVID NGUYEN                  4125 ALBERT ST                                                                                                          REGINA                             SKCAN            S4S3R63067578617E                                                                                                                                                                                                                                                                                                                                                                                                                                                                                                                                                                                                                                                                                                                                                                                                                                                                                                                                                                                          
4610218008402732026011920260119E080167901NGUYEN                        DAVID                         0860SKGPCARLSON                       AMBER                         CARLSON                       AMBER                         19571021F49282368    282368   1156631        1000CAPSS_CD     1                                                                                                                                                                                                                                                                                                                                                                                                                                                                                                00000000        2Y20270119Y2824 FRANCIS STREET                                                   REGINA                             SKCANADA         S4N2R5   3                                                                                                                                                                                                                                                                                                                            
501202601191000001270601202EXAM, LIMITED-RECALL               EXAMEN SOMMAIRE RAPPEL             00     004300004300000000003440     000000000000000000000000     000000000000000000000000            000430000086008000344001202        93333A046E02BASIC                                   RESTAURATIONS DE BASE                   31          UNIV000000000000004380                                                                                                                                                                                                                                                                                                                                                                                                                                                                                                                                                                                                                                                                                                                                                                                                                                                                                                                        
502202601191000001268502144X-RAYS, BITEWING-FOUR FILMS        RADIOGRAPHIES INTERPROXIMALES      00     006000006000000000004800     000000000000000000000000     000000000000000000000000            000600000120008000480002144        93333A046E02BASIC                                   RESTAURATIONS DE BASE                   31          UNIV000000000000006000                                                                                                                                                                                                                                                                                                                                                                                                                                                                                                                                                                                                                                                                                                                                                                                                                                                                                                                        
505202601191000001274612113FLUORIDE TREATMENT, VARNISH        FLUORURE, VERNIS                   00     003300003300000000002640     000000000000000000000000     000000000000000000000000            000330000066008000264012113        93333A046E01PREVENTIVE SERVICES                     PREVENTION                              31          UNIV000000000000003300                                                                                                                                                                                                                                                                                                                                                                                                                                                                                                                                                                                                                                                                                                                                                                                                                                                                                                                        
504202601191000001275411112SCALING-30 MIN                     DETARTRAGE- 30 MIN                 00     011300011300000000009040     000000000000000000000000     000000000000000000000000            001130000226008000904011112        93333A046E01PREVENTIVE SERVICES                     PREVENTION                              31          UNIV000000000000011300                                                                                                                                                                                                                                                                                                                                                                                                                                                                                                                                                                                                                                                                                                                                                                                                                                                                                                                        
503202601191000001274511101POLISHING-15 MIN                   PROPHYLAXIE                        00     004400004400000000003520     000000000000000000000000     000000000000000000000000            000440000088008000352011101        93333A046E01PREVENTIVE SERVICES                     PREVENTION                              31          UNIV000000000000004400                                                                                                                                                                                                                                                                                                                                                                                                                                                                                                                                                                                                                                                                                                                                                                                                                                                                                                                        
6000008                                                                0002930000023440                                                                                                                                                                                                                                                                                                                                                                                                                                                                                                                                                                                                                                                                                                                                                                                                                                                                                                                                                                                                                                                                                                                                                                                                        
20801741013736MCCRACKEN                     TRACIE D.                     TRACIE D. MCCRACKEN           13-3710 E EASTGATE DR                                                                                                   REGINA                             SKCAN            S4P2Z43067895057E                                                                                                                                                                                                                                                                                                                                                                                                                                                                                                                                                                                                                                                                                                                                                                                                                                                                                                                                                                                          
4610218008402712026011920260119E080174101MCCRACKEN                     TRACIE D.                     3736SKGPIANNONE                       CHRISTOPHER                   IANNONE                       CHRISTOPHER                   19681016M49310138    310138   290154         1000VNCP         3                                                                                                                                                                                                                                                                                                                                                                                                                                                                                                00000000        2Y20270112Y2151 RETALLACK STREET                                                 REGINA                             SKCANADA         S4T2K5   3                                                                                                                                                                                                                                                                                                                            
501202601191000001372723602RESTORATION-BONDED                 RESTAURATION, LIE PAR MORDANCAGE   25     023800023800000000011900     000000000000000000000000     000000000000000000000000            002380001190005001190023602        933759359703MAJOR                                   RESTAURATIONS MAJEURES                  31          UNIV000000000000023800                                                                                                                                                                                                                                                                                                                                                                                                                                                                                                                                                                                                                                                                                                                                                                                                                                                                                                                        
503202601195000001372727211CROWN, PORCELAIN, METAL BASE       COURONNE, PORCELAINE, BASE METAL   26     10580000000000000000000099111047500000000000000000000     000000000000000000000000FB2         015330000000000000000027211        93375     03MAJOR                                   RESTAURATIONS MAJEURES                  31          UNIV000000000000000000                                                                                                                                                                                                                                                                                                                                                                                                                                                                                                                                                                                                                                                                                                                                                                                                                                                                                                                        
502202601191000001372727211CROWN, PORCELAIN, METAL BASE       COURONNE, PORCELAINE, BASE METAL   25     10580003823200000001911699111047500000000000000000000     000000000000000000000000W51         015330001911605001911627211        933759359703MAJOR                                   RESTAURATIONS MAJEURES                  31          UNIV000000000000105800                                                                                                                                                                                                                                                                                                                                                                                                                                                                                                                                                                                                                                                                                                                                                                                                                                                                                                                        
6000006                                                                0033040000031016                                                                                                                                                                                                                                                                                                                                                                                                                                                                                                                                                                                                                                                                                                                                                                                                                                                                                                                                                                                                                                                                                                                                                                                                        
20801755017317BENNING                       KURT A.                       KURT A. BENNING               CARLYLE DENTAL                          PO BOX 550                                                                      CARLYLE                            SKCAN            S0C0R03064536346E                                                                                                                                                                                                                                                                                                                                                                                                                                                                                                                                                                                                                                                                                                                                                                                                                                                                                                                                                                                          
4610218008402622026011920260119E080175501BENNING                       KURT A.                       7317SKGPFICHTER                       PATRICIA                      FICHTER                       PATRICIA                      19610422F49344262    344262   1182468        1000VNCP         3                                                                                                                                                                                                                                                                                                                                                                                                                                                                                                00000000        2Y20270127YBOX 1053                                                              ESTEVAN                            SKCANADA         S4A2H7   3                                                                                                                                                                                                                                                                                                                            
501202601195000001273227201CROWN, PORCELAIN                   COURONNE, PORCELAINE               27     09580000000000000000000099111055000000000000000000000     000000000000000000000000E02         015080000000000000000027201        933339338403MAJOR                                   RESTAURATIONS MAJEURES                  31          UNIV000000000000105800                                                                                                                                                                                                                                                                                                                                                                                                                                                                                                                                                                                                                                                                                                                                                                                                                                                                                                                        
4610218008402682026011920260119E080175501BENNING                       KURT A.                       7317SKGPHEMPHILL                      RALPH                         HEMPHILL                      NADINE                        19570213F49310138    310138   55243          1011VNCP         3                                                                                                                                                                                                                                                                                                                                                                                                                                                                                                00000000        2Y20270112YBOX 670                            256 BRADY STREET                   STOUGHTON                          SKCANADA         S0G4T0   3                                                                                                                                                                                                                                                                                                                            
501202601191000001372727201CROWN, PORCELAIN                   COURONNE, PORCELAINE               37     10580010580000000005290099111045000034200000000017100     000000000000000000000000W51         015080007000005007000027201        933759359703MAJOR                                   RESTAURATIONS MAJEURES                  31          UNIV000000000000105800                                                                                                                                                                                                                                                                                                                                                                                                                                                                                                                                                                                                                                                                                                                                                                                                                                                                                                                        
6000006                                                                0030160000070000                                                                                                                                                                                                                                                                                                                                                                                                                                                                                                                                                                                                                                                                                                                                                                                                                                                                                                                                                                                                                                                                                                                                                                                                        
20801757014943BAHREY                        BRYCE                         BRYCE BAHREY                  201 1ST AVENUE SOUTH                    401 THE TOWER AT MIDTOWN                                                        SASKATOON                          SKCAN            S7K1J53066643555E                                                                                                                                                                                                                                                                                                                                                                                                                                                                                                                                                                                                                                                                                                                                                                                                                                                                                                                                                                                          
4610218008400812026011920260119E080175701BAHREY                        BRYCE                         4943SKGPDUFOUR-VANDERPLOEG            MICHELE                       DUFOUR-VANDERPLOEG            MICHELE                       19601126F49344262    344262   1270589        1000VNCP         3                                                                                                                                                                                                                                                                                                                                                                                                                                                                                                00000000        2Y20270114Y1151 AVENUE L NORTH                                                   SASKATOON                          SKCANADA         S7L2R9   3                                                                                                                                                                                                                                                                                                                            
501202601197000001273367201RETAINER, PORCELAIN                RETENTEUR, PORCELAINE              35     09130000000000000000000099111036000000000000000000000     000000000000000000000000130         012730000000000000000067201        933339338403MAJOR                                   RESTAURATIONS MAJEURES                  31          UNIV039190000000091300                                                                                                                                                                                                                                                                                                                                                                                                                                                                                                                                                                                                                                                                                                                                                                                                                                                                                                                        
503202601195000001273367201RETAINER, PORCELAIN                RETENTEUR, PORCELAINE              37     09130000000000000000000099111036000000000000000000000     000000000000000000000000130         012730000000000000000067201        933339338403MAJOR                                   RESTAURATIONS MAJEURES                  31          UNIV000000000000091300                                                                                                                                                                                                                                                                                                                                                                                                                                                                                                                                                                                                                                                                                                                                                                                                                                                                                                                        
502202601195000001273462502PONTIC, PORCELAIN                  PONTIQUE, PORCELAINE               36     04780000000000000000000099111036000000000000000000000     000000000000000000000000130         008380000000000000000062502        933339338403MAJOR                                   RESTAURATIONS MAJEURES                  31          UNIV000000000000047800                                                                                                                                                                                                                                                                                                                                                                                                                                                                                                                                                                                                                                                                                                                                                                                                                                                                                                                        
6000006                                                                0033840000000000                                                                                                                                                                                                                                                                                                                                                                                                                                                                                                                                                                                                                                                                                                                                                                                                                                                                                                                                                                                                                                                                                                                                                                                                        
20801929015791KOOB                          ADAM                          ADAM KOOB                     105 - 1526 8TH STREET E                                                                                                 SASKATOON                          SKCAN            S7H0T33063747272E                                                                                                                                                                                                                                                                                                                                                                                                                                                                                                                                                                                                                                                                                                                                                                                                                                                                                                                                                                                          
4610218008402212026011920260119E080192901KOOB                          ADAM                          5791SKGPBLACK                         MEAGAN                        BLACK                         MEAGAN                        19900308F495963      5963     189122         1000VNCP         3                                                                                                                                                                                                                                                                                                                                                                                                                                                                                                00000000        2Y20270115Y8-802 AVE K NORTH                                                     SASKATOON                          SKCANADA         S7L2N1   3                                                                                                                                                                                                                                                                                                                            
502202601195000002331427201CROWN, PORCELAIN                   COURONNE, PORCELAINE               25     10580000000000000000000099111035000000000000000000000     000000000000000000000000135         014080000000000000000027201        96483     03MAJOR                                   RESTAURATIONS MAJEURES                  31          UNIV000000000000000000                                                                                                                                                                                                                                                                                                                                                                                                                                                                                                                                                                                                                                                                                                                                                                                                                                                                                                                        
501202601195000002331423602RESTORATION-BONDED                 RESTAURATION, LIE PAR MORDANCAGE   25     023800000000000000000000     000000000000000000000000     000000000000000000000000G64         002380000000000000000023602        96483     03MAJOR                                   RESTAURATIONS MAJEURES                  31          UNIV000000000000000000                                                                                                                                                                                                                                                                                                                                                                                                                                                                                                                                                                                                                                                                                                                                                                                                                                                                                                                        
6000005                                                                0016460000000000                                                                                                                                                                                                                                                                                                                                                                                                                                                                                                                                                                                                                                                                                                                                                                                                                                                                                                                                                                                                                                                                                                                                                                                                        
2080193101965FHAMILTON                      NATHAN                        NATHAN HAMILTON               60-220 BETTS AVENUE                                                                                                     SASKATOON                          SKCAN            S7M1L23069310000E                                                                                                                                                                                                                                                                                                                                                                                                                                                                                                                                                                                                                                                                                                                                                                                                                                                                                                                                                                                          
4610218008401752026011920260119E080193101HAMILTON                      NATHAN                        965FSKGPPETTIT                        STEPHANIE                     HOUK                          SAMANTHA                      20140313F49344262    344262   1141777        1022CAPSS_CD     1                                                                                                                                                                                                                                                                                                                                                                                                                                                                                                00000000        2Y20270119Y154 BLAKENEY CRESENT                                                  SASKATOON                          SKCANADA         S7L7N4   3                                                                                                                                                                                                                                                                                                                            
501202601191000001270601202EXAM, LIMITED-RECALL               EXAMEN SOMMAIRE RAPPEL             00     004380004380000000003504     000000000000000000000000     000000000000000000000000            000438000087608000350401202        933339338402BASIC                                   RESTAURATIONS DE BASE                   31          UNIV000000000000004380                                                                                                                                                                                                                                                                                                                                                                                                                                                                                                                                                                                                                                                                                                                                                                                                                                                                                                                        
502202601191000001268502113X-RAYS, PERIAPICAL-THREE           RADIOGRAPHIES PERIAPICALES         00     004900004900000000003920     000000000000000000000000     000000000000000000000000            000490000098008000392002113        933339338402BASIC                                   RESTAURATIONS DE BASE                   31          UNIV000000000000004900                                                                                                                                                                                                                                                                                                                                                                                                                                                                                                                                                                                                                                                                                                                                                                                                                                                                                                                        
506202601191000001274612113FLUORIDE TREATMENT, VARNISH        FLUORURE, VERNIS                   00     003300003300000000002640     000000000000000000000000     000000000000000000000000            000330000066008000264012113        933339338401PREVENTIVE SERVICES                     PREVENTION                              31          UNIV000000000000003300                                                                                                                                                                                                                                                                                                                                                                                                                                                                                                                                                                                                                                                                                                                                                                                                                                                                                                                        
504202601191000001274511101POLISHING-15 MIN                   PROPHYLAXIE                        00     004400004400000000003520     000000000000000000000000     000000000000000000000000            000440000088008000352011101        933339338401PREVENTIVE SERVICES                     PREVENTION                              31          UNIV000000000000004400                                                                                                                                                                                                                                                                                                                                                                                                                                                                                                                                                                                                                                                                                                                                                                                                                                                                                                                        
505202601191000001275411114SCALING-1 HOUR                     DETARTRAGE- 1 HEURE                00     022600022600000000018080     000000000000000000000000     000000000000000000000000            002260000452008001808011114        933339338401PREVENTIVE SERVICES                     PREVENTION                              31          UNIV000000000000022600                                                                                                                                                                                                                                                                                                                                                                                                                                                                                                                                                                                                                                                                                                                                                                                                                                                                                                                        
503202601191000001268502144X-RAYS, BITEWING-FOUR FILMS        RADIOGRAPHIES INTERPROXIMALES      00     006000006000000000004800     000000000000000000000000     000000000000000000000000            000600000120008000480002144        933339338402BASIC                                   RESTAURATIONS DE BASE                   31          UNIV000000000000006000                                                                                                                                                                                                                                                                                                                                                                                                                                                                                                                                                                                                                                                                                                                                                                                                                                                                                                                        
4610218008402302026011920260119E080193101HAMILTON                      NATHAN                        965FSKGPLEE                           DONGHOON                      CHUN                          JIHYUN                        19860114F491162303   1162303  1163090        1011VNCP         3                                                                                                                                                                                                                                                                                                                                                                                                                                                                                                00000000        2Y20270115YPO BOX 600                                                            SPIRITWOOD                         SKCANADA         S0J2M0   3                                                                                                                                                                                                                                                                                                                            
501202601191000001273227201CROWN, PORCELAIN                   COURONNE, PORCELAINE               15     10580010580000000005290099111048000048000000000024000     000000000000000000000000            015380007690005007690027201        932629328003MAJOR                                   RESTAURATIONS MAJEURES                  31          UNIV000000000000105800                                                                                                                                                                                                                                                                                                                                                                                                                                                                                                                                                                                                                                                                                                                                                                                                                                                                                                                        
503202601195000001273227201CROWN, PORCELAIN                   COURONNE, PORCELAINE               47     10580000000000000000000099111048000000000000000000000     000000000000000000000000E02         015380000000000000000027201        932629328003MAJOR                                   RESTAURATIONS MAJEURES                  31          UNIV000000000000105800                                                                                                                                                                                                                                                                                                                                                                                                                                                                                                                                                                                                                                                                                                                                                                                                                                                                                                                        
502202601191000001273227201CROWN, PORCELAIN                   COURONNE, PORCELAINE               37     10580010580000000005290099111048000040400000000020200     000000000000000000000000W18         015380007310005007310027201        932629328003MAJOR                                   RESTAURATIONS MAJEURES                  31          UNIV003800000000105800                                                                                                                                                                                                                                                                                                                                                                                                                                                                                                                                                                                                                                                                                                                                                                                                                                                                                                                        
4610218008402482026011920260119E080193101HAMILTON                      NATHAN                        965FSKGPPETTIT                        STEPHANIE                     HOUK                          PAUL                          19840106M49344262    344262   1141777        1011CAPSS_CD     1                                                                                                                                                                                                                                                                                                                                                                                                                                                                                                00000000        2Y20270119Y154 BLAKENEY CRESENT                                                  SASKATOON                          SKCANADA         S7L7N4   3                                                                                                                                                                                                                                                                                                                            
501202601191000001270601202EXAM, LIMITED-RECALL               EXAMEN SOMMAIRE RAPPEL             00     004380004380000000003504     000000000000000000000000     000000000000000000000000            000438000087608000350401202        933339338402BASIC                                   RESTAURATIONS DE BASE                   31          UNIV000000000000004380                                                                                                                                                                                                                                                                                                                                                                                                                                                                                                                                                                                                                                                                                                                                                                                                                                                                                                                        
502202601191000001268502113X-RAYS, PERIAPICAL-THREE           RADIOGRAPHIES PERIAPICALES         00     004900004900000000003920     000000000000000000000000     000000000000000000000000            000490000098008000392002113        933339338402BASIC                                   RESTAURATIONS DE BASE                   31          UNIV000000000000004900                                                                                                                                                                                                                                                                                                                                                                                                                                                                                                                                                                                                                                                                                                                                                                                                                                                                                                                        
506202601191000001274612113FLUORIDE TREATMENT, VARNISH        FLUORURE, VERNIS                   00     003300003300000000002640     000000000000000000000000     000000000000000000000000            000330000066008000264012113        933339338401PREVENTIVE SERVICES                     PREVENTION                              31          UNIV000000000000003300                                                                                                                                                                                                                                                                                                                                                                                                                                                                                                                                                                                                                                                                                                                                                                                                                                                                                                                        
504202601191000001274511101POLISHING-15 MIN                   PROPHYLAXIE                        00     004400004400000000003520     000000000000000000000000     000000000000000000000000            000440000088008000352011101        933339338401PREVENTIVE SERVICES                     PREVENTION                              31          UNIV000000000000004400                                                                                                                                                                                                                                                                                                                                                                                                                                                                                                                                                                                                                                                                                                                                                                                                                                                                                                                        
505202601191000001275411114SCALING-1 HOUR                     DETARTRAGE- 1 HEURE                00     022600022600000000018080     000000000000000000000000     000000000000000000000000            002260000452008001808011114        933339338401PREVENTIVE SERVICES                     PREVENTION                              31          UNIV000000000000022600                                                                                                                                                                                                                                                                                                                                                                                                                                                                                                                                                                                                                                                                                                                                                                                                                                                                                                                        
503202601191000001268502144X-RAYS, BITEWING-FOUR FILMS        RADIOGRAPHIES INTERPROXIMALES      00     006000006000000000004800     000000000000000000000000     000000000000000000000000            000600000120008000480002144        933339338402BASIC                                   RESTAURATIONS DE BASE                   31          UNIV000000000000006000                                                                                                                                                                                                                                                                                                                                                                                                                                                                                                                                                                                                                                                                                                                                                                                                                                                                                                                        
6000020                                                                0055256000222928                                                                                                                                                                                                                                                                                                                                                                                                                                                                                                                                                                                                                                                                                                                                                                                                                                                                                                                                                                                                                                                                                                                                                                                                        
2080199301740AQUATTRINI                     KELLYANA                      KELLYANA QUATTRINI            308-105 21ST STREET EAST                                                                                                SASKATOON                          SKCAN            S7K0B33066651986E                                                                                                                                                                                                                                                                                                                                                                                                                                                                                                                                                                                                                                                                                                                                                                                                                                                                                                                                                                                          
4610218008401192026011920260119E080199301QUATTRINI                     KELLYANA                      740ASKGPKELLY BROWN                   JANICE                        KELLY BROWN                   JANICE                        19540510F49344262    344262   765126         1000CAPSS_CD     1                                                                                                                                                                                                                                                                                                                                                                                                                                                                                                00000000        2Y20270119Y364 BALSAM CRES                                                       SASKATOON                          SKCANADA         S7N2M1   3                                                                                                                                                                                                                                                                                                                            
501202601191000001275411114SCALING-1 HOUR                     DETARTRAGE- 1 HEURE                00     022600022600000000018080     000000000000000000000000     000000000000000000000000            002260000452008001808011114        933339338401PREVENTIVE SERVICES                     PREVENTION                              31          UNIV000000000000022600                                                                                                                                                                                                                                                                                                                                                                                                                                                                                                                                                                                                                                                                                                                                                                                                                                                                                                                        
503202601191000001274612113FLUORIDE TREATMENT, VARNISH        FLUORURE, VERNIS                   00     003300003300000000002640     000000000000000000000000     000000000000000000000000            000330000066008000264012113        933339338401PREVENTIVE SERVICES                     PREVENTION                              31          UNIV000000000000003300                                                                                                                                                                                                                                                                                                                                                                                                                                                                                                                                                                                                                                                                                                                                                                                                                                                                                                                        
502202601191000001274511101POLISHING-15 MIN                   PROPHYLAXIE                        00     004400004400000000003520     000000000000000000000000     000000000000000000000000            000440000088008000352011101        933339338401PREVENTIVE SERVICES                     PREVENTION                              31          UNIV000000000000004400                                                                                                                                                                                                                                                                                                                                                                                                                                                                                                                                                                                                                                                                                                                                                                                                                                                                                                                        
6000006                                                                0003030000024240                                                                                                                                                                                                                                                                                                                                                                                                                                                                                                                                                                                                                                                                                                                                                                                                                                                                                                                                                                                                                                                                                                                                                                                                        
20802011016459SPROAT                        ASHLEY                        ASHLEY SPROAT                 216 1ST AVE W                           BOX 520                                                                         NIPAWIN                            SKCAN            S0E1E03068629166E                                                                                                                                                                                                                                                                                                                                                                                                                                                                                                                                                                                                                                                                                                                                                                                                                                                                                                                                                                                          
4610218008403482026011920260119E080201101SPROAT                        ASHLEY                        6459SKGPDEWAR                         LAURIE                        DEWAR                         LAURIE                        19670426F49344262    344262   1318815        1000VNCP         3                                                                                                                                                                                                                                                                                                                                                                                                                                                                                                00000000        2Y20270113YBOX 2476                                                              NIPAWIN                            SKCANADA         S0E1E0   3                                                                                                                                                                                                                                                                                                                            
502202601191000001273227211CROWN, PORCELAIN, METAL BASE       COURONNE, PORCELAINE, BASE METAL   14     10580010580000000005290099111033500014920000000007460     000000000000000000000000W18         013930006036005006036027211        933339338403MAJOR                                   RESTAURATIONS MAJEURES                  31          UNIV009290000000105800                                                                                                                                                                                                                                                                                                                                                                                                                                                                                                                                                                                                                                                                                                                                                                                                                                                                                                                        
501202601191000000000029301CROWN REMOVAL-15 MIN               COURONNE, ABLATION- 15 MIN         14     015600015600000000012480     000000000000000000000000     000000000000000000000000            001560000312008001248029301        933339338402BASIC                                   RESTAURATIONS DE BASE                   31          UNIV000000000000015600                                                                                                                                                                                                                                                                                                                                                                                                                                                                                                                                                                                                                                                                                                                                                                                                                                                                                                                        
6000005                                                                0015490000072840                                                                                                                                                                                                                                                                                                                                                                                                                                                                                                                                                                                                                                                                                                                                                                                                                                                                                                                                                                                                                                                                                                                                                                                                        
