0610068ESI Canada          GROUP MEDICAL SERV                                               SK      00000000002026012221520260121                                                        DentCexp/dent_cexp current 2023/06/30 10:58                                                                                                                                                                                                                                                                                                                                                                                                                                                                                                                                                                                                                                                                                                                                                                                                                                                                                                                                                                                                                                                                                                                                                                                                                                                                                                                                                                                                                                                                                                                                                                                                                                                                                                                                                                                                                                                                                                                                                                                                                                                                                                                                                                                                                                                                                                                                                                                                                                                                                                                                                                                                                                                                                                                                                                                                                                                                                                                                                                                                                                                                                                                                                                                                                                                                                                                                                                                                                                                                                                                                                                                                                                                                                                                                                                                                                                                                                                                                                                                                                                                                                                                                                                                                                                                                                                                                                                                                                                                                                                             
20801200013697BARKER                        MICHAEL                       MICHAEL BARKER                636 MAIN ST N                                                                                                           MOOSE JAW                          SKCAN            S6H3K43066926438E                                                                                                                                                                                                                                                                                                                                                                                                                                                                                                                                                                                                                                                                                                                                                                                                                                                                                                                                                                                                                                                                                                                                                                                                                                                                                                                                                                                                                                                                                                                                                                                                                                                                                                                                                                                                                                                                                                                                                                                                                                                                                                                                                                                                                                                                                                                                                                                                                                                                                                                                                                                                                                                                                                                                                                                                                                                                                                                                                                                                                                                                                                                                                                                                                                                                                                                                                                                                                                                                                                                                                                                                                                                                                                                                                                                                                                                                                                                                                                                                                                                                                                                                                                                                                                                                                                                                                                                                                                            
461021800840846              2158032026012120260121AE080120001BARKER                        MICHAEL                                           3697SKDX1GP                      00000000  LANDRY                        LEIGH                         LANDRY                        LEIGH                         19640609 49344262    344262   73683          1000CAPSS_CD     1420021350+000000  0017080                                                   00000000                                                                                                                                                                                                                                                                                                                                                                                                                                                                                                                                 021030 HOCHELAGA STREET W                                               MOOSE JAW                          SKCANADA         S6H2H9   NN                                                                                                 00000101A00000127452026012111101                    POLISHING-15 MIN                   PROPHYLAXIE                        00     004400000000004400000000003520     000000000000000000000000     000000000000000000000000                        000440000088008000352011101     000933339338401PREVENTIVE SERVICES                     PREVENTION                              31          UNIV000000000000004400                                                  00000202A00000127542026012111113                    SCALING-45 MIN                     DETARTRAGE- 45 MIN                 00     016950000000016950000000013560     000000000000000000000000     000000000000000000000000                        001695000339008001356011113     000933339338401PREVENTIVE SERVICES                     PREVENTION                              31          UNIV000000000000016950                                                                                                                                                                                                                                                                                                                                                                                                                                                                                                                                                                                                                                                                                                                                                                                                                                                                                                                                                                                                                                                                                                                                                                                                                                                                                                                                                                                                                                                                                                                                                                                                                                                                                                                                                                                                                                                                                                                                                                                                                                                                                                                                                                                                                                                                                                                                                                                                                                                                                                                                                                                                              
6000003                                                                00017080000000000000000000000017080                                                                                                                                                                                                                                                                                                                                                                                                                                                                                                                                                                                                                                                                                                                                                                                                                                                                                                                                                                                                                                                                                                                                                                                                                                                                                                                                                                                                                                                                                                                                                                                                                                                                                                                                                                                                                                                                                                                                                                                                                                                                                                                                                                                                                                                                                                                                                                                                                                                                                                                                                                                                                                                                                                                                                                                                                                                                                                                                                                                                                                                                                                                                                                                                                                                                                                                                                                                                                                                                                                                                                                                                                                                                                                                                                                                                                                                                                                                                                                                                                                                                                                                                                                                                                                                                                                                                                                                                                                                                                                                                                                                                                                       
20801351013592MAH                           DAVID                         DAVID S. MAH                  489 ALBERT ST N                         NORTHGATE MALL UNIT 74/75               DANGSTORP DENTAL                        REGINA                             SKCAN            S4R3C43067752767E                                                                                                                                                                                                                                                                                                                                                                                                                                                                                                                                                                                                                                                                                                                                                                                                                                                                                                                                                                                                                                                                                                                                                                                                                                                                                                                                                                                                                                                                                                                                                                                                                                                                                                                                                                                                                                                                                                                                                                                                                                                                                                                                                                                                                                                                                                                                                                                                                                                                                                                                                                                                                                                                                                                                                                                                                                                                                                                                                                                                                                                                                                                                                                                                                                                                                                                                                                                                                                                                                                                                                                                                                                                                                                                                                                                                                                                                                                                                                                                                                                                                                                                                                                                                                                                                                                                                                                                                                                            
461021800840978              0944952026012120260121AE080135101MAH                           DAVID                                             3592SKDX1GP                      00000000  LOUCKS                        ALBERT                        LOUCKS                        ALBERT                        19570705 495963      5963     57314          1000CAPSS_CD     1420026700+000000  0021360                                                   00000000                                                                                                                                                                                                                                                                                                                                                                                                                                                                                                                                 01BOX 760                                                               PILOT BUTTE                        SKCANADA         S0G3Z0   NN                                                                                                 00000101A00000233332026012123312                    RESTORATION, TOOTH COLOURED        RESTAURATION, MEME COULEUR DE DENT 24DV   026700000000026700000000021360     000000000000000000000000     000000000000000000000000                        002670000534008002136023312     000964829359602BASIC                                   RESTAURATIONS DE BASE                   31          UNIV000000000000026700                                                                                                                                                                                                                                                                                                                                                                                                                                                                                                                                                                                                                                                                                                                                                                                                                                                                                                                                                                                                                                                                                                                                                                                                                                                                                                                                                                                                                                                                                                                                                                                                                                                                                                                                                                                                                                                                                                                                                                                                                                                                                                                                                                                                                                                                                                                                                                                                                                                                                                                                                                                                                                                                                                                                                                                                                                                                                                                                                                                                                                                                                  
6000003                                                                00021360000000000000000000000021360                                                                                                                                                                                                                                                                                                                                                                                                                                                                                                                                                                                                                                                                                                                                                                                                                                                                                                                                                                                                                                                                                                                                                                                                                                                                                                                                                                                                                                                                                                                                                                                                                                                                                                                                                                                                                                                                                                                                                                                                                                                                                                                                                                                                                                                                                                                                                                                                                                                                                                                                                                                                                                                                                                                                                                                                                                                                                                                                                                                                                                                                                                                                                                                                                                                                                                                                                                                                                                                                                                                                                                                                                                                                                                                                                                                                                                                                                                                                                                                                                                                                                                                                                                                                                                                                                                                                                                                                                                                                                                                                                                                                                                       
20801378011387OLSON                         BERNARD                       BERNARD OLSON                 1C-705 CENTRAL AVE                                                                                                      SASKATOON                          SKCAN            S7N3A43069558011E                                                                                                                                                                                                                                                                                                                                                                                                                                                                                                                                                                                                                                                                                                                                                                                                                                                                                                                                                                                                                                                                                                                                                                                                                                                                                                                                                                                                                                                                                                                                                                                                                                                                                                                                                                                                                                                                                                                                                                                                                                                                                                                                                                                                                                                                                                                                                                                                                                                                                                                                                                                                                                                                                                                                                                                                                                                                                                                                                                                                                                                                                                                                                                                                                                                                                                                                                                                                                                                                                                                                                                                                                                                                                                                                                                                                                                                                                                                                                                                                                                                                                                                                                                                                                                                                                                                                                                                                                                            
461021800841003              0499772026012120260121AE080137801OLSON                         BERNARD                                           1387SKDX1GP                      00000000  GULKA-LONGWORTH               SHERYL                        LONGWORTH                     SHANE                         19620704 49344262    344262   1020957        1011CAPSS_CD     1420061600+000000  0049280                                                   00000000                                                                                                                                                                                                                                                                                                                                                                                                                                                                                                                                 021355 KINGSMERE BLVD                                                   SASKATOON                          SKCANADA         S7J5C4   NN                                                                                                 00000101A00000000002026012123312                    RESTORATION, TOOTH COLOURED        RESTAURATION, MEME COULEUR DE DENT 45MO   026700000000026700000000021360     000000000000000000000000     000000000000000000000000                        002670000534008002136023312     000933329329102BASIC                                   RESTAURATIONS DE BASE                   31          UNIV000000000000026700                                                  00000202A00000000002026012123323                    RESTORATION, TOOTH COLOURED        RESTAURATION, MEME COULEUR DE DENT 46MOV  034900000000034900000000027920     000000000000000000000000     000000000000000000000000                        003490000698008002792023323     000933329329102BASIC                                   RESTAURATIONS DE BASE                   31          UNIV000000000000034900                                                                                                                                                                                                                                                                                                                                                                                                                                                                                                                                                                                                                                                                                                                                                                                                                                                                                                                                                                                                                                                                                                                                                                                                                                                                                                                                                                                                                                                                                                                                                                                                                                                                                                                                                                                                                                                                                                                                                                                                                                                                                                                                                                                                                                                                                                                                                                                                                                                                                                                                                                                                              
6000003                                                                00049280000000000000000000000049280                                                                                                                                                                                                                                                                                                                                                                                                                                                                                                                                                                                                                                                                                                                                                                                                                                                                                                                                                                                                                                                                                                                                                                                                                                                                                                                                                                                                                                                                                                                                                                                                                                                                                                                                                                                                                                                                                                                                                                                                                                                                                                                                                                                                                                                                                                                                                                                                                                                                                                                                                                                                                                                                                                                                                                                                                                                                                                                                                                                                                                                                                                                                                                                                                                                                                                                                                                                                                                                                                                                                                                                                                                                                                                                                                                                                                                                                                                                                                                                                                                                                                                                                                                                                                                                                                                                                                                                                                                                                                                                                                                                                                                       
2080140101157KTHOMSON                       WESLEY                        WESLEY THOMSON                880 DIXON AVENUE, SUITE B               BOX 2110                                                                        KAMSACK                            SKCAN            S0A1S03065425115E                                                                                                                                                                                                                                                                                                                                                                                                                                                                                                                                                                                                                                                                                                                                                                                                                                                                                                                                                                                                                                                                                                                                                                                                                                                                                                                                                                                                                                                                                                                                                                                                                                                                                                                                                                                                                                                                                                                                                                                                                                                                                                                                                                                                                                                                                                                                                                                                                                                                                                                                                                                                                                                                                                                                                                                                                                                                                                                                                                                                                                                                                                                                                                                                                                                                                                                                                                                                                                                                                                                                                                                                                                                                                                                                                                                                                                                                                                                                                                                                                                                                                                                                                                                                                                                                                                                                                                                                                                            
461021800841119              0000012026012020260121AE080140101THOMSON                       WESLEY                                            157KSKPT1GP                      00000000  MORGAN                        BRIAN                         MORGAN                        MONICA                        19680315F49282368    282368   227804         1011VNCP    GME  3420038380+000000  0030704                                                   00000000                                                                                                                                                                                                                                                                                                                                                                                                                                                                                                                                 06PO BOX 1572                                                           KAMSACK                            SKCANADA         S0A1S0   NN                                                                                                 00000601A00000127062026011301202                    EXAM, LIMITED-RECALL               EXAMEN SOMMAIRE RAPPEL             00     004380000000004380000000003504     000000000000000000000000     000000000000000000000000                        000438000087608000350401202     00093333A046E02BASIC                                   RESTAURATIONS DE BASE                   31          UNIV000000000000004380                                                  00000202A00000126852026011302144                    X-RAYS, BITEWING-FOUR FILMS        RADIOGRAPHIES INTERPROXIMALES      00     006000000000006000000000004800     000000000000000000000000     000000000000000000000000                        000600000120008000480002144     00093333A046E02BASIC                                   RESTAURATIONS DE BASE                   31          UNIV000000000000006000                                                  00000403A00000127372026011302601                    X-RAY, PANORAMIC                   RADIOGRAPHIE PANORAMIQUE           00     009000000000009000000000007200     000000000000000000000000     000000000000000000000000                        000900000180008000720002601     00093333A046E02BASIC                                   RESTAURATIONS DE BASE                   31          UNIV000000000000009000                                                  00000304A00000127452026011311101                    POLISHING-15 MIN                   PROPHYLAXIE                        00     004400000000004400000000003520     000000000000000000000000     000000000000000000000000                        000440000088008000352011101     00093333A046E01PREVENTIVE SERVICES                     PREVENTION                              31          UNIV000000000000004400                                                  00000105A00000127542026011311112                    SCALING-30 MIN                     DETARTRAGE- 30 MIN                 00     011300000000011300000000009040     000000000000000000000000     000000000000000000000000                        001130000226008000904011112     00093333A046E01PREVENTIVE SERVICES                     PREVENTION                              31          UNIV000000000000011300                                                  00000506A00000127462026011312113                    FLUORIDE TREATMENT, VARNISH        FLUORURE, VERNIS                   00     003300000000003300000000002640     000000000000000000000000     000000000000000000000000                        000330000066008000264012113     00093333A046E01PREVENTIVE SERVICES                     PREVENTION                              31          UNIV000000000000003300                                                                                                                                                                                                                                                                                                                                                                                                                                                                                                                                                                                                                                                                                                                              
6000003                                                                00030704000000000000000000000030704                                                                                                                                                                                                                                                                                                                                                                                                                                                                                                                                                                                                                                                                                                                                                                                                                                                                                                                                                                                                                                                                                                                                                                                                                                                                                                                                                                                                                                                                                                                                                                                                                                                                                                                                                                                                                                                                                                                                                                                                                                                                                                                                                                                                                                                                                                                                                                                                                                                                                                                                                                                                                                                                                                                                                                                                                                                                                                                                                                                                                                                                                                                                                                                                                                                                                                                                                                                                                                                                                                                                                                                                                                                                                                                                                                                                                                                                                                                                                                                                                                                                                                                                                                                                                                                                                                                                                                                                                                                                                                                                                                                                                                       
20801470012087KILDUFF                       BRIAN                         BRIAN KILDUFF                 1-3130 8TH ST E                                                                                                         SASKATOON                          SKCAN            S7H0W23066648737E                                                                                                                                                                                                                                                                                                                                                                                                                                                                                                                                                                                                                                                                                                                                                                                                                                                                                                                                                                                                                                                                                                                                                                                                                                                                                                                                                                                                                                                                                                                                                                                                                                                                                                                                                                                                                                                                                                                                                                                                                                                                                                                                                                                                                                                                                                                                                                                                                                                                                                                                                                                                                                                                                                                                                                                                                                                                                                                                                                                                                                                                                                                                                                                                                                                                                                                                                                                                                                                                                                                                                                                                                                                                                                                                                                                                                                                                                                                                                                                                                                                                                                                                                                                                                                                                                                                                                                                                                                            
461021800841011              0193512026012120260121AE080147001KILDUFF                       BRIAN                                             2087SKDX1GP                      00000000  KOSHINSKY                     VALERIE                       KOSHINSKY                     VALERIE                       19621115F49344262    344262   526145         1000CAPSS_CD     1420034900+000000  0027920                                                   00000000                                                                                                                                                                                                                                                                                                                                                                                                                                                                                                                                 01PO BOX 9                                                              JANSEN                             SKCANADA         S0K2B0   NN                                                                                                 00000101A00000000002026012121223                    RESTORATION, PERMANENT-AMALGAM     RESTAURATION, AMALGAME             26MLV  034900000000034900000000027920     000000000000000000000000     000000000000000000000000                        003490000698008002792021223     000933339338402BASIC                                   RESTAURATIONS DE BASE                   31          UNIV000000000000034900                                                                                                                                                                                                                                                                                                                                                                                                                                                                                                                                                                                                                                                                                                                                                                                                                                                                                                                                                                                                                                                                                                                                                                                                                                                                                                                                                                                                                                                                                                                                                                                                                                                                                                                                                                                                                                                                                                                                                                                                                                                                                                                                                                                                                                                                                                                                                                                                                                                                                                                                                                                                                                                                                                                                                                                                                                                                                                                                                                                                                                                                                  
6000003                                                                00027920000000000000000000000027920                                                                                                                                                                                                                                                                                                                                                                                                                                                                                                                                                                                                                                                                                                                                                                                                                                                                                                                                                                                                                                                                                                                                                                                                                                                                                                                                                                                                                                                                                                                                                                                                                                                                                                                                                                                                                                                                                                                                                                                                                                                                                                                                                                                                                                                                                                                                                                                                                                                                                                                                                                                                                                                                                                                                                                                                                                                                                                                                                                                                                                                                                                                                                                                                                                                                                                                                                                                                                                                                                                                                                                                                                                                                                                                                                                                                                                                                                                                                                                                                                                                                                                                                                                                                                                                                                                                                                                                                                                                                                                                                                                                                                                       
2080149301096GMARTIN                        RONALD                        RONALD MARTIN                 BOX 1546                                                                                                                FORT QU'APPELLE                    SKCAN            S0G1S03063326490E                                                                                                                                                                                                                                                                                                                                                                                                                                                                                                                                                                                                                                                                                                                                                                                                                                                                                                                                                                                                                                                                                                                                                                                                                                                                                                                                                                                                                                                                                                                                                                                                                                                                                                                                                                                                                                                                                                                                                                                                                                                                                                                                                                                                                                                                                                                                                                                                                                                                                                                                                                                                                                                                                                                                                                                                                                                                                                                                                                                                                                                                                                                                                                                                                                                                                                                                                                                                                                                                                                                                                                                                                                                                                                                                                                                                                                                                                                                                                                                                                                                                                                                                                                                                                                                                                                                                                                                                                                            
461021800840652              0000012026012020260121AE080149301MARTIN                        RONALD                                            096GSKDX1GP                      00000000  PAUS                          VICTORIA                      PAUS                          VICTORIA                      19590414 49344262    344262   598239         1000KIML    GME  1420087000+000000  0042760            W83W18W18                              00000000                                                                                                                                                                                                                                                                                                                                                                                                                                                                                                                                 04BOX 805                                                               BALCARRES                          SKCANADA         S0G0C0   NN                                                                                                 00000101A00000000002026012023111                    RESTORATION, TOOTH COLOURED        RESTAURATION, MEME COULEUR DE DENT 41D    016800000000016800000000013440     000000000000000000000000     000000000000000000000000                        001680000336008001344023111     000933339338402BASIC                                   RESTAURATIONS DE BASE                   31          UNIV000000000000017100                                                  00000202A00000000002026012023111                    RESTORATION, TOOTH COLOURED        RESTAURATION, MEME COULEUR DE DENT 43V    016800000000016800000000013440     000000000000000000000000     000000000000000000000000                        001680000336008001344023111     000933339338402BASIC                                   RESTAURATIONS DE BASE                   31          UNIV000000000000017100                                                  00000303A00000000002026012023113                    RESTORATION, TOOTH COLOURED        RESTAURATION, MEME COULEUR DE DENT 33MIV  027200000000019850000000015880     000000000000000000000000     000000000000000000000000            W18         002720000397008001588023113     000933339338402BASIC                                   RESTAURATIONS DE BASE                   31          UNIV005880000000027600                                                  00000404A00000000002026012023312                    RESTORATION, TOOTH COLOURED        RESTAURATION, MEME COULEUR DE DENT 45DV   026200000000000000000000000000     000000000000000000000000     000000000000000000000000            W18         002620000000008000000023312     000933339338402BASIC                                   RESTAURATIONS DE BASE                   31          UNIV020960000000026700                                                                                                                                                                                                                                                                                                                                                                                                                                                                                                                                                                                                                                                                                                                                                                                                                                                                                                                                                                                                                                                                                                                                                                                                                                                                                                                                                                                                                                                                                                                                                                                                                                                                      
461021800840945              0638202026012120260121AE080149301MARTIN                        RONALD                                            096GSKDX1GP                      00000000  BILALLI                       ERONA                         BILALLI                       ERONA                         20010610 491149125   1149125  1233150        1000CAPSS_CD     1420025000+000000  0025000                                                   00000000                                                                                                                                                                                                                                                                                                                                                                                                                                                                                                                                 06335 CENTRAL AVENUE                                                    FORT QU'APPELLE                    SKCANADA         S0G1S0   NN                                                                                                 00000101A00000127062026012101202                    EXAM, LIMITED-RECALL               EXAMEN SOMMAIRE RAPPEL             00     004300000000004300000000004300     000000000000000000000000     000000000000000000000000                        000430000000010000430001202     000932629328002BASIC                                   RESTAURATIONS DE BASE                   31          UNIV000000000000004380                                                  00000202A00000126852026012102112                    X-RAYS, PERIAPICAL-TWO             RADIOGRAPHIES PERIAPICALES         00     003800000000003800000000003800     000000000000000000000000     000000000000000000000000                        000380000000010000380002112     000932629328002BASIC                                   RESTAURATIONS DE BASE                   31          UNIV000000000000003900                                                  00000303A00000126852026012102142                    X-RAYS, BITEWING-TWO FILMS         RADIOGRAPHIES INTERPROXIMALES      00     003800000000003800000000003800     000000000000000000000000     000000000000000000000000                        000380000000010000380002142     000932629328002BASIC                                   RESTAURATIONS DE BASE                   31          UNIV000000000000003900                                                  00000404A00000127452026012111101                    POLISHING-15 MIN                   PROPHYLAXIE                        00     004400000000004400000000004400     000000000000000000000000     000000000000000000000000                        000440000000010000440011101     000932629328001PREVENTIVE SERVICES                     PREVENTION                              31          UNIV000000000000004400                                                  00000505A00000127542026012111111                    SCALING-15 MIN                     DETARTAGE- 15 MIN                  00     005500000000005500000000005500     000000000000000000000000     000000000000000000000000                        000550000000010000550011111     000932629328001PREVENTIVE SERVICES                     PREVENTION                              31          UNIV000000000000005650                                                  00000606A00000127462026012112113                    FLUORIDE TREATMENT, VARNISH        FLUORURE, VERNIS                   00     003200000000003200000000003200     000000000000000000000000     000000000000000000000000                        000320000000010000320012113     000932629328001PREVENTIVE SERVICES                     PREVENTION                              31          UNIV000000000000003300                                                                                                                                                                                                                                                                                                                                                                                                                                                                                                                                                                                                                                                                                                                              
6000004                                                                00067760000000000000000000000067760                                                                                                                                                                                                                                                                                                                                                                                                                                                                                                                                                                                                                                                                                                                                                                                                                                                                                                                                                                                                                                                                                                                                                                                                                                                                                                                                                                                                                                                                                                                                                                                                                                                                                                                                                                                                                                                                                                                                                                                                                                                                                                                                                                                                                                                                                                                                                                                                                                                                                                                                                                                                                                                                                                                                                                                                                                                                                                                                                                                                                                                                                                                                                                                                                                                                                                                                                                                                                                                                                                                                                                                                                                                                                                                                                                                                                                                                                                                                                                                                                                                                                                                                                                                                                                                                                                                                                                                                                                                                                                                                                                                                                                       
20801605016023OLAFSON                       KURT                          KURT OLAFSON                  BOX 1619                                602 BRITTLE STREET                                                              MOOSOMIN                           SKCAN            S0G3N03064353330E                                                                                                                                                                                                                                                                                                                                                                                                                                                                                                                                                                                                                                                                                                                                                                                                                                                                                                                                                                                                                                                                                                                                                                                                                                                                                                                                                                                                                                                                                                                                                                                                                                                                                                                                                                                                                                                                                                                                                                                                                                                                                                                                                                                                                                                                                                                                                                                                                                                                                                                                                                                                                                                                                                                                                                                                                                                                                                                                                                                                                                                                                                                                                                                                                                                                                                                                                                                                                                                                                                                                                                                                                                                                                                                                                                                                                                                                                                                                                                                                                                                                                                                                                                                                                                                                                                                                                                                                                                            
