0610068ESI Canada          GROUP MEDICAL SERV                                               SK      00000000002026011921220260118                                                        DentCexp/dent_cexp current 2023/06/30 10:58                                                                                                                                                                                                                                                                                                                                                                                                                                                                                                                                                                                                                                                                                                                                                                                                                                                                                                                                                                                                                                                                                                                                                                                                                                                                                                                                                                                                                                                                                                                                                                                                                                                                                                                                                                                                                                                                                                                                                                                                                                                                                                                                                                                                                                                                                                                                                                                                                                                                                                                                                                                                                                                                                                                                                                                                                                                                                                                                                                                                                                                                                                                                                                                                                                                                                                                                                                                                                                                                                                                                                                                                                                                                                                                                                                                                                                                                                                                                                                                                                                                                                                                                                                                                                                                                                                                                                                                                                                                                                                             
20649810006325SERAPION                      ANGELA                        ANGELA SERAPION               A1-1700 EGLINTON E                                                                                                      NORTH YORK                         ONCAN            M4A2X44167517116E                                                                                                                                                                                                                                                                                                                                                                                                                                                                                                                                                                                                                                                                                                                                                                                                                                                                                                                                                                                                                                                                                                                                                                                                                                                                                                                                                                                                                                                                                                                                                                                                                                                                                                                                                                                                                                                                                                                                                                                                                                                                                                                                                                                                                                                                                                                                                                                                                                                                                                                                                                                                                                                                                                                                                                                                                                                                                                                                                                                                                                                                                                                                                                                                                                                                                                                                                                                                                                                                                                                                                                                                                                                                                                                                                                                                                                                                                                                                                                                                                                                                                                                                                                                                                                                                                                                                                                                                                                            
461021800839882              0683442026011620260116RE064981000SERAPION                      ANGELA                                            6325ONLT2GP                      00000000                                                              ZHOU                          ZHENG                         19891213F49320221             1045170           0CAPSS_CD     1420028400+000000  0000000009009009   009009009                              00000000                                                                                                                                                                                                                                                                                                                                                                                                                                                                                                                                 03                                                                                                                                   NN                                                                                                 00000101R00000000002026011601202                    EXAM, LIMITED-RECALL               EXAMEN SOMMAIRE RAPPEL             00     004500000000000000000000000000     000000000000000000000000     000000000000000000000000009         009         0004500000000000000000          000                                                                                            00          UNIV000000000000000000                                                  00000302R00000000002026011611101                    POLISHING-15 MIN                   PROPHYLAXIE                        00     003700000000000000000000000000     000000000000000000000000     000000000000000000000000009         009         0003700000000000000000          000                                                                                            00          UNIV000000000000000000                                                  00000203R00000000002026011611113                    SCALING-45 MIN                     DETARTRAGE- 45 MIN                 00     020200000000000000000000000000     000000000000000000000000     000000000000000000000000009         009         0020200000000000000000          000                                                                                            00          UNIV000000000000000000                                                                                                                                                                                                                                                                                                                                                                                                                                                                                                                                                                                                                                                                                                                                                                                                                                                                                                                                                                                                                                                                                                                                                                                                                                                                                                                                                                                                                                                                                                                                                                                                                                                                                                                                                                                                                                                                                                                                                                                                                                                                                                                                          
6000003                                                                00000000000000000000000000000000000                                                                                                                                                                                                                                                                                                                                                                                                                                                                                                                                                                                                                                                                                                                                                                                                                                                                                                                                                                                                                                                                                                                                                                                                                                                                                                                                                                                                                                                                                                                                                                                                                                                                                                                                                                                                                                                                                                                                                                                                                                                                                                                                                                                                                                                                                                                                                                                                                                                                                                                                                                                                                                                                                                                                                                                                                                                                                                                                                                                                                                                                                                                                                                                                                                                                                                                                                                                                                                                                                                                                                                                                                                                                                                                                                                                                                                                                                                                                                                                                                                                                                                                                                                                                                                                                                                                                                                                                                                                                                                                                                                                                                                       
20801304012916KOWBEL                        FRANK                         FRANK KOWBEL                  BOX 2709                                                                                                                MELVILLE                           SKCAN            S0A2P03067285002E                                                                                                                                                                                                                                                                                                                                                                                                                                                                                                                                                                                                                                                                                                                                                                                                                                                                                                                                                                                                                                                                                                                                                                                                                                                                                                                                                                                                                                                                                                                                                                                                                                                                                                                                                                                                                                                                                                                                                                                                                                                                                                                                                                                                                                                                                                                                                                                                                                                                                                                                                                                                                                                                                                                                                                                                                                                                                                                                                                                                                                                                                                                                                                                                                                                                                                                                                                                                                                                                                                                                                                                                                                                                                                                                                                                                                                                                                                                                                                                                                                                                                                                                                                                                                                                                                                                                                                                                                                            
461021800839840              0000012026011420260116AE080130401KOWBEL                        FRANK                                             2916SK   GP                      00000000  SASTAUNIK                     JULI                          SASTAUNIK                     JULI                          19640113F49344262    344262   1185969        1000AHYH    GME  3420043000+000000  0034400                                                   00000000                                                                                                                                                                                                                                                                                                                                                                                                                                                                                                                                 06PO BOX 1793                                                           MELVILLE                           SKCANADA         S0A2P0   NN                                                                                                 00000101A00000127062026010701202                    EXAM, LIMITED-RECALL               EXAMEN SOMMAIRE RAPPEL             00     004300000000004300000000003440     000000000000000000000000     000000000000000000000000                        000430000086008000344001202     000933339338402BASIC                                   RESTAURATIONS DE BASE                   31          UNIV000000000000004380                                                  00000302A00000126852026010702144                    X-RAYS, BITEWING-FOUR FILMS        RADIOGRAPHIES INTERPROXIMALES      00     005800000000005800000000004640     000000000000000000000000     000000000000000000000000                        000580000116008000464002144     000933339338402BASIC                                   RESTAURATIONS DE BASE                   31          UNIV000000000000006000                                                  00000203A00000127372026010702601                    X-RAY, PANORAMIC                   RADIOGRAPHIE PANORAMIQUE           00     008800000000008800000000007040     000000000000000000000000     000000000000000000000000                        000880000176008000704002601     000933339338402BASIC                                   RESTAURATIONS DE BASE                   31          UNIV000000000000009000                                                  00000504A00000127452026010711101                    POLISHING-15 MIN                   PROPHYLAXIE                        00     004400000000004400000000003520     000000000000000000000000     000000000000000000000000                        000440000088008000352011101     000933339338401PREVENTIVE SERVICES                     PREVENTION                              31          UNIV000000000000004400                                                  00000405A00000127542026010711113                    SCALING-45 MIN                     DETARTRAGE- 45 MIN                 00     016500000000016500000000013200     000000000000000000000000     000000000000000000000000                        001650000330008001320011113     000933339338401PREVENTIVE SERVICES                     PREVENTION                              31          UNIV000000000000016950                                                  00000606A00000127462026010712113                    FLUORIDE TREATMENT, VARNISH        FLUORURE, VERNIS                   00     003200000000003200000000002560     000000000000000000000000     000000000000000000000000                        000320000064008000256012113     000933339338401PREVENTIVE SERVICES                     PREVENTION                              31          UNIV000000000000003300                                                                                                                                                                                                                                                                                                                                                                                                                                                                                                                                                                                                                                                                                                                              
461021800839842              0000012026011420260116AE080130401KOWBEL                        FRANK                                             2916SK   GP                      00000000  MADUCK                        JOANNE                        MADUCK                        JOANNE                        19640722F49344262    344262   816040         1000AHYH    GME  3420026200+000000  0000000            I01                                    00000000                                                                                                                                                                                                                                                                                                                                                                                                                                                                                                                                 0125506 RR 2045 RM ORKNEY #244                                          YORKTON                            SKCANADA         S3N4K2   NN                                                                                                 00000101R00000000002025112521212                    RESTORATION, PERMANENT-AMALGAM     RESTAURATION, AMALGAME             24DO   026200000000000000000000000000     000000000000000000000000     000000000000000000000000            I01         0026200000000000000000          00093333     02BASIC                                   RESTAURATIONS DE BASE                   31          UNIV000000000000000000                                                                                                                                                                                                                                                                                                                                                                                                                                                                                                                                                                                                                                                                                                                                                                                                                                                                                                                                                                                                                                                                                                                                                                                                                                                                                                                                                                                                                                                                                                                                                                                                                                                                                                                                                                                                                                                                                                                                                                                                                                                                                                                                                                                                                                                                                                                                                                                                                                                                                                                                                                                                                                                                                                                                                                                                                                                                                                                                                                                                                                                                                  
461021800839951              0000012026011520260116AE080130401KOWBEL                        FRANK                                             2916SK   GP                      00000000  BARRIE                        SANDRA                        YAWNEY                        JERRY                         19640611M49344262    344262   1348067        1011AHYH    GME  3420056500+000000  0045200                                                   00000000                                                                                                                                                                                                                                                                                                                                                                                                                                                                                                                                 04516 DANIEL AVE                     BOX 113                            LEMBERG                            SKCANADA         S0A2B0   NN                                                                                                 00000101A00000127062025111401202                    EXAM, LIMITED-RECALL               EXAMEN SOMMAIRE RAPPEL             00     004300000000004300000000003440     000000000000000000000000     000000000000000000000000                        000430000086008000344001202     000933329329102BASIC                                   RESTAURATIONS DE BASE                   31          UNIV000000000000004300                                                  00000202A00000126852025111402142                    X-RAYS, BITEWING-TWO FILMS         RADIOGRAPHIES INTERPROXIMALES      00     003800000000003800000000003040     000000000000000000000000     000000000000000000000000                        000380000076008000304002142     000933329329102BASIC                                   RESTAURATIONS DE BASE                   31          UNIV000000000000003800                                                  00000403A00000000002025111421221                    RESTORATION, PERMANENT-AMALGAM     RESTAURATION, AMALGAME             37B    021200000000021200000000016960     000000000000000000000000     000000000000000000000000                        002120000424008001696021221     000933329329102BASIC                                   RESTAURATIONS DE BASE                   31          UNIV000000000000021200                                                  00000304A00000000002025111423113                    RESTORATION, TOOTH COLOURED        RESTAURATION, MEME COULEUR DE DENT 22MLI  027200000000027200000000021760     000000000000000000000000     000000000000000000000000                        002720000544008002176023113     000933329329102BASIC                                   RESTAURATIONS DE BASE                   31          UNIV000000000000027200                                                                                                                                                                                                                                                                                                                                                                                                                                                                                                                                                                                                                                                                                                                                                                                                                                                                                                                                                                                                                                                                                                                                                                                                                                                                                                                                                                                                                                                                                                                                                                                                                                                                      
461021800839952              0000012026011520260116AE080130401KOWBEL                        FRANK                                             2916SK   GP                      00000000  MALIUCHENKO                   VITALII                       MALIUCHENKO                   YULIIA                        19790605F49518412    518412   1208987        1011AHYH    GME  3420021200+000000  0007700            W18                                    00000000                                                                                                                                                                                                                                                                                                                                                                                                                                                                                                                                 01217 GROUT STREET                                                      LEMBERG                            SKCANADA         S0A2B0   NN                                                                                                 00000101A00000000002026010223321                    RESTORATION, TOOTH COLOURED        RESTAURATION, MEME COULEUR DE DENT 47O    021200000000007700000000007700     000000000000000000000000     000000000000000000000000            W18         002120000000010000770023321     000873769328202BASIC                                   RESTAURATIONS DE BASE                   31          UNIV013500000000021500                                                                                                                                                                                                                                                                                                                                                                                                                                                                                                                                                                                                                                                                                                                                                                                                                                                                                                                                                                                                                                                                                                                                                                                                                                                                                                                                                                                                                                                                                                                                                                                                                                                                                                                                                                                                                                                                                                                                                                                                                                                                                                                                                                                                                                                                                                                                                                                                                                                                                                                                                                                                                                                                                                                                                                                                                                                                                                                                                                                                                                                                                  
461021800839954              0000012026011520260116AE080130401KOWBEL                        FRANK                                             2916SK   GP                      00000000  FRICK                         GRACE                         FRICK                         GRACE                         19571219F49344262    344262   144703         1000AHYH    GME  3420041000+000000  0032800                                                   00000000                                                                                                                                                                                                                                                                                                                                                                                                                                                                                                                                 06PO BOX 85                                                             DUFF                               SKCANADA         S0A0S0   NN                                                                                                 00000101A00000127062026010601202                    EXAM, LIMITED-RECALL               EXAMEN SOMMAIRE RAPPEL             00     004300000000004300000000003440     000000000000000000000000     000000000000000000000000                        000430000086008000344001202     000933339338402BASIC                                   RESTAURATIONS DE BASE                   31          UNIV000000000000004380                                                  00000202A00000126852026010602142                    X-RAYS, BITEWING-TWO FILMS         RADIOGRAPHIES INTERPROXIMALES      00     003800000000003800000000003040     000000000000000000000000     000000000000000000000000                        000380000076008000304002142     000933339338402BASIC                                   RESTAURATIONS DE BASE                   31          UNIV000000000000003900                                                  00000303A00000127372026010602601                    X-RAY, PANORAMIC                   RADIOGRAPHIE PANORAMIQUE           00     008800000000008800000000007040     000000000000000000000000     000000000000000000000000                        000880000176008000704002601     000933339338402BASIC                                   RESTAURATIONS DE BASE                   31          UNIV000000000000009000                                                  00000504A00000127452026010611101                    POLISHING-15 MIN                   PROPHYLAXIE                        00     004400000000004400000000003520     000000000000000000000000     000000000000000000000000                        000440000088008000352011101     000933339338401PREVENTIVE SERVICES                     PREVENTION                              31          UNIV000000000000004400                                                  00000405A00000127542026010611113                    SCALING-45 MIN                     DETARTRAGE- 45 MIN                 00     016500000000016500000000013200     000000000000000000000000     000000000000000000000000                        001650000330008001320011113     000933339338401PREVENTIVE SERVICES                     PREVENTION                              31          UNIV000000000000016950                                                  00000606A00000127462026010612113                    FLUORIDE TREATMENT, VARNISH        FLUORURE, VERNIS                   00     003200000000003200000000002560     000000000000000000000000     000000000000000000000000                        000320000064008000256012113     000933339338401PREVENTIVE SERVICES                     PREVENTION                              31          UNIV000000000000003300                                                                                                                                                                                                                                                                                                                                                                                                                                                                                                                                                                                                                                                                                                                              
461021800839955              0000012026011520260116AE080130401KOWBEL                        FRANK                                             2916SK   GP                      00000000  MALIUCHENKO                   VITALII                       MALIUCHENKO                   VITALII                       19780803M49518412    518412   1208987        1000AHYH    GME  3420089800+000000  0089800                                                   00000000                                                                                                                                                                                                                                                                                                                                                                                                                                                                                                                                 03217 GROUT STREET                                                      LEMBERG                            SKCANADA         S0A2B0   NN                                                                                                 00000101A00000000002026010223321                    RESTORATION, TOOTH COLOURED        RESTAURATION, MEME COULEUR DE DENT 17O    021200000000021200000000021200     000000000000000000000000     000000000000000000000000                        002120000000010002120023321     000873769328202BASIC                                   RESTAURATIONS DE BASE                   31          UNIV000000000000021500                                                  00000302A00000000002026010223323                    RESTORATION, TOOTH COLOURED        RESTAURATION, MEME COULEUR DE DENT 46MOD  034300000000034300000000034300     000000000000000000000000     000000000000000000000000                        003430000000010003430023323     000873769328202BASIC                                   RESTAURATIONS DE BASE                   31          UNIV000000000000034900                                                  00000203A00000000002026010223323                    RESTORATION, TOOTH COLOURED        RESTAURATION, MEME COULEUR DE DENT 47MOB  034300000000034300000000034300     000000000000000000000000     000000000000000000000000                        003430000000010003430023323     000873769328202BASIC                                   RESTAURATIONS DE BASE                   31          UNIV000000000000034900                                                                                                                                                                                                                                                                                                                                                                                                                                                                                                                                                                                                                                                                                                                                                                                                                                                                                                                                                                                                                                                                                                                                                                                                                                                                                                                                                                                                                                                                                                                                                                                                                                                                                                                                                                                                                                                                                                                                                                                                                                                                                                                                          
6000008                                                                00209900000000000000000000000209900                                                                                                                                                                                                                                                                                                                                                                                                                                                                                                                                                                                                                                                                                                                                                                                                                                                                                                                                                                                                                                                                                                                                                                                                                                                                                                                                                                                                                                                                                                                                                                                                                                                                                                                                                                                                                                                                                                                                                                                                                                                                                                                                                                                                                                                                                                                                                                                                                                                                                                                                                                                                                                                                                                                                                                                                                                                                                                                                                                                                                                                                                                                                                                                                                                                                                                                                                                                                                                                                                                                                                                                                                                                                                                                                                                                                                                                                                                                                                                                                                                                                                                                                                                                                                                                                                                                                                                                                                                                                                                                                                                                                                                       
20801351013592MAH                           DAVID                         DAVID S. MAH                  489 ALBERT ST N                         NORTHGATE MALL UNIT 74/75               DANGSTORP DENTAL                        REGINA                             SKCAN            S4R3C43067752767E                                                                                                                                                                                                                                                                                                                                                                                                                                                                                                                                                                                                                                                                                                                                                                                                                                                                                                                                                                                                                                                                                                                                                                                                                                                                                                                                                                                                                                                                                                                                                                                                                                                                                                                                                                                                                                                                                                                                                                                                                                                                                                                                                                                                                                                                                                                                                                                                                                                                                                                                                                                                                                                                                                                                                                                                                                                                                                                                                                                                                                                                                                                                                                                                                                                                                                                                                                                                                                                                                                                                                                                                                                                                                                                                                                                                                                                                                                                                                                                                                                                                                                                                                                                                                                                                                                                                                                                                                                            
461021800839975              0943562026011620260116AE080135101MAH                           DAVID                                             3592SKDX1GP                      00000000  POVEY                         LANNETTE                      POVEY                         LANNETTE                      19811123 49310138    310138   1007819        1000CAPSS_CD     1420035005+000000  0028004                                                   00000000                                                                                                                                                                                                                                                                                                                                                                                                                                                                                                                                 076234 5TH AVENUE                                                       REGINA                             SKCANADA         S4T0M9   NN                                                                                                 00000101A00000132112026011601202                    EXAM, LIMITED-RECALL               EXAMEN SOMMAIRE RAPPEL             00     004380000000004380000000003504     000000000000000000000000     000000000000000000000000                        000438000087608000350401202     000933759359702BASIC                                   RESTAURATIONS DE BASE                   31          UNIV000000000000004380                                                  00000202A00000132132026011602111                    X-RAY, PERIAPICAL-SINGLE           RADIOGRAPHIE PERIAPICALE           00     002800000000002800000000002240     000000000000000000000000     000000000000000000000000                        000280000056008000224002111     000933759359702BASIC                                   RESTAURATIONS DE BASE                   31          UNIV000000000000002800                                                  00000303A00000132132026011602144                    X-RAYS, BITEWING-FOUR FILMS        RADIOGRAPHIES INTERPROXIMALES      00     006000000000006000000000004800     000000000000000000000000     000000000000000000000000                        000600000120008000480002144     000933759359702BASIC                                   RESTAURATIONS DE BASE                   31          UNIV000000000000006000                                                  00000404A00000131912026011611101                    POLISHING-15 MIN                   PROPHYLAXIE                        00     004400000000004400000000003520     000000000000000000000000     000000000000000000000000                        000440000088008000352011101     000933759359701PREVENTIVE SERVICES                     PREVENTION                              31          UNIV000000000000004400                                                  00000505A00000131892026011611112                    SCALING-30 MIN                     DETARTRAGE- 30 MIN                 00     011300000000011300000000009040     000000000000000000000000     000000000000000000000000                        001130000226008000904011112     000933759359701PREVENTIVE SERVICES                     PREVENTION                              31          UNIV000000000000011300                                                  00000606A00000131892026011611117                    SCALING-7.5 MIN                    DETARTRAGE- 7.5 MIN                00     002825000000002825000000002260     000000000000000000000000     000000000000000000000000                        000282500056508000226011117     000933759359701PREVENTIVE SERVICES                     PREVENTION                              31          UNIV000000000000002825                                                  00000707A00000131932026011612113                    FLUORIDE TREATMENT, VARNISH        FLUORURE, VERNIS                   00     003300000000003300000000002640     000000000000000000000000     000000000000000000000000                        000330000066008000264012113     000933759359701PREVENTIVE SERVICES                     PREVENTION                              31          UNIV000000000000003300                                                                                                                                                                                                                                                          
461021800839976              0943572026011620260116AE080135101MAH                           DAVID                                             3592SKDX1GP                      00000000  POVEY                         LANNETTE                      POVEY                         LANNETTE                      19811123 49310138    310138   1007819        1000CAPSS_CD     1420034900+000000  0027920                                                   00000000                                                                                                                                                                                                                                                                                                                                                                                                                                                                                                                                 016234 5TH AVENUE                                                       REGINA                             SKCANADA         S4T0M9   NN                                                                                                 00000101A00000137272026011623323                    RESTORATION, TOOTH COLOURED        RESTAURATION, MEME COULEUR DE DENT 16ODL  034900000000034900000000027920     000000000000000000000000     000000000000000000000000                        003490000698008002792023323     000933759359702BASIC                                   RESTAURATIONS DE BASE                   31          UNIV000000000000034900                                                                                                                                                                                                                                                                                                                                                                                                                                                                                                                                                                                                                                                                                                                                                                                                                                                                                                                                                                                                                                                                                                                                                                                                                                                                                                                                                                                                                                                                                                                                                                                                                                                                                                                                                                                                                                                                                                                                                                                                                                                                                                                                                                                                                                                                                                                                                                                                                                                                                                                                                                                                                                                                                                                                                                                                                                                                                                                                                                                                                                                                                  
6000004                                                                00055924000000000000000000000055924                                                                                                                                                                                                                                                                                                                                                                                                                                                                                                                                                                                                                                                                                                                                                                                                                                                                                                                                                                                                                                                                                                                                                                                                                                                                                                                                                                                                                                                                                                                                                                                                                                                                                                                                                                                                                                                                                                                                                                                                                                                                                                                                                                                                                                                                                                                                                                                                                                                                                                                                                                                                                                                                                                                                                                                                                                                                                                                                                                                                                                                                                                                                                                                                                                                                                                                                                                                                                                                                                                                                                                                                                                                                                                                                                                                                                                                                                                                                                                                                                                                                                                                                                                                                                                                                                                                                                                                                                                                                                                                                                                                                                                       
20801373014943HAMMER                        MICHAEL                       MICHAEL HAMMER                201 1ST AVENUE SOUTH                    401 THE TOWER AT MIDTOWN                                                        SASKATOON                          SKCAN            S7K1J53066643555E                                                                                                                                                                                                                                                                                                                                                                                                                                                                                                                                                                                                                                                                                                                                                                                                                                                                                                                                                                                                                                                                                                                                                                                                                                                                                                                                                                                                                                                                                                                                                                                                                                                                                                                                                                                                                                                                                                                                                                                                                                                                                                                                                                                                                                                                                                                                                                                                                                                                                                                                                                                                                                                                                                                                                                                                                                                                                                                                                                                                                                                                                                                                                                                                                                                                                                                                                                                                                                                                                                                                                                                                                                                                                                                                                                                                                                                                                                                                                                                                                                                                                                                                                                                                                                                                                                                                                                                                                                            
461021800840000              2554932026011620260116AE080137301HAMMER                        MICHAEL                                           4943SKDX1GP                      00000000  MCCARTY                       SHERRY                        MCCARTY                       SHERRY                        19680229 49344262    344262   1394871        1000CAPSS_CD     1420040730+000000  0032584                                                   00000000                                                                                                                                                                                                                                                                                                                                                                                                                                                                                                                                 05407 3RD AVE EAST                   BOX 1676                           BIGGER                             SKCANADA         S0K0M0   NN                                                                                                 00000101A00000127062026011601202                    EXAM, LIMITED-RECALL               EXAMEN SOMMAIRE RAPPEL             00     004380000000004380000000003504     000000000000000000000000     000000000000000000000000                        000438000087608000350401202     000933329329102BASIC                                   RESTAURATIONS DE BASE                   31          UNIV000000000000004380                                                  00000202A00000126852026011602144                    X-RAYS, BITEWING-FOUR FILMS        RADIOGRAPHIES INTERPROXIMALES      00     006000000000006000000000004800     000000000000000000000000     000000000000000000000000                        000600000120008000480002144     000933329329102BASIC                                   RESTAURATIONS DE BASE                   31          UNIV000000000000006000                                                  00000303A00000127372026011602601                    X-RAY, PANORAMIC                   RADIOGRAPHIE PANORAMIQUE           00     009000000000009000000000007200     000000000000000000000000     000000000000000000000000                        000900000180008000720002601     000933329329102BASIC                                   RESTAURATIONS DE BASE                   31          UNIV000000000000009000                                                  00000404A00000127452026011611101                    POLISHING-15 MIN                   PROPHYLAXIE                        00     004400000000004400000000003520     000000000000000000000000     000000000000000000000000                        000440000088008000352011101     000933329329101PREVENTIVE SERVICES                     PREVENTION                              31          UNIV000000000000004400                                                  00000505A00000127542026011611113                    SCALING-45 MIN                     DETARTRAGE- 45 MIN                 00     016950000000016950000000013560     000000000000000000000000     000000000000000000000000                        001695000339008001356011113     000933329329101PREVENTIVE SERVICES                     PREVENTION                              31          UNIV000000000000016950                                                                                                                                                                                                                                                                                                                                                                                                                                                                                                                                                                                                                                                                                                                                                                                                                                                                                                                                                                                                                                                                                                                                                                                                  
6000003                                                                00032584000000000000000000000032584                                                                                                                                                                                                                                                                                                                                                                                                                                                                                                                                                                                                                                                                                                                                                                                                                                                                                                                                                                                                                                                                                                                                                                                                                                                                                                                                                                                                                                                                                                                                                                                                                                                                                                                                                                                                                                                                                                                                                                                                                                                                                                                                                                                                                                                                                                                                                                                                                                                                                                                                                                                                                                                                                                                                                                                                                                                                                                                                                                                                                                                                                                                                                                                                                                                                                                                                                                                                                                                                                                                                                                                                                                                                                                                                                                                                                                                                                                                                                                                                                                                                                                                                                                                                                                                                                                                                                                                                                                                                                                                                                                                                                                       
20801378011387OLSON                         BERNARD                       BERNARD OLSON                 1C-705 CENTRAL AVE                                                                                                      SASKATOON                          SKCAN            S7N3A43069558011E                                                                                                                                                                                                                                                                                                                                                                                                                                                                                                                                                                                                                                                                                                                                                                                                                                                                                                                                                                                                                                                                                                                                                                                                                                                                                                                                                                                                                                                                                                                                                                                                                                                                                                                                                                                                                                                                                                                                                                                                                                                                                                                                                                                                                                                                                                                                                                                                                                                                                                                                                                                                                                                                                                                                                                                                                                                                                                                                                                                                                                                                                                                                                                                                                                                                                                                                                                                                                                                                                                                                                                                                                                                                                                                                                                                                                                                                                                                                                                                                                                                                                                                                                                                                                                                                                                                                                                                                                                            
461021800839874              0000012026011520260116AE080137801OLSON                         BERNARD                                           1387SKDX1GP                      00000000  MCARTHUR                      JACKY                         BAUML                         BRAD                          19640219M49344262    344262   1140668        1011AHYH    GME  3420035780+000000  0006980            W54W55W55W55                           00000000                                                                                                                                                                                                                                                                                                                                                                                                                                                                                                                                 04254 LAYCOE CRESCENT                                                   SASKATOON                          SKCANADA         S7S1H5   NN                                                                                                 00000101A00000127062026010801202                    EXAM, LIMITED-RECALL               EXAMEN SOMMAIRE RAPPEL             00     004380003870000637000000000510     000000000000000000000000     000000000000000000000000            W54         000051000012708000051001202     000933339338402BASIC                                   RESTAURATIONS DE BASE                   31          UNIV000000000000004380                                                  00000202A00000126852026010802111                    X-RAY, PERIAPICAL-SINGLE           RADIOGRAPHIE PERIAPICALE           00     002800002520000350000000000280     000000000000000000000000     000000000000000000000000            W55         000028000007008000028002111     000933339338402BASIC                                   RESTAURATIONS DE BASE                   31          UNIV000000000000002800                                                  00000303A00000126852026010802144                    X-RAYS, BITEWING-FOUR FILMS        RADIOGRAPHIES INTERPROXIMALES      00     006000002610004238000000003390     000000000000000000000000     000000000000000000000000            W55         000339000084808000339002144     000933339338402BASIC                                   RESTAURATIONS DE BASE                   31          UNIV000000000000006000                                                  00000404A00000127542026010811114                    SCALING-1 HOUR                     DETARTRAGE- 1 HEURE                00     022600019800003500000000002800     000000000000000000000000     000000000000000000000000            W55         000280000070008000280011114     000933339338401PREVENTIVE SERVICES                     PREVENTION                              31          UNIV000000000000022600                                                                                                                                                                                                                                                                                                                                                                                                                                                                                                                                                                                                                                                                                                                                                                                                                                                                                                                                                                                                                                                                                                                                                                                                                                                                                                                                                                                                                                                                                                                                                                                                                                                                      
